{
  "contractName": "Deversi",
  "abi": [
    {
      "constant": true,
      "inputs": [],
      "name": "turnPeriod",
      "outputs": [
        {
          "name": "",
          "type": "uint256"
        }
      ],
      "payable": false,
      "stateMutability": "view",
      "type": "function"
    },
    {
      "constant": true,
      "inputs": [
        {
          "name": "",
          "type": "uint256"
        },
        {
          "name": "",
          "type": "address"
        }
      ],
      "name": "userStatus",
      "outputs": [
        {
          "name": "team",
          "type": "uint8"
        },
        {
          "components": [
            {
              "name": "CAT",
              "type": "uint256"
            },
            {
              "name": "DOG",
              "type": "uint256"
            }
          ],
          "name": "ledger",
          "type": "tuple"
        },
        {
          "name": "isExist",
          "type": "bool"
        }
      ],
      "payable": false,
      "stateMutability": "view",
      "type": "function"
    },
    {
      "constant": true,
      "inputs": [],
      "name": "currentSharePrice",
      "outputs": [
        {
          "name": "",
          "type": "uint256"
        }
      ],
      "payable": false,
      "stateMutability": "view",
      "type": "function"
    },
    {
      "constant": true,
      "inputs": [],
      "name": "baseSharePrice",
      "outputs": [
        {
          "name": "",
          "type": "uint256"
        }
      ],
      "payable": false,
      "stateMutability": "view",
      "type": "function"
    },
    {
      "constant": true,
      "inputs": [],
      "name": "currentFundingStatus",
      "outputs": [
        {
          "name": "CAT",
          "type": "uint256"
        },
        {
          "name": "DOG",
          "type": "uint256"
        }
      ],
      "payable": false,
      "stateMutability": "view",
      "type": "function"
    },
    {
      "constant": true,
      "inputs": [],
      "name": "countingStartedTime",
      "outputs": [
        {
          "name": "",
          "type": "uint256"
        }
      ],
      "payable": false,
      "stateMutability": "view",
      "type": "function"
    },
    {
      "constant": true,
      "inputs": [],
      "name": "sharesPerProposal",
      "outputs": [
        {
          "name": "",
          "type": "uint256"
        }
      ],
      "payable": false,
      "stateMutability": "view",
      "type": "function"
    },
    {
      "constant": true,
      "inputs": [],
      "name": "currentSharePerProposal",
      "outputs": [
        {
          "name": "",
          "type": "uint256"
        }
      ],
      "payable": false,
      "stateMutability": "view",
      "type": "function"
    },
    {
      "constant": true,
      "inputs": [],
      "name": "inGame",
      "outputs": [
        {
          "name": "",
          "type": "bool"
        }
      ],
      "payable": false,
      "stateMutability": "view",
      "type": "function"
    },
    {
      "constant": true,
      "inputs": [],
      "name": "black",
      "outputs": [
        {
          "name": "",
          "type": "uint8"
        }
      ],
      "payable": false,
      "stateMutability": "view",
      "type": "function"
    },
    {
      "constant": true,
      "inputs": [],
      "name": "owner",
      "outputs": [
        {
          "name": "",
          "type": "address"
        }
      ],
      "payable": false,
      "stateMutability": "view",
      "type": "function"
    },
    {
      "constant": true,
      "inputs": [
        {
          "name": "",
          "type": "uint256"
        },
        {
          "name": "",
          "type": "uint256"
        },
        {
          "name": "",
          "type": "address"
        }
      ],
      "name": "proposals",
      "outputs": [
        {
          "name": "vote",
          "type": "uint256"
        },
        {
          "name": "time",
          "type": "uint256"
        },
        {
          "name": "isExist",
          "type": "bool"
        },
        {
          "name": "x",
          "type": "uint256"
        },
        {
          "name": "y",
          "type": "uint256"
        }
      ],
      "payable": false,
      "stateMutability": "view",
      "type": "function"
    },
    {
      "constant": true,
      "inputs": [],
      "name": "size",
      "outputs": [
        {
          "name": "",
          "type": "uint256"
        }
      ],
      "payable": false,
      "stateMutability": "view",
      "type": "function"
    },
    {
      "constant": true,
      "inputs": [],
      "name": "white",
      "outputs": [
        {
          "name": "",
          "type": "uint8"
        }
      ],
      "payable": false,
      "stateMutability": "view",
      "type": "function"
    },
    {
      "constant": true,
      "inputs": [],
      "name": "gameRound",
      "outputs": [
        {
          "name": "",
          "type": "uint256"
        }
      ],
      "payable": false,
      "stateMutability": "view",
      "type": "function"
    },
    {
      "constant": true,
      "inputs": [
        {
          "name": "",
          "type": "uint256"
        },
        {
          "name": "",
          "type": "uint256"
        }
      ],
      "name": "userList",
      "outputs": [
        {
          "name": "",
          "type": "address"
        }
      ],
      "payable": false,
      "stateMutability": "view",
      "type": "function"
    },
    {
      "constant": true,
      "inputs": [],
      "name": "shareGrowthRate",
      "outputs": [
        {
          "name": "",
          "type": "uint256"
        }
      ],
      "payable": false,
      "stateMutability": "view",
      "type": "function"
    },
    {
      "constant": true,
      "inputs": [],
      "name": "currentTeam",
      "outputs": [
        {
          "name": "",
          "type": "uint8"
        }
      ],
      "payable": false,
      "stateMutability": "view",
      "type": "function"
    },
    {
      "constant": true,
      "inputs": [],
      "name": "currentSize",
      "outputs": [
        {
          "name": "",
          "type": "uint256"
        }
      ],
      "payable": false,
      "stateMutability": "view",
      "type": "function"
    },
    {
      "constant": true,
      "inputs": [
        {
          "name": "",
          "type": "uint256"
        },
        {
          "name": "",
          "type": "uint256"
        },
        {
          "name": "",
          "type": "uint256"
        }
      ],
      "name": "proposedAddress",
      "outputs": [
        {
          "name": "",
          "type": "address"
        }
      ],
      "payable": false,
      "stateMutability": "view",
      "type": "function"
    },
    {
      "constant": true,
      "inputs": [],
      "name": "currentTurn",
      "outputs": [
        {
          "name": "",
          "type": "uint256"
        }
      ],
      "payable": false,
      "stateMutability": "view",
      "type": "function"
    },
    {
      "constant": true,
      "inputs": [
        {
          "name": "",
          "type": "uint256"
        },
        {
          "name": "",
          "type": "uint256"
        }
      ],
      "name": "roundPropsedStatus",
      "outputs": [
        {
          "name": "",
          "type": "bool"
        }
      ],
      "payable": false,
      "stateMutability": "view",
      "type": "function"
    },
    {
      "constant": true,
      "inputs": [],
      "name": "currentShareGrowthRate",
      "outputs": [
        {
          "name": "",
          "type": "uint256"
        }
      ],
      "payable": false,
      "stateMutability": "view",
      "type": "function"
    },
    {
      "constant": true,
      "inputs": [
        {
          "name": "",
          "type": "uint256"
        },
        {
          "name": "",
          "type": "uint256"
        },
        {
          "name": "",
          "type": "uint256"
        }
      ],
      "name": "boardStatus",
      "outputs": [
        {
          "name": "",
          "type": "uint8"
        }
      ],
      "payable": false,
      "stateMutability": "view",
      "type": "function"
    },
    {
      "constant": true,
      "inputs": [],
      "name": "fundRaisingPeriod",
      "outputs": [
        {
          "name": "",
          "type": "uint256"
        }
      ],
      "payable": false,
      "stateMutability": "view",
      "type": "function"
    },
    {
      "constant": true,
      "inputs": [],
      "name": "fundRaisingCountingDown",
      "outputs": [
        {
          "name": "",
          "type": "bool"
        }
      ],
      "payable": false,
      "stateMutability": "view",
      "type": "function"
    },
    {
      "inputs": [],
      "payable": false,
      "stateMutability": "nonpayable",
      "type": "constructor"
    },
    {
      "anonymous": false,
      "inputs": [],
      "name": "funded",
      "type": "event"
    },
    {
      "anonymous": false,
      "inputs": [
        {
          "indexed": false,
          "name": "round",
          "type": "uint256"
        },
        {
          "indexed": false,
          "name": "time",
          "type": "uint256"
        }
      ],
      "name": "NewGameStarted",
      "type": "event"
    },
    {
      "anonymous": false,
      "inputs": [
        {
          "indexed": false,
          "name": "round",
          "type": "uint256"
        },
        {
          "indexed": false,
          "name": "time",
          "type": "uint256"
        }
      ],
      "name": "fundRaisingCountdown",
      "type": "event"
    },
    {
      "anonymous": false,
      "inputs": [
        {
          "indexed": true,
          "name": "round",
          "type": "uint256"
        },
        {
          "indexed": false,
          "name": "turn",
          "type": "uint256"
        },
        {
          "indexed": false,
          "name": "time",
          "type": "uint256"
        }
      ],
      "name": "turnStart",
      "type": "event"
    },
    {
      "anonymous": false,
      "inputs": [
        {
          "indexed": true,
          "name": "round",
          "type": "uint256"
        },
        {
          "indexed": false,
          "name": "turn",
          "type": "uint256"
        },
        {
          "indexed": false,
          "name": "proposer",
          "type": "address"
        },
        {
          "indexed": false,
          "name": "x",
          "type": "uint256"
        },
        {
          "indexed": false,
          "name": "y",
          "type": "uint256"
        }
      ],
      "name": "proposed",
      "type": "event"
    },
    {
      "anonymous": false,
      "inputs": [
        {
          "indexed": false,
          "name": "",
          "type": "uint256"
        },
        {
          "indexed": false,
          "name": "clearer",
          "type": "address"
        }
      ],
      "name": "gameCleared",
      "type": "event"
    },
    {
      "anonymous": false,
      "inputs": [
        {
          "indexed": false,
          "name": "round",
          "type": "uint256"
        },
        {
          "indexed": false,
          "name": "turn",
          "type": "uint256"
        },
        {
          "indexed": false,
          "name": "proposer",
          "type": "address"
        },
        {
          "indexed": false,
          "name": "voter",
          "type": "address"
        },
        {
          "indexed": false,
          "name": "shares",
          "type": "uint256"
        }
      ],
      "name": "voted",
      "type": "event"
    },
    {
      "anonymous": false,
      "inputs": [
        {
          "indexed": false,
          "name": "round",
          "type": "uint256"
        },
        {
          "indexed": false,
          "name": "turn",
          "type": "uint256"
        },
        {
          "indexed": false,
          "name": "proposer",
          "type": "address"
        },
        {
          "indexed": false,
          "name": "vote",
          "type": "uint256"
        }
      ],
      "name": "proposalSelected",
      "type": "event"
    },
    {
      "anonymous": false,
      "inputs": [
        {
          "indexed": false,
          "name": "turn",
          "type": "uint256"
        },
        {
          "indexed": false,
          "name": "x",
          "type": "uint256"
        },
        {
          "indexed": false,
          "name": "y",
          "type": "uint256"
        }
      ],
      "name": "flipEvent",
      "type": "event"
    },
    {
      "anonymous": false,
      "inputs": [
        {
          "indexed": false,
          "name": "msg",
          "type": "string"
        },
        {
          "indexed": false,
          "name": "sender",
          "type": "address"
        },
        {
          "indexed": true,
          "name": "round",
          "type": "uint256"
        },
        {
          "indexed": false,
          "name": "time",
          "type": "uint256"
        }
      ],
      "name": "messagePost",
      "type": "event"
    },
    {
      "anonymous": false,
      "inputs": [
        {
          "indexed": false,
          "name": "round",
          "type": "uint256"
        },
        {
          "indexed": false,
          "name": "amount",
          "type": "uint256"
        },
        {
          "indexed": false,
          "name": "receiver",
          "type": "address"
        }
      ],
      "name": "prizeTransfer",
      "type": "event"
    },
    {
      "anonymous": false,
      "inputs": [
        {
          "indexed": false,
          "name": "round",
          "type": "uint256"
        },
        {
          "indexed": false,
          "name": "winner",
          "type": "string"
        }
      ],
      "name": "winnerAnnounce",
      "type": "event"
    },
    {
      "anonymous": false,
      "inputs": [
        {
          "indexed": false,
          "name": "userShare",
          "type": "uint256"
        },
        {
          "indexed": false,
          "name": "winnerShare",
          "type": "uint256"
        },
        {
          "indexed": false,
          "name": "totalFund",
          "type": "uint256"
        }
      ],
      "name": "prizeParam",
      "type": "event"
    },
    {
      "constant": false,
      "inputs": [],
      "name": "startNewGame",
      "outputs": [],
      "payable": false,
      "stateMutability": "nonpayable",
      "type": "function"
    },
    {
      "constant": false,
      "inputs": [
        {
          "name": "teamChoosen",
          "type": "uint8"
        }
      ],
      "name": "funding",
      "outputs": [],
      "payable": true,
      "stateMutability": "payable",
      "type": "function"
    },
    {
      "constant": false,
      "inputs": [
        {
          "name": "message",
          "type": "string"
        }
      ],
      "name": "postMessage",
      "outputs": [],
      "payable": false,
      "stateMutability": "nonpayable",
      "type": "function"
    },
    {
      "constant": false,
      "inputs": [
        {
          "name": "x",
          "type": "uint256"
        },
        {
          "name": "y",
          "type": "uint256"
        }
      ],
      "name": "propose",
      "outputs": [],
      "payable": true,
      "stateMutability": "payable",
      "type": "function"
    },
    {
      "constant": false,
      "inputs": [
        {
          "name": "round",
          "type": "uint256"
        },
        {
          "name": "turn",
          "type": "uint256"
        },
        {
          "name": "proposer",
          "type": "address"
        }
      ],
      "name": "vote",
      "outputs": [],
      "payable": true,
      "stateMutability": "payable",
      "type": "function"
    },
    {
      "constant": false,
      "inputs": [
        {
          "name": "doNotCheck",
          "type": "bool"
        }
      ],
      "name": "updateGame",
      "outputs": [],
      "payable": false,
      "stateMutability": "nonpayable",
      "type": "function"
    },
    {
      "constant": false,
      "inputs": [],
      "name": "checkGameEnd",
      "outputs": [],
      "payable": false,
      "stateMutability": "nonpayable",
      "type": "function"
    },
    {
      "constant": false,
      "inputs": [],
      "name": "clearGame",
      "outputs": [],
      "payable": false,
      "stateMutability": "nonpayable",
      "type": "function"
    },
    {
      "constant": true,
      "inputs": [
        {
          "name": "turn",
          "type": "uint256"
        }
      ],
      "name": "getProposedStatus",
      "outputs": [
        {
          "name": "isProposed",
          "type": "bool"
        }
      ],
      "payable": false,
      "stateMutability": "view",
      "type": "function"
    },
    {
      "constant": true,
      "inputs": [],
      "name": "getBoardStatus",
      "outputs": [
        {
          "name": "",
          "type": "uint8[]"
        }
      ],
      "payable": false,
      "stateMutability": "view",
      "type": "function"
    },
    {
      "constant": true,
      "inputs": [
        {
          "name": "addr",
          "type": "address"
        }
      ],
      "name": "getUserStatus",
      "outputs": [
        {
          "name": "isExist",
          "type": "bool"
        },
        {
          "name": "team",
          "type": "uint8"
        },
        {
          "name": "CAT",
          "type": "uint256"
        },
        {
          "name": "DOG",
          "type": "uint256"
        }
      ],
      "payable": false,
      "stateMutability": "view",
      "type": "function"
    },
    {
      "constant": true,
      "inputs": [],
      "name": "getTeamFundingStatus",
      "outputs": [
        {
          "name": "CAT",
          "type": "uint256"
        },
        {
          "name": "DOG",
          "type": "uint256"
        }
      ],
      "payable": false,
      "stateMutability": "view",
      "type": "function"
    },
    {
      "constant": true,
      "inputs": [
        {
          "name": "round",
          "type": "uint256"
        },
        {
          "name": "turn",
          "type": "uint256"
        },
        {
          "name": "proposer",
          "type": "address"
        }
      ],
      "name": "getProposalStatus",
      "outputs": [
        {
          "name": "vote",
          "type": "uint256"
        },
        {
          "name": "time",
          "type": "uint256"
        },
        {
          "name": "x",
          "type": "uint256"
        },
        {
          "name": "y",
          "type": "uint256"
        }
      ],
      "payable": false,
      "stateMutability": "view",
      "type": "function"
    },
    {
      "constant": false,
      "inputs": [
        {
          "name": "_size",
          "type": "uint256"
        },
        {
          "name": "_fundRaisingPeriod",
          "type": "uint256"
        },
        {
          "name": "_turnPeriod",
          "type": "uint256"
        },
        {
          "name": "_baseSharePrice",
          "type": "uint256"
        },
        {
          "name": "_shareGrowthRate",
          "type": "uint256"
        },
        {
          "name": "_sharesPerProposal",
          "type": "uint256"
        }
      ],
      "name": "configure",
      "outputs": [],
      "payable": false,
      "stateMutability": "nonpayable",
      "type": "function"
    }
  ],
  "bytecode": "0x60806040523480156200001157600080fd5b5033600160006101000a81548173ffffffffffffffffffffffffffffffffffffffff021916908373ffffffffffffffffffffffffffffffffffffffff16021790555060006008819055506000600760006101000a81548160ff021916908315150217905550620000ae60086305265c006302932e0067016345785d8a0000662386f26fc10000600a620000cd640100000000026401000000009004565b620000c7620001c5640100000000026401000000009004565b62000773565b600160009054906101000a900473ffffffffffffffffffffffffffffffffffffffff1673ffffffffffffffffffffffffffffffffffffffff163373ffffffffffffffffffffffffffffffffffffffff1614151562000193576040517f08c379a00000000000000000000000000000000000000000000000000000000081526004018080602001828103825260158152602001807f4f6e6c79206f776e657220697320616c6c6f776564000000000000000000000081525060200191505060405180910390fd5b856000819055508460028190555083600381905550826004819055508160058190555080600681905550505050505050565b60001515600760009054906101000a900460ff16151514151562000251576040517f08c379a00000000000000000000000000000000000000000000000000000000081526004018080602001828103825260108152602001807f67616d6520697320676f696e67206f6e0000000000000000000000000000000081525060200191505060405180910390fd5b6001600854016008819055506000546009819055506000600a81905550600454600b81905550600654600c81905550600554600d81905550600a6006819055506000601060006101000a81548160ff02191690831515021790555060006011819055506000601260006101000a81548160ff02191690836002811115620002d457fe5b02179055506000601260016101000a81548160ff02191690836002811115620002f957fe5b02179055506000601260026101000a81548160ff021916908360028111156200031e57fe5b02179055506000600e600001819055506000600e600101819055506001600760006101000a81548160ff02191690831515021790555060016013600060085481526020019081526020016000206000600160026009548115156200037e57fe5b04038152602001908152602001600020600060016002600954811515620003a157fe5b0403815260200190815260200160002060006101000a81548160ff02191690836005811115620003cd57fe5b0217905550600160136000600854815260200190815260200160002060006002600954811515620003fa57fe5b048152602001908152602001600020600060026009548115156200041a57fe5b04815260200190815260200160002060006101000a81548160ff021916908360058111156200044557fe5b02179055506002601360006008548152602001908152602001600020600060026009548115156200047257fe5b0481526020019081526020016000206000600160026009548115156200049457fe5b0403815260200190815260200160002060006101000a81548160ff02191690836005811115620004c057fe5b02179055506002601360006008548152602001908152602001600020600060016002600954811515620004ef57fe5b04038152602001908152602001600020600060026009548115156200051057fe5b04815260200190815260200160002060006101000a81548160ff021916908360058111156200053b57fe5b021790555060036013600060085481526020019081526020016000206000600160026009548115156200056a57fe5b040181526020019081526020016000206000600160026009548115156200058d57fe5b0403815260200190815260200160002060006101000a81548160ff02191690836005811115620005b957fe5b0217905550600360136000600854815260200190815260200160002060006002600954811515620005e657fe5b04815260200190815260200160002060006002806009548115156200060757fe5b0403815260200190815260200160002060006101000a81548160ff021916908360058111156200063357fe5b021790555060036013600060085481526020019081526020016000206000600160026009548115156200066257fe5b040381526020019081526020016000206000600160026009548115156200068557fe5b0401815260200190815260200160002060006101000a81548160ff02191690836005811115620006b157fe5b021790555060036013600060085481526020019081526020016000206000600280600954811515620006df57fe5b04038152602001908152602001600020600060026009548115156200070057fe5b04815260200190815260200160002060006101000a81548160ff021916908360058111156200072b57fe5b02179055507f1a92f8260fbb9503d4da4de0b7753e04745a81b9a56dafcd9e51a7b828c16c7360085442604051808381526020018281526020019250505060405180910390a1565b614ddd80620007836000396000f3006080604052600436106101ee576000357c0100000000000000000000000000000000000000000000000000000000900463ffffffff16806306b59fb3146101f35780630b89db471461022257806316ab101014610254578063170de0661461027f5780631aca5357146102c457806328a795761461034557806334db3b9c1461037057806337d319ad1461039b57806345077a86146103fa578063482d51e01461042c57806350d915831461044357806358052a0e1461048d5780635874d420146104b85780635b4c9c59146104e35780635de17e671461050d57806365ca0d52146105385780636630f88f146105a4578063794f4fdc1461060d5780637f9fdf4a1461063c5780638b8fd3bd146106535780638da5cb5b1461068c57806393c45f37146106e3578063949d225d1461076e578063a081107414610799578063a5f9b5c2146107d2578063ae2349de146107fd578063b21015f114610874578063ba1652db1461089f578063bda1504b146108d8578063c7f166dc14610903578063da1b661414610983578063deb6128614610a04578063e3254f7d14610a2f578063e75c8bfe14610a7e578063ea0d5dcd14610aa9578063f0c67a8414610b27578063f131a7ae14610b4a578063f8ee700c14610b61578063fc71852a14610bc4578063fffb133a14610bef575b600080fd5b3480156101ff57600080fd5b50610220600480360381019080803515159060200190929190505050610c1e565b005b34801561022e57600080fd5b5061023761100b565b604051808381526020018281526020019250505060405180910390f35b34801561026057600080fd5b50610269611028565b6040518082815260200191505060405180910390f35b34801561028b57600080fd5b506102aa6004803603810190808035906020019092919050505061102e565b604051808215151515815260200191505060405180910390f35b3480156102d057600080fd5b5061030f60048036038101908080359060200190929190803573ffffffffffffffffffffffffffffffffffffffff16906020019092919050505061106b565b6040518084600281111561031f57fe5b60ff16815260200183815260200182151515158152602001935050505060405180910390f35b34801561035157600080fd5b5061035a6110da565b6040518082815260200191505060405180910390f35b34801561037c57600080fd5b506103856110e0565b6040518082815260200191505060405180910390f35b3480156103a757600080fd5b506103f86004803603810190808035906020019092919080359060200190929190803590602001909291908035906020019092919080359060200190929190803590602001909291905050506110e6565b005b34801561040657600080fd5b5061040f6111dd565b604051808381526020018281526020019250505060405180910390f35b34801561043857600080fd5b506104416111ef565b005b61048b6004803603810190808035906020019092919080359060200190929190803573ffffffffffffffffffffffffffffffffffffffff169060200190929190505050611781565b005b34801561049957600080fd5b506104a2611ef0565b6040518082815260200191505060405180910390f35b3480156104c457600080fd5b506104cd611ef6565b6040518082815260200191505060405180910390f35b61050b6004803603810190808035906020019092919080359060200190929190505050611efc565b005b34801561051957600080fd5b5061052261232d565b6040518082815260200191505060405180910390f35b34801561054457600080fd5b5061054d612333565b6040518080602001828103825283818151815260200191508051906020019060200280838360005b83811015610590578082015181840152602081019050610575565b505050509050019250505060405180910390f35b3480156105b057600080fd5b5061060b600480360381019080803590602001908201803590602001908080601f0160208091040260200160405190810160405280939291908181526020018383808284378201915050505050509192919290505050612431565b005b34801561061957600080fd5b5061062261250f565b604051808215151515815260200191505060405180910390f35b34801561064857600080fd5b50610651612522565b005b34801561065f57600080fd5b506106686126aa565b6040518082600281111561067857fe5b60ff16815260200191505060405180910390f35b34801561069857600080fd5b506106a16126bd565b604051808273ffffffffffffffffffffffffffffffffffffffff1673ffffffffffffffffffffffffffffffffffffffff16815260200191505060405180910390f35b3480156106ef57600080fd5b506107386004803603810190808035906020019092919080359060200190929190803573ffffffffffffffffffffffffffffffffffffffff1690602001909291905050506126e3565b60405180868152602001858152602001841515151581526020018381526020018281526020019550505050505060405180910390f35b34801561077a57600080fd5b50610783612740565b6040518082815260200191505060405180910390f35b3480156107a557600080fd5b506107ae612746565b604051808260028111156107be57fe5b60ff16815260200191505060405180910390f35b3480156107de57600080fd5b506107e7612759565b6040518082815260200191505060405180910390f35b34801561080957600080fd5b50610832600480360381019080803590602001909291908035906020019092919050505061275f565b604051808273ffffffffffffffffffffffffffffffffffffffff1673ffffffffffffffffffffffffffffffffffffffff16815260200191505060405180910390f35b34801561088057600080fd5b506108896127ac565b6040518082815260200191505060405180910390f35b3480156108ab57600080fd5b506108b46127b2565b604051808260028111156108c457fe5b60ff16815260200191505060405180910390f35b3480156108e457600080fd5b506108ed6127c5565b6040518082815260200191505060405180910390f35b34801561090f57600080fd5b506109586004803603810190808035906020019092919080359060200190929190803573ffffffffffffffffffffffffffffffffffffffff1690602001909291905050506127cb565b6040518085815260200184815260200183815260200182815260200194505050505060405180910390f35b34801561098f57600080fd5b506109c2600480360381019080803590602001909291908035906020019092919080359060200190929190505050612879565b604051808273ffffffffffffffffffffffffffffffffffffffff1673ffffffffffffffffffffffffffffffffffffffff16815260200191505060405180910390f35b348015610a1057600080fd5b50610a196128d3565b6040518082815260200191505060405180910390f35b348015610a3b57600080fd5b50610a6460048036038101908080359060200190929190803590602001909291905050506128d9565b604051808215151515815260200191505060405180910390f35b348015610a8a57600080fd5b50610a93612908565b6040518082815260200191505060405180910390f35b348015610ab557600080fd5b50610aea600480360381019080803573ffffffffffffffffffffffffffffffffffffffff16906020019092919050505061290e565b6040518085151515158152602001846002811115610b0457fe5b60ff16815260200183815260200182815260200194505050505060405180910390f35b610b48600480360381019080803560ff169060200190929190505050612aa7565b005b348015610b5657600080fd5b50610b5f613192565b005b348015610b6d57600080fd5b50610ba0600480360381019080803590602001909291908035906020019092919080359060200190929190505050613a3b565b60405180826005811115610bb057fe5b60ff16815260200191505060405180910390f35b348015610bd057600080fd5b50610bd9613a77565b6040518082815260200191505060405180910390f35b348015610bfb57600080fd5b50610c04613a7d565b604051808215151515815260200191505060405180910390f35b60008060008060008060006018600060085481526020019081526020016000206000600a5481526020019081526020016000208054905096506018600060085481526020019081526020016000206000600a5481526020019081526020016000206000815481101515610c8d57fe5b9060005260206000200160009054906101000a900473ffffffffffffffffffffffffffffffffffffffff1695506017600060085481526020019081526020016000206000600a54815260200190815260200160002060008773ffffffffffffffffffffffffffffffffffffffff1673ffffffffffffffffffffffffffffffffffffffff168152602001908152602001600020600001549450600193505b86841015610e1f576018600060085481526020019081526020016000206000600a54815260200190815260200160002084815481101515610d6757fe5b9060005260206000200160009054906101000a900473ffffffffffffffffffffffffffffffffffffffff1692506017600060085481526020019081526020016000206000600a54815260200190815260200160002060008473ffffffffffffffffffffffffffffffffffffffff1673ffffffffffffffffffffffffffffffffffffffff16815260200190815260200160002091508482600001541115610e1257829550816000015494505b8380600101945050610d2a565b6017600060085481526020019081526020016000206000600a54815260200190815260200160002060008773ffffffffffffffffffffffffffffffffffffffff1673ffffffffffffffffffffffffffffffffffffffff1681526020019081526020016000209050601260009054906101000a900460ff166002811115610ea157fe5b601260019054906101000a900460ff166002811115610ebc57fe5b1415610f2857600160136000600854815260200190815260200160002060008360030154815260200190815260200160002060008360040154815260200190815260200160002060006101000a81548160ff02191690836005811115610f1e57fe5b0217905550610fc7565b601260009054906101000a900460ff166002811115610f4357fe5b601260029054906101000a900460ff166002811115610f5e57fe5b1415610fc657600260136000600854815260200190815260200160002060008360030154815260200190815260200160002060008360040154815260200190815260200160002060006101000a81548160ff02191690836005811115610fc057fe5b02179055505b5b610fd981600301548260040154613a90565b6001600a600082825401925050819055506001151588151514151561100157611000612522565b5b5050505050505050565b600080600e600001549150600e6001015490508181915091509091565b60035481565b6000601660006008548152602001908152602001600020600083815260200190815260200160002060009054906101000a900460ff169050919050565b6014602052816000526040600020602052806000526040600020600091509150508060000160009054906101000a900460ff16908060010160408051908101604052908160008201548152602001600182015481525050908060030160009054906101000a900460ff16905083565b600b5481565b60045481565b600160009054906101000a900473ffffffffffffffffffffffffffffffffffffffff1673ffffffffffffffffffffffffffffffffffffffff163373ffffffffffffffffffffffffffffffffffffffff161415156111ab576040517f08c379a00000000000000000000000000000000000000000000000000000000081526004018080602001828103825260158152602001807f4f6e6c79206f776e657220697320616c6c6f776564000000000000000000000081525060200191505060405180910390fd5b856000819055508460028190555083600381905550826004819055508160058190555080600681905550505050505050565b600e8060000154908060010154905082565b60001515600760009054906101000a900460ff16151514151561127a576040517f08c379a00000000000000000000000000000000000000000000000000000000081526004018080602001828103825260108152602001807f67616d6520697320676f696e67206f6e0000000000000000000000000000000081525060200191505060405180910390fd5b6001600854016008819055506000546009819055506000600a81905550600454600b81905550600654600c81905550600554600d81905550600a6006819055506000601060006101000a81548160ff02191690831515021790555060006011819055506000601260006101000a81548160ff021916908360028111156112fc57fe5b02179055506000601260016101000a81548160ff0219169083600281111561132057fe5b02179055506000601260026101000a81548160ff0219169083600281111561134457fe5b02179055506000600e600001819055506000600e600101819055506001600760006101000a81548160ff02191690831515021790555060016013600060085481526020019081526020016000206000600160026009548115156113a357fe5b040381526020019081526020016000206000600160026009548115156113c557fe5b0403815260200190815260200160002060006101000a81548160ff021916908360058111156113f057fe5b021790555060016013600060085481526020019081526020016000206000600260095481151561141c57fe5b0481526020019081526020016000206000600260095481151561143b57fe5b04815260200190815260200160002060006101000a81548160ff0219169083600581111561146557fe5b021790555060026013600060085481526020019081526020016000206000600260095481151561149157fe5b0481526020019081526020016000206000600160026009548115156114b257fe5b0403815260200190815260200160002060006101000a81548160ff021916908360058111156114dd57fe5b0217905550600260136000600854815260200190815260200160002060006001600260095481151561150b57fe5b040381526020019081526020016000206000600260095481151561152b57fe5b04815260200190815260200160002060006101000a81548160ff0219169083600581111561155557fe5b0217905550600360136000600854815260200190815260200160002060006001600260095481151561158357fe5b040181526020019081526020016000206000600160026009548115156115a557fe5b0403815260200190815260200160002060006101000a81548160ff021916908360058111156115d057fe5b02179055506003601360006008548152602001908152602001600020600060026009548115156115fc57fe5b048152602001908152602001600020600060028060095481151561161c57fe5b0403815260200190815260200160002060006101000a81548160ff0219169083600581111561164757fe5b0217905550600360136000600854815260200190815260200160002060006001600260095481151561167557fe5b0403815260200190815260200160002060006001600260095481151561169757fe5b0401815260200190815260200160002060006101000a81548160ff021916908360058111156116c257fe5b0217905550600360136000600854815260200190815260200160002060006002806009548115156116ef57fe5b040381526020019081526020016000206000600260095481151561170f57fe5b04815260200190815260200160002060006101000a81548160ff0219169083600581111561173957fe5b02179055507f1a92f8260fbb9503d4da4de0b7753e04745a81b9a56dafcd9e51a7b828c16c7360085442604051808381526020018281526020019250505060405180910390a1565b60008060008060011515600760009054906101000a900460ff161515141515611812576040517f08c379a00000000000000000000000000000000000000000000000000000000081526004018080602001828103825260128152602001807f4e6f7420696e2067616d6520706572696f64000000000000000000000000000081525060200191505060405180910390fd5b8660085414151561188b576040517f08c379a00000000000000000000000000000000000000000000000000000000081526004018080602001828103825260148152602001807f6e6f7420696e2063757272656e7420726f756e6400000000000000000000000081525060200191505060405180910390fd5b6000600a54111515611905576040517f08c379a000000000000000000000000000000000000000000000000000000000815260040180806020018281038252600f8152602001807f6e6f74207965742073746172746564000000000000000000000000000000000081525060200191505060405180910390fd5b600a548614151561197e576040517f08c379a00000000000000000000000000000000000000000000000000000000081526004018080602001828103825260138152602001807f4e6f7420696e2063757272656e74207475726e0000000000000000000000000081525060200191505060405180910390fd5b600254601154019350600354600a5402840192506003548303915082421080156119a85750814210155b1515611a1c576040517f08c379a00000000000000000000000000000000000000000000000000000000081526004018080602001828103825260138152602001807f6e6f7420696e20726f756e6420706572696f640000000000000000000000000081525060200191505060405180910390fd5b60176000888152602001908152602001600020600087815260200190815260200160002060008673ffffffffffffffffffffffffffffffffffffffff1673ffffffffffffffffffffffffffffffffffffffff16815260200190815260200160002060020160009054906101000a900460ff1615611e7957600b5434811515611aa057fe5b0490508060176000898152602001908152602001600020600088815260200190815260200160002060008773ffffffffffffffffffffffffffffffffffffffff1673ffffffffffffffffffffffffffffffffffffffff168152602001908152602001600020600001600082825401925050819055506001151560146000600854815260200190815260200160002060003373ffffffffffffffffffffffffffffffffffffffff1673ffffffffffffffffffffffffffffffffffffffff16815260200190815260200160002060030160009054906101000a900460ff161515141515611c6d576015600060085481526020019081526020016000203390806001815401808255809150509060018203906000526020600020016000909192909190916101000a81548173ffffffffffffffffffffffffffffffffffffffff021916908373ffffffffffffffffffffffffffffffffffffffff16021790555050600160146000600854815260200190815260200160002060003373ffffffffffffffffffffffffffffffffffffffff1673ffffffffffffffffffffffffffffffffffffffff16815260200190815260200160002060030160006101000a81548160ff0219169083151502179055505b600280811115611c7957fe5b601260009054906101000a900460ff166002811115611c9457fe5b1415611d18578060146000600854815260200190815260200160002060003373ffffffffffffffffffffffffffffffffffffffff1673ffffffffffffffffffffffffffffffffffffffff1681526020019081526020016000206001016000016000828254019250508190555080600e60000160008282540192505081905550611dc1565b60016002811115611d2557fe5b601260009054906101000a900460ff166002811115611d4057fe5b1415611dc0578060146000600854815260200190815260200160002060003373ffffffffffffffffffffffffffffffffffffffff1673ffffffffffffffffffffffffffffffffffffffff1681526020019081526020016000206001016001016000828254019250508190555080600e600101600082825401925050819055505b5b7fd385cfb87eeb4ff7958bbec45d17d99a4b1bcdf1237c6257b96cdce3177f3c1c600854600a54873385604051808681526020018581526020018473ffffffffffffffffffffffffffffffffffffffff1673ffffffffffffffffffffffffffffffffffffffff1681526020018373ffffffffffffffffffffffffffffffffffffffff1673ffffffffffffffffffffffffffffffffffffffff1681526020018281526020019550505050505060405180910390a1611ee7565b6040517f08c379a00000000000000000000000000000000000000000000000000000000081526004018080602001828103825260128152602001807f70726f706f73616c206e6f74206578697374000000000000000000000000000081525060200191505060405180910390fd5b50505050505050565b60115481565b60065481565b60008060008060011515600760009054906101000a900460ff161515141515611f8d576040517f08c379a00000000000000000000000000000000000000000000000000000000081526004018080602001828103825260128152602001807f4e6f7420696e2067616d6520706572696f64000000000000000000000000000081525060200191505060405180910390fd5b60025460115401935060011515601060009054906101000a900460ff161515148015611fb857508342115b151561202c576040517f08c379a000000000000000000000000000000000000000000000000000000000815260040180806020018281038252600f8152602001807f6e6f74207965742073746172746564000000000000000000000000000000000081525060200191505060405180910390fd5b6000600a54141561217e576001600a60008282540192505081905550600e60010154600e600001541015156120cc576002601260006101000a81548160ff0219169083600281111561207a57fe5b02179055506002601260016101000a81548160ff0219169083600281111561209e57fe5b02179055506001601260026101000a81548160ff021916908360028111156120c257fe5b0217905550612139565b6001601260006101000a81548160ff021916908360028111156120eb57fe5b02179055506001601260016101000a81548160ff0219169083600281111561210f57fe5b02179055506002601260026101000a81548160ff0219169083600281111561213357fe5b02179055505b6008547fa74e8fdd0d1b2a47375925ad4caffed137ae7d87fbae14898bfae105c8c1a39f600a5442604051808381526020018281526020019250505060405180910390a25b600354600a540284019250600354830391508242111561230557600115156016600060085481526020019081526020016000206000600a54815260200190815260200160002060009054906101000a900460ff16151514151561226f576040517f08c379a00000000000000000000000000000000000000000000000000000000081526004018080602001828103825260398152602001807f47616d652073686f756c6420626520636c65617265642062656361757365207081526020017f726576696f7573207475726e2069736e277420706c617965640000000000000081525060400191505060405180910390fd5b60035483019050804211156122ec576040517f08c379a00000000000000000000000000000000000000000000000000000000081526004018080602001828103825260098152602001807f47616d65206f766572000000000000000000000000000000000000000000000081525060200191505060405180910390fd5b6122f66000610c1e565b6123008686613c5f565b612325565b82421080156123145750814210155b15612324576123238686613c5f565b5b5b505050505050565b600c5481565b6060806000806009546009540260405190808252806020026020018201604052801561236e5781602001602082028038833980820191505090505b509250600091505b60095482101561242857600090505b60095481101561241b576013600060085481526020019081526020016000206000838152602001908152602001600020600082815260200190815260200160002060009054906101000a900460ff1683826009548502018151811015156123e857fe5b9060200190602002019060058111156123fd57fe5b9081600581111561240a57fe5b815250508080600101915050612385565b8180600101925050612376565b82935050505090565b6008547fc0ab64a6e46b12f99e6c2bfe5ade59e09162c91559e4e832d89ab58fdd849b3e82334260405180806020018473ffffffffffffffffffffffffffffffffffffffff1673ffffffffffffffffffffffffffffffffffffffff168152602001838152602001828103825285818151815260200191508051906020019080838360005b838110156124d05780820151818401526020810190506124b5565b50505050905090810190601f1680156124fd5780820380516001836020036101000a031916815260200191505b5094505050505060405180910390a250565b600760009054906101000a900460ff1681565b600080600060011515600760009054906101000a900460ff1615151415156125b2576040517f08c379a00000000000000000000000000000000000000000000000000000000081526004018080602001828103825260128152602001807f4e6f7420696e2067616d6520706572696f64000000000000000000000000000081525060200191505060405180910390fd5b601260019054906101000a900460ff1660028111156125cd57fe5b601260009054906101000a900460ff1660028111156125e857fe5b14156125fb576002925060019150612641565b601260029054906101000a900460ff16600281111561261657fe5b601260009054906101000a900460ff16600281111561263157fe5b14156126405760019250600291505b5b61264b838361456d565b905060028081111561265957fe5b601260009054906101000a900460ff16600281111561267457fe5b14612680576002612683565b60015b601260006101000a81548160ff021916908360028111156126a057fe5b0217905550505050565b601260019054906101000a900460ff1681565b600160009054906101000a900473ffffffffffffffffffffffffffffffffffffffff1681565b601760205282600052604060002060205281600052604060002060205280600052604060002060009250925050508060000154908060010154908060020160009054906101000a900460ff16908060030154908060040154905085565b60005481565b601260029054906101000a900460ff1681565b60085481565b60156020528160005260406000208181548110151561277a57fe5b906000526020600020016000915091509054906101000a900473ffffffffffffffffffffffffffffffffffffffff1681565b60055481565b601260009054906101000a900460ff1681565b60095481565b600080600080600060176000898152602001908152602001600020600088815260200190815260200160002060008773ffffffffffffffffffffffffffffffffffffffff1673ffffffffffffffffffffffffffffffffffffffff16815260200190815260200160002090508060020160009054906101000a900460ff161561286e578060000154816001015482600301548360040154945094509450945061286f565b5b5093509350935093565b6018602052826000526040600020602052816000526040600020818154811015156128a057fe5b90600052602060002001600092509250509054906101000a900473ffffffffffffffffffffffffffffffffffffffff1681565b600a5481565b60166020528160005260406000206020528060005260406000206000915091509054906101000a900460ff1681565b600d5481565b60008060008060146000600854815260200190815260200160002060008673ffffffffffffffffffffffffffffffffffffffff1673ffffffffffffffffffffffffffffffffffffffff16815260200190815260200160002060030160009054906101000a900460ff16935060146000600854815260200190815260200160002060008673ffffffffffffffffffffffffffffffffffffffff1673ffffffffffffffffffffffffffffffffffffffff16815260200190815260200160002060000160009054906101000a900460ff16925060146000600854815260200190815260200160002060008673ffffffffffffffffffffffffffffffffffffffff1673ffffffffffffffffffffffffffffffffffffffff16815260200190815260200160002060010160000154915060146000600854815260200190815260200160002060008673ffffffffffffffffffffffffffffffffffffffff1673ffffffffffffffffffffffffffffffffffffffff1681526020019081526020016000206001016001015490508383838393509350935093509193509193565b600060011515600760009054906101000a900460ff161515141515612b34576040517f08c379a00000000000000000000000000000000000000000000000000000000081526004018080602001828103825260128152602001807f4e6f7420696e2067616d6520706572696f64000000000000000000000000000081525060200191505060405180910390fd5b6000600a54141515612bd4576040517f08c379a00000000000000000000000000000000000000000000000000000000081526004018080602001828103825260218152602001807f66756e64696e67206973206f6e6c7920616c6c6f776564206174207475726e2081526020017f300000000000000000000000000000000000000000000000000000000000000081525060400191505060405180910390fd5b600034111515612c4c576040517f08c379a000000000000000000000000000000000000000000000000000000000815260040180806020018281038252600e8152602001807f46756e647320726571756972656400000000000000000000000000000000000081525060200191505060405180910390fd5b601060009054906101000a900460ff1615612ce057600254601154014211151515612cdf576040517f08c379a000000000000000000000000000000000000000000000000000000000815260040180806020018281038252600f8152602001807f66756e64696e67206973206f766572000000000000000000000000000000000081525060200191505060405180910390fd5b5b6001151560146000600854815260200190815260200160002060003373ffffffffffffffffffffffffffffffffffffffff1673ffffffffffffffffffffffffffffffffffffffff16815260200190815260200160002060030160009054906101000a900460ff16151514151515612dbf576040517f08c379a000000000000000000000000000000000000000000000000000000000815260040180806020018281038252600f8152602001807f416c72656164792066756e64656421000000000000000000000000000000000081525060200191505060405180910390fd5b600b5434811515612dcc57fe5b0490508160146000600854815260200190815260200160002060003373ffffffffffffffffffffffffffffffffffffffff1673ffffffffffffffffffffffffffffffffffffffff16815260200190815260200160002060000160006101000a81548160ff02191690836002811115612e4057fe5b0217905550600160146000600854815260200190815260200160002060003373ffffffffffffffffffffffffffffffffffffffff1673ffffffffffffffffffffffffffffffffffffffff16815260200190815260200160002060030160006101000a81548160ff021916908315150217905550600280811115612ebf57fe5b826002811115612ecb57fe5b1415612f46578060146000600854815260200190815260200160002060003373ffffffffffffffffffffffffffffffffffffffff1673ffffffffffffffffffffffffffffffffffffffff1681526020019081526020016000206001016000018190555080600e60000160008282540192505081905550613049565b60016002811115612f5357fe5b826002811115612f5f57fe5b1415612fda578060146000600854815260200190815260200160002060003373ffffffffffffffffffffffffffffffffffffffff1673ffffffffffffffffffffffffffffffffffffffff1681526020019081526020016000206001016001018190555080600e60010160008282540192505081905550613048565b6040517f08c379a000000000000000000000000000000000000000000000000000000000815260040180806020018281038252600c8152602001807f496e76616c6964207465616d000000000000000000000000000000000000000081525060200191505060405180910390fd5b5b7ff3a504f28a34fdf555994a3bdfd3dc29f822e8684a9ef01001afb738cc3cdd0a60405160405180910390a16015600060085481526020019081526020016000203390806001815401808255809150509060018203906000526020600020016000909192909190916101000a81548173ffffffffffffffffffffffffffffffffffffffff021916908373ffffffffffffffffffffffffffffffffffffffff1602179055505060001515601060009054906101000a900460ff161515141561318e576000600e6000015411801561312457506000600e60010154115b1561318d576001601060006101000a81548160ff021916908315150217905550426011819055507f61f3502e7542b5b55e9bb0ecc3c768c9f845c89d8e9bb9f773ef927c56ae159360085442604051808381526020018281526020019250505060405180910390a15b5b5050565b60008060008060008060008060008060008060006060600060011515600760009054906101000a900460ff161515141515613235576040517f08c379a00000000000000000000000000000000000000000000000000000000081526004018080602001828103825260128152602001807f4e6f7420696e2067616d6520706572696f64000000000000000000000000000081525060200191505060405180910390fd5b60009e503073ffffffffffffffffffffffffffffffffffffffff16319c506000600a541115613413576132686001610c1e565b600115156016600060085481526020019081526020016000206000600a54815260200190815260200160002060009054906101000a900460ff1615151415156132c257601260009054906101000a900460ff169e5061340e565b60009b5060009a50600099505b6009548a10156133db57600098505b6009548910156133ce57600160058111156132f557fe5b60136000600854815260200190815260200160002060008c815260200190815260200160002060008b815260200190815260200160002060009054906101000a900460ff16600581111561334557fe5b14156133565760018c019b506133c1565b6002600581111561336357fe5b60136000600854815260200190815260200160002060008c815260200190815260200160002060008b815260200190815260200160002060009054906101000a900460ff1660058111156133b357fe5b14156133c05760018b019a505b5b88806001019950506132de565b89806001019a50506132cf565b8a8c11156133fa57601260019054906101000a900460ff169e5061340d565b601260029054906101000a900460ff169e505b5b613517565b600e60010154600e60000154101515613497576002601260006101000a81548160ff0219169083600281111561344557fe5b02179055506002601260016101000a81548160ff0219169083600281111561346957fe5b02179055506001601260026101000a81548160ff0219169083600281111561348d57fe5b0217905550613504565b6001601260006101000a81548160ff021916908360028111156134b657fe5b02179055506001601260016101000a81548160ff021916908360028111156134da57fe5b02179055506002601260026101000a81548160ff021916908360028111156134fe57fe5b02179055505b601260029054906101000a900460ff169e505b60028081111561352357fe5b8f600281111561352f57fe5b141561354257600e600001549d5061356b565b6001600281111561354f57fe5b8f600281111561355b57fe5b141561356a57600e600101549d505b5b600097505b601560006008548152602001908152602001600020805490508810156137df57601560006008548152602001908152602001600020888154811015156135b257fe5b9060005260206000200160009054906101000a900473ffffffffffffffffffffffffffffffffffffffff16965060146000600854815260200190815260200160002060008873ffffffffffffffffffffffffffffffffffffffff1673ffffffffffffffffffffffffffffffffffffffff16815260200190815260200160002095508560030160009054906101000a900460ff16156137d2576001600281111561365757fe5b8f600281111561366357fe5b141561367857856001016001015494506136a2565b60028081111561368457fe5b8f600281111561369057fe5b14156136a157856001016000015494505b5b60008511156137d1577f60485fc092e11e5781673bef848328471d0c08521ebd4027a10a5e8772575f28858f8f60405180848152602001838152602001828152602001935050505060405180910390a18d6064860281151561370057fe5b0493506064848e0281151561371157fe5b0492508673ffffffffffffffffffffffffffffffffffffffff166108fc849081150290604051600060405180830381858888f1935050505015801561375a573d6000803e3d6000fd5b507fea3be504b4cfdcb94a523b3e7a10cc1e2b0e53f114dbee08add5803176841eb86008548489604051808481526020018381526020018273ffffffffffffffffffffffffffffffffffffffff1673ffffffffffffffffffffffffffffffffffffffff168152602001935050505060405180910390a15b5b8780600101985050613570565b600160028111156137ec57fe5b8f60028111156137f857fe5b14613838576040805190810160405280600381526020017f434154000000000000000000000000000000000000000000000000000000000081525061386f565b6040805190810160405280600381526020017f444f4700000000000000000000000000000000000000000000000000000000008152505b91507f422f603a3f61da83106399d5a53c6bd591e3bf792006bc955564d69581d785f9600854836040518083815260200180602001828103825283818151815260200191508051906020019080838360005b838110156138dc5780820151818401526020810190506138c1565b50505050905090810190601f1680156139095780820380516001836020036101000a031916815260200191505b50935050505060405180910390a17fb6cb2ccc2ed1ccdd9dda64fe4d291deb23baaf807b138d00c9e4e3922aba934e60085433604051808381526020018273ffffffffffffffffffffffffffffffffffffffff1673ffffffffffffffffffffffffffffffffffffffff1681526020019250505060405180910390a13073ffffffffffffffffffffffffffffffffffffffff16319050600160009054906101000a900473ffffffffffffffffffffffffffffffffffffffff1673ffffffffffffffffffffffffffffffffffffffff166108fc829081150290604051600060405180830381858888f19350505050158015613a06573d6000803e3d6000fd5b506000600760006101000a81548160ff021916908315150217905550613a2a6111ef565b505050505050505050505050505050565b6013602052826000526040600020602052816000526040600020602052806000526040600020600092509250509054906101000a900460ff1681565b60025481565b601060009054906101000a900460ff1681565b6000806013600060085481526020019081526020016000206000858152602001908152602001600020600084815260200190815260200160002060009054906101000a900460ff16915060016005811115613ae757fe5b826005811115613af357fe5b1415613b025760029050613b27565b60026005811115613b0f57fe5b826005811115613b1b57fe5b1415613b2657600190505b5b613b38848460018086866000614712565b613b4a84846001600086866001614712565b613b7b848460017fffffffffffffffffffffffffffffffffffffffffffffffffffffffffffffffff86866002614712565b613bac848460007fffffffffffffffffffffffffffffffffffffffffffffffffffffffffffffffff86866003614712565b613bdc84847fffffffffffffffffffffffffffffffffffffffffffffffffffffffffffffffff8086866004614712565b613c0d84847fffffffffffffffffffffffffffffffffffffffffffffffffffffffffffffffff600086866005614712565b613c3e84847fffffffffffffffffffffffffffffffffffffffffffffffffffffffffffffffff600186866006614712565b613c5084846000600186866007614712565b613c5982614a23565b50505050565b60008060146000600854815260200190815260200160002060003373ffffffffffffffffffffffffffffffffffffffff1673ffffffffffffffffffffffffffffffffffffffff1681526020019081526020016000209150601260009054906101000a900460ff166002811115613cd157fe5b8260000160009054906101000a900460ff166002811115613cee57fe5b141515613d63576040517f08c379a00000000000000000000000000000000000000000000000000000000081526004018080602001828103825260188152602001807f596f7520617265206e6f74206f6e2074686973207465616d000000000000000081525060200191505060405180910390fd5b600115156017600060085481526020019081526020016000206000600a54815260200190815260200160002060003373ffffffffffffffffffffffffffffffffffffffff1673ffffffffffffffffffffffffffffffffffffffff16815260200190815260200160002060020160009054906101000a900460ff1615151415156144d357600b5434811515613df357fe5b0490506006548110151515613e70576040517f08c379a000000000000000000000000000000000000000000000000000000000815260040180806020018281038252600f8152602001807f4e6f7420656e6f7567682066756e64000000000000000000000000000000000081525060200191505060405180910390fd5b60036005811115613e7d57fe5b6013600060085481526020019081526020016000206000868152602001908152602001600020600085815260200190815260200160002060009054906101000a900460ff166005811115613ecd57fe5b141515613f42576040517f08c379a000000000000000000000000000000000000000000000000000000000815260040180806020018281038252600b8152602001807f556e617661696c61626c6500000000000000000000000000000000000000000081525060200191505060405180910390fd5b60065481036017600060085481526020019081526020016000206000600a54815260200190815260200160002060003373ffffffffffffffffffffffffffffffffffffffff1673ffffffffffffffffffffffffffffffffffffffff1681526020019081526020016000206000018190555060016017600060085481526020019081526020016000206000600a54815260200190815260200160002060003373ffffffffffffffffffffffffffffffffffffffff1673ffffffffffffffffffffffffffffffffffffffff16815260200190815260200160002060020160006101000a81548160ff021916908315150217905550426017600060085481526020019081526020016000206000600a54815260200190815260200160002060003373ffffffffffffffffffffffffffffffffffffffff1673ffffffffffffffffffffffffffffffffffffffff168152602001908152602001600020600101819055506002808111156140ad57fe5b8260000160009054906101000a900460ff1660028111156140ca57fe5b141561414e578060146000600854815260200190815260200160002060003373ffffffffffffffffffffffffffffffffffffffff1673ffffffffffffffffffffffffffffffffffffffff1681526020019081526020016000206001016000016000828254019250508190555080600e600001600082825401925050819055506141f9565b6001600281111561415b57fe5b8260000160009054906101000a900460ff16600281111561417857fe5b14156141f8578060146000600854815260200190815260200160002060003373ffffffffffffffffffffffffffffffffffffffff1673ffffffffffffffffffffffffffffffffffffffff1681526020019081526020016000206001016001016000828254019250508190555080600e600101600082825401925050819055505b5b836017600060085481526020019081526020016000206000600a54815260200190815260200160002060003373ffffffffffffffffffffffffffffffffffffffff1673ffffffffffffffffffffffffffffffffffffffff16815260200190815260200160002060030181905550826017600060085481526020019081526020016000206000600a54815260200190815260200160002060003373ffffffffffffffffffffffffffffffffffffffff1673ffffffffffffffffffffffffffffffffffffffff1681526020019081526020016000206004018190555060046013600060085481526020019081526020016000206000868152602001908152602001600020600085815260200190815260200160002060006101000a81548160ff0219169083600581111561432757fe5b02179055506018600060085481526020019081526020016000206000600a5481526020019081526020016000203390806001815401808255809150509060018203906000526020600020016000909192909190916101000a81548173ffffffffffffffffffffffffffffffffffffffff021916908373ffffffffffffffffffffffffffffffffffffffff16021790555050600015156016600060085481526020019081526020016000206000600a54815260200190815260200160002060009054906101000a900460ff161515141561444e57600d54600b6000828254019250508190555060016016600060085481526020019081526020016000206000600a54815260200190815260200160002060006101000a81548160ff0219169083151502179055505b6008547fa1c665c0024350eee6bd21319245070854f6bf3d2376b2ee2b951588a7cd5f98600a54338787604051808581526020018473ffffffffffffffffffffffffffffffffffffffff1673ffffffffffffffffffffffffffffffffffffffff16815260200183815260200182815260200194505050505060405180910390a2614567565b6040517f08c379a00000000000000000000000000000000000000000000000000000000081526004018080602001828103825260238152602001807f596f7527766520616c72656164792070726f7073656420696e2074686973207481526020017f75726e000000000000000000000000000000000000000000000000000000000081525060400191505060405180910390fd5b50505050565b6000806000806000809350600092505b60095483121561470557600091505b6009548212156146f8576013600060085481526020019081526020016000206000848152602001908152602001600020600083815260200190815260200160002060009054906101000a900460ff169050600160058111156145ea57fe5b8160058111156145f657fe5b1415801561461b57506002600581111561460c57fe5b81600581111561461857fe5b14155b156146eb5760006013600060085481526020019081526020016000206000858152602001908152602001600020600084815260200190815260200160002060006101000a81548160ff0219169083600581111561467457fe5b021790555061468583838989614b1e565b156146ea5760036013600060085481526020019081526020016000206000858152602001908152602001600020600084815260200190815260200160002060006101000a81548160ff021916908360058111156146de57fe5b02179055506001840193505b5b818060010192505061458c565b828060010193505061457d565b8394505050505092915050565b6000806000806000808a8d019550898c01945060009350600092505b60008612158015614740575060008512155b801561474d575060095486125b801561475a575060095485125b156148fa576013600060085481526020019081526020016000206000878152602001908152602001600020600086815260200190815260200160002060009054906101000a900460ff1691506005808111156147b257fe5b8260058111156147be57fe5b14156147d3578a86019550898501945061472e565b8760058111156147df57fe5b8260058111156147eb57fe5b14156148ce576019600060085481526020019081526020016000206000600a5481526020019081526020016000206000888152602001908152602001600020869080600181540180825580915050906001820390600052602060002001600090919290919091505550601a600060085481526020019081526020016000206000600a548152602001908152602001600020600088815260200190815260200160002085908060018154018082558091505090600182039060005260206000200160009091929091909150555082806001019350508a86019550898501945061472e565b8860058111156148da57fe5b8260058111156148e657fe5b14156148f557600193506148fa565b600093505b8315614a1457600090505b82811015614a1357600560136000600854815260200190815260200160002060006019600060085481526020019081526020016000206000600a54815260200190815260200160002060008b81526020019081526020016000208481548110151561496c57fe5b906000526020600020015481526020019081526020016000206000601a600060085481526020019081526020016000206000600a54815260200190815260200160002060008b8152602001908152602001600020848154811015156149cd57fe5b9060005260206000200154815260200190815260200160002060006101000a81548160ff02191690836005811115614a0157fe5b02179055508080600101915050614905565b5b50505050505050505050505050565b600080600091505b600954821015614b1957600090505b600954811015614b0c57600580811115614a5057fe5b6013600060085481526020019081526020016000206000848152602001908152602001600020600083815260200190815260200160002060009054906101000a900460ff166005811115614aa057fe5b1415614aff57826013600060085481526020019081526020016000206000848152602001908152602001600020600083815260200190815260200160002060006101000a81548160ff02191690836005811115614af957fe5b02179055505b8080600101915050614a3a565b8180600101925050614a2b565b505050565b6000806000806000806000806000614b3b8d8d6001808f8f614ca0565b9750614b4d8d8d600160008f8f614ca0565b9650614b7e8d8d60017fffffffffffffffffffffffffffffffffffffffffffffffffffffffffffffffff8f8f614ca0565b9550614baf8d8d60007fffffffffffffffffffffffffffffffffffffffffffffffffffffffffffffffff8f8f614ca0565b9450614bdf8d8d7fffffffffffffffffffffffffffffffffffffffffffffffffffffffffffffffff808f8f614ca0565b9350614c108d8d7fffffffffffffffffffffffffffffffffffffffffffffffffffffffffffffffff60008f8f614ca0565b9250614c418d8d7fffffffffffffffffffffffffffffffffffffffffffffffffffffffffffffffff60018f8f614ca0565b9150614c538d8d600060018f8f614ca0565b90508780614c5e5750865b80614c665750855b80614c6e5750845b80614c765750835b80614c7e5750825b80614c865750815b80614c8e5750805b98505050505050505050949350505050565b600080600080600080898c019450888b01935060009250600091505b60008512158015614cce575060008412155b8015614cdb575060095485125b8015614ce8575060095484125b15614d93576013600060085481526020019081526020016000206000868152602001908152602001600020600085815260200190815260200160002060009054906101000a900460ff169050866005811115614d4057fe5b816005811115614d4c57fe5b1415614d675760018301925089850194508884019350614cbc565b876005811115614d7357fe5b816005811115614d7f57fe5b1415614d8e5760019150614d93565b600091505b600083138015614da05750815b9550505050505096955050505050505600a165627a7a723058203b9c8d941c84f0670b2296b7b8825c2a7eb72091e065ca56cb0f374b7acacff60029",
  "source": "pragma solidity ^0.4.24;\n\ncontract Deversi {\n\n    enum _TEAM { NONE, DOG, CAT }\n    enum _GRID_STATUS { EMPTY, BLACK, WHITE, AVAILABLE, PROPOSED, FLIP }\n\n    struct Ledger {\n        uint256 CAT;\n        uint256 DOG;\n    }\n    struct User {\n        _TEAM team;\n        Ledger ledger;\n        bool isExist;\n    }\n    struct Proposal {\n        uint256 vote;\n        uint256 time;\n        bool isExist;\n        uint256 x;\n        uint256 y;\n    }\n    struct Flip {\n        uint256 x;\n        uint256 y;\n    }\n\n    // System config\n    uint256 public size; // board size\n    address public owner;\n    uint256 public fundRaisingPeriod;\n    uint256 public turnPeriod;\n    uint256 public baseSharePrice;\n    uint256 public shareGrowthRate;\n    uint256 public sharesPerProposal;\n\n    // Game control\n    bool public inGame;\n    uint256 public gameRound;\n    uint256 public currentSize;\n    uint256 public currentTurn;\n    uint256 public currentSharePrice;\n    uint256 public currentSharePerProposal;\n    uint256 public currentShareGrowthRate;\n    Ledger public currentFundingStatus;\n    bool public fundRaisingCountingDown;\n    uint256 public countingStartedTime;\n\n    _TEAM public currentTeam;\n    _TEAM public black;\n    _TEAM public white;\n\n    // mapping(uint256 => _GRID_STATUS[][]) public boardStatus;\n    mapping(uint256 => mapping(uint256 => mapping(uint256 => _GRID_STATUS))) public boardStatus;\n    mapping(uint256 => mapping(address => User)) public userStatus;\n    mapping(uint256 => address[]) public userList;\n    mapping(uint256 => mapping(uint => bool)) public roundPropsedStatus;\n    mapping(uint256 => mapping(uint256 => mapping(address => Proposal))) public proposals;\n    mapping(uint256 => mapping(uint256 => address[])) public proposedAddress;\n\n    mapping(uint256 => mapping(uint256 => mapping(uint256 => int[]))) private flipX;\n    mapping(uint256 => mapping(uint256 => mapping(uint256 => int[]))) private flipY;\n\n\n    event funded();\n    event NewGameStarted(uint256 round, uint time);\n    event fundRaisingCountdown(uint256 round, uint time);\n    event turnStart(uint256 indexed round, uint256 turn, uint time);\n    event proposed(uint256 indexed round, uint256 turn, address proposer, uint256 x, uint256 y);\n    event gameCleared(uint256, address clearer);\n    event voted(uint round, uint turn, address proposer, address voter, uint256 shares);\n    event proposalSelected(uint round, uint turn, address proposer, uint256 vote);\n    event flipEvent(uint turn, uint x, uint y);\n    event messagePost(string msg, address sender, uint indexed round, uint time);\n    event prizeTransfer(uint256 round, uint256 amount, address receiver);\n    event winnerAnnounce(uint256 round, string winner);\n    event prizeParam(uint256 userShare, uint256 winnerShare, uint256 totalFund);\n\n    constructor() public {\n        owner = msg.sender;\n        gameRound = 0;\n        inGame = false;\n        configure(\n            8, // size\n            86400000, // funding period // seconds for Ethereum, ms for Dexon\n            43200000, // turn period // seconds for Ethereum, ms for Dexon\n            100000000000000000,\n            10000000000000000,\n            10\n        );\n        startNewGame();\n    }\n\n    function startNewGame() public {\n        require(inGame == false, \"game is going on\");\n        gameRound = gameRound + 1;\n        currentSize = size;\n        currentTurn = 0;\n        currentSharePrice = baseSharePrice;\n        currentSharePerProposal = sharesPerProposal;\n        currentShareGrowthRate = shareGrowthRate;\n        sharesPerProposal = 10;\n        fundRaisingCountingDown = false;\n        countingStartedTime = 0;\n        currentTeam = _TEAM.NONE;\n        black = _TEAM.NONE;\n        white = _TEAM.NONE;\n        currentFundingStatus.CAT = 0;\n        currentFundingStatus.DOG = 0;\n        inGame = true;\n        boardStatus[gameRound][(currentSize / 2) - 1][(currentSize / 2) - 1] = _GRID_STATUS.BLACK;\n        boardStatus[gameRound][(currentSize / 2)][(currentSize / 2)] = _GRID_STATUS.BLACK;\n        boardStatus[gameRound][(currentSize / 2)][(currentSize / 2) - 1] = _GRID_STATUS.WHITE;\n        boardStatus[gameRound][(currentSize / 2) - 1][(currentSize / 2)] = _GRID_STATUS.WHITE;\n\n        boardStatus[gameRound][(currentSize / 2) + 1][(currentSize / 2) - 1] = _GRID_STATUS.AVAILABLE;\n        boardStatus[gameRound][(currentSize / 2)][(currentSize / 2) - 2] = _GRID_STATUS.AVAILABLE;\n\n        boardStatus[gameRound][(currentSize / 2) - 1][(currentSize / 2) + 1] = _GRID_STATUS.AVAILABLE;\n        boardStatus[gameRound][(currentSize / 2) - 2][(currentSize / 2)] = _GRID_STATUS.AVAILABLE;\n\n        emit NewGameStarted(gameRound, now);\n    }\n\n    function funding(_TEAM teamChoosen) public payable onlyInGame {\n        require(currentTurn == 0, \"funding is only allowed at turn 0\");\n        require(msg.value > 0, \"Funds required\");\n        if (fundRaisingCountingDown) {\n            require(now <= (countingStartedTime + fundRaisingPeriod), \"funding is over\");\n        }\n        require(userStatus[gameRound][msg.sender].isExist != true, \"Already funded!\");\n\n        uint shareAmount = msg.value / currentSharePrice;\n        userStatus[gameRound][msg.sender].team = teamChoosen;\n        userStatus[gameRound][msg.sender].isExist = true;\n        if (teamChoosen == _TEAM.CAT) {\n            userStatus[gameRound][msg.sender].ledger.CAT = shareAmount;\n            currentFundingStatus.CAT += shareAmount;\n        } else if (teamChoosen == _TEAM.DOG) {\n            userStatus[gameRound][msg.sender].ledger.DOG = shareAmount;\n            currentFundingStatus.DOG += shareAmount;\n        } else {\n            revert(\"Invalid team\");\n        }\n        emit funded();\n        userList[gameRound].push(msg.sender);\n        if (fundRaisingCountingDown == false) {\n            if (\n                (currentFundingStatus.CAT > 0) &&\n                (currentFundingStatus.DOG > 0)\n            ) {\n                fundRaisingCountingDown = true;\n                countingStartedTime = now;\n                emit fundRaisingCountdown(gameRound, now);\n            }\n        }\n    }\n\n    function postMessage(string message) public {\n        emit messagePost(message, msg.sender, gameRound, now);\n    }\n\n    function propose(uint256 x, uint256 y) public payable onlyInGame {\n        uint256 gameStartTime = countingStartedTime + fundRaisingPeriod;\n        require((fundRaisingCountingDown == true) && (now > gameStartTime), \"not yet started\");\n        if (currentTurn == 0) {\n            currentTurn += 1;\n            if (currentFundingStatus.CAT >= currentFundingStatus.DOG) {\n                currentTeam = _TEAM.CAT;\n                black = _TEAM.CAT;\n                white = _TEAM.DOG;\n            } else {\n                currentTeam = _TEAM.DOG;\n                black = _TEAM.DOG;\n                white = _TEAM.CAT;\n            }\n\n            emit turnStart(gameRound, currentTurn, now);\n        }\n        uint256 currentRoundEndTime = gameStartTime + (currentTurn * turnPeriod);\n        uint256 currentRoundStartTime = currentRoundEndTime - turnPeriod;\n        if (now > currentRoundEndTime) {\n            if (roundPropsedStatus[gameRound][currentTurn] != true) {\n                revert(\"Game should be cleared because previous turn isn't played\");\n            } else {\n                uint256 nextRoundEndTime = currentRoundEndTime + turnPeriod;\n                if (now > nextRoundEndTime) {\n                    revert(\"Game over\");\n                } else {\n                    updateGame(false);\n                    doPropose(x, y);\n                }\n            }\n        } else if ((now < currentRoundEndTime) && (now >= currentRoundStartTime)) {\n            doPropose(x, y);\n        }\n    }\n\n    function doPropose(uint256 x, uint256 y) private {\n        User userTeam = userStatus[gameRound][msg.sender];\n        require(userTeam.team == currentTeam, \"You are not on this team\");\n        if (proposals[gameRound][currentTurn][msg.sender].isExist != true) {\n            uint256 shares = msg.value / currentSharePrice;\n            require(shares >= sharesPerProposal, \"Not enough fund\");\n            require(boardStatus[gameRound][x][y] == _GRID_STATUS.AVAILABLE, \"Unavailable\");\n            proposals[gameRound][currentTurn][msg.sender].vote = shares - sharesPerProposal;\n            proposals[gameRound][currentTurn][msg.sender].isExist = true;\n            proposals[gameRound][currentTurn][msg.sender].time = now;\n            if (userTeam.team == _TEAM.CAT) {\n                userStatus[gameRound][msg.sender].ledger.CAT += shares;\n                currentFundingStatus.CAT += shares;\n            } else if (userTeam.team == _TEAM.DOG) {\n                userStatus[gameRound][msg.sender].ledger.DOG += shares;\n                currentFundingStatus.DOG += shares;\n            }\n            proposals[gameRound][currentTurn][msg.sender].x = x;\n            proposals[gameRound][currentTurn][msg.sender].y = y;\n            boardStatus[gameRound][x][y] = _GRID_STATUS.PROPOSED;\n            proposedAddress[gameRound][currentTurn].push(msg.sender);\n            if (roundPropsedStatus[gameRound][currentTurn] == false) {\n                currentSharePrice += currentShareGrowthRate;\n                roundPropsedStatus[gameRound][currentTurn] = true;\n            }\n            emit proposed(gameRound, currentTurn, msg.sender, x, y);\n        } else {\n            revert(\"You've already propsed in this turn\");\n        }\n    }\n\n    function vote(uint256 round, uint256 turn, address proposer) public payable onlyInGame {\n        require(gameRound == round, \"not in current round\");\n        require(currentTurn > 0, \"not yet started\");\n        require(turn == currentTurn, \"Not in current turn\");\n        uint256 gameStartTime = countingStartedTime + fundRaisingPeriod;\n        uint256 currentRoundEndTime = gameStartTime + (currentTurn * turnPeriod);\n        uint256 currentRoundStartTime = currentRoundEndTime - turnPeriod;\n        require((now < currentRoundEndTime) && (now >= currentRoundStartTime), \"not in round period\");\n        if (proposals[round][turn][proposer].isExist) {\n            uint256 sharesToVote = msg.value / currentSharePrice;\n            proposals[round][turn][proposer].vote += sharesToVote;\n            if (userStatus[gameRound][msg.sender].isExist != true) {\n                userList[gameRound].push(msg.sender);\n                userStatus[gameRound][msg.sender].isExist = true;\n            }\n            if (currentTeam == _TEAM.CAT) {\n                userStatus[gameRound][msg.sender].ledger.CAT += sharesToVote;\n                currentFundingStatus.CAT += sharesToVote;\n            } else if (currentTeam == _TEAM.DOG) {\n                userStatus[gameRound][msg.sender].ledger.DOG += sharesToVote;\n                currentFundingStatus.DOG += sharesToVote;\n            }\n            emit voted(gameRound, currentTurn, proposer, msg.sender, sharesToVote);\n        } else {\n            revert(\"proposal not exist\");\n        }\n    }\n\n    function updateGame(bool doNotCheck) public {\n        uint256 proposedLength = proposedAddress[gameRound][currentTurn].length;\n        address highestAddress = proposedAddress[gameRound][currentTurn][0];\n        uint256 highestAmount = proposals[gameRound][currentTurn][highestAddress].vote;\n        for (uint i = 1; i < proposedLength; i++) {\n            address _addr = proposedAddress[gameRound][currentTurn][i];\n            Proposal _proposal = proposals[gameRound][currentTurn][_addr];\n            if (_proposal.vote > highestAmount) {\n                highestAddress = _addr;\n                highestAmount = _proposal.vote;\n            }\n        }\n        Proposal selected = proposals[gameRound][currentTurn][highestAddress];\n        if (black == currentTeam) {\n            boardStatus[gameRound][selected.x][selected.y] = _GRID_STATUS.BLACK;\n        } else if (white == currentTeam) {\n            boardStatus[gameRound][selected.x][selected.y] = _GRID_STATUS.WHITE;\n        }\n        // reverting calculation here...\n        flip(selected.x, selected.y);\n        // emit proposalSelected(gameRound, currentTurn, highestAddress, highestAmount);\n        currentTurn += 1;\n        if (doNotCheck != true) {\n            checkGameEnd();\n        }\n        // emit turnStart(gameRound, currentTurn, now);\n    }\n\n    function checkAvailable(_GRID_STATUS base, _GRID_STATUS opposite) private returns(uint) {\n        uint available = 0;\n        for (int x = 0; x < int(currentSize); x++) {\n            for (int y = 0; y < int(currentSize); y++) {\n                _GRID_STATUS status = boardStatus[gameRound][uint(x)][uint(y)];\n                if (\n                    (status != _GRID_STATUS.BLACK) &&\n                    (status != _GRID_STATUS.WHITE)\n                ) {\n                    boardStatus[gameRound][uint(x)][uint(y)] = _GRID_STATUS.EMPTY;\n                    if (markAvailable(x, y, base, opposite)) {\n                        boardStatus[gameRound][uint(x)][uint(y)] = _GRID_STATUS.AVAILABLE;\n                        available += 1;\n                    }\n                }\n            }\n        }\n        return available;\n    }\n\n    function markAvailable(int x, int y, _GRID_STATUS base, _GRID_STATUS opposite) private returns(bool) {\n        bool dir1 = isAvailable(x, y, 1, 1, base, opposite);\n        bool dir2 = isAvailable(x, y, 1, 0, base, opposite);\n        bool dir3 = isAvailable(x, y, 1, -1, base, opposite);\n        bool dir4 = isAvailable(x, y, 0, -1, base, opposite);\n        bool dir5 = isAvailable(x, y, -1, -1, base, opposite);\n        bool dir6 = isAvailable(x, y, -1, 0, base, opposite);\n        bool dir7 = isAvailable(x, y, -1, 1, base, opposite);\n        bool dir8 = isAvailable(x, y, 0, 1, base, opposite);\n        return (\n            dir1 || dir2 || dir3 || dir4 || dir5 || dir6 || dir7 || dir8\n        );\n    }\n    function isAvailable(\n        int x, int y, int offsetX, int offsetY,\n        _GRID_STATUS base, _GRID_STATUS opposite\n    ) private returns (bool) {\n        int currentX = x + offsetX;\n        int currentY = y + offsetY;\n        int flipCount = 0;\n        bool shouldFlip = false;\n        while(\n            (currentX >= 0) &&\n            (currentY >= 0) &&\n            (currentX < int(currentSize)) &&\n            (currentY < int(currentSize))\n        ) {\n            _GRID_STATUS status = boardStatus[gameRound][uint(currentX)][uint(currentY)];\n            if (status == opposite) {\n                flipCount += 1;\n                currentX += offsetX;\n                currentY += offsetY;\n                continue;\n            } else if (status == base) {\n                shouldFlip = true;\n                break;\n            } else {\n                shouldFlip = false;\n                break;\n            }\n        }\n        return ((flipCount > 0) && shouldFlip);\n    }\n\n    function flip(uint256 x, uint256 y) private {\n        _GRID_STATUS base = boardStatus[gameRound][x][y];\n        _GRID_STATUS opposite;\n        if (base == _GRID_STATUS.BLACK) {\n            opposite = _GRID_STATUS.WHITE;\n        } else if (base == _GRID_STATUS.WHITE) {\n            opposite = _GRID_STATUS.BLACK;\n        }\n        markFlip(x, y, 1, 1, base, opposite, 0);\n        markFlip(x, y, 1, 0, base, opposite, 1);\n        markFlip(x, y, 1, -1, base, opposite, 2);\n        markFlip(x, y, 0, -1, base, opposite, 3);\n        markFlip(x, y, -1, -1, base, opposite, 4);\n        markFlip(x, y, -1, 0, base, opposite, 5);\n        markFlip(x, y, -1, 1, base, opposite, 6);\n        markFlip(x, y, 0, 1, base, opposite, 7);\n        flipAll(base);\n    }\n    function flipAll(_GRID_STATUS base) private {\n        for (uint i = 0; i < currentSize; i++) {\n            for(uint j = 0; j < currentSize; j++) {\n                if (boardStatus[gameRound][i][j] == _GRID_STATUS.FLIP) {\n                    boardStatus[gameRound][i][j] = base;\n                }\n            }\n        }\n    }\n    function markFlip(\n        uint256 x, uint256 y, int256 offsetX, int256 offsetY,\n        _GRID_STATUS base, _GRID_STATUS opposite, uint256 direction\n    ) private {\n        int currentX = int(x) + offsetX;\n        int currentY = int(y) + offsetY;\n        bool shouldFlip = false;\n        uint index = 0;\n        while(\n            (currentX >= 0) &&\n            (currentY >= 0) &&\n            (currentX < int(currentSize)) &&\n            (currentY < int(currentSize))\n        ) {\n            _GRID_STATUS status = boardStatus[gameRound][uint(currentX)][uint(currentY)];\n            if (status == _GRID_STATUS.FLIP) {\n                currentX += offsetX;\n                currentY += offsetY;\n                continue;\n            } else if (status == opposite)  {\n                flipX[gameRound][currentTurn][direction].push(currentX);\n                flipY[gameRound][currentTurn][direction].push(currentY);\n\n                index++;\n                currentX += offsetX;\n                currentY += offsetY;\n                continue;\n            } else {\n                if (status == base) {\n                    shouldFlip = true;\n                    break;\n                } else {\n                    shouldFlip = false;\n                    break;\n                }\n\n            }\n        }\n\n        if (shouldFlip) {\n            for (uint i = 0; i < index; i++) {\n                boardStatus[gameRound][uint(flipX[gameRound][currentTurn][direction][i])][uint(flipY[gameRound][currentTurn][direction][i])] = _GRID_STATUS.FLIP;\n            }\n        }\n\n    }\n\n    function checkGameEnd() public onlyInGame {\n        _GRID_STATUS base;\n        _GRID_STATUS opposite;\n        if (currentTeam == black) {\n            base = _GRID_STATUS.WHITE;\n            opposite = _GRID_STATUS.BLACK;\n        } else if (currentTeam == white) {\n            base = _GRID_STATUS.BLACK;\n            opposite = _GRID_STATUS.WHITE;\n        }\n        uint available = checkAvailable(base, opposite);\n        currentTeam = (currentTeam == _TEAM.CAT) ? _TEAM.DOG : _TEAM.CAT;\n        // if (available == 0) {\n        //     clearGame();\n        // }\n    }\n\n     /* workaround functino */\n    function getAvailable() private onlyInGame returns(uint256) {\n        _GRID_STATUS base;\n        _GRID_STATUS opposite;\n        if (currentTeam == black) {\n            base = _GRID_STATUS.WHITE;\n            opposite = _GRID_STATUS.BLACK;\n        } else if (currentTeam == white) {\n            base = _GRID_STATUS.BLACK;\n            opposite = _GRID_STATUS.WHITE;\n        }\n        uint available = checkAvailable(base, opposite);\n        return available;\n    }\n\n    function clearGame() public onlyInGame {\n        // uint256 available = getAvailable();\n        _TEAM winner = _TEAM.NONE;\n        uint256 winnerShare;\n        uint256 totalFund = address(this).balance;\n        if (currentTurn > 0) {\n            updateGame(true);\n            if (\n                // (available > 0) &&\n                (roundPropsedStatus[gameRound][currentTurn] != true)\n            ) {\n                /* last turn wasn't played */\n                winner = currentTeam;\n            } else {\n                // emit messagePost(\"???\", msg.sender, gameRound, now);\n                uint blackCount = 0;\n                uint whiteCount = 0;\n                for (uint i = 0; i < currentSize; i++) {\n                    for (uint j = 0; j < currentSize; j++) {\n                        // ret[(i * currentSize) + j] = boardStatus[gameRound][i][j];\n                        if (boardStatus[gameRound][i][j] == _GRID_STATUS.BLACK) {\n                            blackCount += 1;\n                        } else if (boardStatus[gameRound][i][j] == _GRID_STATUS.WHITE) {\n                            whiteCount += 1;\n                        }\n                    }\n                }\n                if (blackCount > whiteCount) {\n                    winner = black;\n                } else {\n                    winner = white;\n                }\n            }\n        } else {\n            if (currentFundingStatus.CAT >= currentFundingStatus.DOG) {\n                currentTeam = _TEAM.CAT;\n                black = _TEAM.CAT;\n                white = _TEAM.DOG;\n            } else {\n                currentTeam = _TEAM.DOG;\n                black = _TEAM.DOG;\n                white = _TEAM.CAT;\n            }\n            winner = white;\n        }\n        if (winner == _TEAM.CAT) {\n            winnerShare = currentFundingStatus.CAT;\n        } else if (winner == _TEAM.DOG) {\n            winnerShare = currentFundingStatus.DOG;\n        }\n        for (uint index = 0; index < userList[gameRound].length; index++) {\n            address userAddress = userList[gameRound][index];\n            User user = userStatus[gameRound][userAddress];\n            if (user.isExist) {\n                uint256 userShare;\n                if (winner == _TEAM.DOG) {\n                    userShare = user.ledger.DOG;\n                } else if (winner == _TEAM.CAT) {\n                    userShare = user.ledger.CAT;\n                }\n                if (userShare > 0) {\n                    emit prizeParam(userShare, winnerShare, totalFund);\n                    uint256 ratio = (userShare * 100) / winnerShare;\n                    uint256 prizeAmount = (totalFund * ratio) / 100;\n                    userAddress.transfer(prizeAmount);\n                    emit prizeTransfer(gameRound, prizeAmount, userAddress);\n                }\n            }\n        }\n        string memory winnerName = (winner == _TEAM.DOG) ? \"DOG\" : \"CAT\";\n        emit winnerAnnounce(gameRound, winnerName);\n        emit gameCleared(gameRound, msg.sender);\n        uint256 remainingFund = address(this).balance;\n        owner.transfer(remainingFund);\n        inGame = false;\n        startNewGame();\n    }\n\n    function getProposedStatus(uint256 turn) public view returns(bool isProposed) {\n        return roundPropsedStatus[gameRound][turn];\n    }\n\n    function getBoardStatus() public view returns (\n        _GRID_STATUS[]\n    ) {\n        _GRID_STATUS[] memory ret = new _GRID_STATUS[](currentSize * currentSize);\n        for (uint i = 0; i < currentSize; i++) {\n            for (uint j = 0; j < currentSize; j++) {\n                ret[(i * currentSize) + j] = boardStatus[gameRound][i][j];\n            }\n        }\n        return (ret);\n    }\n\n    function getUserStatus(address addr) public view returns (\n        bool isExist,\n        _TEAM team,\n        uint256 CAT,\n        uint256 DOG\n    ) {\n        isExist = userStatus[gameRound][addr].isExist;\n        team = userStatus[gameRound][addr].team;\n        CAT = userStatus[gameRound][addr].ledger.CAT;\n        DOG = userStatus[gameRound][addr].ledger.DOG;\n        return (isExist, team, CAT, DOG);\n    }\n    function getTeamFundingStatus() public view returns(\n        uint256 CAT,\n        uint256 DOG\n    ) {\n        CAT = currentFundingStatus.CAT;\n        DOG = currentFundingStatus.DOG;\n        return (CAT, DOG);\n    }\n\n    function getProposalStatus(uint256 round, uint256 turn, address proposer) public view returns (\n        uint256 vote,\n        uint256 time,\n        uint x,\n        uint y\n    ) {\n        Proposal status = proposals[round][turn][proposer];\n        if (status.isExist) {\n            return (status.vote, status.time, status.x, status.y);\n        }\n    }\n\n    function configure(\n        uint256 _size,\n        uint256 _fundRaisingPeriod,\n        uint256 _turnPeriod,\n        uint256 _baseSharePrice,\n        uint256 _shareGrowthRate,\n        uint256 _sharesPerProposal\n    ) public onlyOwner {\n        size = _size;\n        fundRaisingPeriod = _fundRaisingPeriod;\n        turnPeriod = _turnPeriod;\n        baseSharePrice = _baseSharePrice;\n        shareGrowthRate = _shareGrowthRate;\n        sharesPerProposal = _sharesPerProposal;\n    }\n\n    modifier onlyOwner() {\n        require(msg.sender == owner, \"Only owner is allowed\");\n        _;\n    }\n    modifier onlyInGame() {\n        require(inGame == true, \"Not in game period\");\n        _;\n    }\n}",
  "sourcePath": "/Users/chenwei-chao/Desktop/github/Reversi_On_Smart_Contract_POC/contracts/Deversi.sol",
  "compiler": {
    "name": "solc",
    "version": "0.4.24+commit.e67f0147.Emscripten.clang"
  },
  "schemaVersion": "2.0.1",
  "updatedAt": "2018-11-13T16:05:02.905Z"
}