{
  "contractName": "Deversi",
  "abi": [
    {
      "constant": true,
      "inputs": [],
      "name": "turnPeriod",
      "outputs": [
        {
          "name": "",
          "type": "uint256"
        }
      ],
      "payable": false,
      "stateMutability": "view",
      "type": "function"
    },
    {
      "constant": true,
      "inputs": [
        {
          "name": "",
          "type": "uint256"
        },
        {
          "name": "",
          "type": "address"
        }
      ],
      "name": "userStatus",
      "outputs": [
        {
          "name": "team",
          "type": "uint8"
        },
        {
          "components": [
            {
              "name": "CAT",
              "type": "uint256"
            },
            {
              "name": "DOG",
              "type": "uint256"
            }
          ],
          "name": "ledger",
          "type": "tuple"
        },
        {
          "name": "isExist",
          "type": "bool"
        }
      ],
      "payable": false,
      "stateMutability": "view",
      "type": "function"
    },
    {
      "constant": true,
      "inputs": [],
      "name": "currentSharePrice",
      "outputs": [
        {
          "name": "",
          "type": "uint256"
        }
      ],
      "payable": false,
      "stateMutability": "view",
      "type": "function"
    },
    {
      "constant": true,
      "inputs": [],
      "name": "baseSharePrice",
      "outputs": [
        {
          "name": "",
          "type": "uint256"
        }
      ],
      "payable": false,
      "stateMutability": "view",
      "type": "function"
    },
    {
      "constant": true,
      "inputs": [],
      "name": "currentFundingStatus",
      "outputs": [
        {
          "name": "CAT",
          "type": "uint256"
        },
        {
          "name": "DOG",
          "type": "uint256"
        }
      ],
      "payable": false,
      "stateMutability": "view",
      "type": "function"
    },
    {
      "constant": true,
      "inputs": [],
      "name": "countingStartedTime",
      "outputs": [
        {
          "name": "",
          "type": "uint256"
        }
      ],
      "payable": false,
      "stateMutability": "view",
      "type": "function"
    },
    {
      "constant": true,
      "inputs": [],
      "name": "sharesPerProposal",
      "outputs": [
        {
          "name": "",
          "type": "uint256"
        }
      ],
      "payable": false,
      "stateMutability": "view",
      "type": "function"
    },
    {
      "constant": true,
      "inputs": [],
      "name": "currentSharePerProposal",
      "outputs": [
        {
          "name": "",
          "type": "uint256"
        }
      ],
      "payable": false,
      "stateMutability": "view",
      "type": "function"
    },
    {
      "constant": true,
      "inputs": [],
      "name": "inGame",
      "outputs": [
        {
          "name": "",
          "type": "bool"
        }
      ],
      "payable": false,
      "stateMutability": "view",
      "type": "function"
    },
    {
      "constant": true,
      "inputs": [],
      "name": "black",
      "outputs": [
        {
          "name": "",
          "type": "uint8"
        }
      ],
      "payable": false,
      "stateMutability": "view",
      "type": "function"
    },
    {
      "constant": true,
      "inputs": [],
      "name": "owner",
      "outputs": [
        {
          "name": "",
          "type": "address"
        }
      ],
      "payable": false,
      "stateMutability": "view",
      "type": "function"
    },
    {
      "constant": true,
      "inputs": [
        {
          "name": "",
          "type": "uint256"
        },
        {
          "name": "",
          "type": "uint256"
        },
        {
          "name": "",
          "type": "address"
        }
      ],
      "name": "proposals",
      "outputs": [
        {
          "name": "vote",
          "type": "uint256"
        },
        {
          "name": "time",
          "type": "uint256"
        },
        {
          "name": "isExist",
          "type": "bool"
        },
        {
          "name": "x",
          "type": "uint256"
        },
        {
          "name": "y",
          "type": "uint256"
        }
      ],
      "payable": false,
      "stateMutability": "view",
      "type": "function"
    },
    {
      "constant": true,
      "inputs": [],
      "name": "size",
      "outputs": [
        {
          "name": "",
          "type": "uint256"
        }
      ],
      "payable": false,
      "stateMutability": "view",
      "type": "function"
    },
    {
      "constant": true,
      "inputs": [],
      "name": "white",
      "outputs": [
        {
          "name": "",
          "type": "uint8"
        }
      ],
      "payable": false,
      "stateMutability": "view",
      "type": "function"
    },
    {
      "constant": true,
      "inputs": [],
      "name": "gameRound",
      "outputs": [
        {
          "name": "",
          "type": "uint256"
        }
      ],
      "payable": false,
      "stateMutability": "view",
      "type": "function"
    },
    {
      "constant": true,
      "inputs": [],
      "name": "shareGrowthRate",
      "outputs": [
        {
          "name": "",
          "type": "uint256"
        }
      ],
      "payable": false,
      "stateMutability": "view",
      "type": "function"
    },
    {
      "constant": true,
      "inputs": [],
      "name": "currentTeam",
      "outputs": [
        {
          "name": "",
          "type": "uint8"
        }
      ],
      "payable": false,
      "stateMutability": "view",
      "type": "function"
    },
    {
      "constant": true,
      "inputs": [],
      "name": "currentSize",
      "outputs": [
        {
          "name": "",
          "type": "uint256"
        }
      ],
      "payable": false,
      "stateMutability": "view",
      "type": "function"
    },
    {
      "constant": true,
      "inputs": [
        {
          "name": "",
          "type": "uint256"
        },
        {
          "name": "",
          "type": "uint256"
        },
        {
          "name": "",
          "type": "uint256"
        }
      ],
      "name": "proposedAddress",
      "outputs": [
        {
          "name": "",
          "type": "address"
        }
      ],
      "payable": false,
      "stateMutability": "view",
      "type": "function"
    },
    {
      "constant": true,
      "inputs": [],
      "name": "currentTurn",
      "outputs": [
        {
          "name": "",
          "type": "uint256"
        }
      ],
      "payable": false,
      "stateMutability": "view",
      "type": "function"
    },
    {
      "constant": true,
      "inputs": [
        {
          "name": "",
          "type": "uint256"
        },
        {
          "name": "",
          "type": "uint256"
        }
      ],
      "name": "roundPropsedStatus",
      "outputs": [
        {
          "name": "",
          "type": "bool"
        }
      ],
      "payable": false,
      "stateMutability": "view",
      "type": "function"
    },
    {
      "constant": true,
      "inputs": [],
      "name": "currentShareGrowthRate",
      "outputs": [
        {
          "name": "",
          "type": "uint256"
        }
      ],
      "payable": false,
      "stateMutability": "view",
      "type": "function"
    },
    {
      "constant": true,
      "inputs": [
        {
          "name": "",
          "type": "uint256"
        },
        {
          "name": "",
          "type": "uint256"
        },
        {
          "name": "",
          "type": "uint256"
        }
      ],
      "name": "boardStatus",
      "outputs": [
        {
          "name": "",
          "type": "uint8"
        }
      ],
      "payable": false,
      "stateMutability": "view",
      "type": "function"
    },
    {
      "constant": true,
      "inputs": [],
      "name": "fundRaisingPeriod",
      "outputs": [
        {
          "name": "",
          "type": "uint256"
        }
      ],
      "payable": false,
      "stateMutability": "view",
      "type": "function"
    },
    {
      "constant": true,
      "inputs": [],
      "name": "fundRaisingCountingDown",
      "outputs": [
        {
          "name": "",
          "type": "bool"
        }
      ],
      "payable": false,
      "stateMutability": "view",
      "type": "function"
    },
    {
      "inputs": [],
      "payable": false,
      "stateMutability": "nonpayable",
      "type": "constructor"
    },
    {
      "anonymous": false,
      "inputs": [],
      "name": "funded",
      "type": "event"
    },
    {
      "anonymous": false,
      "inputs": [
        {
          "indexed": false,
          "name": "round",
          "type": "uint256"
        },
        {
          "indexed": false,
          "name": "time",
          "type": "uint256"
        }
      ],
      "name": "NewGameStarted",
      "type": "event"
    },
    {
      "anonymous": false,
      "inputs": [
        {
          "indexed": false,
          "name": "round",
          "type": "uint256"
        },
        {
          "indexed": false,
          "name": "time",
          "type": "uint256"
        }
      ],
      "name": "fundRaisingCountdown",
      "type": "event"
    },
    {
      "anonymous": false,
      "inputs": [
        {
          "indexed": true,
          "name": "round",
          "type": "uint256"
        },
        {
          "indexed": false,
          "name": "turn",
          "type": "uint256"
        },
        {
          "indexed": false,
          "name": "time",
          "type": "uint256"
        }
      ],
      "name": "turnStart",
      "type": "event"
    },
    {
      "anonymous": false,
      "inputs": [
        {
          "indexed": true,
          "name": "round",
          "type": "uint256"
        },
        {
          "indexed": false,
          "name": "turn",
          "type": "uint256"
        },
        {
          "indexed": false,
          "name": "proposer",
          "type": "address"
        },
        {
          "indexed": false,
          "name": "x",
          "type": "uint256"
        },
        {
          "indexed": false,
          "name": "y",
          "type": "uint256"
        }
      ],
      "name": "proposed",
      "type": "event"
    },
    {
      "anonymous": false,
      "inputs": [
        {
          "indexed": false,
          "name": "",
          "type": "uint256"
        },
        {
          "indexed": false,
          "name": "clearer",
          "type": "address"
        }
      ],
      "name": "gameCleared",
      "type": "event"
    },
    {
      "anonymous": false,
      "inputs": [
        {
          "indexed": false,
          "name": "round",
          "type": "uint256"
        },
        {
          "indexed": false,
          "name": "turn",
          "type": "uint256"
        },
        {
          "indexed": false,
          "name": "proposer",
          "type": "address"
        },
        {
          "indexed": false,
          "name": "voter",
          "type": "address"
        },
        {
          "indexed": false,
          "name": "shares",
          "type": "uint256"
        }
      ],
      "name": "voted",
      "type": "event"
    },
    {
      "anonymous": false,
      "inputs": [
        {
          "indexed": false,
          "name": "round",
          "type": "uint256"
        },
        {
          "indexed": false,
          "name": "turn",
          "type": "uint256"
        },
        {
          "indexed": false,
          "name": "proposer",
          "type": "address"
        },
        {
          "indexed": false,
          "name": "vote",
          "type": "uint256"
        }
      ],
      "name": "proposalSelected",
      "type": "event"
    },
    {
      "anonymous": false,
      "inputs": [
        {
          "indexed": false,
          "name": "turn",
          "type": "uint256"
        },
        {
          "indexed": false,
          "name": "x",
          "type": "uint256"
        },
        {
          "indexed": false,
          "name": "y",
          "type": "uint256"
        }
      ],
      "name": "flipEvent",
      "type": "event"
    },
    {
      "constant": false,
      "inputs": [],
      "name": "startNewGame",
      "outputs": [],
      "payable": false,
      "stateMutability": "nonpayable",
      "type": "function"
    },
    {
      "constant": false,
      "inputs": [
        {
          "name": "teamChoosen",
          "type": "uint8"
        }
      ],
      "name": "funding",
      "outputs": [],
      "payable": true,
      "stateMutability": "payable",
      "type": "function"
    },
    {
      "constant": false,
      "inputs": [
        {
          "name": "x",
          "type": "uint256"
        },
        {
          "name": "y",
          "type": "uint256"
        }
      ],
      "name": "propose",
      "outputs": [],
      "payable": true,
      "stateMutability": "payable",
      "type": "function"
    },
    {
      "constant": false,
      "inputs": [
        {
          "name": "round",
          "type": "uint256"
        },
        {
          "name": "turn",
          "type": "uint256"
        },
        {
          "name": "proposer",
          "type": "address"
        }
      ],
      "name": "vote",
      "outputs": [],
      "payable": true,
      "stateMutability": "payable",
      "type": "function"
    },
    {
      "constant": false,
      "inputs": [
        {
          "name": "x",
          "type": "uint256"
        },
        {
          "name": "y",
          "type": "uint256"
        }
      ],
      "name": "flip",
      "outputs": [],
      "payable": false,
      "stateMutability": "nonpayable",
      "type": "function"
    },
    {
      "constant": false,
      "inputs": [
        {
          "name": "base",
          "type": "uint8"
        }
      ],
      "name": "flipAll",
      "outputs": [],
      "payable": false,
      "stateMutability": "nonpayable",
      "type": "function"
    },
    {
      "constant": false,
      "inputs": [],
      "name": "clearGame",
      "outputs": [],
      "payable": false,
      "stateMutability": "nonpayable",
      "type": "function"
    },
    {
      "constant": true,
      "inputs": [],
      "name": "getBoardStatus",
      "outputs": [
        {
          "name": "",
          "type": "uint8[]"
        }
      ],
      "payable": false,
      "stateMutability": "view",
      "type": "function"
    },
    {
      "constant": true,
      "inputs": [
        {
          "name": "addr",
          "type": "address"
        }
      ],
      "name": "getUserStatus",
      "outputs": [
        {
          "name": "isExist",
          "type": "bool"
        },
        {
          "name": "team",
          "type": "uint8"
        },
        {
          "name": "CAT",
          "type": "uint256"
        },
        {
          "name": "DOG",
          "type": "uint256"
        }
      ],
      "payable": false,
      "stateMutability": "view",
      "type": "function"
    },
    {
      "constant": true,
      "inputs": [],
      "name": "getTeamFundingStatus",
      "outputs": [
        {
          "name": "CAT",
          "type": "uint256"
        },
        {
          "name": "DOG",
          "type": "uint256"
        }
      ],
      "payable": false,
      "stateMutability": "view",
      "type": "function"
    },
    {
      "constant": true,
      "inputs": [
        {
          "name": "round",
          "type": "uint256"
        },
        {
          "name": "turn",
          "type": "uint256"
        },
        {
          "name": "proposer",
          "type": "address"
        }
      ],
      "name": "getProposalStatus",
      "outputs": [
        {
          "name": "vote",
          "type": "uint256"
        },
        {
          "name": "time",
          "type": "uint256"
        },
        {
          "name": "x",
          "type": "uint256"
        },
        {
          "name": "y",
          "type": "uint256"
        }
      ],
      "payable": false,
      "stateMutability": "view",
      "type": "function"
    },
    {
      "constant": false,
      "inputs": [
        {
          "name": "_size",
          "type": "uint256"
        },
        {
          "name": "_fundRaisingPeriod",
          "type": "uint256"
        },
        {
          "name": "_turnPeriod",
          "type": "uint256"
        },
        {
          "name": "_baseSharePrice",
          "type": "uint256"
        },
        {
          "name": "_shareGrowthRate",
          "type": "uint256"
        },
        {
          "name": "_sharesPerProposal",
          "type": "uint256"
        }
      ],
      "name": "configure",
      "outputs": [],
      "payable": false,
      "stateMutability": "nonpayable",
      "type": "function"
    }
  ],
  "bytecode": "0x60806040523480156200001157600080fd5b5033600160006101000a81548173ffffffffffffffffffffffffffffffffffffffff021916908373ffffffffffffffffffffffffffffffffffffffff16021790555060006008819055506000600760006101000a81548160ff021916908315150217905550620000a16008600a601e66038d7ea4c680006005600a620000c0640100000000026401000000009004565b620000ba620001b8640100000000026401000000009004565b62000766565b600160009054906101000a900473ffffffffffffffffffffffffffffffffffffffff1673ffffffffffffffffffffffffffffffffffffffff163373ffffffffffffffffffffffffffffffffffffffff1614151562000186576040517f08c379a00000000000000000000000000000000000000000000000000000000081526004018080602001828103825260158152602001807f4f6e6c79206f776e657220697320616c6c6f776564000000000000000000000081525060200191505060405180910390fd5b856000819055508460028190555083600381905550826004819055508160058190555080600681905550505050505050565b60001515600760009054906101000a900460ff16151514151562000244576040517f08c379a00000000000000000000000000000000000000000000000000000000081526004018080602001828103825260108152602001807f67616d6520697320676f696e67206f6e0000000000000000000000000000000081525060200191505060405180910390fd5b6001600854016008819055506000546009819055506000600a81905550600454600b81905550600654600c81905550600554600d81905550600a6006819055506000601060006101000a81548160ff02191690831515021790555060006011819055506000601260006101000a81548160ff02191690836002811115620002c757fe5b02179055506000601260016101000a81548160ff02191690836002811115620002ec57fe5b02179055506000601260026101000a81548160ff021916908360028111156200031157fe5b02179055506000600e600001819055506000600e600101819055506001600760006101000a81548160ff02191690831515021790555060016013600060085481526020019081526020016000206000600160026009548115156200037157fe5b040381526020019081526020016000206000600160026009548115156200039457fe5b0403815260200190815260200160002060006101000a81548160ff02191690836005811115620003c057fe5b0217905550600160136000600854815260200190815260200160002060006002600954811515620003ed57fe5b048152602001908152602001600020600060026009548115156200040d57fe5b04815260200190815260200160002060006101000a81548160ff021916908360058111156200043857fe5b02179055506002601360006008548152602001908152602001600020600060026009548115156200046557fe5b0481526020019081526020016000206000600160026009548115156200048757fe5b0403815260200190815260200160002060006101000a81548160ff02191690836005811115620004b357fe5b02179055506002601360006008548152602001908152602001600020600060016002600954811515620004e257fe5b04038152602001908152602001600020600060026009548115156200050357fe5b04815260200190815260200160002060006101000a81548160ff021916908360058111156200052e57fe5b021790555060036013600060085481526020019081526020016000206000600160026009548115156200055d57fe5b040181526020019081526020016000206000600160026009548115156200058057fe5b0403815260200190815260200160002060006101000a81548160ff02191690836005811115620005ac57fe5b0217905550600360136000600854815260200190815260200160002060006002600954811515620005d957fe5b0481526020019081526020016000206000600280600954811515620005fa57fe5b0403815260200190815260200160002060006101000a81548160ff021916908360058111156200062657fe5b021790555060036013600060085481526020019081526020016000206000600160026009548115156200065557fe5b040381526020019081526020016000206000600160026009548115156200067857fe5b0401815260200190815260200160002060006101000a81548160ff02191690836005811115620006a457fe5b021790555060036013600060085481526020019081526020016000206000600280600954811515620006d257fe5b0403815260200190815260200160002060006002600954811515620006f357fe5b04815260200190815260200160002060006101000a81548160ff021916908360058111156200071e57fe5b02179055507f1a92f8260fbb9503d4da4de0b7753e04745a81b9a56dafcd9e51a7b828c16c7360085442604051808381526020018281526020019250505060405180910390a1565b613c0580620007766000396000f3006080604052600436106101cd576000357c0100000000000000000000000000000000000000000000000000000000900463ffffffff1680630b89db47146101d257806316ab1010146102045780631aca53571461022f57806328a79576146102b057806334db3b9c146102db57806337d319ad1461030657806345077a8614610365578063482d51e01461039757806350d91583146103ae57806358052a0e146103f85780635874d420146104235780635b4c9c591461044e5780635de17e671461047857806365ca0d52146104a3578063794f4fdc1461050f5780638398c9661461053e5780638b8fd3bd1461056e5780638da5cb5b146105a757806393c45f37146105fe578063949d225d14610689578063a0811074146106b4578063a5f9b5c2146106ed578063b21015f114610718578063ba1652db14610743578063bda1504b1461077c578063c7f166dc146107a7578063da1b661414610827578063deb61286146108a8578063e3254f7d146108d3578063e6f9591714610922578063e75c8bfe14610959578063ea0d5dcd14610984578063f0c67a8414610a02578063f131a7ae14610a25578063f8ee700c14610a3c578063fc71852a14610a9f578063fffb133a14610aca575b600080fd5b3480156101de57600080fd5b506101e7610af9565b604051808381526020018281526020019250505060405180910390f35b34801561021057600080fd5b50610219610b16565b6040518082815260200191505060405180910390f35b34801561023b57600080fd5b5061027a60048036038101908080359060200190929190803573ffffffffffffffffffffffffffffffffffffffff169060200190929190505050610b1c565b6040518084600281111561028a57fe5b60ff16815260200183815260200182151515158152602001935050505060405180910390f35b3480156102bc57600080fd5b506102c5610b8b565b6040518082815260200191505060405180910390f35b3480156102e757600080fd5b506102f0610b91565b6040518082815260200191505060405180910390f35b34801561031257600080fd5b50610363600480360381019080803590602001909291908035906020019092919080359060200190929190803590602001909291908035906020019092919080359060200190929190505050610b97565b005b34801561037157600080fd5b5061037a610c8e565b604051808381526020018281526020019250505060405180910390f35b3480156103a357600080fd5b506103ac610ca0565b005b6103f66004803603810190808035906020019092919080359060200190929190803573ffffffffffffffffffffffffffffffffffffffff169060200190929190505050611232565b005b34801561040457600080fd5b5061040d611849565b6040518082815260200191505060405180910390f35b34801561042f57600080fd5b5061043861184f565b6040518082815260200191505060405180910390f35b6104766004803603810190808035906020019092919080359060200190929190505050611855565b005b34801561048457600080fd5b5061048d611c84565b6040518082815260200191505060405180910390f35b3480156104af57600080fd5b506104b8611c8a565b6040518080602001828103825283818151815260200191508051906020019060200280838360005b838110156104fb5780820151818401526020810190506104e0565b505050509050019250505060405180910390f35b34801561051b57600080fd5b50610524611d88565b604051808215151515815260200191505060405180910390f35b34801561054a57600080fd5b5061056c600480360381019080803560ff169060200190929190505050611d9b565b005b34801561057a57600080fd5b50610583611e96565b6040518082600281111561059357fe5b60ff16815260200191505060405180910390f35b3480156105b357600080fd5b506105bc611ea9565b604051808273ffffffffffffffffffffffffffffffffffffffff1673ffffffffffffffffffffffffffffffffffffffff16815260200191505060405180910390f35b34801561060a57600080fd5b506106536004803603810190808035906020019092919080359060200190929190803573ffffffffffffffffffffffffffffffffffffffff169060200190929190505050611ecf565b60405180868152602001858152602001841515151581526020018381526020018281526020019550505050505060405180910390f35b34801561069557600080fd5b5061069e611f2c565b6040518082815260200191505060405180910390f35b3480156106c057600080fd5b506106c9611f32565b604051808260028111156106d957fe5b60ff16815260200191505060405180910390f35b3480156106f957600080fd5b50610702611f45565b6040518082815260200191505060405180910390f35b34801561072457600080fd5b5061072d611f4b565b6040518082815260200191505060405180910390f35b34801561074f57600080fd5b50610758611f51565b6040518082600281111561076857fe5b60ff16815260200191505060405180910390f35b34801561078857600080fd5b50610791611f64565b6040518082815260200191505060405180910390f35b3480156107b357600080fd5b506107fc6004803603810190808035906020019092919080359060200190929190803573ffffffffffffffffffffffffffffffffffffffff169060200190929190505050611f6a565b6040518085815260200184815260200183815260200182815260200194505050505060405180910390f35b34801561083357600080fd5b50610866600480360381019080803590602001909291908035906020019092919080359060200190929190505050612018565b604051808273ffffffffffffffffffffffffffffffffffffffff1673ffffffffffffffffffffffffffffffffffffffff16815260200191505060405180910390f35b3480156108b457600080fd5b506108bd612072565b6040518082815260200191505060405180910390f35b3480156108df57600080fd5b506109086004803603810190808035906020019092919080359060200190929190505050612078565b604051808215151515815260200191505060405180910390f35b34801561092e57600080fd5b5061095760048036038101908080359060200190929190803590602001909291905050506120a7565b005b34801561096557600080fd5b5061096e612276565b6040518082815260200191505060405180910390f35b34801561099057600080fd5b506109c5600480360381019080803573ffffffffffffffffffffffffffffffffffffffff16906020019092919050505061227c565b60405180851515151581526020018460028111156109df57fe5b60ff16815260200183815260200182815260200194505050505060405180910390f35b610a23600480360381019080803560ff169060200190929190505050612415565b005b348015610a3157600080fd5b50610a3a612a87565b005b348015610a4857600080fd5b50610a7b600480360381019080803590602001909291908035906020019092919080359060200190929190505050612b9c565b60405180826005811115610a8b57fe5b60ff16815260200191505060405180910390f35b348015610aab57600080fd5b50610ab4612bd8565b6040518082815260200191505060405180910390f35b348015610ad657600080fd5b50610adf612bde565b604051808215151515815260200191505060405180910390f35b600080600e600001549150600e6001015490508181915091509091565b60035481565b6014602052816000526040600020602052806000526040600020600091509150508060000160009054906101000a900460ff16908060010160408051908101604052908160008201548152602001600182015481525050908060030160009054906101000a900460ff16905083565b600b5481565b60045481565b600160009054906101000a900473ffffffffffffffffffffffffffffffffffffffff1673ffffffffffffffffffffffffffffffffffffffff163373ffffffffffffffffffffffffffffffffffffffff16141515610c5c576040517f08c379a00000000000000000000000000000000000000000000000000000000081526004018080602001828103825260158152602001807f4f6e6c79206f776e657220697320616c6c6f776564000000000000000000000081525060200191505060405180910390fd5b856000819055508460028190555083600381905550826004819055508160058190555080600681905550505050505050565b600e8060000154908060010154905082565b60001515600760009054906101000a900460ff161515141515610d2b576040517f08c379a00000000000000000000000000000000000000000000000000000000081526004018080602001828103825260108152602001807f67616d6520697320676f696e67206f6e0000000000000000000000000000000081525060200191505060405180910390fd5b6001600854016008819055506000546009819055506000600a81905550600454600b81905550600654600c81905550600554600d81905550600a6006819055506000601060006101000a81548160ff02191690831515021790555060006011819055506000601260006101000a81548160ff02191690836002811115610dad57fe5b02179055506000601260016101000a81548160ff02191690836002811115610dd157fe5b02179055506000601260026101000a81548160ff02191690836002811115610df557fe5b02179055506000600e600001819055506000600e600101819055506001600760006101000a81548160ff0219169083151502179055506001601360006008548152602001908152602001600020600060016002600954811515610e5457fe5b04038152602001908152602001600020600060016002600954811515610e7657fe5b0403815260200190815260200160002060006101000a81548160ff02191690836005811115610ea157fe5b0217905550600160136000600854815260200190815260200160002060006002600954811515610ecd57fe5b04815260200190815260200160002060006002600954811515610eec57fe5b04815260200190815260200160002060006101000a81548160ff02191690836005811115610f1657fe5b0217905550600260136000600854815260200190815260200160002060006002600954811515610f4257fe5b048152602001908152602001600020600060016002600954811515610f6357fe5b0403815260200190815260200160002060006101000a81548160ff02191690836005811115610f8e57fe5b02179055506002601360006008548152602001908152602001600020600060016002600954811515610fbc57fe5b0403815260200190815260200160002060006002600954811515610fdc57fe5b04815260200190815260200160002060006101000a81548160ff0219169083600581111561100657fe5b0217905550600360136000600854815260200190815260200160002060006001600260095481151561103457fe5b0401815260200190815260200160002060006001600260095481151561105657fe5b0403815260200190815260200160002060006101000a81548160ff0219169083600581111561108157fe5b02179055506003601360006008548152602001908152602001600020600060026009548115156110ad57fe5b04815260200190815260200160002060006002806009548115156110cd57fe5b0403815260200190815260200160002060006101000a81548160ff021916908360058111156110f857fe5b0217905550600360136000600854815260200190815260200160002060006001600260095481151561112657fe5b0403815260200190815260200160002060006001600260095481151561114857fe5b0401815260200190815260200160002060006101000a81548160ff0219169083600581111561117357fe5b0217905550600360136000600854815260200190815260200160002060006002806009548115156111a057fe5b04038152602001908152602001600020600060026009548115156111c057fe5b04815260200190815260200160002060006101000a81548160ff021916908360058111156111ea57fe5b02179055507f1a92f8260fbb9503d4da4de0b7753e04745a81b9a56dafcd9e51a7b828c16c7360085442604051808381526020018281526020019250505060405180910390a1565b60008060008060011515600760009054906101000a900460ff1615151415156112c3576040517f08c379a00000000000000000000000000000000000000000000000000000000081526004018080602001828103825260128152602001807f4e6f7420696e2067616d6520706572696f64000000000000000000000000000081525060200191505060405180910390fd5b8660085414151561133c576040517f08c379a00000000000000000000000000000000000000000000000000000000081526004018080602001828103825260148152602001807f6e6f7420696e2063757272656e7420726f756e6400000000000000000000000081525060200191505060405180910390fd5b6000600a541115156113b6576040517f08c379a000000000000000000000000000000000000000000000000000000000815260040180806020018281038252600f8152602001807f6e6f74207965742073746172746564000000000000000000000000000000000081525060200191505060405180910390fd5b600a548614151561142f576040517f08c379a00000000000000000000000000000000000000000000000000000000081526004018080602001828103825260138152602001807f4e6f7420696e2063757272656e74207475726e0000000000000000000000000081525060200191505060405180910390fd5b600254601154019350600354600a5402840192506003548303915082421080156114595750814210155b15156114cd576040517f08c379a00000000000000000000000000000000000000000000000000000000081526004018080602001828103825260138152602001807f6e6f7420696e20726f756e6420706572696f640000000000000000000000000081525060200191505060405180910390fd5b60166000888152602001908152602001600020600087815260200190815260200160002060008673ffffffffffffffffffffffffffffffffffffffff1673ffffffffffffffffffffffffffffffffffffffff16815260200190815260200160002060020160009054906101000a900460ff16156117d257600b543481151561155157fe5b0490508060166000898152602001908152602001600020600088815260200190815260200160002060008773ffffffffffffffffffffffffffffffffffffffff1673ffffffffffffffffffffffffffffffffffffffff168152602001908152602001600020600001600082825401925050819055506002808111156115d257fe5b601260009054906101000a900460ff1660028111156115ed57fe5b1415611671578060146000600854815260200190815260200160002060003373ffffffffffffffffffffffffffffffffffffffff1673ffffffffffffffffffffffffffffffffffffffff1681526020019081526020016000206001016000016000828254019250508190555080600e6000016000828254019250508190555061171a565b6001600281111561167e57fe5b601260009054906101000a900460ff16600281111561169957fe5b1415611719578060146000600854815260200190815260200160002060003373ffffffffffffffffffffffffffffffffffffffff1673ffffffffffffffffffffffffffffffffffffffff1681526020019081526020016000206001016001016000828254019250508190555080600e600101600082825401925050819055505b5b7fd385cfb87eeb4ff7958bbec45d17d99a4b1bcdf1237c6257b96cdce3177f3c1c600854600a54873385604051808681526020018581526020018473ffffffffffffffffffffffffffffffffffffffff1673ffffffffffffffffffffffffffffffffffffffff1681526020018373ffffffffffffffffffffffffffffffffffffffff1673ffffffffffffffffffffffffffffffffffffffff1681526020018281526020019550505050505060405180910390a1611840565b6040517f08c379a00000000000000000000000000000000000000000000000000000000081526004018080602001828103825260128152602001807f70726f706f73616c206e6f74206578697374000000000000000000000000000081525060200191505060405180910390fd5b50505050505050565b60115481565b60065481565b60008060008060011515600760009054906101000a900460ff1615151415156118e6576040517f08c379a00000000000000000000000000000000000000000000000000000000081526004018080602001828103825260128152602001807f4e6f7420696e2067616d6520706572696f64000000000000000000000000000081525060200191505060405180910390fd5b60025460115401935060011515601060009054906101000a900460ff16151514801561191157508342115b1515611985576040517f08c379a000000000000000000000000000000000000000000000000000000000815260040180806020018281038252600f8152602001807f6e6f74207965742073746172746564000000000000000000000000000000000081525060200191505060405180910390fd5b6000600a541415611ad7576001600a60008282540192505081905550600e60010154600e60000154101515611a25576002601260006101000a81548160ff021916908360028111156119d357fe5b02179055506002601260016101000a81548160ff021916908360028111156119f757fe5b02179055506001601260026101000a81548160ff02191690836002811115611a1b57fe5b0217905550611a92565b6001601260006101000a81548160ff02191690836002811115611a4457fe5b02179055506001601260016101000a81548160ff02191690836002811115611a6857fe5b02179055506002601260026101000a81548160ff02191690836002811115611a8c57fe5b02179055505b6008547fa74e8fdd0d1b2a47375925ad4caffed137ae7d87fbae14898bfae105c8c1a39f600a5442604051808381526020018281526020019250505060405180910390a25b600354600a5402840192506003548303915082421115611c5c57600115156015600060085481526020019081526020016000206000600a54815260200190815260200160002060009054906101000a900460ff161515141515611bc8576040517f08c379a00000000000000000000000000000000000000000000000000000000081526004018080602001828103825260398152602001807f47616d652073686f756c6420626520636c65617265642062656361757365207081526020017f726576696f7573207475726e2069736e277420706c617965640000000000000081525060400191505060405180910390fd5b6003548301905080421115611c45576040517f08c379a00000000000000000000000000000000000000000000000000000000081526004018080602001828103825260098152602001807f47616d65206f766572000000000000000000000000000000000000000000000081525060200191505060405180910390fd5b611c4d612bf1565b611c5786866130e1565b611c7c565b8242108015611c6b5750814210155b15611c7b57611c7a86866130e1565b5b5b505050505050565b600c5481565b60608060008060095460095402604051908082528060200260200182016040528015611cc55781602001602082028038833980820191505090505b509250600091505b600954821015611d7f57600090505b600954811015611d72576013600060085481526020019081526020016000206000838152602001908152602001600020600082815260200190815260200160002060009054906101000a900460ff168382600954850201815181101515611d3f57fe5b906020019060200201906005811115611d5457fe5b90816005811115611d6157fe5b815250508080600101915050611cdc565b8180600101925050611ccd565b82935050505090565b600760009054906101000a900460ff1681565b600080600091505b600954821015611e9157600090505b600954811015611e8457600580811115611dc857fe5b6013600060085481526020019081526020016000206000848152602001908152602001600020600083815260200190815260200160002060009054906101000a900460ff166005811115611e1857fe5b1415611e7757826013600060085481526020019081526020016000206000848152602001908152602001600020600083815260200190815260200160002060006101000a81548160ff02191690836005811115611e7157fe5b02179055505b8080600101915050611db2565b8180600101925050611da3565b505050565b601260019054906101000a900460ff1681565b600160009054906101000a900473ffffffffffffffffffffffffffffffffffffffff1681565b601660205282600052604060002060205281600052604060002060205280600052604060002060009250925050508060000154908060010154908060020160009054906101000a900460ff16908060030154908060040154905085565b60005481565b601260029054906101000a900460ff1681565b60085481565b60055481565b601260009054906101000a900460ff1681565b60095481565b600080600080600060166000898152602001908152602001600020600088815260200190815260200160002060008773ffffffffffffffffffffffffffffffffffffffff1673ffffffffffffffffffffffffffffffffffffffff16815260200190815260200160002090508060020160009054906101000a900460ff161561200d578060000154816001015482600301548360040154945094509450945061200e565b5b5093509350935093565b60176020528260005260406000206020528160005260406000208181548110151561203f57fe5b90600052602060002001600092509250509054906101000a900473ffffffffffffffffffffffffffffffffffffffff1681565b600a5481565b60156020528160005260406000206020528060005260406000206000915091509054906101000a900460ff1681565b6000806013600060085481526020019081526020016000206000858152602001908152602001600020600084815260200190815260200160002060009054906101000a900460ff169150600160058111156120fe57fe5b82600581111561210a57fe5b1415612119576002905061213e565b6002600581111561212657fe5b82600581111561213257fe5b141561213d57600190505b5b61214f8484600180868660006138c8565b612161848460016000868660016138c8565b612192848460017fffffffffffffffffffffffffffffffffffffffffffffffffffffffffffffffff868660026138c8565b6121c3848460007fffffffffffffffffffffffffffffffffffffffffffffffffffffffffffffffff868660036138c8565b6121f384847fffffffffffffffffffffffffffffffffffffffffffffffffffffffffffffffff80868660046138c8565b61222484847fffffffffffffffffffffffffffffffffffffffffffffffffffffffffffffffff6000868660056138c8565b61225584847fffffffffffffffffffffffffffffffffffffffffffffffffffffffffffffffff6001868660066138c8565b612267848460006001868660076138c8565b61227082611d9b565b50505050565b600d5481565b60008060008060146000600854815260200190815260200160002060008673ffffffffffffffffffffffffffffffffffffffff1673ffffffffffffffffffffffffffffffffffffffff16815260200190815260200160002060030160009054906101000a900460ff16935060146000600854815260200190815260200160002060008673ffffffffffffffffffffffffffffffffffffffff1673ffffffffffffffffffffffffffffffffffffffff16815260200190815260200160002060000160009054906101000a900460ff16925060146000600854815260200190815260200160002060008673ffffffffffffffffffffffffffffffffffffffff1673ffffffffffffffffffffffffffffffffffffffff16815260200190815260200160002060010160000154915060146000600854815260200190815260200160002060008673ffffffffffffffffffffffffffffffffffffffff1673ffffffffffffffffffffffffffffffffffffffff1681526020019081526020016000206001016001015490508383838393509350935093509193509193565b600060011515600760009054906101000a900460ff1615151415156124a2576040517f08c379a00000000000000000000000000000000000000000000000000000000081526004018080602001828103825260128152602001807f4e6f7420696e2067616d6520706572696f64000000000000000000000000000081525060200191505060405180910390fd5b6000600a54141515612542576040517f08c379a00000000000000000000000000000000000000000000000000000000081526004018080602001828103825260218152602001807f66756e64696e67206973206f6e6c7920616c6c6f776564206174207475726e2081526020017f300000000000000000000000000000000000000000000000000000000000000081525060400191505060405180910390fd5b6000341115156125ba576040517f08c379a000000000000000000000000000000000000000000000000000000000815260040180806020018281038252600e8152602001807f46756e647320726571756972656400000000000000000000000000000000000081525060200191505060405180910390fd5b601060009054906101000a900460ff161561264e5760025460115401421115151561264d576040517f08c379a000000000000000000000000000000000000000000000000000000000815260040180806020018281038252600f8152602001807f66756e64696e67206973206f766572000000000000000000000000000000000081525060200191505060405180910390fd5b5b6001151560146000600854815260200190815260200160002060003373ffffffffffffffffffffffffffffffffffffffff1673ffffffffffffffffffffffffffffffffffffffff16815260200190815260200160002060030160009054906101000a900460ff1615151415151561272d576040517f08c379a000000000000000000000000000000000000000000000000000000000815260040180806020018281038252600f8152602001807f416c72656164792066756e64656421000000000000000000000000000000000081525060200191505060405180910390fd5b600b543481151561273a57fe5b04905060028081111561274957fe5b82600281111561275557fe5b14156127d0578060146000600854815260200190815260200160002060003373ffffffffffffffffffffffffffffffffffffffff1673ffffffffffffffffffffffffffffffffffffffff1681526020019081526020016000206001016000018190555080600e600001600082825401925050819055506128d3565b600160028111156127dd57fe5b8260028111156127e957fe5b1415612864578060146000600854815260200190815260200160002060003373ffffffffffffffffffffffffffffffffffffffff1673ffffffffffffffffffffffffffffffffffffffff1681526020019081526020016000206001016001018190555080600e600101600082825401925050819055506128d2565b6040517f08c379a000000000000000000000000000000000000000000000000000000000815260040180806020018281038252600c8152602001807f496e76616c6964207465616d000000000000000000000000000000000000000081525060200191505060405180910390fd5b5b8160146000600854815260200190815260200160002060003373ffffffffffffffffffffffffffffffffffffffff1673ffffffffffffffffffffffffffffffffffffffff16815260200190815260200160002060000160006101000a81548160ff0219169083600281111561294457fe5b0217905550600160146000600854815260200190815260200160002060003373ffffffffffffffffffffffffffffffffffffffff1673ffffffffffffffffffffffffffffffffffffffff16815260200190815260200160002060030160006101000a81548160ff0219169083151502179055507ff3a504f28a34fdf555994a3bdfd3dc29f822e8684a9ef01001afb738cc3cdd0a60405160405180910390a160001515601060009054906101000a900460ff1615151415612a83576000600e60000154118015612a1957506000600e60010154115b15612a82576001601060006101000a81548160ff021916908315150217905550426011819055507f61f3502e7542b5b55e9bb0ecc3c768c9f845c89d8e9bb9f773ef927c56ae159360085442604051808381526020018281526020019250505060405180910390a15b5b5050565b60011515600760009054906101000a900460ff161515141515612b12576040517f08c379a00000000000000000000000000000000000000000000000000000000081526004018080602001828103825260128152602001807f4e6f7420696e2067616d6520706572696f64000000000000000000000000000081525060200191505060405180910390fd5b6000600760006101000a81548160ff0219169083151502179055507fb6cb2ccc2ed1ccdd9dda64fe4d291deb23baaf807b138d00c9e4e3922aba934e60085433604051808381526020018273ffffffffffffffffffffffffffffffffffffffff1673ffffffffffffffffffffffffffffffffffffffff1681526020019250505060405180910390a1565b6013602052826000526040600020602052816000526040600020602052806000526040600020600092509250509054906101000a900460ff1681565b60025481565b601060009054906101000a900460ff1681565b60008060008060008060006017600060085481526020019081526020016000206000600a5481526020019081526020016000208054905096506017600060085481526020019081526020016000206000600a5481526020019081526020016000206000815481101515612c6057fe5b9060005260206000200160009054906101000a900473ffffffffffffffffffffffffffffffffffffffff1695506016600060085481526020019081526020016000206000600a54815260200190815260200160002060008773ffffffffffffffffffffffffffffffffffffffff1673ffffffffffffffffffffffffffffffffffffffff168152602001908152602001600020600001549450600193505b86841015612df2576017600060085481526020019081526020016000206000600a54815260200190815260200160002084815481101515612d3a57fe5b9060005260206000200160009054906101000a900473ffffffffffffffffffffffffffffffffffffffff1692506016600060085481526020019081526020016000206000600a54815260200190815260200160002060008473ffffffffffffffffffffffffffffffffffffffff1673ffffffffffffffffffffffffffffffffffffffff16815260200190815260200160002091508482600001541115612de557829550816000015494505b8380600101945050612cfd565b6016600060085481526020019081526020016000206000600a54815260200190815260200160002060008773ffffffffffffffffffffffffffffffffffffffff1673ffffffffffffffffffffffffffffffffffffffff1681526020019081526020016000209050601260009054906101000a900460ff166002811115612e7457fe5b601260019054906101000a900460ff166002811115612e8f57fe5b1415612efb57600160136000600854815260200190815260200160002060008360030154815260200190815260200160002060008360040154815260200190815260200160002060006101000a81548160ff02191690836005811115612ef157fe5b0217905550612f9a565b601260009054906101000a900460ff166002811115612f1657fe5b601260029054906101000a900460ff166002811115612f3157fe5b1415612f9957600260136000600854815260200190815260200160002060008360030154815260200190815260200160002060008360040154815260200190815260200160002060006101000a81548160ff02191690836005811115612f9357fe5b02179055505b5b612fac816003015482600401546120a7565b7fc22952d45e76010e220edf966f45c7513bcec4217d5ee9f2c178a551458b6dd6600854600a548888604051808581526020018481526020018373ffffffffffffffffffffffffffffffffffffffff1673ffffffffffffffffffffffffffffffffffffffff16815260200182815260200194505050505060405180910390a16001600a6000828254019250508190555060028081111561304857fe5b601260009054906101000a900460ff16600281111561306357fe5b1461306f576002613072565b60015b601260006101000a81548160ff0219169083600281111561308f57fe5b02179055506008547fa74e8fdd0d1b2a47375925ad4caffed137ae7d87fbae14898bfae105c8c1a39f600a5442604051808381526020018281526020019250505060405180910390a250505050505050565b60008060146000600854815260200190815260200160002060003373ffffffffffffffffffffffffffffffffffffffff1673ffffffffffffffffffffffffffffffffffffffff1681526020019081526020016000209150601260009054906101000a900460ff16600281111561315357fe5b8260000160009054906101000a900460ff16600281111561317057fe5b1415156131e5576040517f08c379a00000000000000000000000000000000000000000000000000000000081526004018080602001828103825260188152602001807f596f7520617265206e6f74206f6e2074686973207465616d000000000000000081525060200191505060405180910390fd5b60016015600060085481526020019081526020016000206000600a54815260200190815260200160002060006101000a81548160ff021916908315150217905550600115156016600060085481526020019081526020016000206000600a54815260200190815260200160002060003373ffffffffffffffffffffffffffffffffffffffff1673ffffffffffffffffffffffffffffffffffffffff16815260200190815260200160002060020160009054906101000a900460ff16151514151561382e57600b54348115156132b657fe5b0490506006548110151515613333576040517f08c379a000000000000000000000000000000000000000000000000000000000815260040180806020018281038252600f8152602001807f4e6f7420656e6f7567682066756e64000000000000000000000000000000000081525060200191505060405180910390fd5b60065481036016600060085481526020019081526020016000206000600a54815260200190815260200160002060003373ffffffffffffffffffffffffffffffffffffffff1673ffffffffffffffffffffffffffffffffffffffff1681526020019081526020016000206000018190555060016016600060085481526020019081526020016000206000600a54815260200190815260200160002060003373ffffffffffffffffffffffffffffffffffffffff1673ffffffffffffffffffffffffffffffffffffffff16815260200190815260200160002060020160006101000a81548160ff021916908315150217905550426016600060085481526020019081526020016000206000600a54815260200190815260200160002060003373ffffffffffffffffffffffffffffffffffffffff1673ffffffffffffffffffffffffffffffffffffffff1681526020019081526020016000206001018190555060028081111561349e57fe5b8260000160009054906101000a900460ff1660028111156134bb57fe5b141561353f578060146000600854815260200190815260200160002060003373ffffffffffffffffffffffffffffffffffffffff1673ffffffffffffffffffffffffffffffffffffffff1681526020019081526020016000206001016000016000828254019250508190555080600e600001600082825401925050819055506135ea565b6001600281111561354c57fe5b8260000160009054906101000a900460ff16600281111561356957fe5b14156135e9578060146000600854815260200190815260200160002060003373ffffffffffffffffffffffffffffffffffffffff1673ffffffffffffffffffffffffffffffffffffffff1681526020019081526020016000206001016001016000828254019250508190555080600e600101600082825401925050819055505b5b836016600060085481526020019081526020016000206000600a54815260200190815260200160002060003373ffffffffffffffffffffffffffffffffffffffff1673ffffffffffffffffffffffffffffffffffffffff16815260200190815260200160002060030181905550826016600060085481526020019081526020016000206000600a54815260200190815260200160002060003373ffffffffffffffffffffffffffffffffffffffff1673ffffffffffffffffffffffffffffffffffffffff1681526020019081526020016000206004018190555060046013600060085481526020019081526020016000206000868152602001908152602001600020600085815260200190815260200160002060006101000a81548160ff0219169083600581111561371857fe5b02179055506017600060085481526020019081526020016000206000600a5481526020019081526020016000203390806001815401808255809150509060018203906000526020600020016000909192909190916101000a81548173ffffffffffffffffffffffffffffffffffffffff021916908373ffffffffffffffffffffffffffffffffffffffff160217905550506008547fa1c665c0024350eee6bd21319245070854f6bf3d2376b2ee2b951588a7cd5f98600a54338787604051808581526020018473ffffffffffffffffffffffffffffffffffffffff1673ffffffffffffffffffffffffffffffffffffffff16815260200183815260200182815260200194505050505060405180910390a26138c2565b6040517f08c379a00000000000000000000000000000000000000000000000000000000081526004018080602001828103825260238152602001807f596f7527766520616c72656164792070726f7073656420696e2074686973207481526020017f75726e000000000000000000000000000000000000000000000000000000000081525060400191505060405180910390fd5b50505050565b6000806000806000808a8d019550898c01945060009350600092505b600086121580156138f6575060008512155b8015613903575060095486125b8015613910575060095485125b15613ab0576013600060085481526020019081526020016000206000878152602001908152602001600020600086815260200190815260200160002060009054906101000a900460ff16915060058081111561396857fe5b82600581111561397457fe5b1415613989578a8601955089850194506138e4565b87600581111561399557fe5b8260058111156139a157fe5b1415613a84576018600060085481526020019081526020016000206000600a54815260200190815260200160002060008881526020019081526020016000208690806001815401808255809150509060018203906000526020600020016000909192909190915055506019600060085481526020019081526020016000206000600a548152602001908152602001600020600088815260200190815260200160002085908060018154018082558091505090600182039060005260206000200160009091929091909150555082806001019350508a8601955089850194506138e4565b886005811115613a9057fe5b826005811115613a9c57fe5b1415613aab5760019350613ab0565b600093505b8315613bca57600090505b82811015613bc957600560136000600854815260200190815260200160002060006018600060085481526020019081526020016000206000600a54815260200190815260200160002060008b815260200190815260200160002084815481101515613b2257fe5b9060005260206000200154815260200190815260200160002060006019600060085481526020019081526020016000206000600a54815260200190815260200160002060008b815260200190815260200160002084815481101515613b8357fe5b9060005260206000200154815260200190815260200160002060006101000a81548160ff02191690836005811115613bb757fe5b02179055508080600101915050613abb565b5b505050505050505050505050505600a165627a7a7230582087ca7d5b4212d6be7941e075eb8f05467e4db93bee174011c393db10d98823cf0029",
  "source": "pragma solidity ^0.4.24;\n\ncontract Deversi {\n\n    enum _TEAM { NONE, DOG, CAT }\n    enum _GRID_STATUS { EMPTY, BLACK, WHITE, AVAILABLE, PROPOSED, FLIP }\n\n    struct Ledger {\n        uint256 CAT;\n        uint256 DOG;\n    }\n    struct User {\n        _TEAM team;\n        Ledger ledger;\n        bool isExist;\n    }\n    struct Proposal {\n        uint256 vote;\n        uint256 time;\n        bool isExist;\n        uint256 x;\n        uint256 y;\n    }\n    struct Flip {\n        uint256 x;\n        uint256 y;\n    }\n\n    // System config\n    uint256 public size; // board size\n    address public owner;\n    uint256 public fundRaisingPeriod;\n    uint256 public turnPeriod;\n    uint256 public baseSharePrice;\n    uint256 public shareGrowthRate;\n    uint256 public sharesPerProposal;\n\n    // Game control\n    bool public inGame;\n    uint256 public gameRound;\n    uint256 public currentSize;\n    uint256 public currentTurn;\n    uint256 public currentSharePrice;\n    uint256 public currentSharePerProposal;\n    uint256 public currentShareGrowthRate;\n    Ledger public currentFundingStatus;\n    bool public fundRaisingCountingDown;\n    uint256 public countingStartedTime;\n    _TEAM public currentTeam;\n    _TEAM public black;\n    _TEAM public white;\n\n    // mapping(uint256 => _GRID_STATUS[][]) public boardStatus;\n    mapping(uint256 => mapping(uint256 => mapping(uint256 => _GRID_STATUS))) public boardStatus;\n    mapping(uint256 => mapping(address => User)) public userStatus;\n    mapping(uint256 => mapping(uint => bool)) public roundPropsedStatus;\n    mapping(uint256 => mapping(uint256 => mapping(address => Proposal))) public proposals;\n    mapping(uint256 => mapping(uint256 => address[])) public proposedAddress;\n    \n    mapping(uint256 => mapping(uint256 => mapping(uint256 => int[]))) private flipX;\n    mapping(uint256 => mapping(uint256 => mapping(uint256 => int[]))) private flipY;\n\n    event funded();\n    event NewGameStarted(uint256 round, uint time);\n    event fundRaisingCountdown(uint256 round, uint time);\n    event turnStart(uint256 indexed round, uint256 turn, uint time);\n    event proposed(uint256 indexed round, uint256 turn, address proposer, uint256 x, uint256 y);\n    event gameCleared(uint256, address clearer);\n    event voted(uint round, uint turn, address proposer, address voter, uint256 shares);\n    event proposalSelected(uint round, uint turn, address proposer, uint256 vote);\n    event flipEvent(uint turn, uint x, uint y);\n\n    constructor() public {\n        owner = msg.sender;\n        gameRound = 0;\n        inGame = false;\n        configure(\n            8, // size\n            10, // funding period\n            30,  // turn period\n            1000000000000000,\n            5,\n            10\n        );\n        startNewGame();\n    }\n\n    function startNewGame() public {\n        require(inGame == false, \"game is going on\");\n        gameRound = gameRound + 1;\n        currentSize = size;\n        currentTurn = 0;\n        currentSharePrice = baseSharePrice;\n        currentSharePerProposal = sharesPerProposal;\n        currentShareGrowthRate = shareGrowthRate;\n        sharesPerProposal = 10;\n        fundRaisingCountingDown = false;\n        countingStartedTime = 0;\n        currentTeam = _TEAM.NONE;\n        black = _TEAM.NONE;\n        white = _TEAM.NONE;\n        currentFundingStatus.CAT = 0;\n        currentFundingStatus.DOG = 0;\n        inGame = true;\n        boardStatus[gameRound][(currentSize / 2) - 1][(currentSize / 2) - 1] = _GRID_STATUS.BLACK;\n        boardStatus[gameRound][(currentSize / 2)][(currentSize / 2)] = _GRID_STATUS.BLACK;\n        boardStatus[gameRound][(currentSize / 2)][(currentSize / 2) - 1] = _GRID_STATUS.WHITE;\n        boardStatus[gameRound][(currentSize / 2) - 1][(currentSize / 2)] = _GRID_STATUS.WHITE;\n\n        boardStatus[gameRound][(currentSize / 2) + 1][(currentSize / 2) - 1] = _GRID_STATUS.AVAILABLE;\n        boardStatus[gameRound][(currentSize / 2)][(currentSize / 2) - 2] = _GRID_STATUS.AVAILABLE;\n\n        boardStatus[gameRound][(currentSize / 2) - 1][(currentSize / 2) + 1] = _GRID_STATUS.AVAILABLE;\n        boardStatus[gameRound][(currentSize / 2) - 2][(currentSize / 2)] = _GRID_STATUS.AVAILABLE;\n\n        emit NewGameStarted(gameRound, now);\n    }\n\n    function funding(_TEAM teamChoosen) public payable onlyInGame {\n        require(currentTurn == 0, \"funding is only allowed at turn 0\");\n        require(msg.value > 0, \"Funds required\");\n        if (fundRaisingCountingDown) {\n            require(now <= (countingStartedTime + fundRaisingPeriod), \"funding is over\");\n        }\n        require(userStatus[gameRound][msg.sender].isExist != true, \"Already funded!\");\n\n        uint shareAmount = msg.value / currentSharePrice;\n        if (teamChoosen == _TEAM.CAT) {\n            userStatus[gameRound][msg.sender].ledger.CAT = shareAmount;\n            currentFundingStatus.CAT += shareAmount;\n        } else if (teamChoosen == _TEAM.DOG) {\n            userStatus[gameRound][msg.sender].ledger.DOG = shareAmount;\n            currentFundingStatus.DOG += shareAmount;\n        } else {\n            revert(\"Invalid team\");\n        }\n        userStatus[gameRound][msg.sender].team = teamChoosen;\n        userStatus[gameRound][msg.sender].isExist = true;\n        emit funded();\n        if (fundRaisingCountingDown == false) {\n            if (\n                (currentFundingStatus.CAT > 0) &&\n                (currentFundingStatus.DOG > 0)\n            ) {\n                fundRaisingCountingDown = true;\n                countingStartedTime = now;\n                emit fundRaisingCountdown(gameRound, now);\n            }\n        }\n    }\n\n    function propose(uint256 x, uint256 y) public payable onlyInGame {\n        uint256 gameStartTime = countingStartedTime + fundRaisingPeriod;\n        require((fundRaisingCountingDown == true) && (now > gameStartTime), \"not yet started\");\n        if (currentTurn == 0) {\n            currentTurn += 1;\n            if (currentFundingStatus.CAT >= currentFundingStatus.DOG) {\n                currentTeam = _TEAM.CAT;\n                black = _TEAM.CAT;\n                white = _TEAM.DOG;\n            } else {\n                currentTeam = _TEAM.DOG;\n                black = _TEAM.DOG;\n                white = _TEAM.CAT;\n            }\n\n            emit turnStart(gameRound, currentTurn, now);\n        }\n        uint256 currentRoundEndTime = gameStartTime + (currentTurn * turnPeriod);\n        uint256 currentRoundStartTime = currentRoundEndTime - turnPeriod;\n        if (now > currentRoundEndTime) {\n            if (roundPropsedStatus[gameRound][currentTurn] != true) {\n                revert(\"Game should be cleared because previous turn isn't played\");\n            } else {\n                uint256 nextRoundEndTime = currentRoundEndTime + turnPeriod;\n                if (now > nextRoundEndTime) {\n                    revert(\"Game over\");\n                } else {\n                    updateGame();\n                    doPropose(x, y);\n                }\n            }\n        } else if ((now < currentRoundEndTime) && (now >= currentRoundStartTime)) {\n            doPropose(x, y);\n        }\n    }\n\n    function doPropose(uint256 x, uint256 y) private {\n        User userTeam = userStatus[gameRound][msg.sender];\n        require(userTeam.team == currentTeam, \"You are not on this team\");\n        roundPropsedStatus[gameRound][currentTurn] = true;\n        if (proposals[gameRound][currentTurn][msg.sender].isExist != true) {\n            uint256 shares = msg.value / currentSharePrice;\n            require(shares >= sharesPerProposal, \"Not enough fund\");\n            // require(boardStatus[gameRound][x][y] == _GRID_STATUS.AVAILABLE, \"Unavailable\");\n            proposals[gameRound][currentTurn][msg.sender].vote = shares - sharesPerProposal;\n            proposals[gameRound][currentTurn][msg.sender].isExist = true;\n            proposals[gameRound][currentTurn][msg.sender].time = now;\n            if (userTeam.team == _TEAM.CAT) {\n                userStatus[gameRound][msg.sender].ledger.CAT += shares;\n                currentFundingStatus.CAT += shares;\n            } else if (userTeam.team == _TEAM.DOG) {\n                userStatus[gameRound][msg.sender].ledger.DOG += shares;\n                currentFundingStatus.DOG += shares;\n            }\n            proposals[gameRound][currentTurn][msg.sender].x = x;\n            proposals[gameRound][currentTurn][msg.sender].y = y;\n            boardStatus[gameRound][x][y] = _GRID_STATUS.PROPOSED;\n            proposedAddress[gameRound][currentTurn].push(msg.sender);\n            emit proposed(gameRound, currentTurn, msg.sender, x, y);\n        } else {\n            revert(\"You've already propsed in this turn\");\n        }\n    }\n\n    function vote(uint256 round, uint256 turn, address proposer) public payable onlyInGame {\n        require(gameRound == round, \"not in current round\");\n        require(currentTurn > 0, \"not yet started\");\n        require(turn == currentTurn, \"Not in current turn\");\n        uint256 gameStartTime = countingStartedTime + fundRaisingPeriod;\n        uint256 currentRoundEndTime = gameStartTime + (currentTurn * turnPeriod);\n        uint256 currentRoundStartTime = currentRoundEndTime - turnPeriod;\n        require((now < currentRoundEndTime) && (now >= currentRoundStartTime), \"not in round period\");\n        if (proposals[round][turn][proposer].isExist) {\n            uint256 sharesToVote = msg.value / currentSharePrice;\n            proposals[round][turn][proposer].vote += sharesToVote;\n            if (currentTeam == _TEAM.CAT) {\n                userStatus[gameRound][msg.sender].ledger.CAT += sharesToVote;\n                currentFundingStatus.CAT += sharesToVote;\n            } else if (currentTeam == _TEAM.DOG) {\n                userStatus[gameRound][msg.sender].ledger.DOG += sharesToVote;\n                currentFundingStatus.DOG += sharesToVote;\n            }\n            emit voted(gameRound, currentTurn, proposer, msg.sender, sharesToVote);\n        } else {\n            revert(\"proposal not exist\");\n        }\n    }\n\n    function updateGame() private {\n        uint256 proposedLength = proposedAddress[gameRound][currentTurn].length;\n        address highestAddress = proposedAddress[gameRound][currentTurn][0];\n        uint256 highestAmount = proposals[gameRound][currentTurn][highestAddress].vote;\n        for (uint i = 1; i < proposedLength; i++) {\n            address _addr = proposedAddress[gameRound][currentTurn][i];\n            Proposal _proposal = proposals[gameRound][currentTurn][_addr];\n            if (_proposal.vote > highestAmount) {\n                highestAddress = _addr;\n                highestAmount = _proposal.vote;\n            }\n        }\n        Proposal selected = proposals[gameRound][currentTurn][highestAddress];\n        if (black == currentTeam) {\n            boardStatus[gameRound][selected.x][selected.y] = _GRID_STATUS.BLACK;\n        } else if (white == currentTeam) {\n            boardStatus[gameRound][selected.x][selected.y] = _GRID_STATUS.WHITE;\n        }\n        // reverting calculation here...\n        flip(selected.x, selected.y);\n        emit proposalSelected(gameRound, currentTurn, highestAddress, highestAmount);\n        currentTurn += 1;\n        currentTeam = (currentTeam == _TEAM.CAT) ? _TEAM.DOG : _TEAM.CAT;\n        emit turnStart(gameRound, currentTurn, now);\n    }\n\n    function flip(uint256 x, uint256 y) {\n        _GRID_STATUS base = boardStatus[gameRound][x][y];\n        _GRID_STATUS opposite;\n        if (base == _GRID_STATUS.BLACK) {\n            opposite = _GRID_STATUS.WHITE;\n        } else if (base == _GRID_STATUS.WHITE) {\n            opposite = _GRID_STATUS.BLACK;\n        }\n        markFlip(x, y, 1, 1, base, opposite, 0);\n        markFlip(x, y, 1, 0, base, opposite, 1);\n        markFlip(x, y, 1, -1, base, opposite, 2);\n        markFlip(x, y, 0, -1, base, opposite, 3);\n        markFlip(x, y, -1, -1, base, opposite, 4);\n        markFlip(x, y, -1, 0, base, opposite, 5);\n        markFlip(x, y, -1, 1, base, opposite, 6);\n        markFlip(x, y, 0, 1, base, opposite, 7);\n        flipAll(base);\n    }\n    function flipAll(_GRID_STATUS base) {\n        for (uint i = 0; i < currentSize; i++) {\n            for(uint j = 0; j < currentSize; j++) {\n                if (boardStatus[gameRound][i][j] == _GRID_STATUS.FLIP) {\n                    boardStatus[gameRound][i][j] = base;\n                }\n            }\n        }\n    }\n    function markFlip(\n        uint256 x, uint256 y, int256 offsetX, int256 offsetY, \n        _GRID_STATUS base, _GRID_STATUS opposite, uint256 direction\n    ) private {\n        int currentX = int(x) + offsetX;\n        int currentY = int(y) + offsetY;\n        bool shouldFlip = false;\n        uint index = 0;\n        while(\n            (currentX >= 0) &&\n            (currentY >= 0) &&\n            (currentX < int(currentSize)) &&\n            (currentY < int(currentSize))\n        ) {\n            _GRID_STATUS status = boardStatus[gameRound][uint(currentX)][uint(currentY)];\n            if (status == _GRID_STATUS.FLIP) {\n                currentX += offsetX;\n                currentY += offsetY;\n                continue;\n            } else if (status == opposite)  {\n                flipX[gameRound][currentTurn][direction].push(currentX);\n                flipY[gameRound][currentTurn][direction].push(currentY);\n\n                index++;\n                currentX += offsetX;\n                currentY += offsetY;\n                continue;\n            } else {\n                if (status == base) {\n                    shouldFlip = true;\n                    break;\n                } else {\n                    shouldFlip = false;\n                    break;\n                }\n       \n            }\n        }\n        \n        if (shouldFlip) {\n            for (uint i = 0; i < index; i++) {\n                boardStatus[gameRound][uint(flipX[gameRound][currentTurn][direction][i])][uint(flipY[gameRound][currentTurn][direction][i])] = _GRID_STATUS.FLIP;\n            }\n        }\n        \n    }\n\n    function clearGame() public onlyInGame {\n        // revert(\"game over!\");\n        inGame = false;\n        // distribute money\n        emit gameCleared(gameRound, msg.sender);\n\n    }\n\n    function getBoardStatus() public view returns (\n        _GRID_STATUS[]\n    ) {\n        _GRID_STATUS[] memory ret = new _GRID_STATUS[](currentSize * currentSize);\n        for (uint i = 0; i < currentSize; i++) {\n            for (uint j = 0; j < currentSize; j++) {\n                ret[(i * currentSize) + j] = boardStatus[gameRound][i][j];\n            }\n        }\n        return (ret);\n    }\n\n    function getUserStatus(address addr) public view returns (\n        bool isExist,\n        _TEAM team,\n        uint256 CAT,\n        uint256 DOG\n    ) {\n        isExist = userStatus[gameRound][addr].isExist;\n        team = userStatus[gameRound][addr].team;\n        CAT = userStatus[gameRound][addr].ledger.CAT;\n        DOG = userStatus[gameRound][addr].ledger.DOG;\n        return (isExist, team, CAT, DOG);\n    }\n    function getTeamFundingStatus() public view returns(\n        uint256 CAT,\n        uint256 DOG\n    ) {\n        CAT = currentFundingStatus.CAT;\n        DOG = currentFundingStatus.DOG;\n        return (CAT, DOG);\n    }\n\n    function getProposalStatus(uint256 round, uint256 turn, address proposer) public view returns (\n        uint256 vote,\n        uint256 time,\n        uint x,\n        uint y\n    ) {\n        Proposal status = proposals[round][turn][proposer];\n        if (status.isExist) {\n            return (status.vote, status.time, status.x, status.y);\n        }\n    }\n\n    function configure(\n        uint256 _size,\n        uint256 _fundRaisingPeriod,\n        uint256 _turnPeriod,\n        uint256 _baseSharePrice,\n        uint256 _shareGrowthRate,\n        uint256 _sharesPerProposal\n    ) public onlyOwner {\n        size = _size;\n        fundRaisingPeriod = _fundRaisingPeriod;\n        turnPeriod = _turnPeriod;\n        baseSharePrice = _baseSharePrice;\n        shareGrowthRate = _shareGrowthRate;\n        sharesPerProposal = _sharesPerProposal;\n    }\n\n    modifier onlyOwner() {\n        require(msg.sender == owner, \"Only owner is allowed\");\n        _;\n    }\n    modifier onlyInGame() {\n        require(inGame == true, \"Not in game period\");\n        _;\n    }\n}",
  "sourcePath": "/Users/chenwei/Desktop/github/Reversi_On_Smart_Contract_POC/contracts/Deversi.sol",
  "compiler": {
    "name": "solc",
    "version": "0.4.24+commit.e67f0147.Emscripten.clang"
  },
  "schemaVersion": "2.0.1",
  "updatedAt": "2018-10-20T16:31:13.105Z"
}