{
  "contractName": "Deversi",
  "abi": [
    {
      "constant": true,
      "inputs": [],
      "name": "turnPeriod",
      "outputs": [
        {
          "name": "",
          "type": "uint256"
        }
      ],
      "payable": false,
      "stateMutability": "view",
      "type": "function"
    },
    {
      "constant": true,
      "inputs": [
        {
          "name": "",
          "type": "uint256"
        },
        {
          "name": "",
          "type": "address"
        }
      ],
      "name": "userStatus",
      "outputs": [
        {
          "name": "team",
          "type": "uint8"
        },
        {
          "components": [
            {
              "name": "CAT",
              "type": "uint256"
            },
            {
              "name": "DOG",
              "type": "uint256"
            }
          ],
          "name": "ledger",
          "type": "tuple"
        },
        {
          "name": "isExist",
          "type": "bool"
        }
      ],
      "payable": false,
      "stateMutability": "view",
      "type": "function"
    },
    {
      "constant": true,
      "inputs": [],
      "name": "currentSharePrice",
      "outputs": [
        {
          "name": "",
          "type": "uint256"
        }
      ],
      "payable": false,
      "stateMutability": "view",
      "type": "function"
    },
    {
      "constant": true,
      "inputs": [],
      "name": "baseSharePrice",
      "outputs": [
        {
          "name": "",
          "type": "uint256"
        }
      ],
      "payable": false,
      "stateMutability": "view",
      "type": "function"
    },
    {
      "constant": true,
      "inputs": [],
      "name": "currentFundingStatus",
      "outputs": [
        {
          "name": "CAT",
          "type": "uint256"
        },
        {
          "name": "DOG",
          "type": "uint256"
        }
      ],
      "payable": false,
      "stateMutability": "view",
      "type": "function"
    },
    {
      "constant": true,
      "inputs": [],
      "name": "countingStartedTime",
      "outputs": [
        {
          "name": "",
          "type": "uint256"
        }
      ],
      "payable": false,
      "stateMutability": "view",
      "type": "function"
    },
    {
      "constant": true,
      "inputs": [],
      "name": "sharesPerProposal",
      "outputs": [
        {
          "name": "",
          "type": "uint256"
        }
      ],
      "payable": false,
      "stateMutability": "view",
      "type": "function"
    },
    {
      "constant": true,
      "inputs": [],
      "name": "currentSharePerProposal",
      "outputs": [
        {
          "name": "",
          "type": "uint256"
        }
      ],
      "payable": false,
      "stateMutability": "view",
      "type": "function"
    },
    {
      "constant": true,
      "inputs": [],
      "name": "inGame",
      "outputs": [
        {
          "name": "",
          "type": "bool"
        }
      ],
      "payable": false,
      "stateMutability": "view",
      "type": "function"
    },
    {
      "constant": true,
      "inputs": [],
      "name": "black",
      "outputs": [
        {
          "name": "",
          "type": "uint8"
        }
      ],
      "payable": false,
      "stateMutability": "view",
      "type": "function"
    },
    {
      "constant": true,
      "inputs": [],
      "name": "owner",
      "outputs": [
        {
          "name": "",
          "type": "address"
        }
      ],
      "payable": false,
      "stateMutability": "view",
      "type": "function"
    },
    {
      "constant": true,
      "inputs": [
        {
          "name": "",
          "type": "uint256"
        },
        {
          "name": "",
          "type": "uint256"
        },
        {
          "name": "",
          "type": "address"
        }
      ],
      "name": "proposals",
      "outputs": [
        {
          "name": "vote",
          "type": "uint256"
        },
        {
          "name": "time",
          "type": "uint256"
        },
        {
          "name": "isExist",
          "type": "bool"
        },
        {
          "name": "x",
          "type": "uint256"
        },
        {
          "name": "y",
          "type": "uint256"
        }
      ],
      "payable": false,
      "stateMutability": "view",
      "type": "function"
    },
    {
      "constant": true,
      "inputs": [],
      "name": "size",
      "outputs": [
        {
          "name": "",
          "type": "uint256"
        }
      ],
      "payable": false,
      "stateMutability": "view",
      "type": "function"
    },
    {
      "constant": true,
      "inputs": [],
      "name": "white",
      "outputs": [
        {
          "name": "",
          "type": "uint8"
        }
      ],
      "payable": false,
      "stateMutability": "view",
      "type": "function"
    },
    {
      "constant": true,
      "inputs": [],
      "name": "gameRound",
      "outputs": [
        {
          "name": "",
          "type": "uint256"
        }
      ],
      "payable": false,
      "stateMutability": "view",
      "type": "function"
    },
    {
      "constant": true,
      "inputs": [],
      "name": "shareGrowthRate",
      "outputs": [
        {
          "name": "",
          "type": "uint256"
        }
      ],
      "payable": false,
      "stateMutability": "view",
      "type": "function"
    },
    {
      "constant": true,
      "inputs": [],
      "name": "currentTeam",
      "outputs": [
        {
          "name": "",
          "type": "uint8"
        }
      ],
      "payable": false,
      "stateMutability": "view",
      "type": "function"
    },
    {
      "constant": true,
      "inputs": [],
      "name": "currentSize",
      "outputs": [
        {
          "name": "",
          "type": "uint256"
        }
      ],
      "payable": false,
      "stateMutability": "view",
      "type": "function"
    },
    {
      "constant": true,
      "inputs": [
        {
          "name": "",
          "type": "uint256"
        },
        {
          "name": "",
          "type": "uint256"
        },
        {
          "name": "",
          "type": "uint256"
        }
      ],
      "name": "proposedAddress",
      "outputs": [
        {
          "name": "",
          "type": "address"
        }
      ],
      "payable": false,
      "stateMutability": "view",
      "type": "function"
    },
    {
      "constant": true,
      "inputs": [],
      "name": "currentTurn",
      "outputs": [
        {
          "name": "",
          "type": "uint256"
        }
      ],
      "payable": false,
      "stateMutability": "view",
      "type": "function"
    },
    {
      "constant": true,
      "inputs": [
        {
          "name": "",
          "type": "uint256"
        },
        {
          "name": "",
          "type": "uint256"
        }
      ],
      "name": "roundPropsedStatus",
      "outputs": [
        {
          "name": "",
          "type": "bool"
        }
      ],
      "payable": false,
      "stateMutability": "view",
      "type": "function"
    },
    {
      "constant": true,
      "inputs": [],
      "name": "currentShareGrowthRate",
      "outputs": [
        {
          "name": "",
          "type": "uint256"
        }
      ],
      "payable": false,
      "stateMutability": "view",
      "type": "function"
    },
    {
      "constant": true,
      "inputs": [
        {
          "name": "",
          "type": "uint256"
        },
        {
          "name": "",
          "type": "uint256"
        },
        {
          "name": "",
          "type": "uint256"
        }
      ],
      "name": "boardStatus",
      "outputs": [
        {
          "name": "",
          "type": "uint8"
        }
      ],
      "payable": false,
      "stateMutability": "view",
      "type": "function"
    },
    {
      "constant": true,
      "inputs": [],
      "name": "fundRaisingPeriod",
      "outputs": [
        {
          "name": "",
          "type": "uint256"
        }
      ],
      "payable": false,
      "stateMutability": "view",
      "type": "function"
    },
    {
      "constant": true,
      "inputs": [],
      "name": "fundRaisingCountingDown",
      "outputs": [
        {
          "name": "",
          "type": "bool"
        }
      ],
      "payable": false,
      "stateMutability": "view",
      "type": "function"
    },
    {
      "inputs": [],
      "payable": false,
      "stateMutability": "nonpayable",
      "type": "constructor"
    },
    {
      "anonymous": false,
      "inputs": [],
      "name": "funded",
      "type": "event"
    },
    {
      "anonymous": false,
      "inputs": [
        {
          "indexed": false,
          "name": "round",
          "type": "uint256"
        },
        {
          "indexed": false,
          "name": "time",
          "type": "uint256"
        }
      ],
      "name": "NewGameStarted",
      "type": "event"
    },
    {
      "anonymous": false,
      "inputs": [
        {
          "indexed": false,
          "name": "round",
          "type": "uint256"
        },
        {
          "indexed": false,
          "name": "time",
          "type": "uint256"
        }
      ],
      "name": "fundRaisingCountdown",
      "type": "event"
    },
    {
      "anonymous": false,
      "inputs": [
        {
          "indexed": true,
          "name": "round",
          "type": "uint256"
        },
        {
          "indexed": false,
          "name": "turn",
          "type": "uint256"
        },
        {
          "indexed": false,
          "name": "time",
          "type": "uint256"
        }
      ],
      "name": "turnStart",
      "type": "event"
    },
    {
      "anonymous": false,
      "inputs": [
        {
          "indexed": true,
          "name": "round",
          "type": "uint256"
        },
        {
          "indexed": false,
          "name": "turn",
          "type": "uint256"
        },
        {
          "indexed": false,
          "name": "proposer",
          "type": "address"
        },
        {
          "indexed": false,
          "name": "x",
          "type": "uint256"
        },
        {
          "indexed": false,
          "name": "y",
          "type": "uint256"
        }
      ],
      "name": "proposed",
      "type": "event"
    },
    {
      "anonymous": false,
      "inputs": [
        {
          "indexed": false,
          "name": "",
          "type": "uint256"
        },
        {
          "indexed": false,
          "name": "clearer",
          "type": "address"
        }
      ],
      "name": "gameCleared",
      "type": "event"
    },
    {
      "anonymous": false,
      "inputs": [
        {
          "indexed": false,
          "name": "round",
          "type": "uint256"
        },
        {
          "indexed": false,
          "name": "turn",
          "type": "uint256"
        },
        {
          "indexed": false,
          "name": "proposer",
          "type": "address"
        },
        {
          "indexed": false,
          "name": "voter",
          "type": "address"
        },
        {
          "indexed": false,
          "name": "shares",
          "type": "uint256"
        }
      ],
      "name": "voted",
      "type": "event"
    },
    {
      "anonymous": false,
      "inputs": [
        {
          "indexed": false,
          "name": "round",
          "type": "uint256"
        },
        {
          "indexed": false,
          "name": "turn",
          "type": "uint256"
        },
        {
          "indexed": false,
          "name": "proposer",
          "type": "address"
        },
        {
          "indexed": false,
          "name": "vote",
          "type": "uint256"
        }
      ],
      "name": "proposalSelected",
      "type": "event"
    },
    {
      "anonymous": false,
      "inputs": [
        {
          "indexed": false,
          "name": "turn",
          "type": "uint256"
        },
        {
          "indexed": false,
          "name": "x",
          "type": "uint256"
        },
        {
          "indexed": false,
          "name": "y",
          "type": "uint256"
        }
      ],
      "name": "flipEvent",
      "type": "event"
    },
    {
      "anonymous": false,
      "inputs": [
        {
          "indexed": false,
          "name": "msg",
          "type": "string"
        },
        {
          "indexed": false,
          "name": "sender",
          "type": "address"
        },
        {
          "indexed": false,
          "name": "round",
          "type": "uint256"
        },
        {
          "indexed": false,
          "name": "time",
          "type": "uint256"
        }
      ],
      "name": "messagePost",
      "type": "event"
    },
    {
      "constant": false,
      "inputs": [],
      "name": "startNewGame",
      "outputs": [],
      "payable": false,
      "stateMutability": "nonpayable",
      "type": "function"
    },
    {
      "constant": false,
      "inputs": [
        {
          "name": "teamChoosen",
          "type": "uint8"
        }
      ],
      "name": "funding",
      "outputs": [],
      "payable": true,
      "stateMutability": "payable",
      "type": "function"
    },
    {
      "constant": false,
      "inputs": [
        {
          "name": "message",
          "type": "string"
        }
      ],
      "name": "postMessage",
      "outputs": [],
      "payable": false,
      "stateMutability": "nonpayable",
      "type": "function"
    },
    {
      "constant": false,
      "inputs": [
        {
          "name": "x",
          "type": "uint256"
        },
        {
          "name": "y",
          "type": "uint256"
        }
      ],
      "name": "propose",
      "outputs": [],
      "payable": true,
      "stateMutability": "payable",
      "type": "function"
    },
    {
      "constant": false,
      "inputs": [
        {
          "name": "round",
          "type": "uint256"
        },
        {
          "name": "turn",
          "type": "uint256"
        },
        {
          "name": "proposer",
          "type": "address"
        }
      ],
      "name": "vote",
      "outputs": [],
      "payable": true,
      "stateMutability": "payable",
      "type": "function"
    },
    {
      "constant": false,
      "inputs": [
        {
          "name": "x",
          "type": "uint256"
        },
        {
          "name": "y",
          "type": "uint256"
        }
      ],
      "name": "flip",
      "outputs": [],
      "payable": false,
      "stateMutability": "nonpayable",
      "type": "function"
    },
    {
      "constant": false,
      "inputs": [
        {
          "name": "base",
          "type": "uint8"
        }
      ],
      "name": "flipAll",
      "outputs": [],
      "payable": false,
      "stateMutability": "nonpayable",
      "type": "function"
    },
    {
      "constant": false,
      "inputs": [],
      "name": "clearGame",
      "outputs": [],
      "payable": false,
      "stateMutability": "nonpayable",
      "type": "function"
    },
    {
      "constant": true,
      "inputs": [],
      "name": "getBoardStatus",
      "outputs": [
        {
          "name": "",
          "type": "uint8[]"
        }
      ],
      "payable": false,
      "stateMutability": "view",
      "type": "function"
    },
    {
      "constant": true,
      "inputs": [
        {
          "name": "addr",
          "type": "address"
        }
      ],
      "name": "getUserStatus",
      "outputs": [
        {
          "name": "isExist",
          "type": "bool"
        },
        {
          "name": "team",
          "type": "uint8"
        },
        {
          "name": "CAT",
          "type": "uint256"
        },
        {
          "name": "DOG",
          "type": "uint256"
        }
      ],
      "payable": false,
      "stateMutability": "view",
      "type": "function"
    },
    {
      "constant": true,
      "inputs": [],
      "name": "getTeamFundingStatus",
      "outputs": [
        {
          "name": "CAT",
          "type": "uint256"
        },
        {
          "name": "DOG",
          "type": "uint256"
        }
      ],
      "payable": false,
      "stateMutability": "view",
      "type": "function"
    },
    {
      "constant": true,
      "inputs": [
        {
          "name": "round",
          "type": "uint256"
        },
        {
          "name": "turn",
          "type": "uint256"
        },
        {
          "name": "proposer",
          "type": "address"
        }
      ],
      "name": "getProposalStatus",
      "outputs": [
        {
          "name": "vote",
          "type": "uint256"
        },
        {
          "name": "time",
          "type": "uint256"
        },
        {
          "name": "x",
          "type": "uint256"
        },
        {
          "name": "y",
          "type": "uint256"
        }
      ],
      "payable": false,
      "stateMutability": "view",
      "type": "function"
    },
    {
      "constant": false,
      "inputs": [
        {
          "name": "_size",
          "type": "uint256"
        },
        {
          "name": "_fundRaisingPeriod",
          "type": "uint256"
        },
        {
          "name": "_turnPeriod",
          "type": "uint256"
        },
        {
          "name": "_baseSharePrice",
          "type": "uint256"
        },
        {
          "name": "_shareGrowthRate",
          "type": "uint256"
        },
        {
          "name": "_sharesPerProposal",
          "type": "uint256"
        }
      ],
      "name": "configure",
      "outputs": [],
      "payable": false,
      "stateMutability": "nonpayable",
      "type": "function"
    }
  ],
  "bytecode": "0x60806040523480156200001157600080fd5b5033600160006101000a81548173ffffffffffffffffffffffffffffffffffffffff021916908373ffffffffffffffffffffffffffffffffffffffff16021790555060006008819055506000600760006101000a81548160ff021916908315150217905550620000a16008600a605a66038d7ea4c680006005600a620000c0640100000000026401000000009004565b620000ba620001b8640100000000026401000000009004565b62000766565b600160009054906101000a900473ffffffffffffffffffffffffffffffffffffffff1673ffffffffffffffffffffffffffffffffffffffff163373ffffffffffffffffffffffffffffffffffffffff1614151562000186576040517f08c379a00000000000000000000000000000000000000000000000000000000081526004018080602001828103825260158152602001807f4f6e6c79206f776e657220697320616c6c6f776564000000000000000000000081525060200191505060405180910390fd5b856000819055508460028190555083600381905550826004819055508160058190555080600681905550505050505050565b60001515600760009054906101000a900460ff16151514151562000244576040517f08c379a00000000000000000000000000000000000000000000000000000000081526004018080602001828103825260108152602001807f67616d6520697320676f696e67206f6e0000000000000000000000000000000081525060200191505060405180910390fd5b6001600854016008819055506000546009819055506000600a81905550600454600b81905550600654600c81905550600554600d81905550600a6006819055506000601060006101000a81548160ff02191690831515021790555060006011819055506000601260006101000a81548160ff02191690836002811115620002c757fe5b02179055506000601260016101000a81548160ff02191690836002811115620002ec57fe5b02179055506000601260026101000a81548160ff021916908360028111156200031157fe5b02179055506000600e600001819055506000600e600101819055506001600760006101000a81548160ff02191690831515021790555060016013600060085481526020019081526020016000206000600160026009548115156200037157fe5b040381526020019081526020016000206000600160026009548115156200039457fe5b0403815260200190815260200160002060006101000a81548160ff02191690836005811115620003c057fe5b0217905550600160136000600854815260200190815260200160002060006002600954811515620003ed57fe5b048152602001908152602001600020600060026009548115156200040d57fe5b04815260200190815260200160002060006101000a81548160ff021916908360058111156200043857fe5b02179055506002601360006008548152602001908152602001600020600060026009548115156200046557fe5b0481526020019081526020016000206000600160026009548115156200048757fe5b0403815260200190815260200160002060006101000a81548160ff02191690836005811115620004b357fe5b02179055506002601360006008548152602001908152602001600020600060016002600954811515620004e257fe5b04038152602001908152602001600020600060026009548115156200050357fe5b04815260200190815260200160002060006101000a81548160ff021916908360058111156200052e57fe5b021790555060036013600060085481526020019081526020016000206000600160026009548115156200055d57fe5b040181526020019081526020016000206000600160026009548115156200058057fe5b0403815260200190815260200160002060006101000a81548160ff02191690836005811115620005ac57fe5b0217905550600360136000600854815260200190815260200160002060006002600954811515620005d957fe5b0481526020019081526020016000206000600280600954811515620005fa57fe5b0403815260200190815260200160002060006101000a81548160ff021916908360058111156200062657fe5b021790555060036013600060085481526020019081526020016000206000600160026009548115156200065557fe5b040381526020019081526020016000206000600160026009548115156200067857fe5b0401815260200190815260200160002060006101000a81548160ff02191690836005811115620006a457fe5b021790555060036013600060085481526020019081526020016000206000600280600954811515620006d257fe5b0403815260200190815260200160002060006002600954811515620006f357fe5b04815260200190815260200160002060006101000a81548160ff021916908360058111156200071e57fe5b02179055507f1a92f8260fbb9503d4da4de0b7753e04745a81b9a56dafcd9e51a7b828c16c7360085442604051808381526020018281526020019250505060405180910390a1565b6142cd80620007766000396000f3006080604052600436106101d8576000357c0100000000000000000000000000000000000000000000000000000000900463ffffffff1680630b89db47146101dd57806316ab10101461020f5780631aca53571461023a57806328a79576146102bb57806334db3b9c146102e657806337d319ad1461031157806345077a8614610370578063482d51e0146103a257806350d91583146103b957806358052a0e146104035780635874d4201461042e5780635b4c9c59146104595780635de17e671461048357806365ca0d52146104ae5780636630f88f1461051a578063794f4fdc146105835780638398c966146105b25780638b8fd3bd146105e25780638da5cb5b1461061b57806393c45f3714610672578063949d225d146106fd578063a081107414610728578063a5f9b5c214610761578063b21015f11461078c578063ba1652db146107b7578063bda1504b146107f0578063c7f166dc1461081b578063da1b66141461089b578063deb612861461091c578063e3254f7d14610947578063e6f9591714610996578063e75c8bfe146109cd578063ea0d5dcd146109f8578063f0c67a8414610a76578063f131a7ae14610a99578063f8ee700c14610ab0578063fc71852a14610b13578063fffb133a14610b3e575b600080fd5b3480156101e957600080fd5b506101f2610b6d565b604051808381526020018281526020019250505060405180910390f35b34801561021b57600080fd5b50610224610b8a565b6040518082815260200191505060405180910390f35b34801561024657600080fd5b5061028560048036038101908080359060200190929190803573ffffffffffffffffffffffffffffffffffffffff169060200190929190505050610b90565b6040518084600281111561029557fe5b60ff16815260200183815260200182151515158152602001935050505060405180910390f35b3480156102c757600080fd5b506102d0610bff565b6040518082815260200191505060405180910390f35b3480156102f257600080fd5b506102fb610c05565b6040518082815260200191505060405180910390f35b34801561031d57600080fd5b5061036e600480360381019080803590602001909291908035906020019092919080359060200190929190803590602001909291908035906020019092919080359060200190929190505050610c0b565b005b34801561037c57600080fd5b50610385610d02565b604051808381526020018281526020019250505060405180910390f35b3480156103ae57600080fd5b506103b7610d14565b005b6104016004803603810190808035906020019092919080359060200190929190803573ffffffffffffffffffffffffffffffffffffffff1690602001909291905050506112a6565b005b34801561040f57600080fd5b506104186118bd565b6040518082815260200191505060405180910390f35b34801561043a57600080fd5b506104436118c3565b6040518082815260200191505060405180910390f35b61048160048036038101908080359060200190929190803590602001909291905050506118c9565b005b34801561048f57600080fd5b50610498611cf8565b6040518082815260200191505060405180910390f35b3480156104ba57600080fd5b506104c3611cfe565b6040518080602001828103825283818151815260200191508051906020019060200280838360005b838110156105065780820151818401526020810190506104eb565b505050509050019250505060405180910390f35b34801561052657600080fd5b50610581600480360381019080803590602001908201803590602001908080601f0160208091040260200160405190810160405280939291908181526020018383808284378201915050505050509192919290505050611dfc565b005b34801561058f57600080fd5b50610598611f6c565b604051808215151515815260200191505060405180910390f35b3480156105be57600080fd5b506105e0600480360381019080803560ff169060200190929190505050611f7f565b005b3480156105ee57600080fd5b506105f761207a565b6040518082600281111561060757fe5b60ff16815260200191505060405180910390f35b34801561062757600080fd5b5061063061208d565b604051808273ffffffffffffffffffffffffffffffffffffffff1673ffffffffffffffffffffffffffffffffffffffff16815260200191505060405180910390f35b34801561067e57600080fd5b506106c76004803603810190808035906020019092919080359060200190929190803573ffffffffffffffffffffffffffffffffffffffff1690602001909291905050506120b3565b60405180868152602001858152602001841515151581526020018381526020018281526020019550505050505060405180910390f35b34801561070957600080fd5b50610712612110565b6040518082815260200191505060405180910390f35b34801561073457600080fd5b5061073d612116565b6040518082600281111561074d57fe5b60ff16815260200191505060405180910390f35b34801561076d57600080fd5b50610776612129565b6040518082815260200191505060405180910390f35b34801561079857600080fd5b506107a161212f565b6040518082815260200191505060405180910390f35b3480156107c357600080fd5b506107cc612135565b604051808260028111156107dc57fe5b60ff16815260200191505060405180910390f35b3480156107fc57600080fd5b50610805612148565b6040518082815260200191505060405180910390f35b34801561082757600080fd5b506108706004803603810190808035906020019092919080359060200190929190803573ffffffffffffffffffffffffffffffffffffffff16906020019092919050505061214e565b6040518085815260200184815260200183815260200182815260200194505050505060405180910390f35b3480156108a757600080fd5b506108da6004803603810190808035906020019092919080359060200190929190803590602001909291905050506121fc565b604051808273ffffffffffffffffffffffffffffffffffffffff1673ffffffffffffffffffffffffffffffffffffffff16815260200191505060405180910390f35b34801561092857600080fd5b50610931612256565b6040518082815260200191505060405180910390f35b34801561095357600080fd5b5061097c600480360381019080803590602001909291908035906020019092919050505061225c565b604051808215151515815260200191505060405180910390f35b3480156109a257600080fd5b506109cb600480360381019080803590602001909291908035906020019092919050505061228b565b005b3480156109d957600080fd5b506109e261245a565b6040518082815260200191505060405180910390f35b348015610a0457600080fd5b50610a39600480360381019080803573ffffffffffffffffffffffffffffffffffffffff169060200190929190505050612460565b6040518085151515158152602001846002811115610a5357fe5b60ff16815260200183815260200182815260200194505050505060405180910390f35b610a97600480360381019080803560ff1690602001909291905050506125f9565b005b348015610aa557600080fd5b50610aae612c6b565b005b348015610abc57600080fd5b50610aef600480360381019080803590602001909291908035906020019092919080359060200190929190505050612d80565b60405180826005811115610aff57fe5b60ff16815260200191505060405180910390f35b348015610b1f57600080fd5b50610b28612dbc565b6040518082815260200191505060405180910390f35b348015610b4a57600080fd5b50610b53612dc2565b604051808215151515815260200191505060405180910390f35b600080600e600001549150600e6001015490508181915091509091565b60035481565b6014602052816000526040600020602052806000526040600020600091509150508060000160009054906101000a900460ff16908060010160408051908101604052908160008201548152602001600182015481525050908060030160009054906101000a900460ff16905083565b600b5481565b60045481565b600160009054906101000a900473ffffffffffffffffffffffffffffffffffffffff1673ffffffffffffffffffffffffffffffffffffffff163373ffffffffffffffffffffffffffffffffffffffff16141515610cd0576040517f08c379a00000000000000000000000000000000000000000000000000000000081526004018080602001828103825260158152602001807f4f6e6c79206f776e657220697320616c6c6f776564000000000000000000000081525060200191505060405180910390fd5b856000819055508460028190555083600381905550826004819055508160058190555080600681905550505050505050565b600e8060000154908060010154905082565b60001515600760009054906101000a900460ff161515141515610d9f576040517f08c379a00000000000000000000000000000000000000000000000000000000081526004018080602001828103825260108152602001807f67616d6520697320676f696e67206f6e0000000000000000000000000000000081525060200191505060405180910390fd5b6001600854016008819055506000546009819055506000600a81905550600454600b81905550600654600c81905550600554600d81905550600a6006819055506000601060006101000a81548160ff02191690831515021790555060006011819055506000601260006101000a81548160ff02191690836002811115610e2157fe5b02179055506000601260016101000a81548160ff02191690836002811115610e4557fe5b02179055506000601260026101000a81548160ff02191690836002811115610e6957fe5b02179055506000600e600001819055506000600e600101819055506001600760006101000a81548160ff0219169083151502179055506001601360006008548152602001908152602001600020600060016002600954811515610ec857fe5b04038152602001908152602001600020600060016002600954811515610eea57fe5b0403815260200190815260200160002060006101000a81548160ff02191690836005811115610f1557fe5b0217905550600160136000600854815260200190815260200160002060006002600954811515610f4157fe5b04815260200190815260200160002060006002600954811515610f6057fe5b04815260200190815260200160002060006101000a81548160ff02191690836005811115610f8a57fe5b0217905550600260136000600854815260200190815260200160002060006002600954811515610fb657fe5b048152602001908152602001600020600060016002600954811515610fd757fe5b0403815260200190815260200160002060006101000a81548160ff0219169083600581111561100257fe5b0217905550600260136000600854815260200190815260200160002060006001600260095481151561103057fe5b040381526020019081526020016000206000600260095481151561105057fe5b04815260200190815260200160002060006101000a81548160ff0219169083600581111561107a57fe5b021790555060036013600060085481526020019081526020016000206000600160026009548115156110a857fe5b040181526020019081526020016000206000600160026009548115156110ca57fe5b0403815260200190815260200160002060006101000a81548160ff021916908360058111156110f557fe5b021790555060036013600060085481526020019081526020016000206000600260095481151561112157fe5b048152602001908152602001600020600060028060095481151561114157fe5b0403815260200190815260200160002060006101000a81548160ff0219169083600581111561116c57fe5b0217905550600360136000600854815260200190815260200160002060006001600260095481151561119a57fe5b040381526020019081526020016000206000600160026009548115156111bc57fe5b0401815260200190815260200160002060006101000a81548160ff021916908360058111156111e757fe5b02179055506003601360006008548152602001908152602001600020600060028060095481151561121457fe5b040381526020019081526020016000206000600260095481151561123457fe5b04815260200190815260200160002060006101000a81548160ff0219169083600581111561125e57fe5b02179055507f1a92f8260fbb9503d4da4de0b7753e04745a81b9a56dafcd9e51a7b828c16c7360085442604051808381526020018281526020019250505060405180910390a1565b60008060008060011515600760009054906101000a900460ff161515141515611337576040517f08c379a00000000000000000000000000000000000000000000000000000000081526004018080602001828103825260128152602001807f4e6f7420696e2067616d6520706572696f64000000000000000000000000000081525060200191505060405180910390fd5b866008541415156113b0576040517f08c379a00000000000000000000000000000000000000000000000000000000081526004018080602001828103825260148152602001807f6e6f7420696e2063757272656e7420726f756e6400000000000000000000000081525060200191505060405180910390fd5b6000600a5411151561142a576040517f08c379a000000000000000000000000000000000000000000000000000000000815260040180806020018281038252600f8152602001807f6e6f74207965742073746172746564000000000000000000000000000000000081525060200191505060405180910390fd5b600a54861415156114a3576040517f08c379a00000000000000000000000000000000000000000000000000000000081526004018080602001828103825260138152602001807f4e6f7420696e2063757272656e74207475726e0000000000000000000000000081525060200191505060405180910390fd5b600254601154019350600354600a5402840192506003548303915082421080156114cd5750814210155b1515611541576040517f08c379a00000000000000000000000000000000000000000000000000000000081526004018080602001828103825260138152602001807f6e6f7420696e20726f756e6420706572696f640000000000000000000000000081525060200191505060405180910390fd5b60166000888152602001908152602001600020600087815260200190815260200160002060008673ffffffffffffffffffffffffffffffffffffffff1673ffffffffffffffffffffffffffffffffffffffff16815260200190815260200160002060020160009054906101000a900460ff161561184657600b54348115156115c557fe5b0490508060166000898152602001908152602001600020600088815260200190815260200160002060008773ffffffffffffffffffffffffffffffffffffffff1673ffffffffffffffffffffffffffffffffffffffff1681526020019081526020016000206000016000828254019250508190555060028081111561164657fe5b601260009054906101000a900460ff16600281111561166157fe5b14156116e5578060146000600854815260200190815260200160002060003373ffffffffffffffffffffffffffffffffffffffff1673ffffffffffffffffffffffffffffffffffffffff1681526020019081526020016000206001016000016000828254019250508190555080600e6000016000828254019250508190555061178e565b600160028111156116f257fe5b601260009054906101000a900460ff16600281111561170d57fe5b141561178d578060146000600854815260200190815260200160002060003373ffffffffffffffffffffffffffffffffffffffff1673ffffffffffffffffffffffffffffffffffffffff1681526020019081526020016000206001016001016000828254019250508190555080600e600101600082825401925050819055505b5b7fd385cfb87eeb4ff7958bbec45d17d99a4b1bcdf1237c6257b96cdce3177f3c1c600854600a54873385604051808681526020018581526020018473ffffffffffffffffffffffffffffffffffffffff1673ffffffffffffffffffffffffffffffffffffffff1681526020018373ffffffffffffffffffffffffffffffffffffffff1673ffffffffffffffffffffffffffffffffffffffff1681526020018281526020019550505050505060405180910390a16118b4565b6040517f08c379a00000000000000000000000000000000000000000000000000000000081526004018080602001828103825260128152602001807f70726f706f73616c206e6f74206578697374000000000000000000000000000081525060200191505060405180910390fd5b50505050505050565b60115481565b60065481565b60008060008060011515600760009054906101000a900460ff16151514151561195a576040517f08c379a00000000000000000000000000000000000000000000000000000000081526004018080602001828103825260128152602001807f4e6f7420696e2067616d6520706572696f64000000000000000000000000000081525060200191505060405180910390fd5b60025460115401935060011515601060009054906101000a900460ff16151514801561198557508342115b15156119f9576040517f08c379a000000000000000000000000000000000000000000000000000000000815260040180806020018281038252600f8152602001807f6e6f74207965742073746172746564000000000000000000000000000000000081525060200191505060405180910390fd5b6000600a541415611b4b576001600a60008282540192505081905550600e60010154600e60000154101515611a99576002601260006101000a81548160ff02191690836002811115611a4757fe5b02179055506002601260016101000a81548160ff02191690836002811115611a6b57fe5b02179055506001601260026101000a81548160ff02191690836002811115611a8f57fe5b0217905550611b06565b6001601260006101000a81548160ff02191690836002811115611ab857fe5b02179055506001601260016101000a81548160ff02191690836002811115611adc57fe5b02179055506002601260026101000a81548160ff02191690836002811115611b0057fe5b02179055505b6008547fa74e8fdd0d1b2a47375925ad4caffed137ae7d87fbae14898bfae105c8c1a39f600a5442604051808381526020018281526020019250505060405180910390a25b600354600a5402840192506003548303915082421115611cd057600115156015600060085481526020019081526020016000206000600a54815260200190815260200160002060009054906101000a900460ff161515141515611c3c576040517f08c379a00000000000000000000000000000000000000000000000000000000081526004018080602001828103825260398152602001807f47616d652073686f756c6420626520636c65617265642062656361757365207081526020017f726576696f7573207475726e2069736e277420706c617965640000000000000081525060400191505060405180910390fd5b6003548301905080421115611cb9576040517f08c379a00000000000000000000000000000000000000000000000000000000081526004018080602001828103825260098152602001807f47616d65206f766572000000000000000000000000000000000000000000000081525060200191505060405180910390fd5b611cc1612dd5565b611ccb86866132a1565b611cf0565b8242108015611cdf5750814210155b15611cef57611cee86866132a1565b5b5b505050505050565b600c5481565b60608060008060095460095402604051908082528060200260200182016040528015611d395781602001602082028038833980820191505090505b509250600091505b600954821015611df357600090505b600954811015611de6576013600060085481526020019081526020016000206000838152602001908152602001600020600082815260200190815260200160002060009054906101000a900460ff168382600954850201815181101515611db357fe5b906020019060200201906005811115611dc857fe5b90816005811115611dd557fe5b815250508080600101915050611d50565b8180600101925050611d41565b82935050505090565b60011515600760009054906101000a900460ff161515141515611e87576040517f08c379a00000000000000000000000000000000000000000000000000000000081526004018080602001828103825260128152602001807f4e6f7420696e2067616d6520706572696f64000000000000000000000000000081525060200191505060405180910390fd5b7fc0ab64a6e46b12f99e6c2bfe5ade59e09162c91559e4e832d89ab58fdd849b3e81336008544260405180806020018573ffffffffffffffffffffffffffffffffffffffff1673ffffffffffffffffffffffffffffffffffffffff168152602001848152602001838152602001828103825286818151815260200191508051906020019080838360005b83811015611f2c578082015181840152602081019050611f11565b50505050905090810190601f168015611f595780820380516001836020036101000a031916815260200191505b509550505050505060405180910390a150565b600760009054906101000a900460ff1681565b600080600091505b60095482101561207557600090505b60095481101561206857600580811115611fac57fe5b6013600060085481526020019081526020016000206000848152602001908152602001600020600083815260200190815260200160002060009054906101000a900460ff166005811115611ffc57fe5b141561205b57826013600060085481526020019081526020016000206000848152602001908152602001600020600083815260200190815260200160002060006101000a81548160ff0219169083600581111561205557fe5b02179055505b8080600101915050611f96565b8180600101925050611f87565b505050565b601260019054906101000a900460ff1681565b600160009054906101000a900473ffffffffffffffffffffffffffffffffffffffff1681565b601660205282600052604060002060205281600052604060002060205280600052604060002060009250925050508060000154908060010154908060020160009054906101000a900460ff16908060030154908060040154905085565b60005481565b601260029054906101000a900460ff1681565b60085481565b60055481565b601260009054906101000a900460ff1681565b60095481565b600080600080600060166000898152602001908152602001600020600088815260200190815260200160002060008773ffffffffffffffffffffffffffffffffffffffff1673ffffffffffffffffffffffffffffffffffffffff16815260200190815260200160002090508060020160009054906101000a900460ff16156121f157806000015481600101548260030154836004015494509450945094506121f2565b5b5093509350935093565b60176020528260005260406000206020528160005260406000208181548110151561222357fe5b90600052602060002001600092509250509054906101000a900473ffffffffffffffffffffffffffffffffffffffff1681565b600a5481565b60156020528160005260406000206020528060005260406000206000915091509054906101000a900460ff1681565b6000806013600060085481526020019081526020016000206000858152602001908152602001600020600084815260200190815260200160002060009054906101000a900460ff169150600160058111156122e257fe5b8260058111156122ee57fe5b14156122fd5760029050612322565b6002600581111561230a57fe5b82600581111561231657fe5b141561232157600190505b5b612333848460018086866000613b5a565b61234584846001600086866001613b5a565b612376848460017fffffffffffffffffffffffffffffffffffffffffffffffffffffffffffffffff86866002613b5a565b6123a7848460007fffffffffffffffffffffffffffffffffffffffffffffffffffffffffffffffff86866003613b5a565b6123d784847fffffffffffffffffffffffffffffffffffffffffffffffffffffffffffffffff8086866004613b5a565b61240884847fffffffffffffffffffffffffffffffffffffffffffffffffffffffffffffffff600086866005613b5a565b61243984847fffffffffffffffffffffffffffffffffffffffffffffffffffffffffffffffff600186866006613b5a565b61244b84846000600186866007613b5a565b61245482611f7f565b50505050565b600d5481565b60008060008060146000600854815260200190815260200160002060008673ffffffffffffffffffffffffffffffffffffffff1673ffffffffffffffffffffffffffffffffffffffff16815260200190815260200160002060030160009054906101000a900460ff16935060146000600854815260200190815260200160002060008673ffffffffffffffffffffffffffffffffffffffff1673ffffffffffffffffffffffffffffffffffffffff16815260200190815260200160002060000160009054906101000a900460ff16925060146000600854815260200190815260200160002060008673ffffffffffffffffffffffffffffffffffffffff1673ffffffffffffffffffffffffffffffffffffffff16815260200190815260200160002060010160000154915060146000600854815260200190815260200160002060008673ffffffffffffffffffffffffffffffffffffffff1673ffffffffffffffffffffffffffffffffffffffff1681526020019081526020016000206001016001015490508383838393509350935093509193509193565b600060011515600760009054906101000a900460ff161515141515612686576040517f08c379a00000000000000000000000000000000000000000000000000000000081526004018080602001828103825260128152602001807f4e6f7420696e2067616d6520706572696f64000000000000000000000000000081525060200191505060405180910390fd5b6000600a54141515612726576040517f08c379a00000000000000000000000000000000000000000000000000000000081526004018080602001828103825260218152602001807f66756e64696e67206973206f6e6c7920616c6c6f776564206174207475726e2081526020017f300000000000000000000000000000000000000000000000000000000000000081525060400191505060405180910390fd5b60003411151561279e576040517f08c379a000000000000000000000000000000000000000000000000000000000815260040180806020018281038252600e8152602001807f46756e647320726571756972656400000000000000000000000000000000000081525060200191505060405180910390fd5b601060009054906101000a900460ff161561283257600254601154014211151515612831576040517f08c379a000000000000000000000000000000000000000000000000000000000815260040180806020018281038252600f8152602001807f66756e64696e67206973206f766572000000000000000000000000000000000081525060200191505060405180910390fd5b5b6001151560146000600854815260200190815260200160002060003373ffffffffffffffffffffffffffffffffffffffff1673ffffffffffffffffffffffffffffffffffffffff16815260200190815260200160002060030160009054906101000a900460ff16151514151515612911576040517f08c379a000000000000000000000000000000000000000000000000000000000815260040180806020018281038252600f8152602001807f416c72656164792066756e64656421000000000000000000000000000000000081525060200191505060405180910390fd5b600b543481151561291e57fe5b04905060028081111561292d57fe5b82600281111561293957fe5b14156129b4578060146000600854815260200190815260200160002060003373ffffffffffffffffffffffffffffffffffffffff1673ffffffffffffffffffffffffffffffffffffffff1681526020019081526020016000206001016000018190555080600e60000160008282540192505081905550612ab7565b600160028111156129c157fe5b8260028111156129cd57fe5b1415612a48578060146000600854815260200190815260200160002060003373ffffffffffffffffffffffffffffffffffffffff1673ffffffffffffffffffffffffffffffffffffffff1681526020019081526020016000206001016001018190555080600e60010160008282540192505081905550612ab6565b6040517f08c379a000000000000000000000000000000000000000000000000000000000815260040180806020018281038252600c8152602001807f496e76616c6964207465616d000000000000000000000000000000000000000081525060200191505060405180910390fd5b5b8160146000600854815260200190815260200160002060003373ffffffffffffffffffffffffffffffffffffffff1673ffffffffffffffffffffffffffffffffffffffff16815260200190815260200160002060000160006101000a81548160ff02191690836002811115612b2857fe5b0217905550600160146000600854815260200190815260200160002060003373ffffffffffffffffffffffffffffffffffffffff1673ffffffffffffffffffffffffffffffffffffffff16815260200190815260200160002060030160006101000a81548160ff0219169083151502179055507ff3a504f28a34fdf555994a3bdfd3dc29f822e8684a9ef01001afb738cc3cdd0a60405160405180910390a160001515601060009054906101000a900460ff1615151415612c67576000600e60000154118015612bfd57506000600e60010154115b15612c66576001601060006101000a81548160ff021916908315150217905550426011819055507f61f3502e7542b5b55e9bb0ecc3c768c9f845c89d8e9bb9f773ef927c56ae159360085442604051808381526020018281526020019250505060405180910390a15b5b5050565b60011515600760009054906101000a900460ff161515141515612cf6576040517f08c379a00000000000000000000000000000000000000000000000000000000081526004018080602001828103825260128152602001807f4e6f7420696e2067616d6520706572696f64000000000000000000000000000081525060200191505060405180910390fd5b6000600760006101000a81548160ff0219169083151502179055507fb6cb2ccc2ed1ccdd9dda64fe4d291deb23baaf807b138d00c9e4e3922aba934e60085433604051808381526020018273ffffffffffffffffffffffffffffffffffffffff1673ffffffffffffffffffffffffffffffffffffffff1681526020019250505060405180910390a1565b6013602052826000526040600020602052816000526040600020602052806000526040600020600092509250509054906101000a900460ff1681565b60025481565b601060009054906101000a900460ff1681565b60008060008060008060008060006017600060085481526020019081526020016000206000600a5481526020019081526020016000208054905098506017600060085481526020019081526020016000206000600a5481526020019081526020016000206000815481101515612e4757fe5b9060005260206000200160009054906101000a900473ffffffffffffffffffffffffffffffffffffffff1697506016600060085481526020019081526020016000206000600a54815260200190815260200160002060008973ffffffffffffffffffffffffffffffffffffffff1673ffffffffffffffffffffffffffffffffffffffff168152602001908152602001600020600001549650600195505b88861015612fd9576017600060085481526020019081526020016000206000600a54815260200190815260200160002086815481101515612f2157fe5b9060005260206000200160009054906101000a900473ffffffffffffffffffffffffffffffffffffffff1694506016600060085481526020019081526020016000206000600a54815260200190815260200160002060008673ffffffffffffffffffffffffffffffffffffffff1673ffffffffffffffffffffffffffffffffffffffff16815260200190815260200160002093508684600001541115612fcc57849750836000015496505b8580600101965050612ee4565b6016600060085481526020019081526020016000206000600a54815260200190815260200160002060008973ffffffffffffffffffffffffffffffffffffffff1673ffffffffffffffffffffffffffffffffffffffff1681526020019081526020016000209250601260009054906101000a900460ff16600281111561305b57fe5b601260019054906101000a900460ff16600281111561307657fe5b14156130e257600160136000600854815260200190815260200160002060008560030154815260200190815260200160002060008560040154815260200190815260200160002060006101000a81548160ff021916908360058111156130d857fe5b0217905550613181565b601260009054906101000a900460ff1660028111156130fd57fe5b601260029054906101000a900460ff16600281111561311857fe5b141561318057600260136000600854815260200190815260200160002060008560030154815260200190815260200160002060008560040154815260200190815260200160002060006101000a81548160ff0219169083600581111561317a57fe5b02179055505b5b6131938360030154846004015461228b565b6001600a60008282540192505081905550601260019054906101000a900460ff1660028111156131bf57fe5b601260009054906101000a900460ff1660028111156131da57fe5b14156131ed576002915060019050613233565b601260029054906101000a900460ff16600281111561320857fe5b601260009054906101000a900460ff16600281111561322357fe5b14156132325760019150600290505b5b61323d8282613e6b565b5060028081111561324a57fe5b601260009054906101000a900460ff16600281111561326557fe5b14613271576002613274565b60015b601260006101000a81548160ff0219169083600281111561329157fe5b0217905550505050505050505050565b60008060146000600854815260200190815260200160002060003373ffffffffffffffffffffffffffffffffffffffff1673ffffffffffffffffffffffffffffffffffffffff1681526020019081526020016000209150601260009054906101000a900460ff16600281111561331357fe5b8260000160009054906101000a900460ff16600281111561333057fe5b1415156133a5576040517f08c379a00000000000000000000000000000000000000000000000000000000081526004018080602001828103825260188152602001807f596f7520617265206e6f74206f6e2074686973207465616d000000000000000081525060200191505060405180910390fd5b60016015600060085481526020019081526020016000206000600a54815260200190815260200160002060006101000a81548160ff021916908315150217905550600115156016600060085481526020019081526020016000206000600a54815260200190815260200160002060003373ffffffffffffffffffffffffffffffffffffffff1673ffffffffffffffffffffffffffffffffffffffff16815260200190815260200160002060020160009054906101000a900460ff161515141515613ac057600b543481151561347657fe5b04905060065481101515156134f3576040517f08c379a000000000000000000000000000000000000000000000000000000000815260040180806020018281038252600f8152602001807f4e6f7420656e6f7567682066756e64000000000000000000000000000000000081525060200191505060405180910390fd5b6003600581111561350057fe5b6013600060085481526020019081526020016000206000868152602001908152602001600020600085815260200190815260200160002060009054906101000a900460ff16600581111561355057fe5b1415156135c5576040517f08c379a000000000000000000000000000000000000000000000000000000000815260040180806020018281038252600b8152602001807f556e617661696c61626c6500000000000000000000000000000000000000000081525060200191505060405180910390fd5b60065481036016600060085481526020019081526020016000206000600a54815260200190815260200160002060003373ffffffffffffffffffffffffffffffffffffffff1673ffffffffffffffffffffffffffffffffffffffff1681526020019081526020016000206000018190555060016016600060085481526020019081526020016000206000600a54815260200190815260200160002060003373ffffffffffffffffffffffffffffffffffffffff1673ffffffffffffffffffffffffffffffffffffffff16815260200190815260200160002060020160006101000a81548160ff021916908315150217905550426016600060085481526020019081526020016000206000600a54815260200190815260200160002060003373ffffffffffffffffffffffffffffffffffffffff1673ffffffffffffffffffffffffffffffffffffffff1681526020019081526020016000206001018190555060028081111561373057fe5b8260000160009054906101000a900460ff16600281111561374d57fe5b14156137d1578060146000600854815260200190815260200160002060003373ffffffffffffffffffffffffffffffffffffffff1673ffffffffffffffffffffffffffffffffffffffff1681526020019081526020016000206001016000016000828254019250508190555080600e6000016000828254019250508190555061387c565b600160028111156137de57fe5b8260000160009054906101000a900460ff1660028111156137fb57fe5b141561387b578060146000600854815260200190815260200160002060003373ffffffffffffffffffffffffffffffffffffffff1673ffffffffffffffffffffffffffffffffffffffff1681526020019081526020016000206001016001016000828254019250508190555080600e600101600082825401925050819055505b5b836016600060085481526020019081526020016000206000600a54815260200190815260200160002060003373ffffffffffffffffffffffffffffffffffffffff1673ffffffffffffffffffffffffffffffffffffffff16815260200190815260200160002060030181905550826016600060085481526020019081526020016000206000600a54815260200190815260200160002060003373ffffffffffffffffffffffffffffffffffffffff1673ffffffffffffffffffffffffffffffffffffffff1681526020019081526020016000206004018190555060046013600060085481526020019081526020016000206000868152602001908152602001600020600085815260200190815260200160002060006101000a81548160ff021916908360058111156139aa57fe5b02179055506017600060085481526020019081526020016000206000600a5481526020019081526020016000203390806001815401808255809150509060018203906000526020600020016000909192909190916101000a81548173ffffffffffffffffffffffffffffffffffffffff021916908373ffffffffffffffffffffffffffffffffffffffff160217905550506008547fa1c665c0024350eee6bd21319245070854f6bf3d2376b2ee2b951588a7cd5f98600a54338787604051808581526020018473ffffffffffffffffffffffffffffffffffffffff1673ffffffffffffffffffffffffffffffffffffffff16815260200183815260200182815260200194505050505060405180910390a2613b54565b6040517f08c379a00000000000000000000000000000000000000000000000000000000081526004018080602001828103825260238152602001807f596f7527766520616c72656164792070726f7073656420696e2074686973207481526020017f75726e000000000000000000000000000000000000000000000000000000000081525060400191505060405180910390fd5b50505050565b6000806000806000808a8d019550898c01945060009350600092505b60008612158015613b88575060008512155b8015613b95575060095486125b8015613ba2575060095485125b15613d42576013600060085481526020019081526020016000206000878152602001908152602001600020600086815260200190815260200160002060009054906101000a900460ff169150600580811115613bfa57fe5b826005811115613c0657fe5b1415613c1b578a860195508985019450613b76565b876005811115613c2757fe5b826005811115613c3357fe5b1415613d16576018600060085481526020019081526020016000206000600a54815260200190815260200160002060008881526020019081526020016000208690806001815401808255809150509060018203906000526020600020016000909192909190915055506019600060085481526020019081526020016000206000600a548152602001908152602001600020600088815260200190815260200160002085908060018154018082558091505090600182039060005260206000200160009091929091909150555082806001019350508a860195508985019450613b76565b886005811115613d2257fe5b826005811115613d2e57fe5b1415613d3d5760019350613d42565b600093505b8315613e5c57600090505b82811015613e5b57600560136000600854815260200190815260200160002060006018600060085481526020019081526020016000206000600a54815260200190815260200160002060008b815260200190815260200160002084815481101515613db457fe5b9060005260206000200154815260200190815260200160002060006019600060085481526020019081526020016000206000600a54815260200190815260200160002060008b815260200190815260200160002084815481101515613e1557fe5b9060005260206000200154815260200190815260200160002060006101000a81548160ff02191690836005811115613e4957fe5b02179055508080600101915050613d4d565b5b50505050505050505050505050565b6000806000806000809350600092505b60095483121561400157600091505b600954821215613ff4576013600060085481526020019081526020016000206000848152602001908152602001600020600083815260200190815260200160002060009054906101000a900460ff16905060016005811115613ee857fe5b816005811115613ef457fe5b14158015613f19575060026005811115613f0a57fe5b816005811115613f1657fe5b14155b15613fe75760006013600060085481526020019081526020016000206000858152602001908152602001600020600084815260200190815260200160002060006101000a81548160ff02191690836005811115613f7257fe5b0217905550613f838383898961400e565b15613fe65760036013600060085481526020019081526020016000206000858152602001908152602001600020600084815260200190815260200160002060006101000a81548160ff02191690836005811115613fdc57fe5b0217905550600193505b5b8180600101925050613e8a565b8280600101935050613e7b565b8394505050505092915050565b600080600080600080600080600061402b8d8d6001808f8f614190565b975061403d8d8d600160008f8f614190565b965061406e8d8d60017fffffffffffffffffffffffffffffffffffffffffffffffffffffffffffffffff8f8f614190565b955061409f8d8d60007fffffffffffffffffffffffffffffffffffffffffffffffffffffffffffffffff8f8f614190565b94506140cf8d8d7fffffffffffffffffffffffffffffffffffffffffffffffffffffffffffffffff808f8f614190565b93506141008d8d7fffffffffffffffffffffffffffffffffffffffffffffffffffffffffffffffff60008f8f614190565b92506141318d8d7fffffffffffffffffffffffffffffffffffffffffffffffffffffffffffffffff60018f8f614190565b91506141438d8d600060018f8f614190565b9050878061414e5750865b806141565750855b8061415e5750845b806141665750835b8061416e5750825b806141765750815b8061417e5750805b98505050505050505050949350505050565b600080600080600080898c019450888b01935060009250600091505b600085121580156141be575060008412155b80156141cb575060095485125b80156141d8575060095484125b15614283576013600060085481526020019081526020016000206000868152602001908152602001600020600085815260200190815260200160002060009054906101000a900460ff16905086600581111561423057fe5b81600581111561423c57fe5b141561425757600183019250898501945088840193506141ac565b87600581111561426357fe5b81600581111561426f57fe5b141561427e5760019150614283565b600091505b6000831380156142905750815b9550505050505096955050505050505600a165627a7a7230582058203cb46fdabb5cb92edf167b4f38f912333cdaf1cdca97bf5582a60752fd600029",
  "source": "pragma solidity ^0.4.24;\n\ncontract Deversi {\n\n    enum _TEAM { NONE, DOG, CAT }\n    enum _GRID_STATUS { EMPTY, BLACK, WHITE, AVAILABLE, PROPOSED, FLIP }\n\n    struct Ledger {\n        uint256 CAT;\n        uint256 DOG;\n    }\n    struct User {\n        _TEAM team;\n        Ledger ledger;\n        bool isExist;\n    }\n    struct Proposal {\n        uint256 vote;\n        uint256 time;\n        bool isExist;\n        uint256 x;\n        uint256 y;\n    }\n    struct Flip {\n        uint256 x;\n        uint256 y;\n    }\n\n    // System config\n    uint256 public size; // board size\n    address public owner;\n    uint256 public fundRaisingPeriod;\n    uint256 public turnPeriod;\n    uint256 public baseSharePrice;\n    uint256 public shareGrowthRate;\n    uint256 public sharesPerProposal;\n\n    // Game control\n    bool public inGame;\n    uint256 public gameRound;\n    uint256 public currentSize;\n    uint256 public currentTurn;\n    uint256 public currentSharePrice;\n    uint256 public currentSharePerProposal;\n    uint256 public currentShareGrowthRate;\n    Ledger public currentFundingStatus;\n    bool public fundRaisingCountingDown;\n    uint256 public countingStartedTime;\n    _TEAM public currentTeam;\n    _TEAM public black;\n    _TEAM public white;\n\n    // mapping(uint256 => _GRID_STATUS[][]) public boardStatus;\n    mapping(uint256 => mapping(uint256 => mapping(uint256 => _GRID_STATUS))) public boardStatus;\n    mapping(uint256 => mapping(address => User)) public userStatus;\n    mapping(uint256 => mapping(uint => bool)) public roundPropsedStatus;\n    mapping(uint256 => mapping(uint256 => mapping(address => Proposal))) public proposals;\n    mapping(uint256 => mapping(uint256 => address[])) public proposedAddress;\n\n    mapping(uint256 => mapping(uint256 => mapping(uint256 => int[]))) private flipX;\n    mapping(uint256 => mapping(uint256 => mapping(uint256 => int[]))) private flipY;\n\n    event funded();\n    event NewGameStarted(uint256 round, uint time);\n    event fundRaisingCountdown(uint256 round, uint time);\n    event turnStart(uint256 indexed round, uint256 turn, uint time);\n    event proposed(uint256 indexed round, uint256 turn, address proposer, uint256 x, uint256 y);\n    event gameCleared(uint256, address clearer);\n    event voted(uint round, uint turn, address proposer, address voter, uint256 shares);\n    event proposalSelected(uint round, uint turn, address proposer, uint256 vote);\n    event flipEvent(uint turn, uint x, uint y);\n    event messagePost(string msg, address sender, uint round, uint time);\n\n    constructor() public {\n        owner = msg.sender;\n        gameRound = 0;\n        inGame = false;\n        configure(\n            8, // size\n            10, // funding period\n            90,  // turn period\n            1000000000000000,\n            5,\n            10\n        );\n        startNewGame();\n    }\n\n    function startNewGame() public {\n        require(inGame == false, \"game is going on\");\n        gameRound = gameRound + 1;\n        currentSize = size;\n        currentTurn = 0;\n        currentSharePrice = baseSharePrice;\n        currentSharePerProposal = sharesPerProposal;\n        currentShareGrowthRate = shareGrowthRate;\n        sharesPerProposal = 10;\n        fundRaisingCountingDown = false;\n        countingStartedTime = 0;\n        currentTeam = _TEAM.NONE;\n        black = _TEAM.NONE;\n        white = _TEAM.NONE;\n        currentFundingStatus.CAT = 0;\n        currentFundingStatus.DOG = 0;\n        inGame = true;\n        boardStatus[gameRound][(currentSize / 2) - 1][(currentSize / 2) - 1] = _GRID_STATUS.BLACK;\n        boardStatus[gameRound][(currentSize / 2)][(currentSize / 2)] = _GRID_STATUS.BLACK;\n        boardStatus[gameRound][(currentSize / 2)][(currentSize / 2) - 1] = _GRID_STATUS.WHITE;\n        boardStatus[gameRound][(currentSize / 2) - 1][(currentSize / 2)] = _GRID_STATUS.WHITE;\n\n        boardStatus[gameRound][(currentSize / 2) + 1][(currentSize / 2) - 1] = _GRID_STATUS.AVAILABLE;\n        boardStatus[gameRound][(currentSize / 2)][(currentSize / 2) - 2] = _GRID_STATUS.AVAILABLE;\n\n        boardStatus[gameRound][(currentSize / 2) - 1][(currentSize / 2) + 1] = _GRID_STATUS.AVAILABLE;\n        boardStatus[gameRound][(currentSize / 2) - 2][(currentSize / 2)] = _GRID_STATUS.AVAILABLE;\n\n        emit NewGameStarted(gameRound, now);\n    }\n\n    function funding(_TEAM teamChoosen) public payable onlyInGame {\n        require(currentTurn == 0, \"funding is only allowed at turn 0\");\n        require(msg.value > 0, \"Funds required\");\n        if (fundRaisingCountingDown) {\n            require(now <= (countingStartedTime + fundRaisingPeriod), \"funding is over\");\n        }\n        require(userStatus[gameRound][msg.sender].isExist != true, \"Already funded!\");\n\n        uint shareAmount = msg.value / currentSharePrice;\n        if (teamChoosen == _TEAM.CAT) {\n            userStatus[gameRound][msg.sender].ledger.CAT = shareAmount;\n            currentFundingStatus.CAT += shareAmount;\n        } else if (teamChoosen == _TEAM.DOG) {\n            userStatus[gameRound][msg.sender].ledger.DOG = shareAmount;\n            currentFundingStatus.DOG += shareAmount;\n        } else {\n            revert(\"Invalid team\");\n        }\n        userStatus[gameRound][msg.sender].team = teamChoosen;\n        userStatus[gameRound][msg.sender].isExist = true;\n        emit funded();\n        if (fundRaisingCountingDown == false) {\n            if (\n                (currentFundingStatus.CAT > 0) &&\n                (currentFundingStatus.DOG > 0)\n            ) {\n                fundRaisingCountingDown = true;\n                countingStartedTime = now;\n                emit fundRaisingCountdown(gameRound, now);\n            }\n        }\n    }\n\n    function postMessage(string message) public onlyInGame {\n        emit messagePost(message, msg.sender, gameRound, now);\n    }\n\n    function propose(uint256 x, uint256 y) public payable onlyInGame {\n        uint256 gameStartTime = countingStartedTime + fundRaisingPeriod;\n        require((fundRaisingCountingDown == true) && (now > gameStartTime), \"not yet started\");\n        if (currentTurn == 0) {\n            currentTurn += 1;\n            if (currentFundingStatus.CAT >= currentFundingStatus.DOG) {\n                currentTeam = _TEAM.CAT;\n                black = _TEAM.CAT;\n                white = _TEAM.DOG;\n            } else {\n                currentTeam = _TEAM.DOG;\n                black = _TEAM.DOG;\n                white = _TEAM.CAT;\n            }\n\n            emit turnStart(gameRound, currentTurn, now);\n        }\n        uint256 currentRoundEndTime = gameStartTime + (currentTurn * turnPeriod);\n        uint256 currentRoundStartTime = currentRoundEndTime - turnPeriod;\n        if (now > currentRoundEndTime) {\n            if (roundPropsedStatus[gameRound][currentTurn] != true) {\n                revert(\"Game should be cleared because previous turn isn't played\");\n            } else {\n                uint256 nextRoundEndTime = currentRoundEndTime + turnPeriod;\n                if (now > nextRoundEndTime) {\n                    revert(\"Game over\");\n                } else {\n                    updateGame();\n                    doPropose(x, y);\n                }\n            }\n        } else if ((now < currentRoundEndTime) && (now >= currentRoundStartTime)) {\n            doPropose(x, y);\n        }\n    }\n\n    function doPropose(uint256 x, uint256 y) private {\n        User userTeam = userStatus[gameRound][msg.sender];\n        require(userTeam.team == currentTeam, \"You are not on this team\");\n        roundPropsedStatus[gameRound][currentTurn] = true;\n        if (proposals[gameRound][currentTurn][msg.sender].isExist != true) {\n            uint256 shares = msg.value / currentSharePrice;\n            require(shares >= sharesPerProposal, \"Not enough fund\");\n            require(boardStatus[gameRound][x][y] == _GRID_STATUS.AVAILABLE, \"Unavailable\");\n            proposals[gameRound][currentTurn][msg.sender].vote = shares - sharesPerProposal;\n            proposals[gameRound][currentTurn][msg.sender].isExist = true;\n            proposals[gameRound][currentTurn][msg.sender].time = now;\n            if (userTeam.team == _TEAM.CAT) {\n                userStatus[gameRound][msg.sender].ledger.CAT += shares;\n                currentFundingStatus.CAT += shares;\n            } else if (userTeam.team == _TEAM.DOG) {\n                userStatus[gameRound][msg.sender].ledger.DOG += shares;\n                currentFundingStatus.DOG += shares;\n            }\n            proposals[gameRound][currentTurn][msg.sender].x = x;\n            proposals[gameRound][currentTurn][msg.sender].y = y;\n            boardStatus[gameRound][x][y] = _GRID_STATUS.PROPOSED;\n            proposedAddress[gameRound][currentTurn].push(msg.sender);\n            emit proposed(gameRound, currentTurn, msg.sender, x, y);\n        } else {\n            revert(\"You've already propsed in this turn\");\n        }\n    }\n\n    function vote(uint256 round, uint256 turn, address proposer) public payable onlyInGame {\n        require(gameRound == round, \"not in current round\");\n        require(currentTurn > 0, \"not yet started\");\n        require(turn == currentTurn, \"Not in current turn\");\n        uint256 gameStartTime = countingStartedTime + fundRaisingPeriod;\n        uint256 currentRoundEndTime = gameStartTime + (currentTurn * turnPeriod);\n        uint256 currentRoundStartTime = currentRoundEndTime - turnPeriod;\n        require((now < currentRoundEndTime) && (now >= currentRoundStartTime), \"not in round period\");\n        if (proposals[round][turn][proposer].isExist) {\n            uint256 sharesToVote = msg.value / currentSharePrice;\n            proposals[round][turn][proposer].vote += sharesToVote;\n            if (currentTeam == _TEAM.CAT) {\n                userStatus[gameRound][msg.sender].ledger.CAT += sharesToVote;\n                currentFundingStatus.CAT += sharesToVote;\n            } else if (currentTeam == _TEAM.DOG) {\n                userStatus[gameRound][msg.sender].ledger.DOG += sharesToVote;\n                currentFundingStatus.DOG += sharesToVote;\n            }\n            emit voted(gameRound, currentTurn, proposer, msg.sender, sharesToVote);\n        } else {\n            revert(\"proposal not exist\");\n        }\n    }\n\n    function updateGame() private {\n        uint256 proposedLength = proposedAddress[gameRound][currentTurn].length;\n        address highestAddress = proposedAddress[gameRound][currentTurn][0];\n        uint256 highestAmount = proposals[gameRound][currentTurn][highestAddress].vote;\n        for (uint i = 1; i < proposedLength; i++) {\n            address _addr = proposedAddress[gameRound][currentTurn][i];\n            Proposal _proposal = proposals[gameRound][currentTurn][_addr];\n            if (_proposal.vote > highestAmount) {\n                highestAddress = _addr;\n                highestAmount = _proposal.vote;\n            }\n        }\n        Proposal selected = proposals[gameRound][currentTurn][highestAddress];\n        if (black == currentTeam) {\n            boardStatus[gameRound][selected.x][selected.y] = _GRID_STATUS.BLACK;\n        } else if (white == currentTeam) {\n            boardStatus[gameRound][selected.x][selected.y] = _GRID_STATUS.WHITE;\n        }\n        // reverting calculation here...\n        flip(selected.x, selected.y);\n        // emit proposalSelected(gameRound, currentTurn, highestAddress, highestAmount);\n        currentTurn += 1;\n        _GRID_STATUS base;\n        _GRID_STATUS opposite;\n        if (currentTeam == black) {\n            base = _GRID_STATUS.WHITE;\n            opposite = _GRID_STATUS.BLACK;\n        } else if (currentTeam == white) {\n            base = _GRID_STATUS.BLACK;\n            opposite = _GRID_STATUS.WHITE;\n        }\n        checkAvailable(base, opposite);\n        currentTeam = (currentTeam == _TEAM.CAT) ? _TEAM.DOG : _TEAM.CAT;\n        // emit turnStart(gameRound, currentTurn, now);\n    }\n\n    function checkAvailable(_GRID_STATUS base, _GRID_STATUS opposite) private returns(bool) {\n        bool available = false;\n        for (int x = 0; x < int(currentSize); x++) {\n            for (int y = 0; y < int(currentSize); y++) {\n                _GRID_STATUS status = boardStatus[gameRound][uint(x)][uint(y)];\n                if (\n                    (status != _GRID_STATUS.BLACK) &&\n                    (status != _GRID_STATUS.WHITE)\n                ) {\n                    boardStatus[gameRound][uint(x)][uint(y)] = _GRID_STATUS.EMPTY;\n                    if (markAvailable(x, y, base, opposite)) {\n                        boardStatus[gameRound][uint(x)][uint(y)] = _GRID_STATUS.AVAILABLE;\n                        available = true;\n                    }\n                }\n            }\n        }\n        return available;\n    }\n\n    function markAvailable(int x, int y, _GRID_STATUS base, _GRID_STATUS opposite) private returns(bool) {\n        bool dir1 = isAvailable(x, y, 1, 1, base, opposite);\n        bool dir2 = isAvailable(x, y, 1, 0, base, opposite);\n        bool dir3 = isAvailable(x, y, 1, -1, base, opposite);\n        bool dir4 = isAvailable(x, y, 0, -1, base, opposite);\n        bool dir5 = isAvailable(x, y, -1, -1, base, opposite);\n        bool dir6 = isAvailable(x, y, -1, 0, base, opposite);\n        bool dir7 = isAvailable(x, y, -1, 1, base, opposite);\n        bool dir8 = isAvailable(x, y, 0, 1, base, opposite);\n        return (\n            dir1 || dir2 || dir3 || dir4 || dir5 || dir6 || dir7 || dir8\n        );\n    }\n    function isAvailable(\n        int x, int y, int offsetX, int offsetY,\n        _GRID_STATUS base, _GRID_STATUS opposite\n    ) private returns (bool) {\n        int currentX = x + offsetX;\n        int currentY = y + offsetY;\n        int flipCount = 0;\n        bool shouldFlip = false;\n        while(\n            (currentX >= 0) &&\n            (currentY >= 0) &&\n            (currentX < int(currentSize)) &&\n            (currentY < int(currentSize))\n        ) {\n            _GRID_STATUS status = boardStatus[gameRound][uint(currentX)][uint(currentY)];\n            if (status == opposite) {\n                flipCount += 1;\n                currentX += offsetX;\n                currentY += offsetY;\n                continue;\n            } else if (status == base) {\n                shouldFlip = true;\n                break;\n            } else {\n                shouldFlip = false;\n                break;\n            }\n        }\n        return ((flipCount > 0) && shouldFlip);\n    }\n\n    function flip(uint256 x, uint256 y) {\n        _GRID_STATUS base = boardStatus[gameRound][x][y];\n        _GRID_STATUS opposite;\n        if (base == _GRID_STATUS.BLACK) {\n            opposite = _GRID_STATUS.WHITE;\n        } else if (base == _GRID_STATUS.WHITE) {\n            opposite = _GRID_STATUS.BLACK;\n        }\n        markFlip(x, y, 1, 1, base, opposite, 0);\n        markFlip(x, y, 1, 0, base, opposite, 1);\n        markFlip(x, y, 1, -1, base, opposite, 2);\n        markFlip(x, y, 0, -1, base, opposite, 3);\n        markFlip(x, y, -1, -1, base, opposite, 4);\n        markFlip(x, y, -1, 0, base, opposite, 5);\n        markFlip(x, y, -1, 1, base, opposite, 6);\n        markFlip(x, y, 0, 1, base, opposite, 7);\n        flipAll(base);\n    }\n    function flipAll(_GRID_STATUS base) {\n        for (uint i = 0; i < currentSize; i++) {\n            for(uint j = 0; j < currentSize; j++) {\n                if (boardStatus[gameRound][i][j] == _GRID_STATUS.FLIP) {\n                    boardStatus[gameRound][i][j] = base;\n                }\n            }\n        }\n    }\n    function markFlip(\n        uint256 x, uint256 y, int256 offsetX, int256 offsetY,\n        _GRID_STATUS base, _GRID_STATUS opposite, uint256 direction\n    ) private {\n        int currentX = int(x) + offsetX;\n        int currentY = int(y) + offsetY;\n        bool shouldFlip = false;\n        uint index = 0;\n        while(\n            (currentX >= 0) &&\n            (currentY >= 0) &&\n            (currentX < int(currentSize)) &&\n            (currentY < int(currentSize))\n        ) {\n            _GRID_STATUS status = boardStatus[gameRound][uint(currentX)][uint(currentY)];\n            if (status == _GRID_STATUS.FLIP) {\n                currentX += offsetX;\n                currentY += offsetY;\n                continue;\n            } else if (status == opposite)  {\n                flipX[gameRound][currentTurn][direction].push(currentX);\n                flipY[gameRound][currentTurn][direction].push(currentY);\n\n                index++;\n                currentX += offsetX;\n                currentY += offsetY;\n                continue;\n            } else {\n                if (status == base) {\n                    shouldFlip = true;\n                    break;\n                } else {\n                    shouldFlip = false;\n                    break;\n                }\n\n            }\n        }\n\n        if (shouldFlip) {\n            for (uint i = 0; i < index; i++) {\n                boardStatus[gameRound][uint(flipX[gameRound][currentTurn][direction][i])][uint(flipY[gameRound][currentTurn][direction][i])] = _GRID_STATUS.FLIP;\n            }\n        }\n\n    }\n\n    function clearGame() public onlyInGame {\n        // revert(\"game over!\");\n        inGame = false;\n        // distribute money\n        emit gameCleared(gameRound, msg.sender);\n\n    }\n\n    function getBoardStatus() public view returns (\n        _GRID_STATUS[]\n    ) {\n        _GRID_STATUS[] memory ret = new _GRID_STATUS[](currentSize * currentSize);\n        for (uint i = 0; i < currentSize; i++) {\n            for (uint j = 0; j < currentSize; j++) {\n                ret[(i * currentSize) + j] = boardStatus[gameRound][i][j];\n            }\n        }\n        return (ret);\n    }\n\n    function getUserStatus(address addr) public view returns (\n        bool isExist,\n        _TEAM team,\n        uint256 CAT,\n        uint256 DOG\n    ) {\n        isExist = userStatus[gameRound][addr].isExist;\n        team = userStatus[gameRound][addr].team;\n        CAT = userStatus[gameRound][addr].ledger.CAT;\n        DOG = userStatus[gameRound][addr].ledger.DOG;\n        return (isExist, team, CAT, DOG);\n    }\n    function getTeamFundingStatus() public view returns(\n        uint256 CAT,\n        uint256 DOG\n    ) {\n        CAT = currentFundingStatus.CAT;\n        DOG = currentFundingStatus.DOG;\n        return (CAT, DOG);\n    }\n\n    function getProposalStatus(uint256 round, uint256 turn, address proposer) public view returns (\n        uint256 vote,\n        uint256 time,\n        uint x,\n        uint y\n    ) {\n        Proposal status = proposals[round][turn][proposer];\n        if (status.isExist) {\n            return (status.vote, status.time, status.x, status.y);\n        }\n    }\n\n    function configure(\n        uint256 _size,\n        uint256 _fundRaisingPeriod,\n        uint256 _turnPeriod,\n        uint256 _baseSharePrice,\n        uint256 _shareGrowthRate,\n        uint256 _sharesPerProposal\n    ) public onlyOwner {\n        size = _size;\n        fundRaisingPeriod = _fundRaisingPeriod;\n        turnPeriod = _turnPeriod;\n        baseSharePrice = _baseSharePrice;\n        shareGrowthRate = _shareGrowthRate;\n        sharesPerProposal = _sharesPerProposal;\n    }\n\n    modifier onlyOwner() {\n        require(msg.sender == owner, \"Only owner is allowed\");\n        _;\n    }\n    modifier onlyInGame() {\n        require(inGame == true, \"Not in game period\");\n        _;\n    }\n}",
  "sourcePath": "/Users/chenwei/Desktop/github/Reversi_On_Smart_Contract_POC/contracts/Deversi.sol",
  "compiler": {
    "name": "solc",
    "version": "0.4.24+commit.e67f0147.Emscripten.clang"
  },
  "schemaVersion": "2.0.1",
  "updatedAt": "2018-10-22T08:17:00.224Z"
}