{
  "contractName": "Deversi",
  "abi": [
    {
      "constant": true,
      "inputs": [],
      "name": "turnPeriod",
      "outputs": [
        {
          "name": "",
          "type": "uint32"
        }
      ],
      "payable": false,
      "stateMutability": "view",
      "type": "function"
    },
    {
      "constant": true,
      "inputs": [],
      "name": "INIT_SHARE_PRICE",
      "outputs": [
        {
          "name": "",
          "type": "uint256"
        }
      ],
      "payable": false,
      "stateMutability": "view",
      "type": "function"
    },
    {
      "constant": true,
      "inputs": [],
      "name": "currentSharePrice",
      "outputs": [
        {
          "name": "",
          "type": "uint256"
        }
      ],
      "payable": false,
      "stateMutability": "view",
      "type": "function"
    },
    {
      "constant": true,
      "inputs": [],
      "name": "baseSharePrice",
      "outputs": [
        {
          "name": "",
          "type": "uint256"
        }
      ],
      "payable": false,
      "stateMutability": "view",
      "type": "function"
    },
    {
      "constant": true,
      "inputs": [
        {
          "name": "",
          "type": "uint32"
        },
        {
          "name": "",
          "type": "address"
        }
      ],
      "name": "userStatus",
      "outputs": [
        {
          "name": "team",
          "type": "uint8"
        },
        {
          "components": [
            {
              "name": "CAT",
              "type": "uint256"
            },
            {
              "name": "DOG",
              "type": "uint256"
            }
          ],
          "name": "ledger",
          "type": "tuple"
        },
        {
          "name": "isExist",
          "type": "bool"
        }
      ],
      "payable": false,
      "stateMutability": "view",
      "type": "function"
    },
    {
      "constant": true,
      "inputs": [],
      "name": "currentFundingStatus",
      "outputs": [
        {
          "name": "CAT",
          "type": "uint256"
        },
        {
          "name": "DOG",
          "type": "uint256"
        }
      ],
      "payable": false,
      "stateMutability": "view",
      "type": "function"
    },
    {
      "constant": true,
      "inputs": [],
      "name": "myString",
      "outputs": [
        {
          "name": "",
          "type": "string"
        }
      ],
      "payable": false,
      "stateMutability": "view",
      "type": "function"
    },
    {
      "constant": true,
      "inputs": [],
      "name": "countingStartedTime",
      "outputs": [
        {
          "name": "",
          "type": "uint256"
        }
      ],
      "payable": false,
      "stateMutability": "view",
      "type": "function"
    },
    {
      "constant": true,
      "inputs": [],
      "name": "INIT_TURN_PERIOD",
      "outputs": [
        {
          "name": "",
          "type": "uint32"
        }
      ],
      "payable": false,
      "stateMutability": "view",
      "type": "function"
    },
    {
      "constant": true,
      "inputs": [],
      "name": "INIT_SIZE",
      "outputs": [
        {
          "name": "",
          "type": "uint8"
        }
      ],
      "payable": false,
      "stateMutability": "view",
      "type": "function"
    },
    {
      "constant": true,
      "inputs": [],
      "name": "owner",
      "outputs": [
        {
          "name": "",
          "type": "address"
        }
      ],
      "payable": false,
      "stateMutability": "view",
      "type": "function"
    },
    {
      "constant": true,
      "inputs": [],
      "name": "INIT_SHARE_GROWTH_RATE",
      "outputs": [
        {
          "name": "",
          "type": "uint8"
        }
      ],
      "payable": false,
      "stateMutability": "view",
      "type": "function"
    },
    {
      "constant": true,
      "inputs": [],
      "name": "size",
      "outputs": [
        {
          "name": "",
          "type": "uint8"
        }
      ],
      "payable": false,
      "stateMutability": "view",
      "type": "function"
    },
    {
      "constant": true,
      "inputs": [],
      "name": "gameRound",
      "outputs": [
        {
          "name": "",
          "type": "uint32"
        }
      ],
      "payable": false,
      "stateMutability": "view",
      "type": "function"
    },
    {
      "constant": true,
      "inputs": [],
      "name": "INIT_RAISING_PERIOD",
      "outputs": [
        {
          "name": "",
          "type": "uint32"
        }
      ],
      "payable": false,
      "stateMutability": "view",
      "type": "function"
    },
    {
      "constant": true,
      "inputs": [],
      "name": "shareGrowthRate",
      "outputs": [
        {
          "name": "",
          "type": "uint8"
        }
      ],
      "payable": false,
      "stateMutability": "view",
      "type": "function"
    },
    {
      "constant": true,
      "inputs": [],
      "name": "currentTeam",
      "outputs": [
        {
          "name": "",
          "type": "uint8"
        }
      ],
      "payable": false,
      "stateMutability": "view",
      "type": "function"
    },
    {
      "constant": true,
      "inputs": [],
      "name": "currentSize",
      "outputs": [
        {
          "name": "",
          "type": "uint8"
        }
      ],
      "payable": false,
      "stateMutability": "view",
      "type": "function"
    },
    {
      "constant": true,
      "inputs": [],
      "name": "currentTurn",
      "outputs": [
        {
          "name": "",
          "type": "uint16"
        }
      ],
      "payable": false,
      "stateMutability": "view",
      "type": "function"
    },
    {
      "constant": true,
      "inputs": [],
      "name": "fundRaisingPeriod",
      "outputs": [
        {
          "name": "",
          "type": "uint32"
        }
      ],
      "payable": false,
      "stateMutability": "view",
      "type": "function"
    },
    {
      "constant": true,
      "inputs": [],
      "name": "fundRaisingCountingDown",
      "outputs": [
        {
          "name": "",
          "type": "bool"
        }
      ],
      "payable": false,
      "stateMutability": "view",
      "type": "function"
    },
    {
      "inputs": [],
      "payable": false,
      "stateMutability": "nonpayable",
      "type": "constructor"
    },
    {
      "anonymous": false,
      "inputs": [],
      "name": "StringUpdated",
      "type": "event"
    },
    {
      "anonymous": false,
      "inputs": [
        {
          "indexed": false,
          "name": "round",
          "type": "uint32"
        },
        {
          "indexed": false,
          "name": "time",
          "type": "uint256"
        }
      ],
      "name": "NewGameStarted",
      "type": "event"
    },
    {
      "anonymous": false,
      "inputs": [
        {
          "indexed": false,
          "name": "round",
          "type": "uint32"
        },
        {
          "indexed": false,
          "name": "time",
          "type": "uint256"
        }
      ],
      "name": "fundRaisingCountdown",
      "type": "event"
    },
    {
      "constant": false,
      "inputs": [
        {
          "name": "teamChoosen",
          "type": "uint8"
        }
      ],
      "name": "funding",
      "outputs": [],
      "payable": true,
      "stateMutability": "payable",
      "type": "function"
    },
    {
      "constant": true,
      "inputs": [
        {
          "name": "addr",
          "type": "address"
        }
      ],
      "name": "getUserStatus",
      "outputs": [
        {
          "name": "isExist",
          "type": "bool"
        },
        {
          "name": "team",
          "type": "uint8"
        },
        {
          "name": "CAT",
          "type": "uint256"
        },
        {
          "name": "DOG",
          "type": "uint256"
        }
      ],
      "payable": false,
      "stateMutability": "view",
      "type": "function"
    },
    {
      "constant": true,
      "inputs": [],
      "name": "getTeamFundingStatus",
      "outputs": [
        {
          "name": "CAT",
          "type": "uint256"
        },
        {
          "name": "DOG",
          "type": "uint256"
        }
      ],
      "payable": false,
      "stateMutability": "view",
      "type": "function"
    },
    {
      "constant": false,
      "inputs": [
        {
          "name": "x",
          "type": "string"
        }
      ],
      "name": "set",
      "outputs": [],
      "payable": false,
      "stateMutability": "nonpayable",
      "type": "function"
    },
    {
      "constant": false,
      "inputs": [
        {
          "name": "_size",
          "type": "uint8"
        },
        {
          "name": "_fundRaisingPeriod",
          "type": "uint32"
        },
        {
          "name": "_turnPeriod",
          "type": "uint32"
        },
        {
          "name": "_baseSharePrice",
          "type": "uint256"
        },
        {
          "name": "_shareGrowthRate",
          "type": "uint8"
        }
      ],
      "name": "configure",
      "outputs": [],
      "payable": false,
      "stateMutability": "nonpayable",
      "type": "function"
    }
  ],
  "bytecode": "0x608060405260066000806101000a81548160ff021916908360ff1602179055506078600060016101000a81548163ffffffff021916908363ffffffff160217905550603c600060056101000a81548163ffffffff021916908363ffffffff16021790555066038d7ea4c680006001556005600260006101000a81548160ff021916908360ff1602179055506040805190810160405280600c81526020017f48656c6c6f20576f726c64320000000000000000000000000000000000000000815250600c9080519060200190620000d79291906200044f565b50348015620000e557600080fd5b50336002806101000a81548173ffffffffffffffffffffffffffffffffffffffff021916908373ffffffffffffffffffffffffffffffffffffffff1602179055506000600460016101000a81548163ffffffff021916908363ffffffff160217905550620001a96000809054906101000a900460ff16600060019054906101000a900463ffffffff16600060059054906101000a900463ffffffff16600154600260009054906101000a900460ff16620001c8640100000000026401000000009004565b620001c262000313640100000000026401000000009004565b620004fe565b6002809054906101000a900473ffffffffffffffffffffffffffffffffffffffff1673ffffffffffffffffffffffffffffffffffffffff163373ffffffffffffffffffffffffffffffffffffffff161415156200028d576040517f08c379a00000000000000000000000000000000000000000000000000000000081526004018080602001828103825260158152602001807f4f6e6c79206f776e657220697320616c6c6f776564000000000000000000000081525060200191505060405180910390fd5b84600260016101000a81548160ff021916908360ff16021790555083600260166101000a81548163ffffffff021916908363ffffffff160217905550826002601a6101000a81548163ffffffff021916908363ffffffff1602179055508160038190555080600460006101000a81548160ff021916908360ff1602179055505050505050565b6001600460019054906101000a900463ffffffff1601600460016101000a81548163ffffffff021916908363ffffffff160217905550600260019054906101000a900460ff16600460056101000a81548160ff021916908360ff1602179055506000600460066101000a81548161ffff021916908361ffff1602179055506003546005819055506000600860006101000a81548160ff0219169083151502179055506002600a60006101000a81548160ff02191690836002811115620003d557fe5b0217905550600060066000018190555060006006600101819055507fde8a1fc4da809eb42d4413a14c1a44da895cd0444909cd4e280d85add76daeb0600460019054906101000a900463ffffffff1642604051808363ffffffff1663ffffffff1681526020018281526020019250505060405180910390a1565b828054600181600116156101000203166002900490600052602060002090601f016020900481019282601f106200049257805160ff1916838001178555620004c3565b82800160010185558215620004c3579182015b82811115620004c2578251825591602001919060010190620004a5565b5b509050620004d29190620004d6565b5090565b620004fb91905b80821115620004f7576000816000905550600101620004dd565b5090565b90565b61155e806200050e6000396000f300608060405260043610610154576000357c0100000000000000000000000000000000000000000000000000000000900463ffffffff1680630b89db471461015957806316ab10101461018b57806318ddc40f146101c257806328a79576146101ed57806334db3b9c14610218578063364869941461024357806345077a86146102ca578063492bfa18146102fc5780634ed3885e1461038c57806358052a0e146103f55780637c26dc64146104205780637c53f8f5146104575780638da5cb5b1461048857806391cbf200146104df578063949d225d1461051057806399c597b714610541578063a5f9b5c2146105a8578063aadb6dfb146105df578063b21015f114610616578063ba1652db14610647578063bda1504b14610680578063deb61286146106b1578063ea0d5dcd146106e4578063f0c67a8414610762578063fc71852a14610785578063fffb133a146107bc575b600080fd5b34801561016557600080fd5b5061016e6107eb565b604051808381526020018281526020019250505060405180910390f35b34801561019757600080fd5b506101a0610808565b604051808263ffffffff1663ffffffff16815260200191505060405180910390f35b3480156101ce57600080fd5b506101d761081e565b6040518082815260200191505060405180910390f35b3480156101f957600080fd5b50610202610824565b6040518082815260200191505060405180910390f35b34801561022457600080fd5b5061022d61082a565b6040518082815260200191505060405180910390f35b34801561024f57600080fd5b50610294600480360381019080803563ffffffff169060200190929190803573ffffffffffffffffffffffffffffffffffffffff169060200190929190505050610830565b604051808460028111156102a457fe5b60ff16815260200183815260200182151515158152602001935050505060405180910390f35b3480156102d657600080fd5b506102df61089f565b604051808381526020018281526020019250505060405180910390f35b34801561030857600080fd5b506103116108b1565b6040518080602001828103825283818151815260200191508051906020019080838360005b83811015610351578082015181840152602081019050610336565b50505050905090810190601f16801561037e5780820380516001836020036101000a031916815260200191505b509250505060405180910390f35b34801561039857600080fd5b506103f3600480360381019080803590602001908201803590602001908080601f016020809104026020016040519081016040528093929190818152602001838380828437820191505050505050919291929050505061094f565b005b34801561040157600080fd5b5061040a610995565b6040518082815260200191505060405180910390f35b34801561042c57600080fd5b5061043561099b565b604051808263ffffffff1663ffffffff16815260200191505060405180910390f35b34801561046357600080fd5b5061046c6109b1565b604051808260ff1660ff16815260200191505060405180910390f35b34801561049457600080fd5b5061049d6109c3565b604051808273ffffffffffffffffffffffffffffffffffffffff1673ffffffffffffffffffffffffffffffffffffffff16815260200191505060405180910390f35b3480156104eb57600080fd5b506104f46109e8565b604051808260ff1660ff16815260200191505060405180910390f35b34801561051c57600080fd5b506105256109fb565b604051808260ff1660ff16815260200191505060405180910390f35b34801561054d57600080fd5b506105a6600480360381019080803560ff169060200190929190803563ffffffff169060200190929190803563ffffffff16906020019092919080359060200190929190803560ff169060200190929190505050610a0e565b005b3480156105b457600080fd5b506105bd610b58565b604051808263ffffffff1663ffffffff16815260200191505060405180910390f35b3480156105eb57600080fd5b506105f4610b6e565b604051808263ffffffff1663ffffffff16815260200191505060405180910390f35b34801561062257600080fd5b5061062b610b84565b604051808260ff1660ff16815260200191505060405180910390f35b34801561065357600080fd5b5061065c610b97565b6040518082600281111561066c57fe5b60ff16815260200191505060405180910390f35b34801561068c57600080fd5b50610695610baa565b604051808260ff1660ff16815260200191505060405180910390f35b3480156106bd57600080fd5b506106c6610bbd565b604051808261ffff1661ffff16815260200191505060405180910390f35b3480156106f057600080fd5b50610725600480360381019080803573ffffffffffffffffffffffffffffffffffffffff169060200190929190505050610bd1565b604051808515151515815260200184600281111561073f57fe5b60ff16815260200183815260200182815260200194505050505060405180910390f35b610783600480360381019080803560ff169060200190929190505050610dda565b005b34801561079157600080fd5b5061079a611464565b604051808263ffffffff1663ffffffff16815260200191505060405180910390f35b3480156107c857600080fd5b506107d161147a565b604051808215151515815260200191505060405180910390f35b600080600660000154915060066001015490508181915091509091565b6002601a9054906101000a900463ffffffff1681565b60015481565b60055481565b60035481565b600b602052816000526040600020602052806000526040600020600091509150508060000160009054906101000a900460ff16908060010160408051908101604052908160008201548152602001600182015481525050908060030160009054906101000a900460ff16905083565b60068060000154908060010154905082565b600c8054600181600116156101000203166002900480601f0160208091040260200160405190810160405280929190818152602001828054600181600116156101000203166002900480156109475780601f1061091c57610100808354040283529160200191610947565b820191906000526020600020905b81548152906001019060200180831161092a57829003601f168201915b505050505081565b80600c908051906020019061096592919061148d565b507f1c1a31338e815783355236aa6b66c742b43bdba7b6b34dc03de716122b77efb060405160405180910390a150565b60095481565b600060059054906101000a900463ffffffff1681565b6000809054906101000a900460ff1681565b6002809054906101000a900473ffffffffffffffffffffffffffffffffffffffff1681565b600260009054906101000a900460ff1681565b600260019054906101000a900460ff1681565b6002809054906101000a900473ffffffffffffffffffffffffffffffffffffffff1673ffffffffffffffffffffffffffffffffffffffff163373ffffffffffffffffffffffffffffffffffffffff16141515610ad2576040517f08c379a00000000000000000000000000000000000000000000000000000000081526004018080602001828103825260158152602001807f4f6e6c79206f776e657220697320616c6c6f776564000000000000000000000081525060200191505060405180910390fd5b84600260016101000a81548160ff021916908360ff16021790555083600260166101000a81548163ffffffff021916908363ffffffff160217905550826002601a6101000a81548163ffffffff021916908363ffffffff1602179055508160038190555080600460006101000a81548160ff021916908360ff1602179055505050505050565b600460019054906101000a900463ffffffff1681565b600060019054906101000a900463ffffffff1681565b600460009054906101000a900460ff1681565b600a60009054906101000a900460ff1681565b600460059054906101000a900460ff1681565b600460069054906101000a900461ffff1681565b600080600080600b6000600460019054906101000a900463ffffffff1663ffffffff1663ffffffff16815260200190815260200160002060008673ffffffffffffffffffffffffffffffffffffffff1673ffffffffffffffffffffffffffffffffffffffff16815260200190815260200160002060030160009054906101000a900460ff169350600b6000600460019054906101000a900463ffffffff1663ffffffff1663ffffffff16815260200190815260200160002060008673ffffffffffffffffffffffffffffffffffffffff1673ffffffffffffffffffffffffffffffffffffffff16815260200190815260200160002060000160009054906101000a900460ff169250600b6000600460019054906101000a900463ffffffff1663ffffffff1663ffffffff16815260200190815260200160002060008673ffffffffffffffffffffffffffffffffffffffff1673ffffffffffffffffffffffffffffffffffffffff168152602001908152602001600020600101600001549150600b6000600460019054906101000a900463ffffffff1663ffffffff1663ffffffff16815260200190815260200160002060008673ffffffffffffffffffffffffffffffffffffffff1673ffffffffffffffffffffffffffffffffffffffff1681526020019081526020016000206001016001015490508383838393509350935093509193509193565b600080600460069054906101000a900461ffff1661ffff16141515610e8d576040517f08c379a00000000000000000000000000000000000000000000000000000000081526004018080602001828103825260218152602001807f66756e64696e67206973206f6e6c7920616c6c6f776564206174207475726e2081526020017f300000000000000000000000000000000000000000000000000000000000000081525060400191505060405180910390fd5b600034111515610f05576040517f08c379a000000000000000000000000000000000000000000000000000000000815260040180806020018281038252600e8152602001807f46756e647320726571756972656400000000000000000000000000000000000081525060200191505060405180910390fd5b600860009054906101000a900460ff1615610fae57600260169054906101000a900463ffffffff1663ffffffff166009540142101515610fad576040517f08c379a000000000000000000000000000000000000000000000000000000000815260040180806020018281038252600f8152602001807f66756e64696e67206973206f766572000000000000000000000000000000000081525060200191505060405180910390fd5b5b60011515600b6000600460019054906101000a900463ffffffff1663ffffffff1663ffffffff16815260200190815260200160002060003373ffffffffffffffffffffffffffffffffffffffff1673ffffffffffffffffffffffffffffffffffffffff16815260200190815260200160002060030160009054906101000a900460ff161515141515156110a9576040517f08c379a000000000000000000000000000000000000000000000000000000000815260040180806020018281038252600f8152602001807f416c72656164792066756e64656421000000000000000000000000000000000081525060200191505060405180910390fd5b600554348115156110b657fe5b049050600060028111156110c657fe5b8260028111156110d257fe5b14156111695780600b6000600460019054906101000a900463ffffffff1663ffffffff1663ffffffff16815260200190815260200160002060003373ffffffffffffffffffffffffffffffffffffffff1673ffffffffffffffffffffffffffffffffffffffff1681526020019081526020016000206001016000018190555080600660000160008282540192505081905550611288565b6001600281111561117657fe5b82600281111561118257fe5b14156112195780600b6000600460019054906101000a900463ffffffff1663ffffffff1663ffffffff16815260200190815260200160002060003373ffffffffffffffffffffffffffffffffffffffff1673ffffffffffffffffffffffffffffffffffffffff1681526020019081526020016000206001016001018190555080600660010160008282540192505081905550611287565b6040517f08c379a000000000000000000000000000000000000000000000000000000000815260040180806020018281038252600c8152602001807f496e76616c6964207465616d000000000000000000000000000000000000000081525060200191505060405180910390fd5b5b81600b6000600460019054906101000a900463ffffffff1663ffffffff1663ffffffff16815260200190815260200160002060003373ffffffffffffffffffffffffffffffffffffffff1673ffffffffffffffffffffffffffffffffffffffff16815260200190815260200160002060000160006101000a81548160ff0219169083600281111561131557fe5b02179055506001600b6000600460019054906101000a900463ffffffff1663ffffffff1663ffffffff16815260200190815260200160002060003373ffffffffffffffffffffffffffffffffffffffff1673ffffffffffffffffffffffffffffffffffffffff16815260200190815260200160002060030160006101000a81548160ff02191690831515021790555060001515600860009054906101000a900460ff16151514156114605760006006600001541180156113da57506000600660010154115b1561145f576001600860006101000a81548160ff021916908315150217905550426009819055507f163890703b8861caec6acf3e3e09602e1cdcb0af4d9398d34b24109bf138ce5c600460019054906101000a900463ffffffff1642604051808363ffffffff1663ffffffff1681526020018281526020019250505060405180910390a15b5b5050565b600260169054906101000a900463ffffffff1681565b600860009054906101000a900460ff1681565b828054600181600116156101000203166002900490600052602060002090601f016020900481019282601f106114ce57805160ff19168380011785556114fc565b828001600101855582156114fc579182015b828111156114fb5782518255916020019190600101906114e0565b5b509050611509919061150d565b5090565b61152f91905b8082111561152b576000816000905550600101611513565b5090565b905600a165627a7a7230582013e09495a508547479771f384e284f44b8b376f26c89f08194b50792a774c6eb0029",
  "source": "pragma solidity ^0.4.24;\n\ncontract Deversi {\n\n    uint8 public INIT_SIZE = 6;\n    uint32 public INIT_RAISING_PERIOD = 120;\n    uint32 public INIT_TURN_PERIOD = 60;\n    uint256 public INIT_SHARE_PRICE = 1000000000000000;\n    uint8 public INIT_SHARE_GROWTH_RATE = 5;\n    enum _TEAM { CAT, DOG, NONE }\n\n    struct Ledger {\n        uint256 CAT;\n        uint256 DOG;\n    }\n    struct User {\n        _TEAM team;\n        Ledger ledger;\n        bool isExist;\n    }\n\n    // System config\n    uint8 public size; // board size\n    address public owner;\n    uint32 public fundRaisingPeriod;\n    uint32 public turnPeriod;\n    uint256 public baseSharePrice;\n    uint8 public shareGrowthRate;\n\n    // Game control\n    uint32 public gameRound;\n    uint8 public currentSize;\n    uint16 public currentTurn;\n    uint256 public currentSharePrice;\n    Ledger public currentFundingStatus;\n    bool public fundRaisingCountingDown;\n    uint256 public countingStartedTime;\n    _TEAM public currentTeam;\n\n    mapping(uint32 => mapping(address => User)) public userStatus;\n\n    string public myString = \"Hello World2\";\n    event StringUpdated();\n    event NewGameStarted(uint32 round, uint time);\n    event fundRaisingCountdown(uint32 round, uint time);\n\n    constructor() public {\n        owner = msg.sender;\n        gameRound = 0;\n        configure(\n            INIT_SIZE,\n            INIT_RAISING_PERIOD,\n            INIT_TURN_PERIOD,\n            INIT_SHARE_PRICE,\n            INIT_SHARE_GROWTH_RATE\n        );\n        startNewGame();\n    }\n\n    function startNewGame() private {\n        gameRound = gameRound + 1;\n        currentSize = size;\n        currentTurn = 0;\n        currentSharePrice = baseSharePrice;\n        fundRaisingCountingDown = false;\n        currentTeam = _TEAM.NONE;\n        currentFundingStatus.CAT = 0;\n        currentFundingStatus.DOG = 0;\n        emit NewGameStarted(gameRound, now);\n    }\n\n    function funding(_TEAM teamChoosen) public payable {\n        require(currentTurn == 0, \"funding is only allowed at turn 0\");\n        require(msg.value > 0, \"Funds required\");\n        if (fundRaisingCountingDown) {\n            require(now < (countingStartedTime + fundRaisingPeriod), \"funding is over\");\n            // turn start trigger point\n        }\n        require(userStatus[gameRound][msg.sender].isExist != true, \"Already funded!\");\n\n        uint shareAmount = msg.value / currentSharePrice;\n        if (teamChoosen == _TEAM.CAT) {\n            userStatus[gameRound][msg.sender].ledger.CAT = shareAmount;\n            currentFundingStatus.CAT += shareAmount;\n        } else if (teamChoosen == _TEAM.DOG) {\n            userStatus[gameRound][msg.sender].ledger.DOG = shareAmount;\n            currentFundingStatus.DOG += shareAmount;\n        } else {\n            revert(\"Invalid team\");\n        }\n        userStatus[gameRound][msg.sender].team = teamChoosen;\n        userStatus[gameRound][msg.sender].isExist = true;\n        if (fundRaisingCountingDown == false) {\n            if (\n                (currentFundingStatus.CAT > 0) &&\n                (currentFundingStatus.DOG > 0)\n            ) {\n                fundRaisingCountingDown = true;\n                countingStartedTime = now;\n                emit fundRaisingCountdown(gameRound, now);\n            }\n        }\n    }\n\n    function getUserStatus(address addr) public view returns (\n        bool isExist,\n        _TEAM team,\n        uint256 CAT,\n        uint256 DOG\n    ) {\n        isExist = userStatus[gameRound][addr].isExist;\n        team = userStatus[gameRound][addr].team;\n        CAT = userStatus[gameRound][addr].ledger.CAT;\n        DOG = userStatus[gameRound][addr].ledger.DOG;\n        return (isExist, team, CAT, DOG);\n    }\n    function getTeamFundingStatus() public view returns(\n        uint256 CAT,\n        uint256 DOG\n    ) {\n        CAT = currentFundingStatus.CAT;\n        DOG = currentFundingStatus.DOG;\n        return (CAT, DOG);\n    }\n    function set(string x) public {\n        myString = x;\n        emit StringUpdated();\n    }\n\n    function configure(\n        uint8 _size,\n        uint32 _fundRaisingPeriod,\n        uint32 _turnPeriod,\n        uint256 _baseSharePrice,\n        uint8 _shareGrowthRate\n    ) public onlyOwner {\n        size = _size;\n        fundRaisingPeriod = _fundRaisingPeriod;\n        turnPeriod = _turnPeriod;\n        baseSharePrice = _baseSharePrice;\n        shareGrowthRate = _shareGrowthRate;\n    }\n\n    modifier onlyOwner() {\n        require(msg.sender == owner, \"Only owner is allowed\");\n        _;\n    }\n}",
  "sourcePath": "/Users/chenwei/Desktop/github/Reversi_On_Smart_Contract_POC/contracts/Deversi.sol",
  "compiler": {
    "name": "solc",
    "version": "0.4.24+commit.e67f0147.Emscripten.clang"
  },
  "schemaVersion": "2.0.1",
  "updatedAt": "2018-10-06T13:53:34.708Z"
}