{
  "contractName": "Deversi",
  "abi": [
    {
      "constant": true,
      "inputs": [],
      "name": "turnPeriod",
      "outputs": [
        {
          "name": "",
          "type": "uint256"
        }
      ],
      "payable": false,
      "stateMutability": "view",
      "type": "function"
    },
    {
      "constant": true,
      "inputs": [
        {
          "name": "",
          "type": "uint256"
        },
        {
          "name": "",
          "type": "address"
        }
      ],
      "name": "userStatus",
      "outputs": [
        {
          "name": "team",
          "type": "uint8"
        },
        {
          "components": [
            {
              "name": "CAT",
              "type": "uint256"
            },
            {
              "name": "DOG",
              "type": "uint256"
            }
          ],
          "name": "ledger",
          "type": "tuple"
        },
        {
          "name": "isExist",
          "type": "bool"
        }
      ],
      "payable": false,
      "stateMutability": "view",
      "type": "function"
    },
    {
      "constant": true,
      "inputs": [],
      "name": "currentSharePrice",
      "outputs": [
        {
          "name": "",
          "type": "uint256"
        }
      ],
      "payable": false,
      "stateMutability": "view",
      "type": "function"
    },
    {
      "constant": true,
      "inputs": [],
      "name": "baseSharePrice",
      "outputs": [
        {
          "name": "",
          "type": "uint256"
        }
      ],
      "payable": false,
      "stateMutability": "view",
      "type": "function"
    },
    {
      "constant": true,
      "inputs": [],
      "name": "currentFundingStatus",
      "outputs": [
        {
          "name": "CAT",
          "type": "uint256"
        },
        {
          "name": "DOG",
          "type": "uint256"
        }
      ],
      "payable": false,
      "stateMutability": "view",
      "type": "function"
    },
    {
      "constant": true,
      "inputs": [],
      "name": "countingStartedTime",
      "outputs": [
        {
          "name": "",
          "type": "uint256"
        }
      ],
      "payable": false,
      "stateMutability": "view",
      "type": "function"
    },
    {
      "constant": true,
      "inputs": [],
      "name": "sharesPerProposal",
      "outputs": [
        {
          "name": "",
          "type": "uint256"
        }
      ],
      "payable": false,
      "stateMutability": "view",
      "type": "function"
    },
    {
      "constant": true,
      "inputs": [],
      "name": "currentSharePerProposal",
      "outputs": [
        {
          "name": "",
          "type": "uint256"
        }
      ],
      "payable": false,
      "stateMutability": "view",
      "type": "function"
    },
    {
      "constant": true,
      "inputs": [],
      "name": "inGame",
      "outputs": [
        {
          "name": "",
          "type": "bool"
        }
      ],
      "payable": false,
      "stateMutability": "view",
      "type": "function"
    },
    {
      "constant": true,
      "inputs": [],
      "name": "owner",
      "outputs": [
        {
          "name": "",
          "type": "address"
        }
      ],
      "payable": false,
      "stateMutability": "view",
      "type": "function"
    },
    {
      "constant": true,
      "inputs": [
        {
          "name": "",
          "type": "uint256"
        },
        {
          "name": "",
          "type": "uint256"
        },
        {
          "name": "",
          "type": "address"
        }
      ],
      "name": "proposals",
      "outputs": [
        {
          "name": "vote",
          "type": "uint256"
        },
        {
          "name": "isExist",
          "type": "bool"
        }
      ],
      "payable": false,
      "stateMutability": "view",
      "type": "function"
    },
    {
      "constant": true,
      "inputs": [],
      "name": "size",
      "outputs": [
        {
          "name": "",
          "type": "uint256"
        }
      ],
      "payable": false,
      "stateMutability": "view",
      "type": "function"
    },
    {
      "constant": true,
      "inputs": [],
      "name": "gameRound",
      "outputs": [
        {
          "name": "",
          "type": "uint256"
        }
      ],
      "payable": false,
      "stateMutability": "view",
      "type": "function"
    },
    {
      "constant": true,
      "inputs": [],
      "name": "shareGrowthRate",
      "outputs": [
        {
          "name": "",
          "type": "uint256"
        }
      ],
      "payable": false,
      "stateMutability": "view",
      "type": "function"
    },
    {
      "constant": true,
      "inputs": [],
      "name": "currentTeam",
      "outputs": [
        {
          "name": "",
          "type": "uint8"
        }
      ],
      "payable": false,
      "stateMutability": "view",
      "type": "function"
    },
    {
      "constant": true,
      "inputs": [],
      "name": "currentSize",
      "outputs": [
        {
          "name": "",
          "type": "uint256"
        }
      ],
      "payable": false,
      "stateMutability": "view",
      "type": "function"
    },
    {
      "constant": true,
      "inputs": [],
      "name": "currentTurn",
      "outputs": [
        {
          "name": "",
          "type": "uint256"
        }
      ],
      "payable": false,
      "stateMutability": "view",
      "type": "function"
    },
    {
      "constant": true,
      "inputs": [
        {
          "name": "",
          "type": "uint256"
        },
        {
          "name": "",
          "type": "uint256"
        }
      ],
      "name": "roundPropsedStatus",
      "outputs": [
        {
          "name": "",
          "type": "bool"
        }
      ],
      "payable": false,
      "stateMutability": "view",
      "type": "function"
    },
    {
      "constant": true,
      "inputs": [],
      "name": "currentShareGrowthRate",
      "outputs": [
        {
          "name": "",
          "type": "uint256"
        }
      ],
      "payable": false,
      "stateMutability": "view",
      "type": "function"
    },
    {
      "constant": true,
      "inputs": [],
      "name": "fundRaisingPeriod",
      "outputs": [
        {
          "name": "",
          "type": "uint256"
        }
      ],
      "payable": false,
      "stateMutability": "view",
      "type": "function"
    },
    {
      "constant": true,
      "inputs": [],
      "name": "fundRaisingCountingDown",
      "outputs": [
        {
          "name": "",
          "type": "bool"
        }
      ],
      "payable": false,
      "stateMutability": "view",
      "type": "function"
    },
    {
      "inputs": [],
      "payable": false,
      "stateMutability": "nonpayable",
      "type": "constructor"
    },
    {
      "anonymous": false,
      "inputs": [],
      "name": "funded",
      "type": "event"
    },
    {
      "anonymous": false,
      "inputs": [
        {
          "indexed": false,
          "name": "round",
          "type": "uint256"
        },
        {
          "indexed": false,
          "name": "time",
          "type": "uint256"
        }
      ],
      "name": "NewGameStarted",
      "type": "event"
    },
    {
      "anonymous": false,
      "inputs": [
        {
          "indexed": false,
          "name": "round",
          "type": "uint256"
        },
        {
          "indexed": false,
          "name": "time",
          "type": "uint256"
        }
      ],
      "name": "fundRaisingCountdown",
      "type": "event"
    },
    {
      "anonymous": false,
      "inputs": [
        {
          "indexed": false,
          "name": "round",
          "type": "uint256"
        },
        {
          "indexed": false,
          "name": "turn",
          "type": "uint256"
        },
        {
          "indexed": false,
          "name": "time",
          "type": "uint256"
        }
      ],
      "name": "turnStart",
      "type": "event"
    },
    {
      "anonymous": false,
      "inputs": [
        {
          "indexed": false,
          "name": "round",
          "type": "uint256"
        },
        {
          "indexed": false,
          "name": "turn",
          "type": "uint256"
        },
        {
          "indexed": false,
          "name": "proposer",
          "type": "address"
        }
      ],
      "name": "proposed",
      "type": "event"
    },
    {
      "anonymous": false,
      "inputs": [
        {
          "indexed": false,
          "name": "",
          "type": "uint256"
        },
        {
          "indexed": false,
          "name": "clearer",
          "type": "address"
        }
      ],
      "name": "gameCleared",
      "type": "event"
    },
    {
      "constant": false,
      "inputs": [
        {
          "name": "teamChoosen",
          "type": "uint8"
        }
      ],
      "name": "funding",
      "outputs": [],
      "payable": true,
      "stateMutability": "payable",
      "type": "function"
    },
    {
      "constant": false,
      "inputs": [],
      "name": "propose",
      "outputs": [],
      "payable": true,
      "stateMutability": "payable",
      "type": "function"
    },
    {
      "constant": false,
      "inputs": [],
      "name": "clearGame",
      "outputs": [],
      "payable": false,
      "stateMutability": "nonpayable",
      "type": "function"
    },
    {
      "constant": true,
      "inputs": [
        {
          "name": "addr",
          "type": "address"
        }
      ],
      "name": "getUserStatus",
      "outputs": [
        {
          "name": "isExist",
          "type": "bool"
        },
        {
          "name": "team",
          "type": "uint8"
        },
        {
          "name": "CAT",
          "type": "uint256"
        },
        {
          "name": "DOG",
          "type": "uint256"
        }
      ],
      "payable": false,
      "stateMutability": "view",
      "type": "function"
    },
    {
      "constant": true,
      "inputs": [],
      "name": "getTeamFundingStatus",
      "outputs": [
        {
          "name": "CAT",
          "type": "uint256"
        },
        {
          "name": "DOG",
          "type": "uint256"
        }
      ],
      "payable": false,
      "stateMutability": "view",
      "type": "function"
    },
    {
      "constant": false,
      "inputs": [
        {
          "name": "_size",
          "type": "uint256"
        },
        {
          "name": "_fundRaisingPeriod",
          "type": "uint256"
        },
        {
          "name": "_turnPeriod",
          "type": "uint256"
        },
        {
          "name": "_baseSharePrice",
          "type": "uint256"
        },
        {
          "name": "_shareGrowthRate",
          "type": "uint256"
        },
        {
          "name": "_sharesPerProposal",
          "type": "uint256"
        }
      ],
      "name": "configure",
      "outputs": [],
      "payable": false,
      "stateMutability": "nonpayable",
      "type": "function"
    }
  ],
  "bytecode": "0x60806040523480156200001157600080fd5b5033600160006101000a81548173ffffffffffffffffffffffffffffffffffffffff021916908373ffffffffffffffffffffffffffffffffffffffff16021790555060006008819055506000600760006101000a81548160ff021916908315150217905550620000a160066005601e66038d7ea4c680006005600a620000c0640100000000026401000000009004565b620000ba620001b8640100000000026401000000009004565b62000372565b600160009054906101000a900473ffffffffffffffffffffffffffffffffffffffff1673ffffffffffffffffffffffffffffffffffffffff163373ffffffffffffffffffffffffffffffffffffffff1614151562000186576040517f08c379a00000000000000000000000000000000000000000000000000000000081526004018080602001828103825260158152602001807f4f6e6c79206f776e657220697320616c6c6f776564000000000000000000000081525060200191505060405180910390fd5b856000819055508460028190555083600381905550826004819055508160058190555080600681905550505050505050565b600160009054906101000a900473ffffffffffffffffffffffffffffffffffffffff1673ffffffffffffffffffffffffffffffffffffffff163373ffffffffffffffffffffffffffffffffffffffff161415156200027e576040517f08c379a00000000000000000000000000000000000000000000000000000000081526004018080602001828103825260158152602001807f4f6e6c79206f776e657220697320616c6c6f776564000000000000000000000081525060200191505060405180910390fd5b6001600854016008819055506000546009819055506000600a81905550600454600b81905550600654600c81905550600554600d81905550600a6006819055506000601060006101000a81548160ff0219169083151502179055506000601260006101000a81548160ff02191690836002811115620002f957fe5b02179055506000600e600001819055506000600e600101819055506001600760006101000a81548160ff0219169083151502179055507f1a92f8260fbb9503d4da4de0b7753e04745a81b9a56dafcd9e51a7b828c16c7360085442604051808381526020018281526020019250505060405180910390a1565b611c2e80620003826000396000f30060806040526004361061015f576000357c0100000000000000000000000000000000000000000000000000000000900463ffffffff1680630b89db471461016457806316ab1010146101965780631aca5357146101c157806328a795761461024257806334db3b9c1461026d57806337d319ad1461029857806345077a86146102f757806358052a0e146103295780635874d420146103545780635de17e671461037f578063794f4fdc146103aa5780638da5cb5b146103d957806393c45f3714610430578063949d225d146104a6578063a5f9b5c2146104d1578063b21015f1146104fc578063ba1652db14610527578063bda1504b14610560578063c198f8ba1461058b578063deb6128614610595578063e3254f7d146105c0578063e75c8bfe1461060f578063ea0d5dcd1461063a578063f0c67a84146106b8578063f131a7ae146106db578063fc71852a146106f2578063fffb133a1461071d575b600080fd5b34801561017057600080fd5b5061017961074c565b604051808381526020018281526020019250505060405180910390f35b3480156101a257600080fd5b506101ab610769565b6040518082815260200191505060405180910390f35b3480156101cd57600080fd5b5061020c60048036038101908080359060200190929190803573ffffffffffffffffffffffffffffffffffffffff16906020019092919050505061076f565b6040518084600281111561021c57fe5b60ff16815260200183815260200182151515158152602001935050505060405180910390f35b34801561024e57600080fd5b506102576107de565b6040518082815260200191505060405180910390f35b34801561027957600080fd5b506102826107e4565b6040518082815260200191505060405180910390f35b3480156102a457600080fd5b506102f56004803603810190808035906020019092919080359060200190929190803590602001909291908035906020019092919080359060200190929190803590602001909291905050506107ea565b005b34801561030357600080fd5b5061030c6108e1565b604051808381526020018281526020019250505060405180910390f35b34801561033557600080fd5b5061033e6108f3565b6040518082815260200191505060405180910390f35b34801561036057600080fd5b506103696108f9565b6040518082815260200191505060405180910390f35b34801561038b57600080fd5b506103946108ff565b6040518082815260200191505060405180910390f35b3480156103b657600080fd5b506103bf610905565b604051808215151515815260200191505060405180910390f35b3480156103e557600080fd5b506103ee610918565b604051808273ffffffffffffffffffffffffffffffffffffffff1673ffffffffffffffffffffffffffffffffffffffff16815260200191505060405180910390f35b34801561043c57600080fd5b506104856004803603810190808035906020019092919080359060200190929190803573ffffffffffffffffffffffffffffffffffffffff16906020019092919050505061093e565b60405180838152602001821515151581526020019250505060405180910390f35b3480156104b257600080fd5b506104bb610989565b6040518082815260200191505060405180910390f35b3480156104dd57600080fd5b506104e661098f565b6040518082815260200191505060405180910390f35b34801561050857600080fd5b50610511610995565b6040518082815260200191505060405180910390f35b34801561053357600080fd5b5061053c61099b565b6040518082600281111561054c57fe5b60ff16815260200191505060405180910390f35b34801561056c57600080fd5b506105756109ae565b6040518082815260200191505060405180910390f35b6105936109b4565b005b3480156105a157600080fd5b506105aa610c5b565b6040518082815260200191505060405180910390f35b3480156105cc57600080fd5b506105f56004803603810190808035906020019092919080359060200190929190505050610c61565b604051808215151515815260200191505060405180910390f35b34801561061b57600080fd5b50610624610c90565b6040518082815260200191505060405180910390f35b34801561064657600080fd5b5061067b600480360381019080803573ffffffffffffffffffffffffffffffffffffffff169060200190929190505050610c96565b604051808515151515815260200184600281111561069557fe5b60ff16815260200183815260200182815260200194505050505060405180910390f35b6106d9600480360381019080803560ff169060200190929190505050610e2f565b005b3480156106e757600080fd5b506106f06114a1565b005b3480156106fe57600080fd5b506107076115b6565b6040518082815260200191505060405180910390f35b34801561072957600080fd5b506107326115bc565b604051808215151515815260200191505060405180910390f35b600080600e600001549150600e6001015490508181915091509091565b60035481565b6013602052816000526040600020602052806000526040600020600091509150508060000160009054906101000a900460ff16908060010160408051908101604052908160008201548152602001600182015481525050908060030160009054906101000a900460ff16905083565b600b5481565b60045481565b600160009054906101000a900473ffffffffffffffffffffffffffffffffffffffff1673ffffffffffffffffffffffffffffffffffffffff163373ffffffffffffffffffffffffffffffffffffffff161415156108af576040517f08c379a00000000000000000000000000000000000000000000000000000000081526004018080602001828103825260158152602001807f4f6e6c79206f776e657220697320616c6c6f776564000000000000000000000081525060200191505060405180910390fd5b856000819055508460028190555083600381905550826004819055508160058190555080600681905550505050505050565b600e8060000154908060010154905082565b60115481565b60065481565b600c5481565b600760009054906101000a900460ff1681565b600160009054906101000a900473ffffffffffffffffffffffffffffffffffffffff1681565b601560205282600052604060002060205281600052604060002060205280600052604060002060009250925050508060000154908060010160009054906101000a900460ff16905082565b60005481565b60085481565b60055481565b601260009054906101000a900460ff1681565b60095481565b60008060008060011515600760009054906101000a900460ff161515141515610a45576040517f08c379a00000000000000000000000000000000000000000000000000000000081526004018080602001828103825260128152602001807f4e6f7420696e2067616d6520706572696f64000000000000000000000000000081525060200191505060405180910390fd5b60025460115401935060011515601060009054906101000a900460ff161515148015610a7057508342115b1515610ae4576040517f08c379a000000000000000000000000000000000000000000000000000000000815260040180806020018281038252600f8152602001807f6e6f74207965742073746172746564000000000000000000000000000000000081525060200191505060405180910390fd5b6000600a541415610b89576001600a60008282540192505081905550600e60010154600e6000015411610b18576001610b1b565b60025b601260006101000a81548160ff02191690836002811115610b3857fe5b02179055507fa74e8fdd0d1b2a47375925ad4caffed137ae7d87fbae14898bfae105c8c1a39f600854600a544260405180848152602001838152602001828152602001935050505060405180910390a15b600354600a5402840192506003548303915082421115610c3757600115156014600060085481526020019081526020016000206000600a54815260200190815260200160002060009054906101000a900460ff161515141515610bf357610bee6114a1565b610c32565b6003548301905080421115610c0f57610c0a6114a1565b610c31565b6001600a60008282540192505081905550610c286115cf565b610c30611674565b5b5b610c55565b8242108015610c465750814210155b15610c5457610c53611674565b5b5b50505050565b600a5481565b60146020528160005260406000206020528060005260406000206000915091509054906101000a900460ff1681565b600d5481565b60008060008060136000600854815260200190815260200160002060008673ffffffffffffffffffffffffffffffffffffffff1673ffffffffffffffffffffffffffffffffffffffff16815260200190815260200160002060030160009054906101000a900460ff16935060136000600854815260200190815260200160002060008673ffffffffffffffffffffffffffffffffffffffff1673ffffffffffffffffffffffffffffffffffffffff16815260200190815260200160002060000160009054906101000a900460ff16925060136000600854815260200190815260200160002060008673ffffffffffffffffffffffffffffffffffffffff1673ffffffffffffffffffffffffffffffffffffffff16815260200190815260200160002060010160000154915060136000600854815260200190815260200160002060008673ffffffffffffffffffffffffffffffffffffffff1673ffffffffffffffffffffffffffffffffffffffff1681526020019081526020016000206001016001015490508383838393509350935093509193509193565b600060011515600760009054906101000a900460ff161515141515610ebc576040517f08c379a00000000000000000000000000000000000000000000000000000000081526004018080602001828103825260128152602001807f4e6f7420696e2067616d6520706572696f64000000000000000000000000000081525060200191505060405180910390fd5b6000600a54141515610f5c576040517f08c379a00000000000000000000000000000000000000000000000000000000081526004018080602001828103825260218152602001807f66756e64696e67206973206f6e6c7920616c6c6f776564206174207475726e2081526020017f300000000000000000000000000000000000000000000000000000000000000081525060400191505060405180910390fd5b600034111515610fd4576040517f08c379a000000000000000000000000000000000000000000000000000000000815260040180806020018281038252600e8152602001807f46756e647320726571756972656400000000000000000000000000000000000081525060200191505060405180910390fd5b601060009054906101000a900460ff161561106857600254601154014211151515611067576040517f08c379a000000000000000000000000000000000000000000000000000000000815260040180806020018281038252600f8152602001807f66756e64696e67206973206f766572000000000000000000000000000000000081525060200191505060405180910390fd5b5b6001151560136000600854815260200190815260200160002060003373ffffffffffffffffffffffffffffffffffffffff1673ffffffffffffffffffffffffffffffffffffffff16815260200190815260200160002060030160009054906101000a900460ff16151514151515611147576040517f08c379a000000000000000000000000000000000000000000000000000000000815260040180806020018281038252600f8152602001807f416c72656164792066756e64656421000000000000000000000000000000000081525060200191505060405180910390fd5b600b543481151561115457fe5b04905060028081111561116357fe5b82600281111561116f57fe5b14156111ea578060136000600854815260200190815260200160002060003373ffffffffffffffffffffffffffffffffffffffff1673ffffffffffffffffffffffffffffffffffffffff1681526020019081526020016000206001016000018190555080600e600001600082825401925050819055506112ed565b600160028111156111f757fe5b82600281111561120357fe5b141561127e578060136000600854815260200190815260200160002060003373ffffffffffffffffffffffffffffffffffffffff1673ffffffffffffffffffffffffffffffffffffffff1681526020019081526020016000206001016001018190555080600e600101600082825401925050819055506112ec565b6040517f08c379a000000000000000000000000000000000000000000000000000000000815260040180806020018281038252600c8152602001807f496e76616c6964207465616d000000000000000000000000000000000000000081525060200191505060405180910390fd5b5b8160136000600854815260200190815260200160002060003373ffffffffffffffffffffffffffffffffffffffff1673ffffffffffffffffffffffffffffffffffffffff16815260200190815260200160002060000160006101000a81548160ff0219169083600281111561135e57fe5b0217905550600160136000600854815260200190815260200160002060003373ffffffffffffffffffffffffffffffffffffffff1673ffffffffffffffffffffffffffffffffffffffff16815260200190815260200160002060030160006101000a81548160ff0219169083151502179055507ff3a504f28a34fdf555994a3bdfd3dc29f822e8684a9ef01001afb738cc3cdd0a60405160405180910390a160001515601060009054906101000a900460ff161515141561149d576000600e6000015411801561143357506000600e60010154115b1561149c576001601060006101000a81548160ff021916908315150217905550426011819055507f61f3502e7542b5b55e9bb0ecc3c768c9f845c89d8e9bb9f773ef927c56ae159360085442604051808381526020018281526020019250505060405180910390a15b5b5050565b60011515600760009054906101000a900460ff16151514151561152c576040517f08c379a00000000000000000000000000000000000000000000000000000000081526004018080602001828103825260128152602001807f4e6f7420696e2067616d6520706572696f64000000000000000000000000000081525060200191505060405180910390fd5b6000600760006101000a81548160ff0219169083151502179055507fb6cb2ccc2ed1ccdd9dda64fe4d291deb23baaf807b138d00c9e4e3922aba934e60085433604051808381526020018273ffffffffffffffffffffffffffffffffffffffff1673ffffffffffffffffffffffffffffffffffffffff1681526020019250505060405180910390a1565b60025481565b601060009054906101000a900460ff1681565b6002808111156115db57fe5b601260009054906101000a900460ff1660028111156115f657fe5b14611602576002611605565b60015b601260006101000a81548160ff0219169083600281111561162257fe5b02179055507fa74e8fdd0d1b2a47375925ad4caffed137ae7d87fbae14898bfae105c8c1a39f600854600a544260405180848152602001838152602001828152602001935050505060405180910390a1565b60008060136000600854815260200190815260200160002060003373ffffffffffffffffffffffffffffffffffffffff1673ffffffffffffffffffffffffffffffffffffffff1681526020019081526020016000209150601260009054906101000a900460ff1660028111156116e657fe5b8260000160009054906101000a900460ff16600281111561170357fe5b141515611778576040517f08c379a00000000000000000000000000000000000000000000000000000000081526004018080602001828103825260188152602001807f596f7520617265206e6f74206f6e2074686973207465616d000000000000000081525060200191505060405180910390fd5b60016014600060085481526020019081526020016000206000600a54815260200190815260200160002060006101000a81548160ff021916908315150217905550600115156015600060085481526020019081526020016000206000600a54815260200190815260200160002060003373ffffffffffffffffffffffffffffffffffffffff1673ffffffffffffffffffffffffffffffffffffffff16815260200190815260200160002060010160009054906101000a900460ff161515141515611b6a57600b543481151561184957fe5b04905060065481101515156118c6576040517f08c379a000000000000000000000000000000000000000000000000000000000815260040180806020018281038252600f8152602001807f4e6f7420656e6f7567682066756e64000000000000000000000000000000000081525060200191505060405180910390fd5b600654600b540234036015600060085481526020019081526020016000206000600a54815260200190815260200160002060003373ffffffffffffffffffffffffffffffffffffffff1673ffffffffffffffffffffffffffffffffffffffff1681526020019081526020016000206000018190555060016015600060085481526020019081526020016000206000600a54815260200190815260200160002060003373ffffffffffffffffffffffffffffffffffffffff1673ffffffffffffffffffffffffffffffffffffffff16815260200190815260200160002060010160006101000a81548160ff0219169083151502179055506002808111156119c857fe5b8260000160009054906101000a900460ff1660028111156119e557fe5b1415611a56578060136000600854815260200190815260200160002060003373ffffffffffffffffffffffffffffffffffffffff1673ffffffffffffffffffffffffffffffffffffffff16815260200190815260200160002060010160000160008282540192505081905550611aee565b60016002811115611a6357fe5b8260000160009054906101000a900460ff166002811115611a8057fe5b1415611aed578060136000600854815260200190815260200160002060003373ffffffffffffffffffffffffffffffffffffffff1673ffffffffffffffffffffffffffffffffffffffff168152602001908152602001600020600101600101600082825401925050819055505b5b7fbc322ce4a4c3627f22dcde611da2f41356c8b8888e6b73f7e00da80b8be6f8ed600854600a5433604051808481526020018381526020018273ffffffffffffffffffffffffffffffffffffffff1673ffffffffffffffffffffffffffffffffffffffff168152602001935050505060405180910390a1611bfe565b6040517f08c379a00000000000000000000000000000000000000000000000000000000081526004018080602001828103825260238152602001807f596f7527766520616c72656164792070726f7073656420696e2074686973207481526020017f75726e000000000000000000000000000000000000000000000000000000000081525060400191505060405180910390fd5b50505600a165627a7a723058209eab40ac3ce2a4a806606ebec785ebb75ffbf3b7394b201c833df751b294aa1c0029",
  "source": "pragma solidity ^0.4.24;\n\ncontract Deversi {\n\n    enum _TEAM { NONE, DOG, CAT }\n\n    struct Ledger {\n        uint256 CAT;\n        uint256 DOG;\n    }\n    struct User {\n        _TEAM team;\n        Ledger ledger;\n        bool isExist;\n    }\n    struct Proposal {\n        uint256 vote;\n        bool isExist;\n    }\n\n    // System config\n    uint256 public size; // board size\n    address public owner;\n    uint256 public fundRaisingPeriod;\n    uint256 public turnPeriod;\n    uint256 public baseSharePrice;\n    uint256 public shareGrowthRate;\n    uint256 public sharesPerProposal;\n\n    // Game control\n    bool public inGame;\n    uint256 public gameRound;\n    uint256 public currentSize;\n    uint256 public currentTurn;\n    uint256 public currentSharePrice;\n    uint256 public currentSharePerProposal;\n    uint256 public currentShareGrowthRate;\n    Ledger public currentFundingStatus;\n    bool public fundRaisingCountingDown;\n    uint256 public countingStartedTime;\n    _TEAM public currentTeam;\n\n    mapping(uint256 => mapping(address => User)) public userStatus;\n    mapping(uint256 => mapping(uint => bool)) public roundPropsedStatus;\n    mapping(uint256 => mapping(uint256 => mapping(address => Proposal))) public proposals;\n\n    event funded();\n    event NewGameStarted(uint256 round, uint time);\n    event fundRaisingCountdown(uint256 round, uint time);\n    event turnStart(uint256 round, uint256 turn, uint time);\n    event proposed(uint256 round, uint256 turn, address proposer);\n    event gameCleared(uint256, address clearer);\n\n    constructor() public {\n        owner = msg.sender;\n        gameRound = 0;\n        inGame = false;\n        configure(\n            6,\n            5, // funding period\n            30,  // turn period\n            1000000000000000,\n            5,\n            10\n        );\n        startNewGame();\n    }\n\n    function startNewGame() private onlyOwner {\n        gameRound = gameRound + 1;\n        currentSize = size;\n        currentTurn = 0;\n        currentSharePrice = baseSharePrice;\n        currentSharePerProposal = sharesPerProposal;\n        currentShareGrowthRate = shareGrowthRate;\n        sharesPerProposal = 10;\n        fundRaisingCountingDown = false;\n        currentTeam = _TEAM.NONE;\n        currentFundingStatus.CAT = 0;\n        currentFundingStatus.DOG = 0;\n        inGame = true;\n        emit NewGameStarted(gameRound, now);\n    }\n\n    function funding(_TEAM teamChoosen) public payable onlyInGame {\n        require(currentTurn == 0, \"funding is only allowed at turn 0\");\n        require(msg.value > 0, \"Funds required\");\n        if (fundRaisingCountingDown) {\n            require(now <= (countingStartedTime + fundRaisingPeriod), \"funding is over\");\n            // turn start trigger point\n        }\n        require(userStatus[gameRound][msg.sender].isExist != true, \"Already funded!\");\n\n        uint shareAmount = msg.value / currentSharePrice;\n        if (teamChoosen == _TEAM.CAT) {\n            userStatus[gameRound][msg.sender].ledger.CAT = shareAmount;\n            currentFundingStatus.CAT += shareAmount;\n        } else if (teamChoosen == _TEAM.DOG) {\n            userStatus[gameRound][msg.sender].ledger.DOG = shareAmount;\n            currentFundingStatus.DOG += shareAmount;\n        } else {\n            revert(\"Invalid team\");\n        }\n        userStatus[gameRound][msg.sender].team = teamChoosen;\n        userStatus[gameRound][msg.sender].isExist = true;\n        emit funded();\n        if (fundRaisingCountingDown == false) {\n            if (\n                (currentFundingStatus.CAT > 0) &&\n                (currentFundingStatus.DOG > 0)\n            ) {\n                fundRaisingCountingDown = true;\n                countingStartedTime = now;\n                emit fundRaisingCountdown(gameRound, now);\n            }\n        }\n    }\n\n    function propose() public payable onlyInGame {\n        uint256 gameStartTime = countingStartedTime + fundRaisingPeriod;\n        require((fundRaisingCountingDown == true) && (now > gameStartTime), \"not yet started\");\n        if (currentTurn == 0) {\n            currentTurn += 1;\n            currentTeam = (currentFundingStatus.CAT > currentFundingStatus.DOG)\n                ? _TEAM.CAT\n                : _TEAM.DOG;\n            emit turnStart(gameRound, currentTurn, now);\n        }\n        uint256 currentRoundEndTime = gameStartTime + (currentTurn * turnPeriod);\n        uint256 currentRoundStartTime = currentRoundEndTime - turnPeriod;\n        if (now > currentRoundEndTime) {\n            if (roundPropsedStatus[gameRound][currentTurn] != true) {\n                // game over!\n                // revert(\"game over because previous round isnt played\");\n                clearGame();\n            } else {\n                uint256 nextRoundEndTime = currentRoundEndTime + turnPeriod;\n                if (now > nextRoundEndTime) {\n                    clearGame();\n                } else {\n                    currentTurn += 1;\n                    updateGame();\n                    doPropose();\n                }\n            }\n        } else if ((now < currentRoundEndTime) && (now >= currentRoundStartTime)) {\n            doPropose();\n        }\n    }\n\n    function doPropose() private {\n        User userTeam = userStatus[gameRound][msg.sender];\n        require(userTeam.team == currentTeam, \"You are not on this team\");\n        roundPropsedStatus[gameRound][currentTurn] = true;\n        if (proposals[gameRound][currentTurn][msg.sender].isExist != true) {\n            uint256 shares = msg.value / currentSharePrice;\n            require(shares >= sharesPerProposal, \"Not enough fund\");\n            proposals[gameRound][currentTurn][msg.sender].vote = msg.value - (currentSharePrice * sharesPerProposal);\n            proposals[gameRound][currentTurn][msg.sender].isExist = true;\n            if (userTeam.team == _TEAM.CAT) {\n                userStatus[gameRound][msg.sender].ledger.CAT += shares;\n            } else if (userTeam.team == _TEAM.DOG) {\n                userStatus[gameRound][msg.sender].ledger.DOG += shares;\n            }\n            emit proposed(gameRound, currentTurn, msg.sender);\n        } else {\n            revert(\"You've already propsed in this turn\");\n        }\n    }\n\n    function updateGame() private {\n        currentTeam = (currentTeam == _TEAM.CAT) ? _TEAM.DOG : _TEAM.CAT;\n        emit turnStart(gameRound, currentTurn, now);\n    }\n\n    function clearGame() public onlyInGame {\n        // revert(\"game over!\");\n        inGame = false;\n        // distribute money\n        emit gameCleared(gameRound, msg.sender);\n\n    }\n\n    function getUserStatus(address addr) public view returns (\n        bool isExist,\n        _TEAM team,\n        uint256 CAT,\n        uint256 DOG\n    ) {\n        isExist = userStatus[gameRound][addr].isExist;\n        team = userStatus[gameRound][addr].team;\n        CAT = userStatus[gameRound][addr].ledger.CAT;\n        DOG = userStatus[gameRound][addr].ledger.DOG;\n        return (isExist, team, CAT, DOG);\n    }\n    function getTeamFundingStatus() public view returns(\n        uint256 CAT,\n        uint256 DOG\n    ) {\n        CAT = currentFundingStatus.CAT;\n        DOG = currentFundingStatus.DOG;\n        return (CAT, DOG);\n    }\n\n    function configure(\n        uint256 _size,\n        uint256 _fundRaisingPeriod,\n        uint256 _turnPeriod,\n        uint256 _baseSharePrice,\n        uint256 _shareGrowthRate,\n        uint256 _sharesPerProposal\n    ) public onlyOwner {\n        size = _size;\n        fundRaisingPeriod = _fundRaisingPeriod;\n        turnPeriod = _turnPeriod;\n        baseSharePrice = _baseSharePrice;\n        shareGrowthRate = _shareGrowthRate;\n        sharesPerProposal = _sharesPerProposal;\n    }\n\n    modifier onlyOwner() {\n        require(msg.sender == owner, \"Only owner is allowed\");\n        _;\n    }\n    modifier onlyInGame() {\n        require(inGame == true, \"Not in game period\");\n        _;\n    }\n}",
  "sourcePath": "/Users/chenwei/Desktop/github/Reversi_On_Smart_Contract_POC/contracts/Deversi.sol",
  "compiler": {
    "name": "solc",
    "version": "0.4.24+commit.e67f0147.Emscripten.clang"
  },
  "schemaVersion": "2.0.1",
  "updatedAt": "2018-10-12T10:49:34.252Z"
}