{
  "contractName": "Deversi",
  "abi": [
    {
      "constant": true,
      "inputs": [],
      "name": "myString",
      "outputs": [
        {
          "name": "",
          "type": "string"
        }
      ],
      "payable": false,
      "stateMutability": "view",
      "type": "function"
    },
    {
      "anonymous": false,
      "inputs": [],
      "name": "StringUpdated",
      "type": "event"
    },
    {
      "constant": false,
      "inputs": [
        {
          "name": "x",
          "type": "string"
        }
      ],
      "name": "set",
      "outputs": [],
      "payable": false,
      "stateMutability": "nonpayable",
      "type": "function"
    }
  ],
  "bytecode": "0x60806040526040805190810160405280600c81526020017f48656c6c6f20576f726c643200000000000000000000000000000000000000008152506000908051906020019061004f929190610062565b5034801561005c57600080fd5b50610107565b828054600181600116156101000203166002900490600052602060002090601f016020900481019282601f106100a357805160ff19168380011785556100d1565b828001600101855582156100d1579182015b828111156100d05782518255916020019190600101906100b5565b5b5090506100de91906100e2565b5090565b61010491905b808211156101005760008160009055506001016100e8565b5090565b90565b6102ff806101166000396000f30060806040526004361061004c576000357c0100000000000000000000000000000000000000000000000000000000900463ffffffff168063492bfa18146100515780634ed3885e146100e1575b600080fd5b34801561005d57600080fd5b5061006661014a565b6040518080602001828103825283818151815260200191508051906020019080838360005b838110156100a657808201518184015260208101905061008b565b50505050905090810190601f1680156100d35780820380516001836020036101000a031916815260200191505b509250505060405180910390f35b3480156100ed57600080fd5b50610148600480360381019080803590602001908201803590602001908080601f01602080910402602001604051908101604052809392919081815260200183838082843782019150505050505091929192905050506101e8565b005b60008054600181600116156101000203166002900480601f0160208091040260200160405190810160405280929190818152602001828054600181600116156101000203166002900480156101e05780601f106101b5576101008083540402835291602001916101e0565b820191906000526020600020905b8154815290600101906020018083116101c357829003601f168201915b505050505081565b80600090805190602001906101fe92919061022e565b507f1c1a31338e815783355236aa6b66c742b43bdba7b6b34dc03de716122b77efb060405160405180910390a150565b828054600181600116156101000203166002900490600052602060002090601f016020900481019282601f1061026f57805160ff191683800117855561029d565b8280016001018555821561029d579182015b8281111561029c578251825591602001919060010190610281565b5b5090506102aa91906102ae565b5090565b6102d091905b808211156102cc5760008160009055506001016102b4565b5090565b905600a165627a7a72305820367a12c9b62e69346dc4990fc18ee754cf28b616e900112eaacd47e95ed6d47f0029",
  "source": "pragma solidity ^0.4.24;\n\ncontract Deversi {\n\n    string public myString = \"Hello World2\";\n    event StringUpdated();\n\n    function set(string x) public {\n        myString = x;\n        emit StringUpdated();\n    }\n}",
  "sourcePath": "/Users/chenwei/Desktop/github/Reversi_On_Smart_Contract_POC/contracts/Deversi.sol",
  "compiler": {
    "name": "solc",
    "version": "0.4.24+commit.e67f0147.Emscripten.clang"
  },
  "schemaVersion": "2.0.1",
  "updatedAt": "2018-10-04T10:02:21.696Z"
}