{
  "contractName": "Deversi",
  "abi": [
    {
      "constant": true,
      "inputs": [],
      "name": "turnPeriod",
      "outputs": [
        {
          "name": "",
          "type": "uint256"
        }
      ],
      "payable": false,
      "stateMutability": "view",
      "type": "function"
    },
    {
      "constant": true,
      "inputs": [
        {
          "name": "",
          "type": "uint256"
        },
        {
          "name": "",
          "type": "address"
        }
      ],
      "name": "userStatus",
      "outputs": [
        {
          "name": "team",
          "type": "uint8"
        },
        {
          "components": [
            {
              "name": "CAT",
              "type": "uint256"
            },
            {
              "name": "DOG",
              "type": "uint256"
            }
          ],
          "name": "ledger",
          "type": "tuple"
        },
        {
          "name": "isExist",
          "type": "bool"
        }
      ],
      "payable": false,
      "stateMutability": "view",
      "type": "function"
    },
    {
      "constant": true,
      "inputs": [],
      "name": "currentSharePrice",
      "outputs": [
        {
          "name": "",
          "type": "uint256"
        }
      ],
      "payable": false,
      "stateMutability": "view",
      "type": "function"
    },
    {
      "constant": true,
      "inputs": [],
      "name": "baseSharePrice",
      "outputs": [
        {
          "name": "",
          "type": "uint256"
        }
      ],
      "payable": false,
      "stateMutability": "view",
      "type": "function"
    },
    {
      "constant": true,
      "inputs": [],
      "name": "currentFundingStatus",
      "outputs": [
        {
          "name": "CAT",
          "type": "uint256"
        },
        {
          "name": "DOG",
          "type": "uint256"
        }
      ],
      "payable": false,
      "stateMutability": "view",
      "type": "function"
    },
    {
      "constant": true,
      "inputs": [],
      "name": "countingStartedTime",
      "outputs": [
        {
          "name": "",
          "type": "uint256"
        }
      ],
      "payable": false,
      "stateMutability": "view",
      "type": "function"
    },
    {
      "constant": true,
      "inputs": [],
      "name": "sharesPerProposal",
      "outputs": [
        {
          "name": "",
          "type": "uint256"
        }
      ],
      "payable": false,
      "stateMutability": "view",
      "type": "function"
    },
    {
      "constant": true,
      "inputs": [],
      "name": "currentSharePerProposal",
      "outputs": [
        {
          "name": "",
          "type": "uint256"
        }
      ],
      "payable": false,
      "stateMutability": "view",
      "type": "function"
    },
    {
      "constant": true,
      "inputs": [],
      "name": "inGame",
      "outputs": [
        {
          "name": "",
          "type": "bool"
        }
      ],
      "payable": false,
      "stateMutability": "view",
      "type": "function"
    },
    {
      "constant": true,
      "inputs": [],
      "name": "black",
      "outputs": [
        {
          "name": "",
          "type": "uint8"
        }
      ],
      "payable": false,
      "stateMutability": "view",
      "type": "function"
    },
    {
      "constant": true,
      "inputs": [],
      "name": "owner",
      "outputs": [
        {
          "name": "",
          "type": "address"
        }
      ],
      "payable": false,
      "stateMutability": "view",
      "type": "function"
    },
    {
      "constant": true,
      "inputs": [
        {
          "name": "",
          "type": "uint256"
        },
        {
          "name": "",
          "type": "uint256"
        },
        {
          "name": "",
          "type": "address"
        }
      ],
      "name": "proposals",
      "outputs": [
        {
          "name": "vote",
          "type": "uint256"
        },
        {
          "name": "time",
          "type": "uint256"
        },
        {
          "name": "isExist",
          "type": "bool"
        },
        {
          "name": "x",
          "type": "uint256"
        },
        {
          "name": "y",
          "type": "uint256"
        }
      ],
      "payable": false,
      "stateMutability": "view",
      "type": "function"
    },
    {
      "constant": true,
      "inputs": [],
      "name": "size",
      "outputs": [
        {
          "name": "",
          "type": "uint256"
        }
      ],
      "payable": false,
      "stateMutability": "view",
      "type": "function"
    },
    {
      "constant": true,
      "inputs": [],
      "name": "white",
      "outputs": [
        {
          "name": "",
          "type": "uint8"
        }
      ],
      "payable": false,
      "stateMutability": "view",
      "type": "function"
    },
    {
      "constant": true,
      "inputs": [],
      "name": "gameRound",
      "outputs": [
        {
          "name": "",
          "type": "uint256"
        }
      ],
      "payable": false,
      "stateMutability": "view",
      "type": "function"
    },
    {
      "constant": true,
      "inputs": [
        {
          "name": "",
          "type": "uint256"
        },
        {
          "name": "",
          "type": "uint256"
        }
      ],
      "name": "userList",
      "outputs": [
        {
          "name": "",
          "type": "address"
        }
      ],
      "payable": false,
      "stateMutability": "view",
      "type": "function"
    },
    {
      "constant": true,
      "inputs": [],
      "name": "shareGrowthRate",
      "outputs": [
        {
          "name": "",
          "type": "uint256"
        }
      ],
      "payable": false,
      "stateMutability": "view",
      "type": "function"
    },
    {
      "constant": true,
      "inputs": [],
      "name": "currentTeam",
      "outputs": [
        {
          "name": "",
          "type": "uint8"
        }
      ],
      "payable": false,
      "stateMutability": "view",
      "type": "function"
    },
    {
      "constant": true,
      "inputs": [],
      "name": "currentSize",
      "outputs": [
        {
          "name": "",
          "type": "uint256"
        }
      ],
      "payable": false,
      "stateMutability": "view",
      "type": "function"
    },
    {
      "constant": true,
      "inputs": [
        {
          "name": "",
          "type": "uint256"
        },
        {
          "name": "",
          "type": "uint256"
        },
        {
          "name": "",
          "type": "uint256"
        }
      ],
      "name": "proposedAddress",
      "outputs": [
        {
          "name": "",
          "type": "address"
        }
      ],
      "payable": false,
      "stateMutability": "view",
      "type": "function"
    },
    {
      "constant": true,
      "inputs": [],
      "name": "currentTurn",
      "outputs": [
        {
          "name": "",
          "type": "uint256"
        }
      ],
      "payable": false,
      "stateMutability": "view",
      "type": "function"
    },
    {
      "constant": true,
      "inputs": [
        {
          "name": "",
          "type": "uint256"
        },
        {
          "name": "",
          "type": "uint256"
        }
      ],
      "name": "roundPropsedStatus",
      "outputs": [
        {
          "name": "",
          "type": "bool"
        }
      ],
      "payable": false,
      "stateMutability": "view",
      "type": "function"
    },
    {
      "constant": true,
      "inputs": [],
      "name": "currentShareGrowthRate",
      "outputs": [
        {
          "name": "",
          "type": "uint256"
        }
      ],
      "payable": false,
      "stateMutability": "view",
      "type": "function"
    },
    {
      "constant": true,
      "inputs": [
        {
          "name": "",
          "type": "uint256"
        },
        {
          "name": "",
          "type": "uint256"
        },
        {
          "name": "",
          "type": "uint256"
        }
      ],
      "name": "boardStatus",
      "outputs": [
        {
          "name": "",
          "type": "uint8"
        }
      ],
      "payable": false,
      "stateMutability": "view",
      "type": "function"
    },
    {
      "constant": true,
      "inputs": [],
      "name": "fundRaisingPeriod",
      "outputs": [
        {
          "name": "",
          "type": "uint256"
        }
      ],
      "payable": false,
      "stateMutability": "view",
      "type": "function"
    },
    {
      "constant": true,
      "inputs": [],
      "name": "fundRaisingCountingDown",
      "outputs": [
        {
          "name": "",
          "type": "bool"
        }
      ],
      "payable": false,
      "stateMutability": "view",
      "type": "function"
    },
    {
      "inputs": [],
      "payable": false,
      "stateMutability": "nonpayable",
      "type": "constructor"
    },
    {
      "anonymous": false,
      "inputs": [],
      "name": "funded",
      "type": "event"
    },
    {
      "anonymous": false,
      "inputs": [
        {
          "indexed": false,
          "name": "round",
          "type": "uint256"
        },
        {
          "indexed": false,
          "name": "time",
          "type": "uint256"
        }
      ],
      "name": "NewGameStarted",
      "type": "event"
    },
    {
      "anonymous": false,
      "inputs": [
        {
          "indexed": false,
          "name": "round",
          "type": "uint256"
        },
        {
          "indexed": false,
          "name": "time",
          "type": "uint256"
        }
      ],
      "name": "fundRaisingCountdown",
      "type": "event"
    },
    {
      "anonymous": false,
      "inputs": [
        {
          "indexed": true,
          "name": "round",
          "type": "uint256"
        },
        {
          "indexed": false,
          "name": "turn",
          "type": "uint256"
        },
        {
          "indexed": false,
          "name": "time",
          "type": "uint256"
        }
      ],
      "name": "turnStart",
      "type": "event"
    },
    {
      "anonymous": false,
      "inputs": [
        {
          "indexed": true,
          "name": "round",
          "type": "uint256"
        },
        {
          "indexed": false,
          "name": "turn",
          "type": "uint256"
        },
        {
          "indexed": false,
          "name": "proposer",
          "type": "address"
        },
        {
          "indexed": false,
          "name": "x",
          "type": "uint256"
        },
        {
          "indexed": false,
          "name": "y",
          "type": "uint256"
        }
      ],
      "name": "proposed",
      "type": "event"
    },
    {
      "anonymous": false,
      "inputs": [
        {
          "indexed": false,
          "name": "",
          "type": "uint256"
        },
        {
          "indexed": false,
          "name": "clearer",
          "type": "address"
        }
      ],
      "name": "gameCleared",
      "type": "event"
    },
    {
      "anonymous": false,
      "inputs": [
        {
          "indexed": false,
          "name": "round",
          "type": "uint256"
        },
        {
          "indexed": false,
          "name": "turn",
          "type": "uint256"
        },
        {
          "indexed": false,
          "name": "proposer",
          "type": "address"
        },
        {
          "indexed": false,
          "name": "voter",
          "type": "address"
        },
        {
          "indexed": false,
          "name": "shares",
          "type": "uint256"
        }
      ],
      "name": "voted",
      "type": "event"
    },
    {
      "anonymous": false,
      "inputs": [
        {
          "indexed": false,
          "name": "round",
          "type": "uint256"
        },
        {
          "indexed": false,
          "name": "turn",
          "type": "uint256"
        },
        {
          "indexed": false,
          "name": "proposer",
          "type": "address"
        },
        {
          "indexed": false,
          "name": "vote",
          "type": "uint256"
        }
      ],
      "name": "proposalSelected",
      "type": "event"
    },
    {
      "anonymous": false,
      "inputs": [
        {
          "indexed": false,
          "name": "turn",
          "type": "uint256"
        },
        {
          "indexed": false,
          "name": "x",
          "type": "uint256"
        },
        {
          "indexed": false,
          "name": "y",
          "type": "uint256"
        }
      ],
      "name": "flipEvent",
      "type": "event"
    },
    {
      "anonymous": false,
      "inputs": [
        {
          "indexed": false,
          "name": "msg",
          "type": "string"
        },
        {
          "indexed": false,
          "name": "sender",
          "type": "address"
        },
        {
          "indexed": false,
          "name": "round",
          "type": "uint256"
        },
        {
          "indexed": false,
          "name": "time",
          "type": "uint256"
        }
      ],
      "name": "messagePost",
      "type": "event"
    },
    {
      "anonymous": false,
      "inputs": [
        {
          "indexed": false,
          "name": "round",
          "type": "uint256"
        },
        {
          "indexed": false,
          "name": "amount",
          "type": "uint256"
        },
        {
          "indexed": false,
          "name": "receiver",
          "type": "address"
        }
      ],
      "name": "prizeTransfer",
      "type": "event"
    },
    {
      "constant": false,
      "inputs": [],
      "name": "startNewGame",
      "outputs": [],
      "payable": false,
      "stateMutability": "nonpayable",
      "type": "function"
    },
    {
      "constant": false,
      "inputs": [
        {
          "name": "teamChoosen",
          "type": "uint8"
        }
      ],
      "name": "funding",
      "outputs": [],
      "payable": true,
      "stateMutability": "payable",
      "type": "function"
    },
    {
      "constant": false,
      "inputs": [
        {
          "name": "message",
          "type": "string"
        }
      ],
      "name": "postMessage",
      "outputs": [],
      "payable": false,
      "stateMutability": "nonpayable",
      "type": "function"
    },
    {
      "constant": false,
      "inputs": [
        {
          "name": "x",
          "type": "uint256"
        },
        {
          "name": "y",
          "type": "uint256"
        }
      ],
      "name": "propose",
      "outputs": [],
      "payable": true,
      "stateMutability": "payable",
      "type": "function"
    },
    {
      "constant": false,
      "inputs": [
        {
          "name": "round",
          "type": "uint256"
        },
        {
          "name": "turn",
          "type": "uint256"
        },
        {
          "name": "proposer",
          "type": "address"
        }
      ],
      "name": "vote",
      "outputs": [],
      "payable": true,
      "stateMutability": "payable",
      "type": "function"
    },
    {
      "constant": false,
      "inputs": [
        {
          "name": "doNotCheck",
          "type": "bool"
        }
      ],
      "name": "updateGame",
      "outputs": [],
      "payable": false,
      "stateMutability": "nonpayable",
      "type": "function"
    },
    {
      "constant": false,
      "inputs": [],
      "name": "checkGameEnd",
      "outputs": [],
      "payable": false,
      "stateMutability": "nonpayable",
      "type": "function"
    },
    {
      "constant": false,
      "inputs": [],
      "name": "clearGame",
      "outputs": [],
      "payable": false,
      "stateMutability": "nonpayable",
      "type": "function"
    },
    {
      "constant": true,
      "inputs": [],
      "name": "getBoardStatus",
      "outputs": [
        {
          "name": "",
          "type": "uint8[]"
        }
      ],
      "payable": false,
      "stateMutability": "view",
      "type": "function"
    },
    {
      "constant": true,
      "inputs": [
        {
          "name": "addr",
          "type": "address"
        }
      ],
      "name": "getUserStatus",
      "outputs": [
        {
          "name": "isExist",
          "type": "bool"
        },
        {
          "name": "team",
          "type": "uint8"
        },
        {
          "name": "CAT",
          "type": "uint256"
        },
        {
          "name": "DOG",
          "type": "uint256"
        }
      ],
      "payable": false,
      "stateMutability": "view",
      "type": "function"
    },
    {
      "constant": true,
      "inputs": [],
      "name": "getTeamFundingStatus",
      "outputs": [
        {
          "name": "CAT",
          "type": "uint256"
        },
        {
          "name": "DOG",
          "type": "uint256"
        }
      ],
      "payable": false,
      "stateMutability": "view",
      "type": "function"
    },
    {
      "constant": true,
      "inputs": [
        {
          "name": "round",
          "type": "uint256"
        },
        {
          "name": "turn",
          "type": "uint256"
        },
        {
          "name": "proposer",
          "type": "address"
        }
      ],
      "name": "getProposalStatus",
      "outputs": [
        {
          "name": "vote",
          "type": "uint256"
        },
        {
          "name": "time",
          "type": "uint256"
        },
        {
          "name": "x",
          "type": "uint256"
        },
        {
          "name": "y",
          "type": "uint256"
        }
      ],
      "payable": false,
      "stateMutability": "view",
      "type": "function"
    },
    {
      "constant": false,
      "inputs": [
        {
          "name": "_size",
          "type": "uint256"
        },
        {
          "name": "_fundRaisingPeriod",
          "type": "uint256"
        },
        {
          "name": "_turnPeriod",
          "type": "uint256"
        },
        {
          "name": "_baseSharePrice",
          "type": "uint256"
        },
        {
          "name": "_shareGrowthRate",
          "type": "uint256"
        },
        {
          "name": "_sharesPerProposal",
          "type": "uint256"
        }
      ],
      "name": "configure",
      "outputs": [],
      "payable": false,
      "stateMutability": "nonpayable",
      "type": "function"
    }
  ],
  "bytecode": "0x60806040523480156200001157600080fd5b5033600160006101000a81548173ffffffffffffffffffffffffffffffffffffffff021916908373ffffffffffffffffffffffffffffffffffffffff16021790555060006008819055506000600760006101000a81548160ff021916908315150217905550620000a26004600a61012c67016345785d8a000080600a620000c1640100000000026401000000009004565b620000bb620001b9640100000000026401000000009004565b62000767565b600160009054906101000a900473ffffffffffffffffffffffffffffffffffffffff1673ffffffffffffffffffffffffffffffffffffffff163373ffffffffffffffffffffffffffffffffffffffff1614151562000187576040517f08c379a00000000000000000000000000000000000000000000000000000000081526004018080602001828103825260158152602001807f4f6e6c79206f776e657220697320616c6c6f776564000000000000000000000081525060200191505060405180910390fd5b856000819055508460028190555083600381905550826004819055508160058190555080600681905550505050505050565b60001515600760009054906101000a900460ff16151514151562000245576040517f08c379a00000000000000000000000000000000000000000000000000000000081526004018080602001828103825260108152602001807f67616d6520697320676f696e67206f6e0000000000000000000000000000000081525060200191505060405180910390fd5b6001600854016008819055506000546009819055506000600a81905550600454600b81905550600654600c81905550600554600d81905550600a6006819055506000601060006101000a81548160ff02191690831515021790555060006011819055506000601260006101000a81548160ff02191690836002811115620002c857fe5b02179055506000601260016101000a81548160ff02191690836002811115620002ed57fe5b02179055506000601260026101000a81548160ff021916908360028111156200031257fe5b02179055506000600e600001819055506000600e600101819055506001600760006101000a81548160ff02191690831515021790555060016013600060085481526020019081526020016000206000600160026009548115156200037257fe5b040381526020019081526020016000206000600160026009548115156200039557fe5b0403815260200190815260200160002060006101000a81548160ff02191690836005811115620003c157fe5b0217905550600160136000600854815260200190815260200160002060006002600954811515620003ee57fe5b048152602001908152602001600020600060026009548115156200040e57fe5b04815260200190815260200160002060006101000a81548160ff021916908360058111156200043957fe5b02179055506002601360006008548152602001908152602001600020600060026009548115156200046657fe5b0481526020019081526020016000206000600160026009548115156200048857fe5b0403815260200190815260200160002060006101000a81548160ff02191690836005811115620004b457fe5b02179055506002601360006008548152602001908152602001600020600060016002600954811515620004e357fe5b04038152602001908152602001600020600060026009548115156200050457fe5b04815260200190815260200160002060006101000a81548160ff021916908360058111156200052f57fe5b021790555060036013600060085481526020019081526020016000206000600160026009548115156200055e57fe5b040181526020019081526020016000206000600160026009548115156200058157fe5b0403815260200190815260200160002060006101000a81548160ff02191690836005811115620005ad57fe5b0217905550600360136000600854815260200190815260200160002060006002600954811515620005da57fe5b0481526020019081526020016000206000600280600954811515620005fb57fe5b0403815260200190815260200160002060006101000a81548160ff021916908360058111156200062757fe5b021790555060036013600060085481526020019081526020016000206000600160026009548115156200065657fe5b040381526020019081526020016000206000600160026009548115156200067957fe5b0401815260200190815260200160002060006101000a81548160ff02191690836005811115620006a557fe5b021790555060036013600060085481526020019081526020016000206000600280600954811515620006d357fe5b0403815260200190815260200160002060006002600954811515620006f457fe5b04815260200190815260200160002060006101000a81548160ff021916908360058111156200071f57fe5b02179055507f1a92f8260fbb9503d4da4de0b7753e04745a81b9a56dafcd9e51a7b828c16c7360085442604051808381526020018281526020019250505060405180910390a1565b614a6580620007776000396000f3006080604052600436106101e3576000357c0100000000000000000000000000000000000000000000000000000000900463ffffffff16806306b59fb3146101e85780630b89db471461021757806316ab1010146102495780631aca53571461027457806328a79576146102f557806334db3b9c1461032057806337d319ad1461034b57806345077a86146103aa578063482d51e0146103dc57806350d91583146103f357806358052a0e1461043d5780635874d420146104685780635b4c9c59146104935780635de17e67146104bd57806365ca0d52146104e85780636630f88f14610554578063794f4fdc146105bd5780637f9fdf4a146105ec5780638b8fd3bd146106035780638da5cb5b1461063c57806393c45f3714610693578063949d225d1461071e578063a081107414610749578063a5f9b5c214610782578063ae2349de146107ad578063b21015f114610824578063ba1652db1461084f578063bda1504b14610888578063c7f166dc146108b3578063da1b661414610933578063deb61286146109b4578063e3254f7d146109df578063e75c8bfe14610a2e578063ea0d5dcd14610a59578063f0c67a8414610ad7578063f131a7ae14610afa578063f8ee700c14610b11578063fc71852a14610b74578063fffb133a14610b9f575b600080fd5b3480156101f457600080fd5b50610215600480360381019080803515159060200190929190505050610bce565b005b34801561022357600080fd5b5061022c610fbb565b604051808381526020018281526020019250505060405180910390f35b34801561025557600080fd5b5061025e610fd8565b6040518082815260200191505060405180910390f35b34801561028057600080fd5b506102bf60048036038101908080359060200190929190803573ffffffffffffffffffffffffffffffffffffffff169060200190929190505050610fde565b604051808460028111156102cf57fe5b60ff16815260200183815260200182151515158152602001935050505060405180910390f35b34801561030157600080fd5b5061030a61104d565b6040518082815260200191505060405180910390f35b34801561032c57600080fd5b50610335611053565b6040518082815260200191505060405180910390f35b34801561035757600080fd5b506103a8600480360381019080803590602001909291908035906020019092919080359060200190929190803590602001909291908035906020019092919080359060200190929190505050611059565b005b3480156103b657600080fd5b506103bf611150565b604051808381526020018281526020019250505060405180910390f35b3480156103e857600080fd5b506103f1611162565b005b61043b6004803603810190808035906020019092919080359060200190929190803573ffffffffffffffffffffffffffffffffffffffff1690602001909291905050506116f4565b005b34801561044957600080fd5b50610452611e63565b6040518082815260200191505060405180910390f35b34801561047457600080fd5b5061047d611e69565b6040518082815260200191505060405180910390f35b6104bb6004803603810190808035906020019092919080359060200190929190505050611e6f565b005b3480156104c957600080fd5b506104d26122a0565b6040518082815260200191505060405180910390f35b3480156104f457600080fd5b506104fd6122a6565b6040518080602001828103825283818151815260200191508051906020019060200280838360005b83811015610540578082015181840152602081019050610525565b505050509050019250505060405180910390f35b34801561056057600080fd5b506105bb600480360381019080803590602001908201803590602001908080601f01602080910402602001604051908101604052809392919081815260200183838082843782019150505050505091929192905050506123a4565b005b3480156105c957600080fd5b506105d2612514565b604051808215151515815260200191505060405180910390f35b3480156105f857600080fd5b50610601612527565b005b34801561060f57600080fd5b506106186126c6565b6040518082600281111561062857fe5b60ff16815260200191505060405180910390f35b34801561064857600080fd5b506106516126d9565b604051808273ffffffffffffffffffffffffffffffffffffffff1673ffffffffffffffffffffffffffffffffffffffff16815260200191505060405180910390f35b34801561069f57600080fd5b506106e86004803603810190808035906020019092919080359060200190929190803573ffffffffffffffffffffffffffffffffffffffff1690602001909291905050506126ff565b60405180868152602001858152602001841515151581526020018381526020018281526020019550505050505060405180910390f35b34801561072a57600080fd5b5061073361275c565b6040518082815260200191505060405180910390f35b34801561075557600080fd5b5061075e612762565b6040518082600281111561076e57fe5b60ff16815260200191505060405180910390f35b34801561078e57600080fd5b50610797612775565b6040518082815260200191505060405180910390f35b3480156107b957600080fd5b506107e2600480360381019080803590602001909291908035906020019092919050505061277b565b604051808273ffffffffffffffffffffffffffffffffffffffff1673ffffffffffffffffffffffffffffffffffffffff16815260200191505060405180910390f35b34801561083057600080fd5b506108396127c8565b6040518082815260200191505060405180910390f35b34801561085b57600080fd5b506108646127ce565b6040518082600281111561087457fe5b60ff16815260200191505060405180910390f35b34801561089457600080fd5b5061089d6127e1565b6040518082815260200191505060405180910390f35b3480156108bf57600080fd5b506109086004803603810190808035906020019092919080359060200190929190803573ffffffffffffffffffffffffffffffffffffffff1690602001909291905050506127e7565b6040518085815260200184815260200183815260200182815260200194505050505060405180910390f35b34801561093f57600080fd5b50610972600480360381019080803590602001909291908035906020019092919080359060200190929190505050612895565b604051808273ffffffffffffffffffffffffffffffffffffffff1673ffffffffffffffffffffffffffffffffffffffff16815260200191505060405180910390f35b3480156109c057600080fd5b506109c96128ef565b6040518082815260200191505060405180910390f35b3480156109eb57600080fd5b50610a1460048036038101908080359060200190929190803590602001909291905050506128f5565b604051808215151515815260200191505060405180910390f35b348015610a3a57600080fd5b50610a43612924565b6040518082815260200191505060405180910390f35b348015610a6557600080fd5b50610a9a600480360381019080803573ffffffffffffffffffffffffffffffffffffffff16906020019092919050505061292a565b6040518085151515158152602001846002811115610ab457fe5b60ff16815260200183815260200182815260200194505050505060405180910390f35b610af8600480360381019080803560ff169060200190929190505050612ac3565b005b348015610b0657600080fd5b50610b0f6131ae565b005b348015610b1d57600080fd5b50610b506004803603810190808035906020019092919080359060200190929190803590602001909291905050506136c3565b60405180826005811115610b6057fe5b60ff16815260200191505060405180910390f35b348015610b8057600080fd5b50610b896136ff565b6040518082815260200191505060405180910390f35b348015610bab57600080fd5b50610bb4613705565b604051808215151515815260200191505060405180910390f35b60008060008060008060006018600060085481526020019081526020016000206000600a5481526020019081526020016000208054905096506018600060085481526020019081526020016000206000600a5481526020019081526020016000206000815481101515610c3d57fe5b9060005260206000200160009054906101000a900473ffffffffffffffffffffffffffffffffffffffff1695506017600060085481526020019081526020016000206000600a54815260200190815260200160002060008773ffffffffffffffffffffffffffffffffffffffff1673ffffffffffffffffffffffffffffffffffffffff168152602001908152602001600020600001549450600193505b86841015610dcf576018600060085481526020019081526020016000206000600a54815260200190815260200160002084815481101515610d1757fe5b9060005260206000200160009054906101000a900473ffffffffffffffffffffffffffffffffffffffff1692506017600060085481526020019081526020016000206000600a54815260200190815260200160002060008473ffffffffffffffffffffffffffffffffffffffff1673ffffffffffffffffffffffffffffffffffffffff16815260200190815260200160002091508482600001541115610dc257829550816000015494505b8380600101945050610cda565b6017600060085481526020019081526020016000206000600a54815260200190815260200160002060008773ffffffffffffffffffffffffffffffffffffffff1673ffffffffffffffffffffffffffffffffffffffff1681526020019081526020016000209050601260009054906101000a900460ff166002811115610e5157fe5b601260019054906101000a900460ff166002811115610e6c57fe5b1415610ed857600160136000600854815260200190815260200160002060008360030154815260200190815260200160002060008360040154815260200190815260200160002060006101000a81548160ff02191690836005811115610ece57fe5b0217905550610f77565b601260009054906101000a900460ff166002811115610ef357fe5b601260029054906101000a900460ff166002811115610f0e57fe5b1415610f7657600260136000600854815260200190815260200160002060008360030154815260200190815260200160002060008360040154815260200190815260200160002060006101000a81548160ff02191690836005811115610f7057fe5b02179055505b5b610f8981600301548260040154613718565b6001600a6000828254019250508190555060011515881515141515610fb157610fb0612527565b5b5050505050505050565b600080600e600001549150600e6001015490508181915091509091565b60035481565b6014602052816000526040600020602052806000526040600020600091509150508060000160009054906101000a900460ff16908060010160408051908101604052908160008201548152602001600182015481525050908060030160009054906101000a900460ff16905083565b600b5481565b60045481565b600160009054906101000a900473ffffffffffffffffffffffffffffffffffffffff1673ffffffffffffffffffffffffffffffffffffffff163373ffffffffffffffffffffffffffffffffffffffff1614151561111e576040517f08c379a00000000000000000000000000000000000000000000000000000000081526004018080602001828103825260158152602001807f4f6e6c79206f776e657220697320616c6c6f776564000000000000000000000081525060200191505060405180910390fd5b856000819055508460028190555083600381905550826004819055508160058190555080600681905550505050505050565b600e8060000154908060010154905082565b60001515600760009054906101000a900460ff1615151415156111ed576040517f08c379a00000000000000000000000000000000000000000000000000000000081526004018080602001828103825260108152602001807f67616d6520697320676f696e67206f6e0000000000000000000000000000000081525060200191505060405180910390fd5b6001600854016008819055506000546009819055506000600a81905550600454600b81905550600654600c81905550600554600d81905550600a6006819055506000601060006101000a81548160ff02191690831515021790555060006011819055506000601260006101000a81548160ff0219169083600281111561126f57fe5b02179055506000601260016101000a81548160ff0219169083600281111561129357fe5b02179055506000601260026101000a81548160ff021916908360028111156112b757fe5b02179055506000600e600001819055506000600e600101819055506001600760006101000a81548160ff021916908315150217905550600160136000600854815260200190815260200160002060006001600260095481151561131657fe5b0403815260200190815260200160002060006001600260095481151561133857fe5b0403815260200190815260200160002060006101000a81548160ff0219169083600581111561136357fe5b021790555060016013600060085481526020019081526020016000206000600260095481151561138f57fe5b048152602001908152602001600020600060026009548115156113ae57fe5b04815260200190815260200160002060006101000a81548160ff021916908360058111156113d857fe5b021790555060026013600060085481526020019081526020016000206000600260095481151561140457fe5b04815260200190815260200160002060006001600260095481151561142557fe5b0403815260200190815260200160002060006101000a81548160ff0219169083600581111561145057fe5b0217905550600260136000600854815260200190815260200160002060006001600260095481151561147e57fe5b040381526020019081526020016000206000600260095481151561149e57fe5b04815260200190815260200160002060006101000a81548160ff021916908360058111156114c857fe5b021790555060036013600060085481526020019081526020016000206000600160026009548115156114f657fe5b0401815260200190815260200160002060006001600260095481151561151857fe5b0403815260200190815260200160002060006101000a81548160ff0219169083600581111561154357fe5b021790555060036013600060085481526020019081526020016000206000600260095481151561156f57fe5b048152602001908152602001600020600060028060095481151561158f57fe5b0403815260200190815260200160002060006101000a81548160ff021916908360058111156115ba57fe5b021790555060036013600060085481526020019081526020016000206000600160026009548115156115e857fe5b0403815260200190815260200160002060006001600260095481151561160a57fe5b0401815260200190815260200160002060006101000a81548160ff0219169083600581111561163557fe5b02179055506003601360006008548152602001908152602001600020600060028060095481151561166257fe5b040381526020019081526020016000206000600260095481151561168257fe5b04815260200190815260200160002060006101000a81548160ff021916908360058111156116ac57fe5b02179055507f1a92f8260fbb9503d4da4de0b7753e04745a81b9a56dafcd9e51a7b828c16c7360085442604051808381526020018281526020019250505060405180910390a1565b60008060008060011515600760009054906101000a900460ff161515141515611785576040517f08c379a00000000000000000000000000000000000000000000000000000000081526004018080602001828103825260128152602001807f4e6f7420696e2067616d6520706572696f64000000000000000000000000000081525060200191505060405180910390fd5b866008541415156117fe576040517f08c379a00000000000000000000000000000000000000000000000000000000081526004018080602001828103825260148152602001807f6e6f7420696e2063757272656e7420726f756e6400000000000000000000000081525060200191505060405180910390fd5b6000600a54111515611878576040517f08c379a000000000000000000000000000000000000000000000000000000000815260040180806020018281038252600f8152602001807f6e6f74207965742073746172746564000000000000000000000000000000000081525060200191505060405180910390fd5b600a54861415156118f1576040517f08c379a00000000000000000000000000000000000000000000000000000000081526004018080602001828103825260138152602001807f4e6f7420696e2063757272656e74207475726e0000000000000000000000000081525060200191505060405180910390fd5b600254601154019350600354600a54028401925060035483039150824210801561191b5750814210155b151561198f576040517f08c379a00000000000000000000000000000000000000000000000000000000081526004018080602001828103825260138152602001807f6e6f7420696e20726f756e6420706572696f640000000000000000000000000081525060200191505060405180910390fd5b60176000888152602001908152602001600020600087815260200190815260200160002060008673ffffffffffffffffffffffffffffffffffffffff1673ffffffffffffffffffffffffffffffffffffffff16815260200190815260200160002060020160009054906101000a900460ff1615611dec57600b5434811515611a1357fe5b0490508060176000898152602001908152602001600020600088815260200190815260200160002060008773ffffffffffffffffffffffffffffffffffffffff1673ffffffffffffffffffffffffffffffffffffffff16815260200190815260200160002060000160008282540192505081905550600280811115611a9457fe5b601260009054906101000a900460ff166002811115611aaf57fe5b1415611b33578060146000600854815260200190815260200160002060003373ffffffffffffffffffffffffffffffffffffffff1673ffffffffffffffffffffffffffffffffffffffff1681526020019081526020016000206001016000016000828254019250508190555080600e60000160008282540192505081905550611bdc565b60016002811115611b4057fe5b601260009054906101000a900460ff166002811115611b5b57fe5b1415611bdb578060146000600854815260200190815260200160002060003373ffffffffffffffffffffffffffffffffffffffff1673ffffffffffffffffffffffffffffffffffffffff1681526020019081526020016000206001016001016000828254019250508190555080600e600101600082825401925050819055505b5b6001151560146000600854815260200190815260200160002060003373ffffffffffffffffffffffffffffffffffffffff1673ffffffffffffffffffffffffffffffffffffffff16815260200190815260200160002060030160009054906101000a900460ff161515141515611d34576015600060085481526020019081526020016000203390806001815401808255809150509060018203906000526020600020016000909192909190916101000a81548173ffffffffffffffffffffffffffffffffffffffff021916908373ffffffffffffffffffffffffffffffffffffffff16021790555050600160146000600854815260200190815260200160002060003373ffffffffffffffffffffffffffffffffffffffff1673ffffffffffffffffffffffffffffffffffffffff16815260200190815260200160002060030160006101000a81548160ff0219169083151502179055505b7fd385cfb87eeb4ff7958bbec45d17d99a4b1bcdf1237c6257b96cdce3177f3c1c600854600a54873385604051808681526020018581526020018473ffffffffffffffffffffffffffffffffffffffff1673ffffffffffffffffffffffffffffffffffffffff1681526020018373ffffffffffffffffffffffffffffffffffffffff1673ffffffffffffffffffffffffffffffffffffffff1681526020018281526020019550505050505060405180910390a1611e5a565b6040517f08c379a00000000000000000000000000000000000000000000000000000000081526004018080602001828103825260128152602001807f70726f706f73616c206e6f74206578697374000000000000000000000000000081525060200191505060405180910390fd5b50505050505050565b60115481565b60065481565b60008060008060011515600760009054906101000a900460ff161515141515611f00576040517f08c379a00000000000000000000000000000000000000000000000000000000081526004018080602001828103825260128152602001807f4e6f7420696e2067616d6520706572696f64000000000000000000000000000081525060200191505060405180910390fd5b60025460115401935060011515601060009054906101000a900460ff161515148015611f2b57508342115b1515611f9f576040517f08c379a000000000000000000000000000000000000000000000000000000000815260040180806020018281038252600f8152602001807f6e6f74207965742073746172746564000000000000000000000000000000000081525060200191505060405180910390fd5b6000600a5414156120f1576001600a60008282540192505081905550600e60010154600e6000015410151561203f576002601260006101000a81548160ff02191690836002811115611fed57fe5b02179055506002601260016101000a81548160ff0219169083600281111561201157fe5b02179055506001601260026101000a81548160ff0219169083600281111561203557fe5b02179055506120ac565b6001601260006101000a81548160ff0219169083600281111561205e57fe5b02179055506001601260016101000a81548160ff0219169083600281111561208257fe5b02179055506002601260026101000a81548160ff021916908360028111156120a657fe5b02179055505b6008547fa74e8fdd0d1b2a47375925ad4caffed137ae7d87fbae14898bfae105c8c1a39f600a5442604051808381526020018281526020019250505060405180910390a25b600354600a540284019250600354830391508242111561227857600115156016600060085481526020019081526020016000206000600a54815260200190815260200160002060009054906101000a900460ff1615151415156121e2576040517f08c379a00000000000000000000000000000000000000000000000000000000081526004018080602001828103825260398152602001807f47616d652073686f756c6420626520636c65617265642062656361757365207081526020017f726576696f7573207475726e2069736e277420706c617965640000000000000081525060400191505060405180910390fd5b600354830190508042111561225f576040517f08c379a00000000000000000000000000000000000000000000000000000000081526004018080602001828103825260098152602001807f47616d65206f766572000000000000000000000000000000000000000000000081525060200191505060405180910390fd5b6122696000610bce565b61227386866138e7565b612298565b82421080156122875750814210155b156122975761229686866138e7565b5b5b505050505050565b600c5481565b606080600080600954600954026040519080825280602002602001820160405280156122e15781602001602082028038833980820191505090505b509250600091505b60095482101561239b57600090505b60095481101561238e576013600060085481526020019081526020016000206000838152602001908152602001600020600082815260200190815260200160002060009054906101000a900460ff16838260095485020181518110151561235b57fe5b90602001906020020190600581111561237057fe5b9081600581111561237d57fe5b8152505080806001019150506122f8565b81806001019250506122e9565b82935050505090565b60011515600760009054906101000a900460ff16151514151561242f576040517f08c379a00000000000000000000000000000000000000000000000000000000081526004018080602001828103825260128152602001807f4e6f7420696e2067616d6520706572696f64000000000000000000000000000081525060200191505060405180910390fd5b7fc0ab64a6e46b12f99e6c2bfe5ade59e09162c91559e4e832d89ab58fdd849b3e81336008544260405180806020018573ffffffffffffffffffffffffffffffffffffffff1673ffffffffffffffffffffffffffffffffffffffff168152602001848152602001838152602001828103825286818151815260200191508051906020019080838360005b838110156124d45780820151818401526020810190506124b9565b50505050905090810190601f1680156125015780820380516001836020036101000a031916815260200191505b509550505050505060405180910390a150565b600760009054906101000a900460ff1681565b600080600060011515600760009054906101000a900460ff1615151415156125b7576040517f08c379a00000000000000000000000000000000000000000000000000000000081526004018080602001828103825260128152602001807f4e6f7420696e2067616d6520706572696f64000000000000000000000000000081525060200191505060405180910390fd5b601260019054906101000a900460ff1660028111156125d257fe5b601260009054906101000a900460ff1660028111156125ed57fe5b1415612600576002925060019150612646565b601260029054906101000a900460ff16600281111561261b57fe5b601260009054906101000a900460ff16600281111561263657fe5b14156126455760019250600291505b5b61265083836141f5565b90506000811415612668576126636131ae565b6126c1565b60028081111561267457fe5b601260009054906101000a900460ff16600281111561268f57fe5b1461269b57600261269e565b60015b601260006101000a81548160ff021916908360028111156126bb57fe5b02179055505b505050565b601260019054906101000a900460ff1681565b600160009054906101000a900473ffffffffffffffffffffffffffffffffffffffff1681565b601760205282600052604060002060205281600052604060002060205280600052604060002060009250925050508060000154908060010154908060020160009054906101000a900460ff16908060030154908060040154905085565b60005481565b601260029054906101000a900460ff1681565b60085481565b60156020528160005260406000208181548110151561279657fe5b906000526020600020016000915091509054906101000a900473ffffffffffffffffffffffffffffffffffffffff1681565b60055481565b601260009054906101000a900460ff1681565b60095481565b600080600080600060176000898152602001908152602001600020600088815260200190815260200160002060008773ffffffffffffffffffffffffffffffffffffffff1673ffffffffffffffffffffffffffffffffffffffff16815260200190815260200160002090508060020160009054906101000a900460ff161561288a578060000154816001015482600301548360040154945094509450945061288b565b5b5093509350935093565b6018602052826000526040600020602052816000526040600020818154811015156128bc57fe5b90600052602060002001600092509250509054906101000a900473ffffffffffffffffffffffffffffffffffffffff1681565b600a5481565b60166020528160005260406000206020528060005260406000206000915091509054906101000a900460ff1681565b600d5481565b60008060008060146000600854815260200190815260200160002060008673ffffffffffffffffffffffffffffffffffffffff1673ffffffffffffffffffffffffffffffffffffffff16815260200190815260200160002060030160009054906101000a900460ff16935060146000600854815260200190815260200160002060008673ffffffffffffffffffffffffffffffffffffffff1673ffffffffffffffffffffffffffffffffffffffff16815260200190815260200160002060000160009054906101000a900460ff16925060146000600854815260200190815260200160002060008673ffffffffffffffffffffffffffffffffffffffff1673ffffffffffffffffffffffffffffffffffffffff16815260200190815260200160002060010160000154915060146000600854815260200190815260200160002060008673ffffffffffffffffffffffffffffffffffffffff1673ffffffffffffffffffffffffffffffffffffffff1681526020019081526020016000206001016001015490508383838393509350935093509193509193565b600060011515600760009054906101000a900460ff161515141515612b50576040517f08c379a00000000000000000000000000000000000000000000000000000000081526004018080602001828103825260128152602001807f4e6f7420696e2067616d6520706572696f64000000000000000000000000000081525060200191505060405180910390fd5b6000600a54141515612bf0576040517f08c379a00000000000000000000000000000000000000000000000000000000081526004018080602001828103825260218152602001807f66756e64696e67206973206f6e6c7920616c6c6f776564206174207475726e2081526020017f300000000000000000000000000000000000000000000000000000000000000081525060400191505060405180910390fd5b600034111515612c68576040517f08c379a000000000000000000000000000000000000000000000000000000000815260040180806020018281038252600e8152602001807f46756e647320726571756972656400000000000000000000000000000000000081525060200191505060405180910390fd5b601060009054906101000a900460ff1615612cfc57600254601154014211151515612cfb576040517f08c379a000000000000000000000000000000000000000000000000000000000815260040180806020018281038252600f8152602001807f66756e64696e67206973206f766572000000000000000000000000000000000081525060200191505060405180910390fd5b5b6001151560146000600854815260200190815260200160002060003373ffffffffffffffffffffffffffffffffffffffff1673ffffffffffffffffffffffffffffffffffffffff16815260200190815260200160002060030160009054906101000a900460ff16151514151515612ddb576040517f08c379a000000000000000000000000000000000000000000000000000000000815260040180806020018281038252600f8152602001807f416c72656164792066756e64656421000000000000000000000000000000000081525060200191505060405180910390fd5b600b5434811515612de857fe5b049050600280811115612df757fe5b826002811115612e0357fe5b1415612e7e578060146000600854815260200190815260200160002060003373ffffffffffffffffffffffffffffffffffffffff1673ffffffffffffffffffffffffffffffffffffffff1681526020019081526020016000206001016000018190555080600e60000160008282540192505081905550612f81565b60016002811115612e8b57fe5b826002811115612e9757fe5b1415612f12578060146000600854815260200190815260200160002060003373ffffffffffffffffffffffffffffffffffffffff1673ffffffffffffffffffffffffffffffffffffffff1681526020019081526020016000206001016001018190555080600e60010160008282540192505081905550612f80565b6040517f08c379a000000000000000000000000000000000000000000000000000000000815260040180806020018281038252600c8152602001807f496e76616c6964207465616d000000000000000000000000000000000000000081525060200191505060405180910390fd5b5b8160146000600854815260200190815260200160002060003373ffffffffffffffffffffffffffffffffffffffff1673ffffffffffffffffffffffffffffffffffffffff16815260200190815260200160002060000160006101000a81548160ff02191690836002811115612ff257fe5b0217905550600160146000600854815260200190815260200160002060003373ffffffffffffffffffffffffffffffffffffffff1673ffffffffffffffffffffffffffffffffffffffff16815260200190815260200160002060030160006101000a81548160ff0219169083151502179055507ff3a504f28a34fdf555994a3bdfd3dc29f822e8684a9ef01001afb738cc3cdd0a60405160405180910390a16015600060085481526020019081526020016000203390806001815401808255809150509060018203906000526020600020016000909192909190916101000a81548173ffffffffffffffffffffffffffffffffffffffff021916908373ffffffffffffffffffffffffffffffffffffffff1602179055505060001515601060009054906101000a900460ff16151514156131aa576000600e6000015411801561314057506000600e60010154115b156131a9576001601060006101000a81548160ff021916908315150217905550426011819055507f61f3502e7542b5b55e9bb0ecc3c768c9f845c89d8e9bb9f773ef927c56ae159360085442604051808381526020018281526020019250505060405180910390a15b5b5050565b60008060008060008060008060008060008060011515600760009054906101000a900460ff16151514151561324b576040517f08c379a00000000000000000000000000000000000000000000000000000000081526004018080602001828103825260128152602001807f4e6f7420696e2067616d6520706572696f64000000000000000000000000000081525060200191505060405180910390fd5b6000600760006101000a81548160ff0219169083151502179055506132706001610bce565b60009b5060009a50600099503073ffffffffffffffffffffffffffffffffffffffff16319750600096505b6009548710156133a757600095505b60095486101561339a57600160058111156132c157fe5b6013600060085481526020019081526020016000206000898152602001908152602001600020600088815260200190815260200160002060009054906101000a900460ff16600581111561331157fe5b14156133225760018c019b5061338d565b6002600581111561332f57fe5b6013600060085481526020019081526020016000206000898152602001908152602001600020600088815260200190815260200160002060009054906101000a900460ff16600581111561337f57fe5b141561338c5760018b019a505b5b85806001019650506132aa565b868060010197505061329b565b8a8c11156133c657601260019054906101000a900460ff1699506133d9565b601260029054906101000a900460ff1699505b6002808111156133e557fe5b8a60028111156133f157fe5b141561340457600e60000154985061342d565b6001600281111561341157fe5b8a600281111561341d57fe5b141561342c57600e6001015498505b5b600094505b60156000600854815260200190815260200160002080549050851015613648576015600060085481526020019081526020016000208581548110151561347457fe5b9060005260206000200160009054906101000a900473ffffffffffffffffffffffffffffffffffffffff16935060146000600854815260200190815260200160002060008573ffffffffffffffffffffffffffffffffffffffff1673ffffffffffffffffffffffffffffffffffffffff16815260200190815260200160002092508260030160009054906101000a900460ff161561363b576001600281111561351957fe5b8a600281111561352557fe5b141561353a5782600101600101549150613564565b60028081111561354657fe5b8a600281111561355257fe5b141561356357826001016000015491505b5b600082111561363a5787898381151561357957fe5b040290508373ffffffffffffffffffffffffffffffffffffffff166108fc829081150290604051600060405180830381858888f193505050501580156135c3573d6000803e3d6000fd5b507fea3be504b4cfdcb94a523b3e7a10cc1e2b0e53f114dbee08add5803176841eb86008548286604051808481526020018381526020018273ffffffffffffffffffffffffffffffffffffffff1673ffffffffffffffffffffffffffffffffffffffff168152602001935050505060405180910390a15b5b8480600101955050613432565b7fb6cb2ccc2ed1ccdd9dda64fe4d291deb23baaf807b138d00c9e4e3922aba934e60085433604051808381526020018273ffffffffffffffffffffffffffffffffffffffff1673ffffffffffffffffffffffffffffffffffffffff1681526020019250505060405180910390a1505050505050505050505050565b6013602052826000526040600020602052816000526040600020602052806000526040600020600092509250509054906101000a900460ff1681565b60025481565b601060009054906101000a900460ff1681565b6000806013600060085481526020019081526020016000206000858152602001908152602001600020600084815260200190815260200160002060009054906101000a900460ff1691506001600581111561376f57fe5b82600581111561377b57fe5b141561378a57600290506137af565b6002600581111561379757fe5b8260058111156137a357fe5b14156137ae57600190505b5b6137c084846001808686600061439a565b6137d28484600160008686600161439a565b613803848460017fffffffffffffffffffffffffffffffffffffffffffffffffffffffffffffffff8686600261439a565b613834848460007fffffffffffffffffffffffffffffffffffffffffffffffffffffffffffffffff8686600361439a565b61386484847fffffffffffffffffffffffffffffffffffffffffffffffffffffffffffffffff808686600461439a565b61389584847fffffffffffffffffffffffffffffffffffffffffffffffffffffffffffffffff60008686600561439a565b6138c684847fffffffffffffffffffffffffffffffffffffffffffffffffffffffffffffffff60018686600661439a565b6138d88484600060018686600761439a565b6138e1826146ab565b50505050565b60008060146000600854815260200190815260200160002060003373ffffffffffffffffffffffffffffffffffffffff1673ffffffffffffffffffffffffffffffffffffffff1681526020019081526020016000209150601260009054906101000a900460ff16600281111561395957fe5b8260000160009054906101000a900460ff16600281111561397657fe5b1415156139eb576040517f08c379a00000000000000000000000000000000000000000000000000000000081526004018080602001828103825260188152602001807f596f7520617265206e6f74206f6e2074686973207465616d000000000000000081525060200191505060405180910390fd5b600115156017600060085481526020019081526020016000206000600a54815260200190815260200160002060003373ffffffffffffffffffffffffffffffffffffffff1673ffffffffffffffffffffffffffffffffffffffff16815260200190815260200160002060020160009054906101000a900460ff16151514151561415b57600b5434811515613a7b57fe5b0490506006548110151515613af8576040517f08c379a000000000000000000000000000000000000000000000000000000000815260040180806020018281038252600f8152602001807f4e6f7420656e6f7567682066756e64000000000000000000000000000000000081525060200191505060405180910390fd5b60036005811115613b0557fe5b6013600060085481526020019081526020016000206000868152602001908152602001600020600085815260200190815260200160002060009054906101000a900460ff166005811115613b5557fe5b141515613bca576040517f08c379a000000000000000000000000000000000000000000000000000000000815260040180806020018281038252600b8152602001807f556e617661696c61626c6500000000000000000000000000000000000000000081525060200191505060405180910390fd5b60065481036017600060085481526020019081526020016000206000600a54815260200190815260200160002060003373ffffffffffffffffffffffffffffffffffffffff1673ffffffffffffffffffffffffffffffffffffffff1681526020019081526020016000206000018190555060016017600060085481526020019081526020016000206000600a54815260200190815260200160002060003373ffffffffffffffffffffffffffffffffffffffff1673ffffffffffffffffffffffffffffffffffffffff16815260200190815260200160002060020160006101000a81548160ff021916908315150217905550426017600060085481526020019081526020016000206000600a54815260200190815260200160002060003373ffffffffffffffffffffffffffffffffffffffff1673ffffffffffffffffffffffffffffffffffffffff16815260200190815260200160002060010181905550600280811115613d3557fe5b8260000160009054906101000a900460ff166002811115613d5257fe5b1415613dd6578060146000600854815260200190815260200160002060003373ffffffffffffffffffffffffffffffffffffffff1673ffffffffffffffffffffffffffffffffffffffff1681526020019081526020016000206001016000016000828254019250508190555080600e60000160008282540192505081905550613e81565b60016002811115613de357fe5b8260000160009054906101000a900460ff166002811115613e0057fe5b1415613e80578060146000600854815260200190815260200160002060003373ffffffffffffffffffffffffffffffffffffffff1673ffffffffffffffffffffffffffffffffffffffff1681526020019081526020016000206001016001016000828254019250508190555080600e600101600082825401925050819055505b5b836017600060085481526020019081526020016000206000600a54815260200190815260200160002060003373ffffffffffffffffffffffffffffffffffffffff1673ffffffffffffffffffffffffffffffffffffffff16815260200190815260200160002060030181905550826017600060085481526020019081526020016000206000600a54815260200190815260200160002060003373ffffffffffffffffffffffffffffffffffffffff1673ffffffffffffffffffffffffffffffffffffffff1681526020019081526020016000206004018190555060046013600060085481526020019081526020016000206000868152602001908152602001600020600085815260200190815260200160002060006101000a81548160ff02191690836005811115613faf57fe5b02179055506018600060085481526020019081526020016000206000600a5481526020019081526020016000203390806001815401808255809150509060018203906000526020600020016000909192909190916101000a81548173ffffffffffffffffffffffffffffffffffffffff021916908373ffffffffffffffffffffffffffffffffffffffff16021790555050600015156016600060085481526020019081526020016000206000600a54815260200190815260200160002060009054906101000a900460ff16151514156140d657600d54600b6000828254019250508190555060016016600060085481526020019081526020016000206000600a54815260200190815260200160002060006101000a81548160ff0219169083151502179055505b6008547fa1c665c0024350eee6bd21319245070854f6bf3d2376b2ee2b951588a7cd5f98600a54338787604051808581526020018473ffffffffffffffffffffffffffffffffffffffff1673ffffffffffffffffffffffffffffffffffffffff16815260200183815260200182815260200194505050505060405180910390a26141ef565b6040517f08c379a00000000000000000000000000000000000000000000000000000000081526004018080602001828103825260238152602001807f596f7527766520616c72656164792070726f7073656420696e2074686973207481526020017f75726e000000000000000000000000000000000000000000000000000000000081525060400191505060405180910390fd5b50505050565b6000806000806000809350600092505b60095483121561438d57600091505b600954821215614380576013600060085481526020019081526020016000206000848152602001908152602001600020600083815260200190815260200160002060009054906101000a900460ff1690506001600581111561427257fe5b81600581111561427e57fe5b141580156142a357506002600581111561429457fe5b8160058111156142a057fe5b14155b156143735760006013600060085481526020019081526020016000206000858152602001908152602001600020600084815260200190815260200160002060006101000a81548160ff021916908360058111156142fc57fe5b021790555061430d838389896147a6565b156143725760036013600060085481526020019081526020016000206000858152602001908152602001600020600084815260200190815260200160002060006101000a81548160ff0219169083600581111561436657fe5b02179055506001840193505b5b8180600101925050614214565b8280600101935050614205565b8394505050505092915050565b6000806000806000808a8d019550898c01945060009350600092505b600086121580156143c8575060008512155b80156143d5575060095486125b80156143e2575060095485125b15614582576013600060085481526020019081526020016000206000878152602001908152602001600020600086815260200190815260200160002060009054906101000a900460ff16915060058081111561443a57fe5b82600581111561444657fe5b141561445b578a8601955089850194506143b6565b87600581111561446757fe5b82600581111561447357fe5b1415614556576019600060085481526020019081526020016000206000600a5481526020019081526020016000206000888152602001908152602001600020869080600181540180825580915050906001820390600052602060002001600090919290919091505550601a600060085481526020019081526020016000206000600a548152602001908152602001600020600088815260200190815260200160002085908060018154018082558091505090600182039060005260206000200160009091929091909150555082806001019350508a8601955089850194506143b6565b88600581111561456257fe5b82600581111561456e57fe5b141561457d5760019350614582565b600093505b831561469c57600090505b8281101561469b57600560136000600854815260200190815260200160002060006019600060085481526020019081526020016000206000600a54815260200190815260200160002060008b8152602001908152602001600020848154811015156145f457fe5b906000526020600020015481526020019081526020016000206000601a600060085481526020019081526020016000206000600a54815260200190815260200160002060008b81526020019081526020016000208481548110151561465557fe5b9060005260206000200154815260200190815260200160002060006101000a81548160ff0219169083600581111561468957fe5b0217905550808060010191505061458d565b5b50505050505050505050505050565b600080600091505b6009548210156147a157600090505b600954811015614794576005808111156146d857fe5b6013600060085481526020019081526020016000206000848152602001908152602001600020600083815260200190815260200160002060009054906101000a900460ff16600581111561472857fe5b141561478757826013600060085481526020019081526020016000206000848152602001908152602001600020600083815260200190815260200160002060006101000a81548160ff0219169083600581111561478157fe5b02179055505b80806001019150506146c2565b81806001019250506146b3565b505050565b60008060008060008060008060006147c38d8d6001808f8f614928565b97506147d58d8d600160008f8f614928565b96506148068d8d60017fffffffffffffffffffffffffffffffffffffffffffffffffffffffffffffffff8f8f614928565b95506148378d8d60007fffffffffffffffffffffffffffffffffffffffffffffffffffffffffffffffff8f8f614928565b94506148678d8d7fffffffffffffffffffffffffffffffffffffffffffffffffffffffffffffffff808f8f614928565b93506148988d8d7fffffffffffffffffffffffffffffffffffffffffffffffffffffffffffffffff60008f8f614928565b92506148c98d8d7fffffffffffffffffffffffffffffffffffffffffffffffffffffffffffffffff60018f8f614928565b91506148db8d8d600060018f8f614928565b905087806148e65750865b806148ee5750855b806148f65750845b806148fe5750835b806149065750825b8061490e5750815b806149165750805b98505050505050505050949350505050565b600080600080600080898c019450888b01935060009250600091505b60008512158015614956575060008412155b8015614963575060095485125b8015614970575060095484125b15614a1b576013600060085481526020019081526020016000206000868152602001908152602001600020600085815260200190815260200160002060009054906101000a900460ff1690508660058111156149c857fe5b8160058111156149d457fe5b14156149ef5760018301925089850194508884019350614944565b8760058111156149fb57fe5b816005811115614a0757fe5b1415614a165760019150614a1b565b600091505b600083138015614a285750815b9550505050505096955050505050505600a165627a7a723058206955d40b3ce2e7ff73ef4027417b59f0d4b36e2fa8026d3b7ca1f945212920180029",
  "source": "pragma solidity ^0.4.24;\n\ncontract Deversi {\n\n    enum _TEAM { NONE, DOG, CAT }\n    enum _GRID_STATUS { EMPTY, BLACK, WHITE, AVAILABLE, PROPOSED, FLIP }\n\n    struct Ledger {\n        uint256 CAT;\n        uint256 DOG;\n    }\n    struct User {\n        _TEAM team;\n        Ledger ledger;\n        bool isExist;\n    }\n    struct Proposal {\n        uint256 vote;\n        uint256 time;\n        bool isExist;\n        uint256 x;\n        uint256 y;\n    }\n    struct Flip {\n        uint256 x;\n        uint256 y;\n    }\n\n    // System config\n    uint256 public size; // board size\n    address public owner;\n    uint256 public fundRaisingPeriod;\n    uint256 public turnPeriod;\n    uint256 public baseSharePrice;\n    uint256 public shareGrowthRate;\n    uint256 public sharesPerProposal;\n\n    // Game control\n    bool public inGame;\n    uint256 public gameRound;\n    uint256 public currentSize;\n    uint256 public currentTurn;\n    uint256 public currentSharePrice;\n    uint256 public currentSharePerProposal;\n    uint256 public currentShareGrowthRate;\n    Ledger public currentFundingStatus;\n    bool public fundRaisingCountingDown;\n    uint256 public countingStartedTime;\n\n    _TEAM public currentTeam;\n    _TEAM public black;\n    _TEAM public white;\n\n    // mapping(uint256 => _GRID_STATUS[][]) public boardStatus;\n    mapping(uint256 => mapping(uint256 => mapping(uint256 => _GRID_STATUS))) public boardStatus;\n    mapping(uint256 => mapping(address => User)) public userStatus;\n    mapping(uint256 => address[]) public userList;\n    mapping(uint256 => mapping(uint => bool)) public roundPropsedStatus;\n    mapping(uint256 => mapping(uint256 => mapping(address => Proposal))) public proposals;\n    mapping(uint256 => mapping(uint256 => address[])) public proposedAddress;\n\n    mapping(uint256 => mapping(uint256 => mapping(uint256 => int[]))) private flipX;\n    mapping(uint256 => mapping(uint256 => mapping(uint256 => int[]))) private flipY;\n\n\n    event funded();\n    event NewGameStarted(uint256 round, uint time);\n    event fundRaisingCountdown(uint256 round, uint time);\n    event turnStart(uint256 indexed round, uint256 turn, uint time);\n    event proposed(uint256 indexed round, uint256 turn, address proposer, uint256 x, uint256 y);\n    event gameCleared(uint256, address clearer);\n    event voted(uint round, uint turn, address proposer, address voter, uint256 shares);\n    event proposalSelected(uint round, uint turn, address proposer, uint256 vote);\n    event flipEvent(uint turn, uint x, uint y);\n    event messagePost(string msg, address sender, uint round, uint time);\n    event prizeTransfer(uint256 round, uint256 amount, address receiver);\n\n    constructor() public {\n        owner = msg.sender;\n        gameRound = 0;\n        inGame = false;\n        configure(\n            4, // size\n            10, // funding period\n            300,  // turn period\n            100000000000000000,\n            100000000000000000,\n            10\n        );\n        startNewGame();\n    }\n\n    function startNewGame() public {\n        require(inGame == false, \"game is going on\");\n        gameRound = gameRound + 1;\n        currentSize = size;\n        currentTurn = 0;\n        currentSharePrice = baseSharePrice;\n        currentSharePerProposal = sharesPerProposal;\n        currentShareGrowthRate = shareGrowthRate;\n        sharesPerProposal = 10;\n        fundRaisingCountingDown = false;\n        countingStartedTime = 0;\n        currentTeam = _TEAM.NONE;\n        black = _TEAM.NONE;\n        white = _TEAM.NONE;\n        currentFundingStatus.CAT = 0;\n        currentFundingStatus.DOG = 0;\n        inGame = true;\n        boardStatus[gameRound][(currentSize / 2) - 1][(currentSize / 2) - 1] = _GRID_STATUS.BLACK;\n        boardStatus[gameRound][(currentSize / 2)][(currentSize / 2)] = _GRID_STATUS.BLACK;\n        boardStatus[gameRound][(currentSize / 2)][(currentSize / 2) - 1] = _GRID_STATUS.WHITE;\n        boardStatus[gameRound][(currentSize / 2) - 1][(currentSize / 2)] = _GRID_STATUS.WHITE;\n\n        boardStatus[gameRound][(currentSize / 2) + 1][(currentSize / 2) - 1] = _GRID_STATUS.AVAILABLE;\n        boardStatus[gameRound][(currentSize / 2)][(currentSize / 2) - 2] = _GRID_STATUS.AVAILABLE;\n\n        boardStatus[gameRound][(currentSize / 2) - 1][(currentSize / 2) + 1] = _GRID_STATUS.AVAILABLE;\n        boardStatus[gameRound][(currentSize / 2) - 2][(currentSize / 2)] = _GRID_STATUS.AVAILABLE;\n\n        emit NewGameStarted(gameRound, now);\n    }\n\n    function funding(_TEAM teamChoosen) public payable onlyInGame {\n        require(currentTurn == 0, \"funding is only allowed at turn 0\");\n        require(msg.value > 0, \"Funds required\");\n        if (fundRaisingCountingDown) {\n            require(now <= (countingStartedTime + fundRaisingPeriod), \"funding is over\");\n        }\n        require(userStatus[gameRound][msg.sender].isExist != true, \"Already funded!\");\n\n        uint shareAmount = msg.value / currentSharePrice;\n        if (teamChoosen == _TEAM.CAT) {\n            userStatus[gameRound][msg.sender].ledger.CAT = shareAmount;\n            currentFundingStatus.CAT += shareAmount;\n        } else if (teamChoosen == _TEAM.DOG) {\n            userStatus[gameRound][msg.sender].ledger.DOG = shareAmount;\n            currentFundingStatus.DOG += shareAmount;\n        } else {\n            revert(\"Invalid team\");\n        }\n        userStatus[gameRound][msg.sender].team = teamChoosen;\n        userStatus[gameRound][msg.sender].isExist = true;\n        emit funded();\n        userList[gameRound].push(msg.sender);\n        if (fundRaisingCountingDown == false) {\n            if (\n                (currentFundingStatus.CAT > 0) &&\n                (currentFundingStatus.DOG > 0)\n            ) {\n                fundRaisingCountingDown = true;\n                countingStartedTime = now;\n                emit fundRaisingCountdown(gameRound, now);\n            }\n        }\n    }\n\n    function postMessage(string message) public onlyInGame {\n        emit messagePost(message, msg.sender, gameRound, now);\n    }\n\n    function propose(uint256 x, uint256 y) public payable onlyInGame {\n        uint256 gameStartTime = countingStartedTime + fundRaisingPeriod;\n        require((fundRaisingCountingDown == true) && (now > gameStartTime), \"not yet started\");\n        if (currentTurn == 0) {\n            currentTurn += 1;\n            if (currentFundingStatus.CAT >= currentFundingStatus.DOG) {\n                currentTeam = _TEAM.CAT;\n                black = _TEAM.CAT;\n                white = _TEAM.DOG;\n            } else {\n                currentTeam = _TEAM.DOG;\n                black = _TEAM.DOG;\n                white = _TEAM.CAT;\n            }\n\n            emit turnStart(gameRound, currentTurn, now);\n        }\n        uint256 currentRoundEndTime = gameStartTime + (currentTurn * turnPeriod);\n        uint256 currentRoundStartTime = currentRoundEndTime - turnPeriod;\n        if (now > currentRoundEndTime) {\n            if (roundPropsedStatus[gameRound][currentTurn] != true) {\n                revert(\"Game should be cleared because previous turn isn't played\");\n            } else {\n                uint256 nextRoundEndTime = currentRoundEndTime + turnPeriod;\n                if (now > nextRoundEndTime) {\n                    revert(\"Game over\");\n                } else {\n                    updateGame(false);\n                    doPropose(x, y);\n                }\n            }\n        } else if ((now < currentRoundEndTime) && (now >= currentRoundStartTime)) {\n            doPropose(x, y);\n        }\n    }\n\n    function doPropose(uint256 x, uint256 y) private {\n        User userTeam = userStatus[gameRound][msg.sender];\n        require(userTeam.team == currentTeam, \"You are not on this team\");\n        if (proposals[gameRound][currentTurn][msg.sender].isExist != true) {\n            uint256 shares = msg.value / currentSharePrice;\n            require(shares >= sharesPerProposal, \"Not enough fund\");\n            require(boardStatus[gameRound][x][y] == _GRID_STATUS.AVAILABLE, \"Unavailable\");\n            proposals[gameRound][currentTurn][msg.sender].vote = shares - sharesPerProposal;\n            proposals[gameRound][currentTurn][msg.sender].isExist = true;\n            proposals[gameRound][currentTurn][msg.sender].time = now;\n            if (userTeam.team == _TEAM.CAT) {\n                userStatus[gameRound][msg.sender].ledger.CAT += shares;\n                currentFundingStatus.CAT += shares;\n            } else if (userTeam.team == _TEAM.DOG) {\n                userStatus[gameRound][msg.sender].ledger.DOG += shares;\n                currentFundingStatus.DOG += shares;\n            }\n            proposals[gameRound][currentTurn][msg.sender].x = x;\n            proposals[gameRound][currentTurn][msg.sender].y = y;\n            boardStatus[gameRound][x][y] = _GRID_STATUS.PROPOSED;\n            proposedAddress[gameRound][currentTurn].push(msg.sender);\n            if (roundPropsedStatus[gameRound][currentTurn] == false) {\n                currentSharePrice += currentShareGrowthRate;\n                roundPropsedStatus[gameRound][currentTurn] = true;\n            }\n            emit proposed(gameRound, currentTurn, msg.sender, x, y);\n        } else {\n            revert(\"You've already propsed in this turn\");\n        }\n    }\n\n    function vote(uint256 round, uint256 turn, address proposer) public payable onlyInGame {\n        require(gameRound == round, \"not in current round\");\n        require(currentTurn > 0, \"not yet started\");\n        require(turn == currentTurn, \"Not in current turn\");\n        uint256 gameStartTime = countingStartedTime + fundRaisingPeriod;\n        uint256 currentRoundEndTime = gameStartTime + (currentTurn * turnPeriod);\n        uint256 currentRoundStartTime = currentRoundEndTime - turnPeriod;\n        require((now < currentRoundEndTime) && (now >= currentRoundStartTime), \"not in round period\");\n        if (proposals[round][turn][proposer].isExist) {\n            uint256 sharesToVote = msg.value / currentSharePrice;\n            proposals[round][turn][proposer].vote += sharesToVote;\n            if (currentTeam == _TEAM.CAT) {\n                userStatus[gameRound][msg.sender].ledger.CAT += sharesToVote;\n                currentFundingStatus.CAT += sharesToVote;\n            } else if (currentTeam == _TEAM.DOG) {\n                userStatus[gameRound][msg.sender].ledger.DOG += sharesToVote;\n                currentFundingStatus.DOG += sharesToVote;\n            }\n            if (userStatus[gameRound][msg.sender].isExist != true) {\n                userList[gameRound].push(msg.sender);\n                userStatus[gameRound][msg.sender].isExist = true;\n            }\n            emit voted(gameRound, currentTurn, proposer, msg.sender, sharesToVote);\n        } else {\n            revert(\"proposal not exist\");\n        }\n    }\n\n    function updateGame(bool doNotCheck) public {\n        uint256 proposedLength = proposedAddress[gameRound][currentTurn].length;\n        address highestAddress = proposedAddress[gameRound][currentTurn][0];\n        uint256 highestAmount = proposals[gameRound][currentTurn][highestAddress].vote;\n        for (uint i = 1; i < proposedLength; i++) {\n            address _addr = proposedAddress[gameRound][currentTurn][i];\n            Proposal _proposal = proposals[gameRound][currentTurn][_addr];\n            if (_proposal.vote > highestAmount) {\n                highestAddress = _addr;\n                highestAmount = _proposal.vote;\n            }\n        }\n        Proposal selected = proposals[gameRound][currentTurn][highestAddress];\n        if (black == currentTeam) {\n            boardStatus[gameRound][selected.x][selected.y] = _GRID_STATUS.BLACK;\n        } else if (white == currentTeam) {\n            boardStatus[gameRound][selected.x][selected.y] = _GRID_STATUS.WHITE;\n        }\n        // reverting calculation here...\n        flip(selected.x, selected.y);\n        // emit proposalSelected(gameRound, currentTurn, highestAddress, highestAmount);\n        currentTurn += 1;\n        if (doNotCheck != true) {\n            checkGameEnd();\n        }\n        // emit turnStart(gameRound, currentTurn, now);\n    }\n\n    function checkAvailable(_GRID_STATUS base, _GRID_STATUS opposite) private returns(uint) {\n        uint available = 0;\n        for (int x = 0; x < int(currentSize); x++) {\n            for (int y = 0; y < int(currentSize); y++) {\n                _GRID_STATUS status = boardStatus[gameRound][uint(x)][uint(y)];\n                if (\n                    (status != _GRID_STATUS.BLACK) &&\n                    (status != _GRID_STATUS.WHITE)\n                ) {\n                    boardStatus[gameRound][uint(x)][uint(y)] = _GRID_STATUS.EMPTY;\n                    if (markAvailable(x, y, base, opposite)) {\n                        boardStatus[gameRound][uint(x)][uint(y)] = _GRID_STATUS.AVAILABLE;\n                        available += 1;\n                    }\n                }\n            }\n        }\n        return available;\n    }\n\n    function markAvailable(int x, int y, _GRID_STATUS base, _GRID_STATUS opposite) private returns(bool) {\n        bool dir1 = isAvailable(x, y, 1, 1, base, opposite);\n        bool dir2 = isAvailable(x, y, 1, 0, base, opposite);\n        bool dir3 = isAvailable(x, y, 1, -1, base, opposite);\n        bool dir4 = isAvailable(x, y, 0, -1, base, opposite);\n        bool dir5 = isAvailable(x, y, -1, -1, base, opposite);\n        bool dir6 = isAvailable(x, y, -1, 0, base, opposite);\n        bool dir7 = isAvailable(x, y, -1, 1, base, opposite);\n        bool dir8 = isAvailable(x, y, 0, 1, base, opposite);\n        return (\n            dir1 || dir2 || dir3 || dir4 || dir5 || dir6 || dir7 || dir8\n        );\n    }\n    function isAvailable(\n        int x, int y, int offsetX, int offsetY,\n        _GRID_STATUS base, _GRID_STATUS opposite\n    ) private returns (bool) {\n        int currentX = x + offsetX;\n        int currentY = y + offsetY;\n        int flipCount = 0;\n        bool shouldFlip = false;\n        while(\n            (currentX >= 0) &&\n            (currentY >= 0) &&\n            (currentX < int(currentSize)) &&\n            (currentY < int(currentSize))\n        ) {\n            _GRID_STATUS status = boardStatus[gameRound][uint(currentX)][uint(currentY)];\n            if (status == opposite) {\n                flipCount += 1;\n                currentX += offsetX;\n                currentY += offsetY;\n                continue;\n            } else if (status == base) {\n                shouldFlip = true;\n                break;\n            } else {\n                shouldFlip = false;\n                break;\n            }\n        }\n        return ((flipCount > 0) && shouldFlip);\n    }\n\n    function flip(uint256 x, uint256 y) private {\n        _GRID_STATUS base = boardStatus[gameRound][x][y];\n        _GRID_STATUS opposite;\n        if (base == _GRID_STATUS.BLACK) {\n            opposite = _GRID_STATUS.WHITE;\n        } else if (base == _GRID_STATUS.WHITE) {\n            opposite = _GRID_STATUS.BLACK;\n        }\n        markFlip(x, y, 1, 1, base, opposite, 0);\n        markFlip(x, y, 1, 0, base, opposite, 1);\n        markFlip(x, y, 1, -1, base, opposite, 2);\n        markFlip(x, y, 0, -1, base, opposite, 3);\n        markFlip(x, y, -1, -1, base, opposite, 4);\n        markFlip(x, y, -1, 0, base, opposite, 5);\n        markFlip(x, y, -1, 1, base, opposite, 6);\n        markFlip(x, y, 0, 1, base, opposite, 7);\n        flipAll(base);\n    }\n    function flipAll(_GRID_STATUS base) private {\n        for (uint i = 0; i < currentSize; i++) {\n            for(uint j = 0; j < currentSize; j++) {\n                if (boardStatus[gameRound][i][j] == _GRID_STATUS.FLIP) {\n                    boardStatus[gameRound][i][j] = base;\n                }\n            }\n        }\n    }\n    function markFlip(\n        uint256 x, uint256 y, int256 offsetX, int256 offsetY,\n        _GRID_STATUS base, _GRID_STATUS opposite, uint256 direction\n    ) private {\n        int currentX = int(x) + offsetX;\n        int currentY = int(y) + offsetY;\n        bool shouldFlip = false;\n        uint index = 0;\n        while(\n            (currentX >= 0) &&\n            (currentY >= 0) &&\n            (currentX < int(currentSize)) &&\n            (currentY < int(currentSize))\n        ) {\n            _GRID_STATUS status = boardStatus[gameRound][uint(currentX)][uint(currentY)];\n            if (status == _GRID_STATUS.FLIP) {\n                currentX += offsetX;\n                currentY += offsetY;\n                continue;\n            } else if (status == opposite)  {\n                flipX[gameRound][currentTurn][direction].push(currentX);\n                flipY[gameRound][currentTurn][direction].push(currentY);\n\n                index++;\n                currentX += offsetX;\n                currentY += offsetY;\n                continue;\n            } else {\n                if (status == base) {\n                    shouldFlip = true;\n                    break;\n                } else {\n                    shouldFlip = false;\n                    break;\n                }\n\n            }\n        }\n\n        if (shouldFlip) {\n            for (uint i = 0; i < index; i++) {\n                boardStatus[gameRound][uint(flipX[gameRound][currentTurn][direction][i])][uint(flipY[gameRound][currentTurn][direction][i])] = _GRID_STATUS.FLIP;\n            }\n        }\n\n    }\n\n    function checkGameEnd() public onlyInGame {\n        _GRID_STATUS base;\n        _GRID_STATUS opposite;\n        if (currentTeam == black) {\n            base = _GRID_STATUS.WHITE;\n            opposite = _GRID_STATUS.BLACK;\n        } else if (currentTeam == white) {\n            base = _GRID_STATUS.BLACK;\n            opposite = _GRID_STATUS.WHITE;\n        }\n        uint available = checkAvailable(base, opposite);\n        if (available == 0) {\n            clearGame();\n        } else {\n            currentTeam = (currentTeam == _TEAM.CAT) ? _TEAM.DOG : _TEAM.CAT;\n        }\n    }\n\n    function clearGame() public onlyInGame {\n        inGame = false;\n        updateGame(true);\n        uint blackCount = 0;\n        uint whiteCount = 0;\n        _TEAM winner = _TEAM.NONE;\n        uint256 winnerShare;\n        uint256 totalFund = address(this).balance;\n        for (uint i = 0; i < currentSize; i++) {\n            for (uint j = 0; j < currentSize; j++) {\n                // ret[(i * currentSize) + j] = boardStatus[gameRound][i][j];\n                if (boardStatus[gameRound][i][j] == _GRID_STATUS.BLACK) {\n                    blackCount += 1;\n                } else if (boardStatus[gameRound][i][j] == _GRID_STATUS.WHITE) {\n                    whiteCount += 1;\n                }\n            }\n        }\n        if (blackCount > whiteCount) {\n            winner = black;\n        } else {\n            winner = white;\n        }\n        if (winner == _TEAM.CAT) {\n            winnerShare = currentFundingStatus.CAT;\n        } else if (winner == _TEAM.DOG) {\n            winnerShare = currentFundingStatus.DOG;\n        }\n        for (uint index = 0; index < userList[gameRound].length; index++) {\n            address userAddress = userList[gameRound][index];\n            User user = userStatus[gameRound][userAddress];\n            if (user.isExist) {\n                uint256 userShare;\n                if (winner == _TEAM.DOG) {\n                    userShare = user.ledger.DOG;\n                } else if (winner == _TEAM.CAT) {\n                    userShare = user.ledger.CAT;\n                }\n                if (userShare > 0) {\n                    uint256 prizeAmount = (userShare / winnerShare) * totalFund;\n                    userAddress.transfer(prizeAmount);\n                    emit prizeTransfer(gameRound, prizeAmount, userAddress);\n                }\n            }\n        }\n        emit gameCleared(gameRound, msg.sender);\n\n    }\n\n    function getBoardStatus() public view returns (\n        _GRID_STATUS[]\n    ) {\n        _GRID_STATUS[] memory ret = new _GRID_STATUS[](currentSize * currentSize);\n        for (uint i = 0; i < currentSize; i++) {\n            for (uint j = 0; j < currentSize; j++) {\n                ret[(i * currentSize) + j] = boardStatus[gameRound][i][j];\n            }\n        }\n        return (ret);\n    }\n\n    function getUserStatus(address addr) public view returns (\n        bool isExist,\n        _TEAM team,\n        uint256 CAT,\n        uint256 DOG\n    ) {\n        isExist = userStatus[gameRound][addr].isExist;\n        team = userStatus[gameRound][addr].team;\n        CAT = userStatus[gameRound][addr].ledger.CAT;\n        DOG = userStatus[gameRound][addr].ledger.DOG;\n        return (isExist, team, CAT, DOG);\n    }\n    function getTeamFundingStatus() public view returns(\n        uint256 CAT,\n        uint256 DOG\n    ) {\n        CAT = currentFundingStatus.CAT;\n        DOG = currentFundingStatus.DOG;\n        return (CAT, DOG);\n    }\n\n    function getProposalStatus(uint256 round, uint256 turn, address proposer) public view returns (\n        uint256 vote,\n        uint256 time,\n        uint x,\n        uint y\n    ) {\n        Proposal status = proposals[round][turn][proposer];\n        if (status.isExist) {\n            return (status.vote, status.time, status.x, status.y);\n        }\n    }\n\n    function configure(\n        uint256 _size,\n        uint256 _fundRaisingPeriod,\n        uint256 _turnPeriod,\n        uint256 _baseSharePrice,\n        uint256 _shareGrowthRate,\n        uint256 _sharesPerProposal\n    ) public onlyOwner {\n        size = _size;\n        fundRaisingPeriod = _fundRaisingPeriod;\n        turnPeriod = _turnPeriod;\n        baseSharePrice = _baseSharePrice;\n        shareGrowthRate = _shareGrowthRate;\n        sharesPerProposal = _sharesPerProposal;\n    }\n\n    modifier onlyOwner() {\n        require(msg.sender == owner, \"Only owner is allowed\");\n        _;\n    }\n    modifier onlyInGame() {\n        require(inGame == true, \"Not in game period\");\n        _;\n    }\n}",
  "sourcePath": "/Users/chenwei/Desktop/github/Reversi_On_Smart_Contract_POC/contracts/Deversi.sol",
  "compiler": {
    "name": "solc",
    "version": "0.4.24+commit.e67f0147.Emscripten.clang"
  },
  "schemaVersion": "2.0.1",
  "updatedAt": "2018-11-01T05:12:35.288Z"
}