{
  "contractName": "Deversi",
  "abi": [
    {
      "constant": true,
      "inputs": [],
      "name": "turnPeriod",
      "outputs": [
        {
          "name": "",
          "type": "uint256"
        }
      ],
      "payable": false,
      "stateMutability": "view",
      "type": "function"
    },
    {
      "constant": true,
      "inputs": [
        {
          "name": "",
          "type": "uint256"
        },
        {
          "name": "",
          "type": "address"
        }
      ],
      "name": "userStatus",
      "outputs": [
        {
          "name": "team",
          "type": "uint8"
        },
        {
          "components": [
            {
              "name": "CAT",
              "type": "uint256"
            },
            {
              "name": "DOG",
              "type": "uint256"
            }
          ],
          "name": "ledger",
          "type": "tuple"
        },
        {
          "name": "isExist",
          "type": "bool"
        }
      ],
      "payable": false,
      "stateMutability": "view",
      "type": "function"
    },
    {
      "constant": true,
      "inputs": [],
      "name": "currentSharePrice",
      "outputs": [
        {
          "name": "",
          "type": "uint256"
        }
      ],
      "payable": false,
      "stateMutability": "view",
      "type": "function"
    },
    {
      "constant": true,
      "inputs": [],
      "name": "baseSharePrice",
      "outputs": [
        {
          "name": "",
          "type": "uint256"
        }
      ],
      "payable": false,
      "stateMutability": "view",
      "type": "function"
    },
    {
      "constant": true,
      "inputs": [],
      "name": "currentFundingStatus",
      "outputs": [
        {
          "name": "CAT",
          "type": "uint256"
        },
        {
          "name": "DOG",
          "type": "uint256"
        }
      ],
      "payable": false,
      "stateMutability": "view",
      "type": "function"
    },
    {
      "constant": true,
      "inputs": [],
      "name": "countingStartedTime",
      "outputs": [
        {
          "name": "",
          "type": "uint256"
        }
      ],
      "payable": false,
      "stateMutability": "view",
      "type": "function"
    },
    {
      "constant": true,
      "inputs": [],
      "name": "sharesPerProposal",
      "outputs": [
        {
          "name": "",
          "type": "uint256"
        }
      ],
      "payable": false,
      "stateMutability": "view",
      "type": "function"
    },
    {
      "constant": true,
      "inputs": [],
      "name": "currentSharePerProposal",
      "outputs": [
        {
          "name": "",
          "type": "uint256"
        }
      ],
      "payable": false,
      "stateMutability": "view",
      "type": "function"
    },
    {
      "constant": true,
      "inputs": [],
      "name": "inGame",
      "outputs": [
        {
          "name": "",
          "type": "bool"
        }
      ],
      "payable": false,
      "stateMutability": "view",
      "type": "function"
    },
    {
      "constant": true,
      "inputs": [],
      "name": "owner",
      "outputs": [
        {
          "name": "",
          "type": "address"
        }
      ],
      "payable": false,
      "stateMutability": "view",
      "type": "function"
    },
    {
      "constant": true,
      "inputs": [
        {
          "name": "",
          "type": "uint256"
        },
        {
          "name": "",
          "type": "uint256"
        },
        {
          "name": "",
          "type": "address"
        }
      ],
      "name": "proposals",
      "outputs": [
        {
          "name": "vote",
          "type": "uint256"
        },
        {
          "name": "time",
          "type": "uint256"
        },
        {
          "name": "isExist",
          "type": "bool"
        }
      ],
      "payable": false,
      "stateMutability": "view",
      "type": "function"
    },
    {
      "constant": true,
      "inputs": [],
      "name": "size",
      "outputs": [
        {
          "name": "",
          "type": "uint256"
        }
      ],
      "payable": false,
      "stateMutability": "view",
      "type": "function"
    },
    {
      "constant": true,
      "inputs": [],
      "name": "gameRound",
      "outputs": [
        {
          "name": "",
          "type": "uint256"
        }
      ],
      "payable": false,
      "stateMutability": "view",
      "type": "function"
    },
    {
      "constant": true,
      "inputs": [],
      "name": "shareGrowthRate",
      "outputs": [
        {
          "name": "",
          "type": "uint256"
        }
      ],
      "payable": false,
      "stateMutability": "view",
      "type": "function"
    },
    {
      "constant": true,
      "inputs": [],
      "name": "currentTeam",
      "outputs": [
        {
          "name": "",
          "type": "uint8"
        }
      ],
      "payable": false,
      "stateMutability": "view",
      "type": "function"
    },
    {
      "constant": true,
      "inputs": [],
      "name": "currentSize",
      "outputs": [
        {
          "name": "",
          "type": "uint256"
        }
      ],
      "payable": false,
      "stateMutability": "view",
      "type": "function"
    },
    {
      "constant": true,
      "inputs": [],
      "name": "currentTurn",
      "outputs": [
        {
          "name": "",
          "type": "uint256"
        }
      ],
      "payable": false,
      "stateMutability": "view",
      "type": "function"
    },
    {
      "constant": true,
      "inputs": [
        {
          "name": "",
          "type": "uint256"
        },
        {
          "name": "",
          "type": "uint256"
        }
      ],
      "name": "roundPropsedStatus",
      "outputs": [
        {
          "name": "",
          "type": "bool"
        }
      ],
      "payable": false,
      "stateMutability": "view",
      "type": "function"
    },
    {
      "constant": true,
      "inputs": [],
      "name": "currentShareGrowthRate",
      "outputs": [
        {
          "name": "",
          "type": "uint256"
        }
      ],
      "payable": false,
      "stateMutability": "view",
      "type": "function"
    },
    {
      "constant": true,
      "inputs": [],
      "name": "fundRaisingPeriod",
      "outputs": [
        {
          "name": "",
          "type": "uint256"
        }
      ],
      "payable": false,
      "stateMutability": "view",
      "type": "function"
    },
    {
      "constant": true,
      "inputs": [],
      "name": "fundRaisingCountingDown",
      "outputs": [
        {
          "name": "",
          "type": "bool"
        }
      ],
      "payable": false,
      "stateMutability": "view",
      "type": "function"
    },
    {
      "inputs": [],
      "payable": false,
      "stateMutability": "nonpayable",
      "type": "constructor"
    },
    {
      "anonymous": false,
      "inputs": [],
      "name": "funded",
      "type": "event"
    },
    {
      "anonymous": false,
      "inputs": [
        {
          "indexed": false,
          "name": "round",
          "type": "uint256"
        },
        {
          "indexed": false,
          "name": "time",
          "type": "uint256"
        }
      ],
      "name": "NewGameStarted",
      "type": "event"
    },
    {
      "anonymous": false,
      "inputs": [
        {
          "indexed": false,
          "name": "round",
          "type": "uint256"
        },
        {
          "indexed": false,
          "name": "time",
          "type": "uint256"
        }
      ],
      "name": "fundRaisingCountdown",
      "type": "event"
    },
    {
      "anonymous": false,
      "inputs": [
        {
          "indexed": true,
          "name": "round",
          "type": "uint256"
        },
        {
          "indexed": false,
          "name": "turn",
          "type": "uint256"
        },
        {
          "indexed": false,
          "name": "time",
          "type": "uint256"
        }
      ],
      "name": "turnStart",
      "type": "event"
    },
    {
      "anonymous": false,
      "inputs": [
        {
          "indexed": true,
          "name": "round",
          "type": "uint256"
        },
        {
          "indexed": false,
          "name": "turn",
          "type": "uint256"
        },
        {
          "indexed": false,
          "name": "proposer",
          "type": "address"
        }
      ],
      "name": "proposed",
      "type": "event"
    },
    {
      "anonymous": false,
      "inputs": [
        {
          "indexed": false,
          "name": "",
          "type": "uint256"
        },
        {
          "indexed": false,
          "name": "clearer",
          "type": "address"
        }
      ],
      "name": "gameCleared",
      "type": "event"
    },
    {
      "anonymous": false,
      "inputs": [
        {
          "indexed": false,
          "name": "roung",
          "type": "uint256"
        },
        {
          "indexed": false,
          "name": "turn",
          "type": "uint256"
        },
        {
          "indexed": false,
          "name": "proposer",
          "type": "address"
        },
        {
          "indexed": false,
          "name": "voter",
          "type": "address"
        },
        {
          "indexed": false,
          "name": "shares",
          "type": "uint256"
        }
      ],
      "name": "voted",
      "type": "event"
    },
    {
      "constant": false,
      "inputs": [],
      "name": "startNewGame",
      "outputs": [],
      "payable": false,
      "stateMutability": "nonpayable",
      "type": "function"
    },
    {
      "constant": false,
      "inputs": [
        {
          "name": "teamChoosen",
          "type": "uint8"
        }
      ],
      "name": "funding",
      "outputs": [],
      "payable": true,
      "stateMutability": "payable",
      "type": "function"
    },
    {
      "constant": false,
      "inputs": [],
      "name": "propose",
      "outputs": [],
      "payable": true,
      "stateMutability": "payable",
      "type": "function"
    },
    {
      "constant": false,
      "inputs": [
        {
          "name": "round",
          "type": "uint256"
        },
        {
          "name": "turn",
          "type": "uint256"
        },
        {
          "name": "proposer",
          "type": "address"
        }
      ],
      "name": "vote",
      "outputs": [],
      "payable": true,
      "stateMutability": "payable",
      "type": "function"
    },
    {
      "constant": false,
      "inputs": [],
      "name": "clearGame",
      "outputs": [],
      "payable": false,
      "stateMutability": "nonpayable",
      "type": "function"
    },
    {
      "constant": true,
      "inputs": [
        {
          "name": "addr",
          "type": "address"
        }
      ],
      "name": "getUserStatus",
      "outputs": [
        {
          "name": "isExist",
          "type": "bool"
        },
        {
          "name": "team",
          "type": "uint8"
        },
        {
          "name": "CAT",
          "type": "uint256"
        },
        {
          "name": "DOG",
          "type": "uint256"
        }
      ],
      "payable": false,
      "stateMutability": "view",
      "type": "function"
    },
    {
      "constant": true,
      "inputs": [],
      "name": "getTeamFundingStatus",
      "outputs": [
        {
          "name": "CAT",
          "type": "uint256"
        },
        {
          "name": "DOG",
          "type": "uint256"
        }
      ],
      "payable": false,
      "stateMutability": "view",
      "type": "function"
    },
    {
      "constant": true,
      "inputs": [
        {
          "name": "round",
          "type": "uint256"
        },
        {
          "name": "turn",
          "type": "uint256"
        },
        {
          "name": "proposer",
          "type": "address"
        }
      ],
      "name": "getProposalStatus",
      "outputs": [
        {
          "name": "vote",
          "type": "uint256"
        },
        {
          "name": "time",
          "type": "uint256"
        }
      ],
      "payable": false,
      "stateMutability": "view",
      "type": "function"
    },
    {
      "constant": false,
      "inputs": [
        {
          "name": "_size",
          "type": "uint256"
        },
        {
          "name": "_fundRaisingPeriod",
          "type": "uint256"
        },
        {
          "name": "_turnPeriod",
          "type": "uint256"
        },
        {
          "name": "_baseSharePrice",
          "type": "uint256"
        },
        {
          "name": "_shareGrowthRate",
          "type": "uint256"
        },
        {
          "name": "_sharesPerProposal",
          "type": "uint256"
        }
      ],
      "name": "configure",
      "outputs": [],
      "payable": false,
      "stateMutability": "nonpayable",
      "type": "function"
    }
  ],
  "bytecode": "0x60806040523480156200001157600080fd5b5033600160006101000a81548173ffffffffffffffffffffffffffffffffffffffff021916908373ffffffffffffffffffffffffffffffffffffffff16021790555060006008819055506000600760006101000a81548160ff021916908315150217905550620000a160066005603c66038d7ea4c680006005600a620000c0640100000000026401000000009004565b620000ba620001b8640100000000026401000000009004565b62000340565b600160009054906101000a900473ffffffffffffffffffffffffffffffffffffffff1673ffffffffffffffffffffffffffffffffffffffff163373ffffffffffffffffffffffffffffffffffffffff1614151562000186576040517f08c379a00000000000000000000000000000000000000000000000000000000081526004018080602001828103825260158152602001807f4f6e6c79206f776e657220697320616c6c6f776564000000000000000000000081525060200191505060405180910390fd5b856000819055508460028190555083600381905550826004819055508160058190555080600681905550505050505050565b60001515600760009054906101000a900460ff16151514151562000244576040517f08c379a00000000000000000000000000000000000000000000000000000000081526004018080602001828103825260108152602001807f67616d6520697320676f696e67206f6e0000000000000000000000000000000081525060200191505060405180910390fd5b6001600854016008819055506000546009819055506000600a81905550600454600b81905550600654600c81905550600554600d81905550600a6006819055506000601060006101000a81548160ff02191690831515021790555060006011819055506000601260006101000a81548160ff02191690836002811115620002c757fe5b02179055506000600e600001819055506000600e600101819055506001600760006101000a81548160ff0219169083151502179055507f1a92f8260fbb9503d4da4de0b7753e04745a81b9a56dafcd9e51a7b828c16c7360085442604051808381526020018281526020019250505060405180910390a1565b61260380620003506000396000f300608060405260043610610180576000357c0100000000000000000000000000000000000000000000000000000000900463ffffffff1680630b89db471461018557806316ab1010146101b75780631aca5357146101e257806328a795761461026357806334db3b9c1461028e57806337d319ad146102b957806345077a8614610318578063482d51e01461034a57806350d915831461036157806358052a0e146103ab5780635874d420146103d65780635de17e6714610401578063794f4fdc1461042c5780638da5cb5b1461045b57806393c45f37146104b2578063949d225d1461052f578063a5f9b5c21461055a578063b21015f114610585578063ba1652db146105b0578063bda1504b146105e9578063c198f8ba14610614578063c7f166dc1461061e578063deb6128614610690578063e3254f7d146106bb578063e75c8bfe1461070a578063ea0d5dcd14610735578063f0c67a84146107b3578063f131a7ae146107d6578063fc71852a146107ed578063fffb133a14610818575b600080fd5b34801561019157600080fd5b5061019a610847565b604051808381526020018281526020019250505060405180910390f35b3480156101c357600080fd5b506101cc610864565b6040518082815260200191505060405180910390f35b3480156101ee57600080fd5b5061022d60048036038101908080359060200190929190803573ffffffffffffffffffffffffffffffffffffffff16906020019092919050505061086a565b6040518084600281111561023d57fe5b60ff16815260200183815260200182151515158152602001935050505060405180910390f35b34801561026f57600080fd5b506102786108d9565b6040518082815260200191505060405180910390f35b34801561029a57600080fd5b506102a36108df565b6040518082815260200191505060405180910390f35b3480156102c557600080fd5b506103166004803603810190808035906020019092919080359060200190929190803590602001909291908035906020019092919080359060200190929190803590602001909291905050506108e5565b005b34801561032457600080fd5b5061032d6109dc565b604051808381526020018281526020019250505060405180910390f35b34801561035657600080fd5b5061035f6109ee565b005b6103a96004803603810190808035906020019092919080359060200190929190803573ffffffffffffffffffffffffffffffffffffffff169060200190929190505050610b74565b005b3480156103b757600080fd5b506103c06110ec565b6040518082815260200191505060405180910390f35b3480156103e257600080fd5b506103eb6110f2565b6040518082815260200191505060405180910390f35b34801561040d57600080fd5b506104166110f8565b6040518082815260200191505060405180910390f35b34801561043857600080fd5b506104416110fe565b604051808215151515815260200191505060405180910390f35b34801561046757600080fd5b50610470611111565b604051808273ffffffffffffffffffffffffffffffffffffffff1673ffffffffffffffffffffffffffffffffffffffff16815260200191505060405180910390f35b3480156104be57600080fd5b506105076004803603810190808035906020019092919080359060200190929190803573ffffffffffffffffffffffffffffffffffffffff169060200190929190505050611137565b6040518084815260200183815260200182151515158152602001935050505060405180910390f35b34801561053b57600080fd5b50610544611188565b6040518082815260200191505060405180910390f35b34801561056657600080fd5b5061056f61118e565b6040518082815260200191505060405180910390f35b34801561059157600080fd5b5061059a611194565b6040518082815260200191505060405180910390f35b3480156105bc57600080fd5b506105c561119a565b604051808260028111156105d557fe5b60ff16815260200191505060405180910390f35b3480156105f557600080fd5b506105fe6111ad565b6040518082815260200191505060405180910390f35b61061c6111b3565b005b34801561062a57600080fd5b506106736004803603810190808035906020019092919080359060200190929190803573ffffffffffffffffffffffffffffffffffffffff169060200190929190505050611539565b604051808381526020018281526020019250505060405180910390f35b34801561069c57600080fd5b506106a56115d5565b6040518082815260200191505060405180910390f35b3480156106c757600080fd5b506106f060048036038101908080359060200190929190803590602001909291905050506115db565b604051808215151515815260200191505060405180910390f35b34801561071657600080fd5b5061071f61160a565b6040518082815260200191505060405180910390f35b34801561074157600080fd5b50610776600480360381019080803573ffffffffffffffffffffffffffffffffffffffff169060200190929190505050611610565b604051808515151515815260200184600281111561079057fe5b60ff16815260200183815260200182815260200194505050505060405180910390f35b6107d4600480360381019080803560ff1690602001909291905050506117a9565b005b3480156107e257600080fd5b506107eb611e1b565b005b3480156107f957600080fd5b50610802611f30565b6040518082815260200191505060405180910390f35b34801561082457600080fd5b5061082d611f36565b604051808215151515815260200191505060405180910390f35b600080600e600001549150600e6001015490508181915091509091565b60035481565b6013602052816000526040600020602052806000526040600020600091509150508060000160009054906101000a900460ff16908060010160408051908101604052908160008201548152602001600182015481525050908060030160009054906101000a900460ff16905083565b600b5481565b60045481565b600160009054906101000a900473ffffffffffffffffffffffffffffffffffffffff1673ffffffffffffffffffffffffffffffffffffffff163373ffffffffffffffffffffffffffffffffffffffff161415156109aa576040517f08c379a00000000000000000000000000000000000000000000000000000000081526004018080602001828103825260158152602001807f4f6e6c79206f776e657220697320616c6c6f776564000000000000000000000081525060200191505060405180910390fd5b856000819055508460028190555083600381905550826004819055508160058190555080600681905550505050505050565b600e8060000154908060010154905082565b60001515600760009054906101000a900460ff161515141515610a79576040517f08c379a00000000000000000000000000000000000000000000000000000000081526004018080602001828103825260108152602001807f67616d6520697320676f696e67206f6e0000000000000000000000000000000081525060200191505060405180910390fd5b6001600854016008819055506000546009819055506000600a81905550600454600b81905550600654600c81905550600554600d81905550600a6006819055506000601060006101000a81548160ff02191690831515021790555060006011819055506000601260006101000a81548160ff02191690836002811115610afb57fe5b02179055506000600e600001819055506000600e600101819055506001600760006101000a81548160ff0219169083151502179055507f1a92f8260fbb9503d4da4de0b7753e04745a81b9a56dafcd9e51a7b828c16c7360085442604051808381526020018281526020019250505060405180910390a1565b60008060008060011515600760009054906101000a900460ff161515141515610c05576040517f08c379a00000000000000000000000000000000000000000000000000000000081526004018080602001828103825260128152602001807f4e6f7420696e2067616d6520706572696f64000000000000000000000000000081525060200191505060405180910390fd5b86600854141515610c7e576040517f08c379a00000000000000000000000000000000000000000000000000000000081526004018080602001828103825260148152602001807f6e6f7420696e2063757272656e7420726f756e6400000000000000000000000081525060200191505060405180910390fd5b6000600a54111515610cf8576040517f08c379a000000000000000000000000000000000000000000000000000000000815260040180806020018281038252600f8152602001807f6e6f74207965742073746172746564000000000000000000000000000000000081525060200191505060405180910390fd5b600254601154019350600354600a540284019250600354830391508242108015610d225750814210155b1515610d96576040517f08c379a00000000000000000000000000000000000000000000000000000000081526004018080602001828103825260138152602001807f6e6f7420696e20726f756e6420706572696f640000000000000000000000000081525060200191505060405180910390fd5b60156000888152602001908152602001600020600087815260200190815260200160002060008673ffffffffffffffffffffffffffffffffffffffff1673ffffffffffffffffffffffffffffffffffffffff16815260200190815260200160002060020160009054906101000a900460ff161561107557600b5434811515610e1a57fe5b0490508060156000898152602001908152602001600020600088815260200190815260200160002060008773ffffffffffffffffffffffffffffffffffffffff1673ffffffffffffffffffffffffffffffffffffffff16815260200190815260200160002060000160008282540192505081905550600280811115610e9b57fe5b601260009054906101000a900460ff166002811115610eb657fe5b1415610f27578060136000600854815260200190815260200160002060003373ffffffffffffffffffffffffffffffffffffffff1673ffffffffffffffffffffffffffffffffffffffff16815260200190815260200160002060010160000160008282540192505081905550610fbd565b60016002811115610f3457fe5b601260009054906101000a900460ff166002811115610f4f57fe5b1415610fbc578060136000600854815260200190815260200160002060003373ffffffffffffffffffffffffffffffffffffffff1673ffffffffffffffffffffffffffffffffffffffff168152602001908152602001600020600101600101600082825401925050819055505b5b7fd385cfb87eeb4ff7958bbec45d17d99a4b1bcdf1237c6257b96cdce3177f3c1c600854600a54873385604051808681526020018581526020018473ffffffffffffffffffffffffffffffffffffffff1673ffffffffffffffffffffffffffffffffffffffff1681526020018373ffffffffffffffffffffffffffffffffffffffff1673ffffffffffffffffffffffffffffffffffffffff1681526020018281526020019550505050505060405180910390a16110e3565b6040517f08c379a00000000000000000000000000000000000000000000000000000000081526004018080602001828103825260128152602001807f70726f706f73616c206e6f74206578697374000000000000000000000000000081525060200191505060405180910390fd5b50505050505050565b60115481565b60065481565b600c5481565b600760009054906101000a900460ff1681565b600160009054906101000a900473ffffffffffffffffffffffffffffffffffffffff1681565b601560205282600052604060002060205281600052604060002060205280600052604060002060009250925050508060000154908060010154908060020160009054906101000a900460ff16905083565b60005481565b60085481565b60055481565b601260009054906101000a900460ff1681565b60095481565b60008060008060011515600760009054906101000a900460ff161515141515611244576040517f08c379a00000000000000000000000000000000000000000000000000000000081526004018080602001828103825260128152602001807f4e6f7420696e2067616d6520706572696f64000000000000000000000000000081525060200191505060405180910390fd5b60025460115401935060011515601060009054906101000a900460ff16151514801561126f57508342115b15156112e3576040517f08c379a000000000000000000000000000000000000000000000000000000000815260040180806020018281038252600f8152602001807f6e6f74207965742073746172746564000000000000000000000000000000000081525060200191505060405180910390fd5b6000600a541415611381576001600a60008282540192505081905550600e60010154600e600001541161131757600161131a565b60025b601260006101000a81548160ff0219169083600281111561133757fe5b02179055506008547fa74e8fdd0d1b2a47375925ad4caffed137ae7d87fbae14898bfae105c8c1a39f600a5442604051808381526020018281526020019250505060405180910390a25b600354600a540284019250600354830391508242111561151557600115156014600060085481526020019081526020016000206000600a54815260200190815260200160002060009054906101000a900460ff161515141515611472576040517f08c379a00000000000000000000000000000000000000000000000000000000081526004018080602001828103825260398152602001807f47616d652073686f756c6420626520636c65617265642062656361757365207081526020017f726576696f7573207475726e2069736e277420706c617965640000000000000081525060400191505060405180910390fd5b60035483019050804211156114ef576040517f08c379a00000000000000000000000000000000000000000000000000000000081526004018080602001828103825260098152602001807f47616d65206f766572000000000000000000000000000000000000000000000081525060200191505060405180910390fd5b6001600a60008282540192505081905550611508611f49565b611510611fe7565b611533565b82421080156115245750814210155b1561153257611531611fe7565b5b5b50505050565b600080600060156000878152602001908152602001600020600086815260200190815260200160002060008573ffffffffffffffffffffffffffffffffffffffff1673ffffffffffffffffffffffffffffffffffffffff16815260200190815260200160002090508060020160009054906101000a900460ff16156115cb5780600001548160010154925092506115cc565b5b50935093915050565b600a5481565b60146020528160005260406000206020528060005260406000206000915091509054906101000a900460ff1681565b600d5481565b60008060008060136000600854815260200190815260200160002060008673ffffffffffffffffffffffffffffffffffffffff1673ffffffffffffffffffffffffffffffffffffffff16815260200190815260200160002060030160009054906101000a900460ff16935060136000600854815260200190815260200160002060008673ffffffffffffffffffffffffffffffffffffffff1673ffffffffffffffffffffffffffffffffffffffff16815260200190815260200160002060000160009054906101000a900460ff16925060136000600854815260200190815260200160002060008673ffffffffffffffffffffffffffffffffffffffff1673ffffffffffffffffffffffffffffffffffffffff16815260200190815260200160002060010160000154915060136000600854815260200190815260200160002060008673ffffffffffffffffffffffffffffffffffffffff1673ffffffffffffffffffffffffffffffffffffffff1681526020019081526020016000206001016001015490508383838393509350935093509193509193565b600060011515600760009054906101000a900460ff161515141515611836576040517f08c379a00000000000000000000000000000000000000000000000000000000081526004018080602001828103825260128152602001807f4e6f7420696e2067616d6520706572696f64000000000000000000000000000081525060200191505060405180910390fd5b6000600a541415156118d6576040517f08c379a00000000000000000000000000000000000000000000000000000000081526004018080602001828103825260218152602001807f66756e64696e67206973206f6e6c7920616c6c6f776564206174207475726e2081526020017f300000000000000000000000000000000000000000000000000000000000000081525060400191505060405180910390fd5b60003411151561194e576040517f08c379a000000000000000000000000000000000000000000000000000000000815260040180806020018281038252600e8152602001807f46756e647320726571756972656400000000000000000000000000000000000081525060200191505060405180910390fd5b601060009054906101000a900460ff16156119e2576002546011540142111515156119e1576040517f08c379a000000000000000000000000000000000000000000000000000000000815260040180806020018281038252600f8152602001807f66756e64696e67206973206f766572000000000000000000000000000000000081525060200191505060405180910390fd5b5b6001151560136000600854815260200190815260200160002060003373ffffffffffffffffffffffffffffffffffffffff1673ffffffffffffffffffffffffffffffffffffffff16815260200190815260200160002060030160009054906101000a900460ff16151514151515611ac1576040517f08c379a000000000000000000000000000000000000000000000000000000000815260040180806020018281038252600f8152602001807f416c72656164792066756e64656421000000000000000000000000000000000081525060200191505060405180910390fd5b600b5434811515611ace57fe5b049050600280811115611add57fe5b826002811115611ae957fe5b1415611b64578060136000600854815260200190815260200160002060003373ffffffffffffffffffffffffffffffffffffffff1673ffffffffffffffffffffffffffffffffffffffff1681526020019081526020016000206001016000018190555080600e60000160008282540192505081905550611c67565b60016002811115611b7157fe5b826002811115611b7d57fe5b1415611bf8578060136000600854815260200190815260200160002060003373ffffffffffffffffffffffffffffffffffffffff1673ffffffffffffffffffffffffffffffffffffffff1681526020019081526020016000206001016001018190555080600e60010160008282540192505081905550611c66565b6040517f08c379a000000000000000000000000000000000000000000000000000000000815260040180806020018281038252600c8152602001807f496e76616c6964207465616d000000000000000000000000000000000000000081525060200191505060405180910390fd5b5b8160136000600854815260200190815260200160002060003373ffffffffffffffffffffffffffffffffffffffff1673ffffffffffffffffffffffffffffffffffffffff16815260200190815260200160002060000160006101000a81548160ff02191690836002811115611cd857fe5b0217905550600160136000600854815260200190815260200160002060003373ffffffffffffffffffffffffffffffffffffffff1673ffffffffffffffffffffffffffffffffffffffff16815260200190815260200160002060030160006101000a81548160ff0219169083151502179055507ff3a504f28a34fdf555994a3bdfd3dc29f822e8684a9ef01001afb738cc3cdd0a60405160405180910390a160001515601060009054906101000a900460ff1615151415611e17576000600e60000154118015611dad57506000600e60010154115b15611e16576001601060006101000a81548160ff021916908315150217905550426011819055507f61f3502e7542b5b55e9bb0ecc3c768c9f845c89d8e9bb9f773ef927c56ae159360085442604051808381526020018281526020019250505060405180910390a15b5b5050565b60011515600760009054906101000a900460ff161515141515611ea6576040517f08c379a00000000000000000000000000000000000000000000000000000000081526004018080602001828103825260128152602001807f4e6f7420696e2067616d6520706572696f64000000000000000000000000000081525060200191505060405180910390fd5b6000600760006101000a81548160ff0219169083151502179055507fb6cb2ccc2ed1ccdd9dda64fe4d291deb23baaf807b138d00c9e4e3922aba934e60085433604051808381526020018273ffffffffffffffffffffffffffffffffffffffff1673ffffffffffffffffffffffffffffffffffffffff1681526020019250505060405180910390a1565b60025481565b601060009054906101000a900460ff1681565b600280811115611f5557fe5b601260009054906101000a900460ff166002811115611f7057fe5b14611f7c576002611f7f565b60015b601260006101000a81548160ff02191690836002811115611f9c57fe5b02179055506008547fa74e8fdd0d1b2a47375925ad4caffed137ae7d87fbae14898bfae105c8c1a39f600a5442604051808381526020018281526020019250505060405180910390a2565b60008060136000600854815260200190815260200160002060003373ffffffffffffffffffffffffffffffffffffffff1673ffffffffffffffffffffffffffffffffffffffff1681526020019081526020016000209150601260009054906101000a900460ff16600281111561205957fe5b8260000160009054906101000a900460ff16600281111561207657fe5b1415156120eb576040517f08c379a00000000000000000000000000000000000000000000000000000000081526004018080602001828103825260188152602001807f596f7520617265206e6f74206f6e2074686973207465616d000000000000000081525060200191505060405180910390fd5b60016014600060085481526020019081526020016000206000600a54815260200190815260200160002060006101000a81548160ff021916908315150217905550600115156015600060085481526020019081526020016000206000600a54815260200190815260200160002060003373ffffffffffffffffffffffffffffffffffffffff1673ffffffffffffffffffffffffffffffffffffffff16815260200190815260200160002060020160009054906101000a900460ff16151514151561253f57600b54348115156121bc57fe5b0490506006548110151515612239576040517f08c379a000000000000000000000000000000000000000000000000000000000815260040180806020018281038252600f8152602001807f4e6f7420656e6f7567682066756e64000000000000000000000000000000000081525060200191505060405180910390fd5b60065481036015600060085481526020019081526020016000206000600a54815260200190815260200160002060003373ffffffffffffffffffffffffffffffffffffffff1673ffffffffffffffffffffffffffffffffffffffff1681526020019081526020016000206000018190555060016015600060085481526020019081526020016000206000600a54815260200190815260200160002060003373ffffffffffffffffffffffffffffffffffffffff1673ffffffffffffffffffffffffffffffffffffffff16815260200190815260200160002060020160006101000a81548160ff021916908315150217905550426015600060085481526020019081526020016000206000600a54815260200190815260200160002060003373ffffffffffffffffffffffffffffffffffffffff1673ffffffffffffffffffffffffffffffffffffffff168152602001908152602001600020600101819055506002808111156123a457fe5b8260000160009054906101000a900460ff1660028111156123c157fe5b1415612432578060136000600854815260200190815260200160002060003373ffffffffffffffffffffffffffffffffffffffff1673ffffffffffffffffffffffffffffffffffffffff168152602001908152602001600020600101600001600082825401925050819055506124ca565b6001600281111561243f57fe5b8260000160009054906101000a900460ff16600281111561245c57fe5b14156124c9578060136000600854815260200190815260200160002060003373ffffffffffffffffffffffffffffffffffffffff1673ffffffffffffffffffffffffffffffffffffffff168152602001908152602001600020600101600101600082825401925050819055505b5b6008547fbc322ce4a4c3627f22dcde611da2f41356c8b8888e6b73f7e00da80b8be6f8ed600a5433604051808381526020018273ffffffffffffffffffffffffffffffffffffffff1673ffffffffffffffffffffffffffffffffffffffff1681526020019250505060405180910390a26125d3565b6040517f08c379a00000000000000000000000000000000000000000000000000000000081526004018080602001828103825260238152602001807f596f7527766520616c72656164792070726f7073656420696e2074686973207481526020017f75726e000000000000000000000000000000000000000000000000000000000081525060400191505060405180910390fd5b50505600a165627a7a72305820fc3e3dd026b65646ff68495af93f5c200d7724daa41de7c62b4e735407cfd33f0029",
  "source": "pragma solidity ^0.4.24;\n\ncontract Deversi {\n\n    enum _TEAM { NONE, DOG, CAT }\n\n    struct Ledger {\n        uint256 CAT;\n        uint256 DOG;\n    }\n    struct User {\n        _TEAM team;\n        Ledger ledger;\n        bool isExist;\n    }\n    struct Proposal {\n        uint256 vote;\n        uint256 time;\n        bool isExist;\n    }\n\n    // System config\n    uint256 public size; // board size\n    address public owner;\n    uint256 public fundRaisingPeriod;\n    uint256 public turnPeriod;\n    uint256 public baseSharePrice;\n    uint256 public shareGrowthRate;\n    uint256 public sharesPerProposal;\n\n    // Game control\n    bool public inGame;\n    uint256 public gameRound;\n    uint256 public currentSize;\n    uint256 public currentTurn;\n    uint256 public currentSharePrice;\n    uint256 public currentSharePerProposal;\n    uint256 public currentShareGrowthRate;\n    Ledger public currentFundingStatus;\n    bool public fundRaisingCountingDown;\n    uint256 public countingStartedTime;\n    _TEAM public currentTeam;\n\n    mapping(uint256 => mapping(address => User)) public userStatus;\n    mapping(uint256 => mapping(uint => bool)) public roundPropsedStatus;\n    mapping(uint256 => mapping(uint256 => mapping(address => Proposal))) public proposals;\n\n    event funded();\n    event NewGameStarted(uint256 round, uint time);\n    event fundRaisingCountdown(uint256 round, uint time);\n    event turnStart(uint256 indexed round, uint256 turn, uint time);\n    event proposed(uint256 indexed round, uint256 turn, address proposer);\n    event gameCleared(uint256, address clearer);\n    event voted(uint roung, uint turn, address proposer, address voter, uint256 shares);\n\n    constructor() public {\n        owner = msg.sender;\n        gameRound = 0;\n        inGame = false;\n        configure(\n            6,\n            5, // funding period\n            60,  // turn period\n            1000000000000000,\n            5,\n            10\n        );\n        startNewGame();\n    }\n\n    function startNewGame() public {\n        require(inGame == false, \"game is going on\");\n        gameRound = gameRound + 1;\n        currentSize = size;\n        currentTurn = 0;\n        currentSharePrice = baseSharePrice;\n        currentSharePerProposal = sharesPerProposal;\n        currentShareGrowthRate = shareGrowthRate;\n        sharesPerProposal = 10;\n        fundRaisingCountingDown = false;\n        countingStartedTime = 0;\n        currentTeam = _TEAM.NONE;\n        currentFundingStatus.CAT = 0;\n        currentFundingStatus.DOG = 0;\n        inGame = true;\n        emit NewGameStarted(gameRound, now);\n    }\n\n    function funding(_TEAM teamChoosen) public payable onlyInGame {\n        require(currentTurn == 0, \"funding is only allowed at turn 0\");\n        require(msg.value > 0, \"Funds required\");\n        if (fundRaisingCountingDown) {\n            require(now <= (countingStartedTime + fundRaisingPeriod), \"funding is over\");\n            // turn start trigger point\n        }\n        require(userStatus[gameRound][msg.sender].isExist != true, \"Already funded!\");\n\n        uint shareAmount = msg.value / currentSharePrice;\n        if (teamChoosen == _TEAM.CAT) {\n            userStatus[gameRound][msg.sender].ledger.CAT = shareAmount;\n            currentFundingStatus.CAT += shareAmount;\n        } else if (teamChoosen == _TEAM.DOG) {\n            userStatus[gameRound][msg.sender].ledger.DOG = shareAmount;\n            currentFundingStatus.DOG += shareAmount;\n        } else {\n            revert(\"Invalid team\");\n        }\n        userStatus[gameRound][msg.sender].team = teamChoosen;\n        userStatus[gameRound][msg.sender].isExist = true;\n        emit funded();\n        if (fundRaisingCountingDown == false) {\n            if (\n                (currentFundingStatus.CAT > 0) &&\n                (currentFundingStatus.DOG > 0)\n            ) {\n                fundRaisingCountingDown = true;\n                countingStartedTime = now;\n                emit fundRaisingCountdown(gameRound, now);\n            }\n        }\n    }\n\n    function propose() public payable onlyInGame {\n        uint256 gameStartTime = countingStartedTime + fundRaisingPeriod;\n        require((fundRaisingCountingDown == true) && (now > gameStartTime), \"not yet started\");\n        if (currentTurn == 0) {\n            currentTurn += 1;\n            currentTeam = (currentFundingStatus.CAT > currentFundingStatus.DOG)\n                ? _TEAM.CAT\n                : _TEAM.DOG;\n            emit turnStart(gameRound, currentTurn, now);\n        }\n        uint256 currentRoundEndTime = gameStartTime + (currentTurn * turnPeriod);\n        uint256 currentRoundStartTime = currentRoundEndTime - turnPeriod;\n        if (now > currentRoundEndTime) {\n            if (roundPropsedStatus[gameRound][currentTurn] != true) {\n                revert(\"Game should be cleared because previous turn isn't played\");\n            } else {\n                uint256 nextRoundEndTime = currentRoundEndTime + turnPeriod;\n                if (now > nextRoundEndTime) {\n                    revert(\"Game over\");\n                } else {\n                    currentTurn += 1;\n                    updateGame();\n                    doPropose();\n                }\n            }\n        } else if ((now < currentRoundEndTime) && (now >= currentRoundStartTime)) {\n            doPropose();\n        }\n    }\n\n    function doPropose() private {\n        User userTeam = userStatus[gameRound][msg.sender];\n        require(userTeam.team == currentTeam, \"You are not on this team\");\n        roundPropsedStatus[gameRound][currentTurn] = true;\n        if (proposals[gameRound][currentTurn][msg.sender].isExist != true) {\n            uint256 shares = msg.value / currentSharePrice;\n            require(shares >= sharesPerProposal, \"Not enough fund\");\n            proposals[gameRound][currentTurn][msg.sender].vote = shares - sharesPerProposal;\n            proposals[gameRound][currentTurn][msg.sender].isExist = true;\n            proposals[gameRound][currentTurn][msg.sender].time = now;\n            if (userTeam.team == _TEAM.CAT) {\n                userStatus[gameRound][msg.sender].ledger.CAT += shares;\n            } else if (userTeam.team == _TEAM.DOG) {\n                userStatus[gameRound][msg.sender].ledger.DOG += shares;\n            }\n            emit proposed(gameRound, currentTurn, msg.sender);\n        } else {\n            revert(\"You've already propsed in this turn\");\n        }\n    }\n\n    function vote(uint256 round, uint256 turn, address proposer) public payable onlyInGame {\n        require(gameRound == round, \"not in current round\");\n        require(currentTurn > 0, \"not yet started\");\n        uint256 gameStartTime = countingStartedTime + fundRaisingPeriod;\n        uint256 currentRoundEndTime = gameStartTime + (currentTurn * turnPeriod);\n        uint256 currentRoundStartTime = currentRoundEndTime - turnPeriod;\n        require((now < currentRoundEndTime) && (now >= currentRoundStartTime), \"not in round period\");\n        if (proposals[round][turn][proposer].isExist) {\n            uint256 sharesToVote = msg.value / currentSharePrice;\n            proposals[round][turn][proposer].vote += sharesToVote;\n            if (currentTeam == _TEAM.CAT) {\n                userStatus[gameRound][msg.sender].ledger.CAT += sharesToVote;\n            } else if (currentTeam == _TEAM.DOG) {\n                userStatus[gameRound][msg.sender].ledger.DOG += sharesToVote;\n            }\n            emit voted(gameRound, currentTurn, proposer, msg.sender, sharesToVote);\n        } else {\n            revert(\"proposal not exist\");\n        }\n    }\n\n    function updateGame() private {\n        currentTeam = (currentTeam == _TEAM.CAT) ? _TEAM.DOG : _TEAM.CAT;\n        emit turnStart(gameRound, currentTurn, now);\n    }\n\n    function clearGame() public onlyInGame {\n        // revert(\"game over!\");\n        inGame = false;\n        // distribute money\n        emit gameCleared(gameRound, msg.sender);\n\n    }\n\n    function getUserStatus(address addr) public view returns (\n        bool isExist,\n        _TEAM team,\n        uint256 CAT,\n        uint256 DOG\n    ) {\n        isExist = userStatus[gameRound][addr].isExist;\n        team = userStatus[gameRound][addr].team;\n        CAT = userStatus[gameRound][addr].ledger.CAT;\n        DOG = userStatus[gameRound][addr].ledger.DOG;\n        return (isExist, team, CAT, DOG);\n    }\n    function getTeamFundingStatus() public view returns(\n        uint256 CAT,\n        uint256 DOG\n    ) {\n        CAT = currentFundingStatus.CAT;\n        DOG = currentFundingStatus.DOG;\n        return (CAT, DOG);\n    }\n\n    function getProposalStatus(uint256 round, uint256 turn, address proposer) public view returns (\n        uint256 vote,\n        uint256 time\n    ) {\n        Proposal status = proposals[round][turn][proposer];\n        if (status.isExist) {\n            return (status.vote, status.time);\n        }\n    }\n\n    function configure(\n        uint256 _size,\n        uint256 _fundRaisingPeriod,\n        uint256 _turnPeriod,\n        uint256 _baseSharePrice,\n        uint256 _shareGrowthRate,\n        uint256 _sharesPerProposal\n    ) public onlyOwner {\n        size = _size;\n        fundRaisingPeriod = _fundRaisingPeriod;\n        turnPeriod = _turnPeriod;\n        baseSharePrice = _baseSharePrice;\n        shareGrowthRate = _shareGrowthRate;\n        sharesPerProposal = _sharesPerProposal;\n    }\n\n    modifier onlyOwner() {\n        require(msg.sender == owner, \"Only owner is allowed\");\n        _;\n    }\n    modifier onlyInGame() {\n        require(inGame == true, \"Not in game period\");\n        _;\n    }\n}",
  "sourcePath": "/Users/chenwei/Desktop/github/Reversi_On_Smart_Contract_POC/contracts/Deversi.sol",
  "compiler": {
    "name": "solc",
    "version": "0.4.24+commit.e67f0147.Emscripten.clang"
  },
  "schemaVersion": "2.0.1",
  "updatedAt": "2018-10-13T10:38:48.779Z"
}