{
  "contractName": "Deversi",
  "abi": [
    {
      "constant": true,
      "inputs": [],
      "name": "turnPeriod",
      "outputs": [
        {
          "name": "",
          "type": "uint32"
        }
      ],
      "payable": false,
      "stateMutability": "view",
      "type": "function"
    },
    {
      "constant": true,
      "inputs": [],
      "name": "INIT_SHARE_PRICE",
      "outputs": [
        {
          "name": "",
          "type": "uint256"
        }
      ],
      "payable": false,
      "stateMutability": "view",
      "type": "function"
    },
    {
      "constant": true,
      "inputs": [],
      "name": "currentSharePrice",
      "outputs": [
        {
          "name": "",
          "type": "uint256"
        }
      ],
      "payable": false,
      "stateMutability": "view",
      "type": "function"
    },
    {
      "constant": true,
      "inputs": [],
      "name": "baseSharePrice",
      "outputs": [
        {
          "name": "",
          "type": "uint256"
        }
      ],
      "payable": false,
      "stateMutability": "view",
      "type": "function"
    },
    {
      "constant": true,
      "inputs": [
        {
          "name": "",
          "type": "uint32"
        },
        {
          "name": "",
          "type": "address"
        }
      ],
      "name": "userStatus",
      "outputs": [
        {
          "name": "team",
          "type": "uint8"
        },
        {
          "components": [
            {
              "name": "CAT",
              "type": "uint256"
            },
            {
              "name": "DOG",
              "type": "uint256"
            }
          ],
          "name": "ledger",
          "type": "tuple"
        }
      ],
      "payable": false,
      "stateMutability": "view",
      "type": "function"
    },
    {
      "constant": true,
      "inputs": [],
      "name": "myString",
      "outputs": [
        {
          "name": "",
          "type": "string"
        }
      ],
      "payable": false,
      "stateMutability": "view",
      "type": "function"
    },
    {
      "constant": true,
      "inputs": [],
      "name": "countingStartedTime",
      "outputs": [
        {
          "name": "",
          "type": "uint256"
        }
      ],
      "payable": false,
      "stateMutability": "view",
      "type": "function"
    },
    {
      "constant": true,
      "inputs": [],
      "name": "INIT_TURN_PERIOD",
      "outputs": [
        {
          "name": "",
          "type": "uint32"
        }
      ],
      "payable": false,
      "stateMutability": "view",
      "type": "function"
    },
    {
      "constant": true,
      "inputs": [],
      "name": "INIT_SIZE",
      "outputs": [
        {
          "name": "",
          "type": "uint8"
        }
      ],
      "payable": false,
      "stateMutability": "view",
      "type": "function"
    },
    {
      "constant": true,
      "inputs": [],
      "name": "owner",
      "outputs": [
        {
          "name": "",
          "type": "address"
        }
      ],
      "payable": false,
      "stateMutability": "view",
      "type": "function"
    },
    {
      "constant": true,
      "inputs": [],
      "name": "INIT_SHARE_GROWTH_RATE",
      "outputs": [
        {
          "name": "",
          "type": "uint8"
        }
      ],
      "payable": false,
      "stateMutability": "view",
      "type": "function"
    },
    {
      "constant": true,
      "inputs": [],
      "name": "size",
      "outputs": [
        {
          "name": "",
          "type": "uint8"
        }
      ],
      "payable": false,
      "stateMutability": "view",
      "type": "function"
    },
    {
      "constant": true,
      "inputs": [],
      "name": "gameRound",
      "outputs": [
        {
          "name": "",
          "type": "uint32"
        }
      ],
      "payable": false,
      "stateMutability": "view",
      "type": "function"
    },
    {
      "constant": true,
      "inputs": [],
      "name": "INIT_RAISING_PERIOD",
      "outputs": [
        {
          "name": "",
          "type": "uint32"
        }
      ],
      "payable": false,
      "stateMutability": "view",
      "type": "function"
    },
    {
      "constant": true,
      "inputs": [],
      "name": "shareGrowthRate",
      "outputs": [
        {
          "name": "",
          "type": "uint8"
        }
      ],
      "payable": false,
      "stateMutability": "view",
      "type": "function"
    },
    {
      "constant": true,
      "inputs": [],
      "name": "currentTeam",
      "outputs": [
        {
          "name": "",
          "type": "uint8"
        }
      ],
      "payable": false,
      "stateMutability": "view",
      "type": "function"
    },
    {
      "constant": true,
      "inputs": [],
      "name": "currentSize",
      "outputs": [
        {
          "name": "",
          "type": "uint8"
        }
      ],
      "payable": false,
      "stateMutability": "view",
      "type": "function"
    },
    {
      "constant": true,
      "inputs": [],
      "name": "currentTurn",
      "outputs": [
        {
          "name": "",
          "type": "uint16"
        }
      ],
      "payable": false,
      "stateMutability": "view",
      "type": "function"
    },
    {
      "constant": true,
      "inputs": [],
      "name": "fundRaisingPeriod",
      "outputs": [
        {
          "name": "",
          "type": "uint32"
        }
      ],
      "payable": false,
      "stateMutability": "view",
      "type": "function"
    },
    {
      "constant": true,
      "inputs": [],
      "name": "fundRaisingCountingDown",
      "outputs": [
        {
          "name": "",
          "type": "bool"
        }
      ],
      "payable": false,
      "stateMutability": "view",
      "type": "function"
    },
    {
      "inputs": [],
      "payable": false,
      "stateMutability": "nonpayable",
      "type": "constructor"
    },
    {
      "anonymous": false,
      "inputs": [],
      "name": "StringUpdated",
      "type": "event"
    },
    {
      "anonymous": false,
      "inputs": [
        {
          "indexed": false,
          "name": "round",
          "type": "uint32"
        },
        {
          "indexed": false,
          "name": "time",
          "type": "uint256"
        }
      ],
      "name": "NewGameStarted",
      "type": "event"
    },
    {
      "constant": false,
      "inputs": [
        {
          "name": "x",
          "type": "string"
        }
      ],
      "name": "set",
      "outputs": [],
      "payable": false,
      "stateMutability": "nonpayable",
      "type": "function"
    },
    {
      "constant": false,
      "inputs": [
        {
          "name": "_size",
          "type": "uint8"
        },
        {
          "name": "_fundRaisingPeriod",
          "type": "uint32"
        },
        {
          "name": "_turnPeriod",
          "type": "uint32"
        },
        {
          "name": "_baseSharePrice",
          "type": "uint256"
        },
        {
          "name": "_shareGrowthRate",
          "type": "uint8"
        }
      ],
      "name": "configure",
      "outputs": [],
      "payable": false,
      "stateMutability": "nonpayable",
      "type": "function"
    }
  ],
  "bytecode": "0x608060405260066000806101000a81548160ff021916908360ff160217905550603c600060016101000a81548163ffffffff021916908363ffffffff160217905550603c600060056101000a81548163ffffffff021916908363ffffffff16021790555066038d7ea4c680006001556005600260006101000a81548160ff021916908360ff1602179055506040805190810160405280600c81526020017f48656c6c6f20576f726c64320000000000000000000000000000000000000000815250600a90805190602001906100d592919061042f565b503480156100e257600080fd5b50336002806101000a81548173ffffffffffffffffffffffffffffffffffffffff021916908373ffffffffffffffffffffffffffffffffffffffff1602179055506000600460016101000a81548163ffffffff021916908363ffffffff1602179055506101a46000809054906101000a900460ff16600060019054906101000a900463ffffffff16600060059054906101000a900463ffffffff16600154600260009054906101000a900460ff166101c0640100000000026401000000009004565b6101bb61030a640100000000026401000000009004565b6104d4565b6002809054906101000a900473ffffffffffffffffffffffffffffffffffffffff1673ffffffffffffffffffffffffffffffffffffffff163373ffffffffffffffffffffffffffffffffffffffff16141515610284576040517f08c379a00000000000000000000000000000000000000000000000000000000081526004018080602001828103825260158152602001807f4f6e6c79206f776e657220697320616c6c6f776564000000000000000000000081525060200191505060405180910390fd5b84600260016101000a81548160ff021916908360ff16021790555083600260166101000a81548163ffffffff021916908363ffffffff160217905550826002601a6101000a81548163ffffffff021916908363ffffffff1602179055508160038190555080600460006101000a81548160ff021916908360ff1602179055505050505050565b6001600460019054906101000a900463ffffffff1601600460016101000a81548163ffffffff021916908363ffffffff160217905550600260019054906101000a900460ff16600460056101000a81548160ff021916908360ff1602179055506000600460066101000a81548161ffff021916908361ffff1602179055506003546005819055506000600660006101000a81548160ff0219169083151502179055506002600860006101000a81548160ff021916908360028111156103cb57fe5b02179055507fde8a1fc4da809eb42d4413a14c1a44da895cd0444909cd4e280d85add76daeb0600460019054906101000a900463ffffffff1642604051808363ffffffff1663ffffffff1681526020018281526020019250505060405180910390a1565b828054600181600116156101000203166002900490600052602060002090601f016020900481019282601f1061047057805160ff191683800117855561049e565b8280016001018555821561049e579182015b8281111561049d578251825591602001919060010190610482565b5b5090506104ab91906104af565b5090565b6104d191905b808211156104cd5760008160009055506001016104b5565b5090565b90565b610b4d806104e36000396000f300608060405260043610610128576000357c0100000000000000000000000000000000000000000000000000000000900463ffffffff16806316ab10101461012d57806318ddc40f1461016457806328a795761461018f57806334db3b9c146101ba57806336486994146101e5578063492bfa18146102615780634ed3885e146102f157806358052a0e1461035a5780637c26dc64146103855780637c53f8f5146103bc5780638da5cb5b146103ed57806391cbf20014610444578063949d225d1461047557806399c597b7146104a6578063a5f9b5c21461050d578063aadb6dfb14610544578063b21015f11461057b578063ba1652db146105ac578063bda1504b146105e5578063deb6128614610616578063fc71852a14610649578063fffb133a14610680575b600080fd5b34801561013957600080fd5b506101426106af565b604051808263ffffffff1663ffffffff16815260200191505060405180910390f35b34801561017057600080fd5b506101796106c5565b6040518082815260200191505060405180910390f35b34801561019b57600080fd5b506101a46106cb565b6040518082815260200191505060405180910390f35b3480156101c657600080fd5b506101cf6106d1565b6040518082815260200191505060405180910390f35b3480156101f157600080fd5b50610236600480360381019080803563ffffffff169060200190929190803573ffffffffffffffffffffffffffffffffffffffff1690602001909291905050506106d7565b6040518083600281111561024657fe5b60ff1681526020018281526020019250505060405180910390f35b34801561026d57600080fd5b50610276610733565b6040518080602001828103825283818151815260200191508051906020019080838360005b838110156102b657808201518184015260208101905061029b565b50505050905090810190601f1680156102e35780820380516001836020036101000a031916815260200191505b509250505060405180910390f35b3480156102fd57600080fd5b50610358600480360381019080803590602001908201803590602001908080601f01602080910402602001604051908101604052809392919081815260200183838082843782019150505050505091929192905050506107d1565b005b34801561036657600080fd5b5061036f610817565b6040518082815260200191505060405180910390f35b34801561039157600080fd5b5061039a61081d565b604051808263ffffffff1663ffffffff16815260200191505060405180910390f35b3480156103c857600080fd5b506103d1610833565b604051808260ff1660ff16815260200191505060405180910390f35b3480156103f957600080fd5b50610402610845565b604051808273ffffffffffffffffffffffffffffffffffffffff1673ffffffffffffffffffffffffffffffffffffffff16815260200191505060405180910390f35b34801561045057600080fd5b5061045961086a565b604051808260ff1660ff16815260200191505060405180910390f35b34801561048157600080fd5b5061048a61087d565b604051808260ff1660ff16815260200191505060405180910390f35b3480156104b257600080fd5b5061050b600480360381019080803560ff169060200190929190803563ffffffff169060200190929190803563ffffffff16906020019092919080359060200190929190803560ff169060200190929190505050610890565b005b34801561051957600080fd5b506105226109da565b604051808263ffffffff1663ffffffff16815260200191505060405180910390f35b34801561055057600080fd5b506105596109f0565b604051808263ffffffff1663ffffffff16815260200191505060405180910390f35b34801561058757600080fd5b50610590610a06565b604051808260ff1660ff16815260200191505060405180910390f35b3480156105b857600080fd5b506105c1610a19565b604051808260028111156105d157fe5b60ff16815260200191505060405180910390f35b3480156105f157600080fd5b506105fa610a2c565b604051808260ff1660ff16815260200191505060405180910390f35b34801561062257600080fd5b5061062b610a3f565b604051808261ffff1661ffff16815260200191505060405180910390f35b34801561065557600080fd5b5061065e610a53565b604051808263ffffffff1663ffffffff16815260200191505060405180910390f35b34801561068c57600080fd5b50610695610a69565b604051808215151515815260200191505060405180910390f35b6002601a9054906101000a900463ffffffff1681565b60015481565b60055481565b60035481565b6009602052816000526040600020602052806000526040600020600091509150508060000160009054906101000a900460ff16908060010160408051908101604052908160008201548152602001600182015481525050905082565b600a8054600181600116156101000203166002900480601f0160208091040260200160405190810160405280929190818152602001828054600181600116156101000203166002900480156107c95780601f1061079e576101008083540402835291602001916107c9565b820191906000526020600020905b8154815290600101906020018083116107ac57829003601f168201915b505050505081565b80600a90805190602001906107e7929190610a7c565b507f1c1a31338e815783355236aa6b66c742b43bdba7b6b34dc03de716122b77efb060405160405180910390a150565b60075481565b600060059054906101000a900463ffffffff1681565b6000809054906101000a900460ff1681565b6002809054906101000a900473ffffffffffffffffffffffffffffffffffffffff1681565b600260009054906101000a900460ff1681565b600260019054906101000a900460ff1681565b6002809054906101000a900473ffffffffffffffffffffffffffffffffffffffff1673ffffffffffffffffffffffffffffffffffffffff163373ffffffffffffffffffffffffffffffffffffffff16141515610954576040517f08c379a00000000000000000000000000000000000000000000000000000000081526004018080602001828103825260158152602001807f4f6e6c79206f776e657220697320616c6c6f776564000000000000000000000081525060200191505060405180910390fd5b84600260016101000a81548160ff021916908360ff16021790555083600260166101000a81548163ffffffff021916908363ffffffff160217905550826002601a6101000a81548163ffffffff021916908363ffffffff1602179055508160038190555080600460006101000a81548160ff021916908360ff1602179055505050505050565b600460019054906101000a900463ffffffff1681565b600060019054906101000a900463ffffffff1681565b600460009054906101000a900460ff1681565b600860009054906101000a900460ff1681565b600460059054906101000a900460ff1681565b600460069054906101000a900461ffff1681565b600260169054906101000a900463ffffffff1681565b600660009054906101000a900460ff1681565b828054600181600116156101000203166002900490600052602060002090601f016020900481019282601f10610abd57805160ff1916838001178555610aeb565b82800160010185558215610aeb579182015b82811115610aea578251825591602001919060010190610acf565b5b509050610af89190610afc565b5090565b610b1e91905b80821115610b1a576000816000905550600101610b02565b5090565b905600a165627a7a72305820ad5dfecd7973672ca9a6700adefa6d56d48bf9cc2ab446d30c22c702ceb8a1e60029",
  "source": "pragma solidity ^0.4.24;\n\ncontract Deversi {\n\n    uint8 public INIT_SIZE = 6;\n    uint32 public INIT_RAISING_PERIOD = 60;\n    uint32 public INIT_TURN_PERIOD = 60;\n    uint256 public INIT_SHARE_PRICE = 1000000000000000;\n    uint8 public INIT_SHARE_GROWTH_RATE = 5;\n    enum _TEAM { CAT, DOG, NONE }\n\n    struct Ledger {\n        uint256 CAT;\n        uint256 DOG;\n    }\n    struct User {\n        _TEAM team;\n        Ledger ledger;\n    }\n\n    // System config\n    uint8 public size; // board size\n    address public owner;\n    uint32 public fundRaisingPeriod;\n    uint32 public turnPeriod;\n    uint256 public baseSharePrice;\n    uint8 public shareGrowthRate;\n\n    // Game control\n    uint32 public gameRound;\n    uint8 public currentSize;\n    uint16 public currentTurn;\n    uint256 public currentSharePrice;\n    bool public fundRaisingCountingDown;\n    uint256 public countingStartedTime;\n    _TEAM public currentTeam;\n\n    mapping(uint32 => mapping(address => User)) public userStatus;\n\n    string public myString = \"Hello World2\";\n    event StringUpdated();\n    event NewGameStarted(uint32 round, uint time);\n\n    constructor() public {\n        owner = msg.sender;\n        gameRound = 0;\n        configure(\n            INIT_SIZE,\n            INIT_RAISING_PERIOD,\n            INIT_TURN_PERIOD,\n            INIT_SHARE_PRICE,\n            INIT_SHARE_GROWTH_RATE\n        );\n        startNewGame();\n    }\n\n    function startNewGame() private {\n        gameRound = gameRound + 1;\n        currentSize = size;\n        currentTurn = 0;\n        currentSharePrice = baseSharePrice;\n        fundRaisingCountingDown = false;\n        currentTeam = _TEAM.NONE;\n        emit NewGameStarted(gameRound, now);\n    }\n\n    function set(string x) public {\n        myString = x;\n        emit StringUpdated();\n    }\n\n    function configure(\n        uint8 _size,\n        uint32 _fundRaisingPeriod,\n        uint32 _turnPeriod,\n        uint256 _baseSharePrice,\n        uint8 _shareGrowthRate\n    ) public onlyOwner {\n        size = _size;\n        fundRaisingPeriod = _fundRaisingPeriod;\n        turnPeriod = _turnPeriod;\n        baseSharePrice = _baseSharePrice;\n        shareGrowthRate = _shareGrowthRate;\n    }\n\n    modifier onlyOwner() {\n        require(msg.sender == owner, \"Only owner is allowed\");\n        _;\n    }\n}",
  "sourcePath": "/Users/chenwei/Desktop/github/Reversi_On_Smart_Contract_POC/contracts/Deversi.sol",
  "compiler": {
    "name": "solc",
    "version": "0.4.24+commit.e67f0147.Emscripten.clang"
  },
  "schemaVersion": "2.0.1",
  "updatedAt": "2018-10-06T10:42:45.025Z"
}