{
  "contractName": "Deversi",
  "abi": [
    {
      "constant": true,
      "inputs": [],
      "name": "turnPeriod",
      "outputs": [
        {
          "name": "",
          "type": "uint256"
        }
      ],
      "payable": false,
      "stateMutability": "view",
      "type": "function"
    },
    {
      "constant": true,
      "inputs": [
        {
          "name": "",
          "type": "uint256"
        },
        {
          "name": "",
          "type": "address"
        }
      ],
      "name": "userStatus",
      "outputs": [
        {
          "name": "team",
          "type": "uint8"
        },
        {
          "components": [
            {
              "name": "CAT",
              "type": "uint256"
            },
            {
              "name": "DOG",
              "type": "uint256"
            }
          ],
          "name": "ledger",
          "type": "tuple"
        },
        {
          "name": "isExist",
          "type": "bool"
        }
      ],
      "payable": false,
      "stateMutability": "view",
      "type": "function"
    },
    {
      "constant": true,
      "inputs": [],
      "name": "currentSharePrice",
      "outputs": [
        {
          "name": "",
          "type": "uint256"
        }
      ],
      "payable": false,
      "stateMutability": "view",
      "type": "function"
    },
    {
      "constant": true,
      "inputs": [],
      "name": "baseSharePrice",
      "outputs": [
        {
          "name": "",
          "type": "uint256"
        }
      ],
      "payable": false,
      "stateMutability": "view",
      "type": "function"
    },
    {
      "constant": true,
      "inputs": [],
      "name": "currentFundingStatus",
      "outputs": [
        {
          "name": "CAT",
          "type": "uint256"
        },
        {
          "name": "DOG",
          "type": "uint256"
        }
      ],
      "payable": false,
      "stateMutability": "view",
      "type": "function"
    },
    {
      "constant": true,
      "inputs": [],
      "name": "countingStartedTime",
      "outputs": [
        {
          "name": "",
          "type": "uint256"
        }
      ],
      "payable": false,
      "stateMutability": "view",
      "type": "function"
    },
    {
      "constant": true,
      "inputs": [],
      "name": "sharesPerProposal",
      "outputs": [
        {
          "name": "",
          "type": "uint256"
        }
      ],
      "payable": false,
      "stateMutability": "view",
      "type": "function"
    },
    {
      "constant": true,
      "inputs": [],
      "name": "currentSharePerProposal",
      "outputs": [
        {
          "name": "",
          "type": "uint256"
        }
      ],
      "payable": false,
      "stateMutability": "view",
      "type": "function"
    },
    {
      "constant": true,
      "inputs": [],
      "name": "inGame",
      "outputs": [
        {
          "name": "",
          "type": "bool"
        }
      ],
      "payable": false,
      "stateMutability": "view",
      "type": "function"
    },
    {
      "constant": true,
      "inputs": [],
      "name": "black",
      "outputs": [
        {
          "name": "",
          "type": "uint8"
        }
      ],
      "payable": false,
      "stateMutability": "view",
      "type": "function"
    },
    {
      "constant": true,
      "inputs": [],
      "name": "owner",
      "outputs": [
        {
          "name": "",
          "type": "address"
        }
      ],
      "payable": false,
      "stateMutability": "view",
      "type": "function"
    },
    {
      "constant": true,
      "inputs": [
        {
          "name": "",
          "type": "uint256"
        },
        {
          "name": "",
          "type": "uint256"
        },
        {
          "name": "",
          "type": "address"
        }
      ],
      "name": "proposals",
      "outputs": [
        {
          "name": "vote",
          "type": "uint256"
        },
        {
          "name": "time",
          "type": "uint256"
        },
        {
          "name": "isExist",
          "type": "bool"
        }
      ],
      "payable": false,
      "stateMutability": "view",
      "type": "function"
    },
    {
      "constant": true,
      "inputs": [],
      "name": "size",
      "outputs": [
        {
          "name": "",
          "type": "uint256"
        }
      ],
      "payable": false,
      "stateMutability": "view",
      "type": "function"
    },
    {
      "constant": true,
      "inputs": [],
      "name": "white",
      "outputs": [
        {
          "name": "",
          "type": "uint8"
        }
      ],
      "payable": false,
      "stateMutability": "view",
      "type": "function"
    },
    {
      "constant": true,
      "inputs": [],
      "name": "gameRound",
      "outputs": [
        {
          "name": "",
          "type": "uint256"
        }
      ],
      "payable": false,
      "stateMutability": "view",
      "type": "function"
    },
    {
      "constant": true,
      "inputs": [],
      "name": "shareGrowthRate",
      "outputs": [
        {
          "name": "",
          "type": "uint256"
        }
      ],
      "payable": false,
      "stateMutability": "view",
      "type": "function"
    },
    {
      "constant": true,
      "inputs": [],
      "name": "currentTeam",
      "outputs": [
        {
          "name": "",
          "type": "uint8"
        }
      ],
      "payable": false,
      "stateMutability": "view",
      "type": "function"
    },
    {
      "constant": true,
      "inputs": [],
      "name": "currentSize",
      "outputs": [
        {
          "name": "",
          "type": "uint256"
        }
      ],
      "payable": false,
      "stateMutability": "view",
      "type": "function"
    },
    {
      "constant": true,
      "inputs": [],
      "name": "currentTurn",
      "outputs": [
        {
          "name": "",
          "type": "uint256"
        }
      ],
      "payable": false,
      "stateMutability": "view",
      "type": "function"
    },
    {
      "constant": true,
      "inputs": [
        {
          "name": "",
          "type": "uint256"
        },
        {
          "name": "",
          "type": "uint256"
        }
      ],
      "name": "roundPropsedStatus",
      "outputs": [
        {
          "name": "",
          "type": "bool"
        }
      ],
      "payable": false,
      "stateMutability": "view",
      "type": "function"
    },
    {
      "constant": true,
      "inputs": [],
      "name": "currentShareGrowthRate",
      "outputs": [
        {
          "name": "",
          "type": "uint256"
        }
      ],
      "payable": false,
      "stateMutability": "view",
      "type": "function"
    },
    {
      "constant": true,
      "inputs": [
        {
          "name": "",
          "type": "uint256"
        },
        {
          "name": "",
          "type": "uint256"
        },
        {
          "name": "",
          "type": "uint256"
        }
      ],
      "name": "boardStatus",
      "outputs": [
        {
          "name": "",
          "type": "uint8"
        }
      ],
      "payable": false,
      "stateMutability": "view",
      "type": "function"
    },
    {
      "constant": true,
      "inputs": [],
      "name": "fundRaisingPeriod",
      "outputs": [
        {
          "name": "",
          "type": "uint256"
        }
      ],
      "payable": false,
      "stateMutability": "view",
      "type": "function"
    },
    {
      "constant": true,
      "inputs": [],
      "name": "fundRaisingCountingDown",
      "outputs": [
        {
          "name": "",
          "type": "bool"
        }
      ],
      "payable": false,
      "stateMutability": "view",
      "type": "function"
    },
    {
      "inputs": [],
      "payable": false,
      "stateMutability": "nonpayable",
      "type": "constructor"
    },
    {
      "anonymous": false,
      "inputs": [],
      "name": "funded",
      "type": "event"
    },
    {
      "anonymous": false,
      "inputs": [
        {
          "indexed": false,
          "name": "round",
          "type": "uint256"
        },
        {
          "indexed": false,
          "name": "time",
          "type": "uint256"
        }
      ],
      "name": "NewGameStarted",
      "type": "event"
    },
    {
      "anonymous": false,
      "inputs": [
        {
          "indexed": false,
          "name": "round",
          "type": "uint256"
        },
        {
          "indexed": false,
          "name": "time",
          "type": "uint256"
        }
      ],
      "name": "fundRaisingCountdown",
      "type": "event"
    },
    {
      "anonymous": false,
      "inputs": [
        {
          "indexed": true,
          "name": "round",
          "type": "uint256"
        },
        {
          "indexed": false,
          "name": "turn",
          "type": "uint256"
        },
        {
          "indexed": false,
          "name": "time",
          "type": "uint256"
        }
      ],
      "name": "turnStart",
      "type": "event"
    },
    {
      "anonymous": false,
      "inputs": [
        {
          "indexed": true,
          "name": "round",
          "type": "uint256"
        },
        {
          "indexed": false,
          "name": "turn",
          "type": "uint256"
        },
        {
          "indexed": false,
          "name": "proposer",
          "type": "address"
        }
      ],
      "name": "proposed",
      "type": "event"
    },
    {
      "anonymous": false,
      "inputs": [
        {
          "indexed": false,
          "name": "",
          "type": "uint256"
        },
        {
          "indexed": false,
          "name": "clearer",
          "type": "address"
        }
      ],
      "name": "gameCleared",
      "type": "event"
    },
    {
      "anonymous": false,
      "inputs": [
        {
          "indexed": false,
          "name": "roung",
          "type": "uint256"
        },
        {
          "indexed": false,
          "name": "turn",
          "type": "uint256"
        },
        {
          "indexed": false,
          "name": "proposer",
          "type": "address"
        },
        {
          "indexed": false,
          "name": "voter",
          "type": "address"
        },
        {
          "indexed": false,
          "name": "shares",
          "type": "uint256"
        }
      ],
      "name": "voted",
      "type": "event"
    },
    {
      "constant": false,
      "inputs": [],
      "name": "startNewGame",
      "outputs": [],
      "payable": false,
      "stateMutability": "nonpayable",
      "type": "function"
    },
    {
      "constant": false,
      "inputs": [
        {
          "name": "teamChoosen",
          "type": "uint8"
        }
      ],
      "name": "funding",
      "outputs": [],
      "payable": true,
      "stateMutability": "payable",
      "type": "function"
    },
    {
      "constant": false,
      "inputs": [],
      "name": "propose",
      "outputs": [],
      "payable": true,
      "stateMutability": "payable",
      "type": "function"
    },
    {
      "constant": false,
      "inputs": [
        {
          "name": "round",
          "type": "uint256"
        },
        {
          "name": "turn",
          "type": "uint256"
        },
        {
          "name": "proposer",
          "type": "address"
        }
      ],
      "name": "vote",
      "outputs": [],
      "payable": true,
      "stateMutability": "payable",
      "type": "function"
    },
    {
      "constant": false,
      "inputs": [],
      "name": "clearGame",
      "outputs": [],
      "payable": false,
      "stateMutability": "nonpayable",
      "type": "function"
    },
    {
      "constant": true,
      "inputs": [],
      "name": "getBoardStatus",
      "outputs": [
        {
          "name": "",
          "type": "uint8[]"
        }
      ],
      "payable": false,
      "stateMutability": "view",
      "type": "function"
    },
    {
      "constant": true,
      "inputs": [
        {
          "name": "addr",
          "type": "address"
        }
      ],
      "name": "getUserStatus",
      "outputs": [
        {
          "name": "isExist",
          "type": "bool"
        },
        {
          "name": "team",
          "type": "uint8"
        },
        {
          "name": "CAT",
          "type": "uint256"
        },
        {
          "name": "DOG",
          "type": "uint256"
        }
      ],
      "payable": false,
      "stateMutability": "view",
      "type": "function"
    },
    {
      "constant": true,
      "inputs": [],
      "name": "getTeamFundingStatus",
      "outputs": [
        {
          "name": "CAT",
          "type": "uint256"
        },
        {
          "name": "DOG",
          "type": "uint256"
        }
      ],
      "payable": false,
      "stateMutability": "view",
      "type": "function"
    },
    {
      "constant": true,
      "inputs": [
        {
          "name": "round",
          "type": "uint256"
        },
        {
          "name": "turn",
          "type": "uint256"
        },
        {
          "name": "proposer",
          "type": "address"
        }
      ],
      "name": "getProposalStatus",
      "outputs": [
        {
          "name": "vote",
          "type": "uint256"
        },
        {
          "name": "time",
          "type": "uint256"
        }
      ],
      "payable": false,
      "stateMutability": "view",
      "type": "function"
    },
    {
      "constant": false,
      "inputs": [
        {
          "name": "_size",
          "type": "uint256"
        },
        {
          "name": "_fundRaisingPeriod",
          "type": "uint256"
        },
        {
          "name": "_turnPeriod",
          "type": "uint256"
        },
        {
          "name": "_baseSharePrice",
          "type": "uint256"
        },
        {
          "name": "_shareGrowthRate",
          "type": "uint256"
        },
        {
          "name": "_sharesPerProposal",
          "type": "uint256"
        }
      ],
      "name": "configure",
      "outputs": [],
      "payable": false,
      "stateMutability": "nonpayable",
      "type": "function"
    }
  ],
  "bytecode": "0x60806040523480156200001157600080fd5b5033600160006101000a81548173ffffffffffffffffffffffffffffffffffffffff021916908373ffffffffffffffffffffffffffffffffffffffff16021790555060006008819055506000600760006101000a81548160ff021916908315150217905550620000a16008600a603c66038d7ea4c680006005600a620000c0640100000000026401000000009004565b620000ba620001b8640100000000026401000000009004565b62000766565b600160009054906101000a900473ffffffffffffffffffffffffffffffffffffffff1673ffffffffffffffffffffffffffffffffffffffff163373ffffffffffffffffffffffffffffffffffffffff1614151562000186576040517f08c379a00000000000000000000000000000000000000000000000000000000081526004018080602001828103825260158152602001807f4f6e6c79206f776e657220697320616c6c6f776564000000000000000000000081525060200191505060405180910390fd5b856000819055508460028190555083600381905550826004819055508160058190555080600681905550505050505050565b60001515600760009054906101000a900460ff16151514151562000244576040517f08c379a00000000000000000000000000000000000000000000000000000000081526004018080602001828103825260108152602001807f67616d6520697320676f696e67206f6e0000000000000000000000000000000081525060200191505060405180910390fd5b6001600854016008819055506000546009819055506000600a81905550600454600b81905550600654600c81905550600554600d81905550600a6006819055506000601060006101000a81548160ff02191690831515021790555060006011819055506000601260006101000a81548160ff02191690836002811115620002c757fe5b02179055506000601260016101000a81548160ff02191690836002811115620002ec57fe5b02179055506000601260026101000a81548160ff021916908360028111156200031157fe5b02179055506000600e600001819055506000600e600101819055506001600760006101000a81548160ff02191690831515021790555060016013600060085481526020019081526020016000206000600160026009548115156200037157fe5b040381526020019081526020016000206000600160026009548115156200039457fe5b0403815260200190815260200160002060006101000a81548160ff02191690836004811115620003c057fe5b0217905550600160136000600854815260200190815260200160002060006002600954811515620003ed57fe5b048152602001908152602001600020600060026009548115156200040d57fe5b04815260200190815260200160002060006101000a81548160ff021916908360048111156200043857fe5b02179055506002601360006008548152602001908152602001600020600060026009548115156200046557fe5b0481526020019081526020016000206000600160026009548115156200048757fe5b0403815260200190815260200160002060006101000a81548160ff02191690836004811115620004b357fe5b02179055506002601360006008548152602001908152602001600020600060016002600954811515620004e257fe5b04038152602001908152602001600020600060026009548115156200050357fe5b04815260200190815260200160002060006101000a81548160ff021916908360048111156200052e57fe5b021790555060036013600060085481526020019081526020016000206000600160026009548115156200055d57fe5b040181526020019081526020016000206000600160026009548115156200058057fe5b0403815260200190815260200160002060006101000a81548160ff02191690836004811115620005ac57fe5b0217905550600360136000600854815260200190815260200160002060006002600954811515620005d957fe5b0481526020019081526020016000206000600280600954811515620005fa57fe5b0403815260200190815260200160002060006101000a81548160ff021916908360048111156200062657fe5b021790555060036013600060085481526020019081526020016000206000600160026009548115156200065557fe5b040381526020019081526020016000206000600160026009548115156200067857fe5b0401815260200190815260200160002060006101000a81548160ff02191690836004811115620006a457fe5b021790555060036013600060085481526020019081526020016000206000600280600954811515620006d257fe5b0403815260200190815260200160002060006002600954811515620006f357fe5b04815260200190815260200160002060006101000a81548160ff021916908360048111156200071e57fe5b02179055507f1a92f8260fbb9503d4da4de0b7753e04745a81b9a56dafcd9e51a7b828c16c7360085442604051808381526020018281526020019250505060405180910390a1565b612e0d80620007766000396000f3006080604052600436106101ac576000357c0100000000000000000000000000000000000000000000000000000000900463ffffffff1680630b89db47146101b157806316ab1010146101e35780631aca53571461020e57806328a795761461028f57806334db3b9c146102ba57806337d319ad146102e557806345077a8614610344578063482d51e01461037657806350d915831461038d57806358052a0e146103d75780635874d420146104025780635de17e671461042d57806365ca0d5214610458578063794f4fdc146104c45780638b8fd3bd146104f35780638da5cb5b1461052c57806393c45f3714610583578063949d225d14610600578063a08110741461062b578063a5f9b5c214610664578063b21015f11461068f578063ba1652db146106ba578063bda1504b146106f3578063c198f8ba1461071e578063c7f166dc14610728578063deb612861461079a578063e3254f7d146107c5578063e75c8bfe14610814578063ea0d5dcd1461083f578063f0c67a84146108bd578063f131a7ae146108e0578063f8ee700c146108f7578063fc71852a1461095a578063fffb133a14610985575b600080fd5b3480156101bd57600080fd5b506101c66109b4565b604051808381526020018281526020019250505060405180910390f35b3480156101ef57600080fd5b506101f86109d1565b6040518082815260200191505060405180910390f35b34801561021a57600080fd5b5061025960048036038101908080359060200190929190803573ffffffffffffffffffffffffffffffffffffffff1690602001909291905050506109d7565b6040518084600281111561026957fe5b60ff16815260200183815260200182151515158152602001935050505060405180910390f35b34801561029b57600080fd5b506102a4610a46565b6040518082815260200191505060405180910390f35b3480156102c657600080fd5b506102cf610a4c565b6040518082815260200191505060405180910390f35b3480156102f157600080fd5b50610342600480360381019080803590602001909291908035906020019092919080359060200190929190803590602001909291908035906020019092919080359060200190929190505050610a52565b005b34801561035057600080fd5b50610359610b49565b604051808381526020018281526020019250505060405180910390f35b34801561038257600080fd5b5061038b610b5b565b005b6103d56004803603810190808035906020019092919080359060200190929190803573ffffffffffffffffffffffffffffffffffffffff1690602001909291905050506110ed565b005b3480156103e357600080fd5b506103ec611704565b6040518082815260200191505060405180910390f35b34801561040e57600080fd5b5061041761170a565b6040518082815260200191505060405180910390f35b34801561043957600080fd5b50610442611710565b6040518082815260200191505060405180910390f35b34801561046457600080fd5b5061046d611716565b6040518080602001828103825283818151815260200191508051906020019060200280838360005b838110156104b0578082015181840152602081019050610495565b505050509050019250505060405180910390f35b3480156104d057600080fd5b506104d9611814565b604051808215151515815260200191505060405180910390f35b3480156104ff57600080fd5b50610508611827565b6040518082600281111561051857fe5b60ff16815260200191505060405180910390f35b34801561053857600080fd5b5061054161183a565b604051808273ffffffffffffffffffffffffffffffffffffffff1673ffffffffffffffffffffffffffffffffffffffff16815260200191505060405180910390f35b34801561058f57600080fd5b506105d86004803603810190808035906020019092919080359060200190929190803573ffffffffffffffffffffffffffffffffffffffff169060200190929190505050611860565b6040518084815260200183815260200182151515158152602001935050505060405180910390f35b34801561060c57600080fd5b506106156118b1565b6040518082815260200191505060405180910390f35b34801561063757600080fd5b506106406118b7565b6040518082600281111561065057fe5b60ff16815260200191505060405180910390f35b34801561067057600080fd5b506106796118ca565b6040518082815260200191505060405180910390f35b34801561069b57600080fd5b506106a46118d0565b6040518082815260200191505060405180910390f35b3480156106c657600080fd5b506106cf6118d6565b604051808260028111156106df57fe5b60ff16815260200191505060405180910390f35b3480156106ff57600080fd5b506107086118e9565b6040518082815260200191505060405180910390f35b6107266118ef565b005b34801561073457600080fd5b5061077d6004803603810190808035906020019092919080359060200190929190803573ffffffffffffffffffffffffffffffffffffffff169060200190929190505050611ce1565b604051808381526020018281526020019250505060405180910390f35b3480156107a657600080fd5b506107af611d7d565b6040518082815260200191505060405180910390f35b3480156107d157600080fd5b506107fa6004803603810190808035906020019092919080359060200190929190505050611d83565b604051808215151515815260200191505060405180910390f35b34801561082057600080fd5b50610829611db2565b6040518082815260200191505060405180910390f35b34801561084b57600080fd5b50610880600480360381019080803573ffffffffffffffffffffffffffffffffffffffff169060200190929190505050611db8565b604051808515151515815260200184600281111561089a57fe5b60ff16815260200183815260200182815260200194505050505060405180910390f35b6108de600480360381019080803560ff169060200190929190505050611f51565b005b3480156108ec57600080fd5b506108f56125c3565b005b34801561090357600080fd5b506109366004803603810190808035906020019092919080359060200190929190803590602001909291905050506126d8565b6040518082600481111561094657fe5b60ff16815260200191505060405180910390f35b34801561096657600080fd5b5061096f612714565b6040518082815260200191505060405180910390f35b34801561099157600080fd5b5061099a61271a565b604051808215151515815260200191505060405180910390f35b600080600e600001549150600e6001015490508181915091509091565b60035481565b6014602052816000526040600020602052806000526040600020600091509150508060000160009054906101000a900460ff16908060010160408051908101604052908160008201548152602001600182015481525050908060030160009054906101000a900460ff16905083565b600b5481565b60045481565b600160009054906101000a900473ffffffffffffffffffffffffffffffffffffffff1673ffffffffffffffffffffffffffffffffffffffff163373ffffffffffffffffffffffffffffffffffffffff16141515610b17576040517f08c379a00000000000000000000000000000000000000000000000000000000081526004018080602001828103825260158152602001807f4f6e6c79206f776e657220697320616c6c6f776564000000000000000000000081525060200191505060405180910390fd5b856000819055508460028190555083600381905550826004819055508160058190555080600681905550505050505050565b600e8060000154908060010154905082565b60001515600760009054906101000a900460ff161515141515610be6576040517f08c379a00000000000000000000000000000000000000000000000000000000081526004018080602001828103825260108152602001807f67616d6520697320676f696e67206f6e0000000000000000000000000000000081525060200191505060405180910390fd5b6001600854016008819055506000546009819055506000600a81905550600454600b81905550600654600c81905550600554600d81905550600a6006819055506000601060006101000a81548160ff02191690831515021790555060006011819055506000601260006101000a81548160ff02191690836002811115610c6857fe5b02179055506000601260016101000a81548160ff02191690836002811115610c8c57fe5b02179055506000601260026101000a81548160ff02191690836002811115610cb057fe5b02179055506000600e600001819055506000600e600101819055506001600760006101000a81548160ff0219169083151502179055506001601360006008548152602001908152602001600020600060016002600954811515610d0f57fe5b04038152602001908152602001600020600060016002600954811515610d3157fe5b0403815260200190815260200160002060006101000a81548160ff02191690836004811115610d5c57fe5b0217905550600160136000600854815260200190815260200160002060006002600954811515610d8857fe5b04815260200190815260200160002060006002600954811515610da757fe5b04815260200190815260200160002060006101000a81548160ff02191690836004811115610dd157fe5b0217905550600260136000600854815260200190815260200160002060006002600954811515610dfd57fe5b048152602001908152602001600020600060016002600954811515610e1e57fe5b0403815260200190815260200160002060006101000a81548160ff02191690836004811115610e4957fe5b02179055506002601360006008548152602001908152602001600020600060016002600954811515610e7757fe5b0403815260200190815260200160002060006002600954811515610e9757fe5b04815260200190815260200160002060006101000a81548160ff02191690836004811115610ec157fe5b02179055506003601360006008548152602001908152602001600020600060016002600954811515610eef57fe5b04018152602001908152602001600020600060016002600954811515610f1157fe5b0403815260200190815260200160002060006101000a81548160ff02191690836004811115610f3c57fe5b0217905550600360136000600854815260200190815260200160002060006002600954811515610f6857fe5b0481526020019081526020016000206000600280600954811515610f8857fe5b0403815260200190815260200160002060006101000a81548160ff02191690836004811115610fb357fe5b02179055506003601360006008548152602001908152602001600020600060016002600954811515610fe157fe5b0403815260200190815260200160002060006001600260095481151561100357fe5b0401815260200190815260200160002060006101000a81548160ff0219169083600481111561102e57fe5b02179055506003601360006008548152602001908152602001600020600060028060095481151561105b57fe5b040381526020019081526020016000206000600260095481151561107b57fe5b04815260200190815260200160002060006101000a81548160ff021916908360048111156110a557fe5b02179055507f1a92f8260fbb9503d4da4de0b7753e04745a81b9a56dafcd9e51a7b828c16c7360085442604051808381526020018281526020019250505060405180910390a1565b60008060008060011515600760009054906101000a900460ff16151514151561117e576040517f08c379a00000000000000000000000000000000000000000000000000000000081526004018080602001828103825260128152602001807f4e6f7420696e2067616d6520706572696f64000000000000000000000000000081525060200191505060405180910390fd5b866008541415156111f7576040517f08c379a00000000000000000000000000000000000000000000000000000000081526004018080602001828103825260148152602001807f6e6f7420696e2063757272656e7420726f756e6400000000000000000000000081525060200191505060405180910390fd5b6000600a54111515611271576040517f08c379a000000000000000000000000000000000000000000000000000000000815260040180806020018281038252600f8152602001807f6e6f74207965742073746172746564000000000000000000000000000000000081525060200191505060405180910390fd5b600a54861415156112ea576040517f08c379a00000000000000000000000000000000000000000000000000000000081526004018080602001828103825260138152602001807f4e6f7420696e2063757272656e74207475726e0000000000000000000000000081525060200191505060405180910390fd5b600254601154019350600354600a5402840192506003548303915082421080156113145750814210155b1515611388576040517f08c379a00000000000000000000000000000000000000000000000000000000081526004018080602001828103825260138152602001807f6e6f7420696e20726f756e6420706572696f640000000000000000000000000081525060200191505060405180910390fd5b60166000888152602001908152602001600020600087815260200190815260200160002060008673ffffffffffffffffffffffffffffffffffffffff1673ffffffffffffffffffffffffffffffffffffffff16815260200190815260200160002060020160009054906101000a900460ff161561168d57600b543481151561140c57fe5b0490508060166000898152602001908152602001600020600088815260200190815260200160002060008773ffffffffffffffffffffffffffffffffffffffff1673ffffffffffffffffffffffffffffffffffffffff1681526020019081526020016000206000016000828254019250508190555060028081111561148d57fe5b601260009054906101000a900460ff1660028111156114a857fe5b141561152c578060146000600854815260200190815260200160002060003373ffffffffffffffffffffffffffffffffffffffff1673ffffffffffffffffffffffffffffffffffffffff1681526020019081526020016000206001016000016000828254019250508190555080600e600001600082825401925050819055506115d5565b6001600281111561153957fe5b601260009054906101000a900460ff16600281111561155457fe5b14156115d4578060146000600854815260200190815260200160002060003373ffffffffffffffffffffffffffffffffffffffff1673ffffffffffffffffffffffffffffffffffffffff1681526020019081526020016000206001016001016000828254019250508190555080600e600101600082825401925050819055505b5b7fd385cfb87eeb4ff7958bbec45d17d99a4b1bcdf1237c6257b96cdce3177f3c1c600854600a54873385604051808681526020018581526020018473ffffffffffffffffffffffffffffffffffffffff1673ffffffffffffffffffffffffffffffffffffffff1681526020018373ffffffffffffffffffffffffffffffffffffffff1673ffffffffffffffffffffffffffffffffffffffff1681526020018281526020019550505050505060405180910390a16116fb565b6040517f08c379a00000000000000000000000000000000000000000000000000000000081526004018080602001828103825260128152602001807f70726f706f73616c206e6f74206578697374000000000000000000000000000081525060200191505060405180910390fd5b50505050505050565b60115481565b60065481565b600c5481565b606080600080600954600954026040519080825280602002602001820160405280156117515781602001602082028038833980820191505090505b509250600091505b60095482101561180b57600090505b6009548110156117fe576013600060085481526020019081526020016000206000838152602001908152602001600020600082815260200190815260200160002060009054906101000a900460ff1683826009548502018151811015156117cb57fe5b9060200190602002019060048111156117e057fe5b908160048111156117ed57fe5b815250508080600101915050611768565b8180600101925050611759565b82935050505090565b600760009054906101000a900460ff1681565b601260019054906101000a900460ff1681565b600160009054906101000a900473ffffffffffffffffffffffffffffffffffffffff1681565b601660205282600052604060002060205281600052604060002060205280600052604060002060009250925050508060000154908060010154908060020160009054906101000a900460ff16905083565b60005481565b601260029054906101000a900460ff1681565b60085481565b60055481565b601260009054906101000a900460ff1681565b60095481565b60008060008060011515600760009054906101000a900460ff161515141515611980576040517f08c379a00000000000000000000000000000000000000000000000000000000081526004018080602001828103825260128152602001807f4e6f7420696e2067616d6520706572696f64000000000000000000000000000081525060200191505060405180910390fd5b60025460115401935060011515601060009054906101000a900460ff1615151480156119ab57508342115b1515611a1f576040517f08c379a000000000000000000000000000000000000000000000000000000000815260040180806020018281038252600f8152602001807f6e6f74207965742073746172746564000000000000000000000000000000000081525060200191505060405180910390fd5b6000600a541415611b29576001600a60008282540192505081905550600e60010154600e60000154101515611a9b576002601260006101000a81548160ff02191690836002811115611a6d57fe5b02179055506002601260016101000a81548160ff02191690836002811115611a9157fe5b0217905550611ae4565b6001601260006101000a81548160ff02191690836002811115611aba57fe5b02179055506001601260026101000a81548160ff02191690836002811115611ade57fe5b02179055505b6008547fa74e8fdd0d1b2a47375925ad4caffed137ae7d87fbae14898bfae105c8c1a39f600a5442604051808381526020018281526020019250505060405180910390a25b600354600a5402840192506003548303915082421115611cbd57600115156015600060085481526020019081526020016000206000600a54815260200190815260200160002060009054906101000a900460ff161515141515611c1a576040517f08c379a00000000000000000000000000000000000000000000000000000000081526004018080602001828103825260398152602001807f47616d652073686f756c6420626520636c65617265642062656361757365207081526020017f726576696f7573207475726e2069736e277420706c617965640000000000000081525060400191505060405180910390fd5b6003548301905080421115611c97576040517f08c379a00000000000000000000000000000000000000000000000000000000081526004018080602001828103825260098152602001807f47616d65206f766572000000000000000000000000000000000000000000000081525060200191505060405180910390fd5b6001600a60008282540192505081905550611cb061272d565b611cb86127cb565b611cdb565b8242108015611ccc5750814210155b15611cda57611cd96127cb565b5b5b50505050565b600080600060166000878152602001908152602001600020600086815260200190815260200160002060008573ffffffffffffffffffffffffffffffffffffffff1673ffffffffffffffffffffffffffffffffffffffff16815260200190815260200160002090508060020160009054906101000a900460ff1615611d73578060000154816001015492509250611d74565b5b50935093915050565b600a5481565b60156020528160005260406000206020528060005260406000206000915091509054906101000a900460ff1681565b600d5481565b60008060008060146000600854815260200190815260200160002060008673ffffffffffffffffffffffffffffffffffffffff1673ffffffffffffffffffffffffffffffffffffffff16815260200190815260200160002060030160009054906101000a900460ff16935060146000600854815260200190815260200160002060008673ffffffffffffffffffffffffffffffffffffffff1673ffffffffffffffffffffffffffffffffffffffff16815260200190815260200160002060000160009054906101000a900460ff16925060146000600854815260200190815260200160002060008673ffffffffffffffffffffffffffffffffffffffff1673ffffffffffffffffffffffffffffffffffffffff16815260200190815260200160002060010160000154915060146000600854815260200190815260200160002060008673ffffffffffffffffffffffffffffffffffffffff1673ffffffffffffffffffffffffffffffffffffffff1681526020019081526020016000206001016001015490508383838393509350935093509193509193565b600060011515600760009054906101000a900460ff161515141515611fde576040517f08c379a00000000000000000000000000000000000000000000000000000000081526004018080602001828103825260128152602001807f4e6f7420696e2067616d6520706572696f64000000000000000000000000000081525060200191505060405180910390fd5b6000600a5414151561207e576040517f08c379a00000000000000000000000000000000000000000000000000000000081526004018080602001828103825260218152602001807f66756e64696e67206973206f6e6c7920616c6c6f776564206174207475726e2081526020017f300000000000000000000000000000000000000000000000000000000000000081525060400191505060405180910390fd5b6000341115156120f6576040517f08c379a000000000000000000000000000000000000000000000000000000000815260040180806020018281038252600e8152602001807f46756e647320726571756972656400000000000000000000000000000000000081525060200191505060405180910390fd5b601060009054906101000a900460ff161561218a57600254601154014211151515612189576040517f08c379a000000000000000000000000000000000000000000000000000000000815260040180806020018281038252600f8152602001807f66756e64696e67206973206f766572000000000000000000000000000000000081525060200191505060405180910390fd5b5b6001151560146000600854815260200190815260200160002060003373ffffffffffffffffffffffffffffffffffffffff1673ffffffffffffffffffffffffffffffffffffffff16815260200190815260200160002060030160009054906101000a900460ff16151514151515612269576040517f08c379a000000000000000000000000000000000000000000000000000000000815260040180806020018281038252600f8152602001807f416c72656164792066756e64656421000000000000000000000000000000000081525060200191505060405180910390fd5b600b543481151561227657fe5b04905060028081111561228557fe5b82600281111561229157fe5b141561230c578060146000600854815260200190815260200160002060003373ffffffffffffffffffffffffffffffffffffffff1673ffffffffffffffffffffffffffffffffffffffff1681526020019081526020016000206001016000018190555080600e6000016000828254019250508190555061240f565b6001600281111561231957fe5b82600281111561232557fe5b14156123a0578060146000600854815260200190815260200160002060003373ffffffffffffffffffffffffffffffffffffffff1673ffffffffffffffffffffffffffffffffffffffff1681526020019081526020016000206001016001018190555080600e6001016000828254019250508190555061240e565b6040517f08c379a000000000000000000000000000000000000000000000000000000000815260040180806020018281038252600c8152602001807f496e76616c6964207465616d000000000000000000000000000000000000000081525060200191505060405180910390fd5b5b8160146000600854815260200190815260200160002060003373ffffffffffffffffffffffffffffffffffffffff1673ffffffffffffffffffffffffffffffffffffffff16815260200190815260200160002060000160006101000a81548160ff0219169083600281111561248057fe5b0217905550600160146000600854815260200190815260200160002060003373ffffffffffffffffffffffffffffffffffffffff1673ffffffffffffffffffffffffffffffffffffffff16815260200190815260200160002060030160006101000a81548160ff0219169083151502179055507ff3a504f28a34fdf555994a3bdfd3dc29f822e8684a9ef01001afb738cc3cdd0a60405160405180910390a160001515601060009054906101000a900460ff16151514156125bf576000600e6000015411801561255557506000600e60010154115b156125be576001601060006101000a81548160ff021916908315150217905550426011819055507f61f3502e7542b5b55e9bb0ecc3c768c9f845c89d8e9bb9f773ef927c56ae159360085442604051808381526020018281526020019250505060405180910390a15b5b5050565b60011515600760009054906101000a900460ff16151514151561264e576040517f08c379a00000000000000000000000000000000000000000000000000000000081526004018080602001828103825260128152602001807f4e6f7420696e2067616d6520706572696f64000000000000000000000000000081525060200191505060405180910390fd5b6000600760006101000a81548160ff0219169083151502179055507fb6cb2ccc2ed1ccdd9dda64fe4d291deb23baaf807b138d00c9e4e3922aba934e60085433604051808381526020018273ffffffffffffffffffffffffffffffffffffffff1673ffffffffffffffffffffffffffffffffffffffff1681526020019250505060405180910390a1565b6013602052826000526040600020602052816000526040600020602052806000526040600020600092509250509054906101000a900460ff1681565b60025481565b601060009054906101000a900460ff1681565b60028081111561273957fe5b601260009054906101000a900460ff16600281111561275457fe5b14612760576002612763565b60015b601260006101000a81548160ff0219169083600281111561278057fe5b02179055506008547fa74e8fdd0d1b2a47375925ad4caffed137ae7d87fbae14898bfae105c8c1a39f600a5442604051808381526020018281526020019250505060405180910390a2565b60008060146000600854815260200190815260200160002060003373ffffffffffffffffffffffffffffffffffffffff1673ffffffffffffffffffffffffffffffffffffffff1681526020019081526020016000209150601260009054906101000a900460ff16600281111561283d57fe5b8260000160009054906101000a900460ff16600281111561285a57fe5b1415156128cf576040517f08c379a00000000000000000000000000000000000000000000000000000000081526004018080602001828103825260188152602001807f596f7520617265206e6f74206f6e2074686973207465616d000000000000000081525060200191505060405180910390fd5b60016015600060085481526020019081526020016000206000600a54815260200190815260200160002060006101000a81548160ff021916908315150217905550600115156016600060085481526020019081526020016000206000600a54815260200190815260200160002060003373ffffffffffffffffffffffffffffffffffffffff1673ffffffffffffffffffffffffffffffffffffffff16815260200190815260200160002060020160009054906101000a900460ff161515141515612d4957600b54348115156129a057fe5b0490506006548110151515612a1d576040517f08c379a000000000000000000000000000000000000000000000000000000000815260040180806020018281038252600f8152602001807f4e6f7420656e6f7567682066756e64000000000000000000000000000000000081525060200191505060405180910390fd5b60065481036016600060085481526020019081526020016000206000600a54815260200190815260200160002060003373ffffffffffffffffffffffffffffffffffffffff1673ffffffffffffffffffffffffffffffffffffffff1681526020019081526020016000206000018190555060016016600060085481526020019081526020016000206000600a54815260200190815260200160002060003373ffffffffffffffffffffffffffffffffffffffff1673ffffffffffffffffffffffffffffffffffffffff16815260200190815260200160002060020160006101000a81548160ff021916908315150217905550426016600060085481526020019081526020016000206000600a54815260200190815260200160002060003373ffffffffffffffffffffffffffffffffffffffff1673ffffffffffffffffffffffffffffffffffffffff16815260200190815260200160002060010181905550600280811115612b8857fe5b8260000160009054906101000a900460ff166002811115612ba557fe5b1415612c29578060146000600854815260200190815260200160002060003373ffffffffffffffffffffffffffffffffffffffff1673ffffffffffffffffffffffffffffffffffffffff1681526020019081526020016000206001016000016000828254019250508190555080600e60000160008282540192505081905550612cd4565b60016002811115612c3657fe5b8260000160009054906101000a900460ff166002811115612c5357fe5b1415612cd3578060146000600854815260200190815260200160002060003373ffffffffffffffffffffffffffffffffffffffff1673ffffffffffffffffffffffffffffffffffffffff1681526020019081526020016000206001016001016000828254019250508190555080600e600101600082825401925050819055505b5b6008547fbc322ce4a4c3627f22dcde611da2f41356c8b8888e6b73f7e00da80b8be6f8ed600a5433604051808381526020018273ffffffffffffffffffffffffffffffffffffffff1673ffffffffffffffffffffffffffffffffffffffff1681526020019250505060405180910390a2612ddd565b6040517f08c379a00000000000000000000000000000000000000000000000000000000081526004018080602001828103825260238152602001807f596f7527766520616c72656164792070726f7073656420696e2074686973207481526020017f75726e000000000000000000000000000000000000000000000000000000000081525060400191505060405180910390fd5b50505600a165627a7a72305820a464f211fb51e8bc961819d7542fdcdb134d563a73a821a218290868d7a28b740029",
  "source": "pragma solidity ^0.4.24;\n\ncontract Deversi {\n\n    enum _TEAM { NONE, DOG, CAT }\n    enum _GRID_STATUS { EMPTY, BLACK, WHITE, AVAILABLE, PROPOSED }\n\n    struct Ledger {\n        uint256 CAT;\n        uint256 DOG;\n    }\n    struct User {\n        _TEAM team;\n        Ledger ledger;\n        bool isExist;\n    }\n    struct Proposal {\n        uint256 vote;\n        uint256 time;\n        bool isExist;\n    }\n\n    // System config\n    uint256 public size; // board size\n    address public owner;\n    uint256 public fundRaisingPeriod;\n    uint256 public turnPeriod;\n    uint256 public baseSharePrice;\n    uint256 public shareGrowthRate;\n    uint256 public sharesPerProposal;\n\n    // Game control\n    bool public inGame;\n    uint256 public gameRound;\n    uint256 public currentSize;\n    uint256 public currentTurn;\n    uint256 public currentSharePrice;\n    uint256 public currentSharePerProposal;\n    uint256 public currentShareGrowthRate;\n    Ledger public currentFundingStatus;\n    bool public fundRaisingCountingDown;\n    uint256 public countingStartedTime;\n    _TEAM public currentTeam;\n    _TEAM public black;\n    _TEAM public white;\n\n    // mapping(uint256 => _GRID_STATUS[][]) public boardStatus;\n    mapping(uint256 => mapping(uint256 => mapping(uint256 => _GRID_STATUS))) public boardStatus;\n    mapping(uint256 => mapping(address => User)) public userStatus;\n    mapping(uint256 => mapping(uint => bool)) public roundPropsedStatus;\n    mapping(uint256 => mapping(uint256 => mapping(address => Proposal))) public proposals;\n\n    event funded();\n    event NewGameStarted(uint256 round, uint time);\n    event fundRaisingCountdown(uint256 round, uint time);\n    event turnStart(uint256 indexed round, uint256 turn, uint time);\n    event proposed(uint256 indexed round, uint256 turn, address proposer);\n    event gameCleared(uint256, address clearer);\n    event voted(uint roung, uint turn, address proposer, address voter, uint256 shares);\n\n    constructor() public {\n        owner = msg.sender;\n        gameRound = 0;\n        inGame = false;\n        configure(\n            8, // size\n            10, // funding period\n            60,  // turn period\n            1000000000000000,\n            5,\n            10\n        );\n        startNewGame();\n    }\n\n    function startNewGame() public {\n        require(inGame == false, \"game is going on\");\n        gameRound = gameRound + 1;\n        currentSize = size;\n        currentTurn = 0;\n        currentSharePrice = baseSharePrice;\n        currentSharePerProposal = sharesPerProposal;\n        currentShareGrowthRate = shareGrowthRate;\n        sharesPerProposal = 10;\n        fundRaisingCountingDown = false;\n        countingStartedTime = 0;\n        currentTeam = _TEAM.NONE;\n        black = _TEAM.NONE;\n        white = _TEAM.NONE;\n        currentFundingStatus.CAT = 0;\n        currentFundingStatus.DOG = 0;\n        inGame = true;\n        boardStatus[gameRound][(currentSize / 2) - 1][(currentSize / 2) - 1] = _GRID_STATUS.BLACK;\n        boardStatus[gameRound][(currentSize / 2)][(currentSize / 2)] = _GRID_STATUS.BLACK;\n        boardStatus[gameRound][(currentSize / 2)][(currentSize / 2) - 1] = _GRID_STATUS.WHITE;\n        boardStatus[gameRound][(currentSize / 2) - 1][(currentSize / 2)] = _GRID_STATUS.WHITE;\n\n        boardStatus[gameRound][(currentSize / 2) + 1][(currentSize / 2) - 1] = _GRID_STATUS.AVAILABLE;\n        boardStatus[gameRound][(currentSize / 2)][(currentSize / 2) - 2] = _GRID_STATUS.AVAILABLE;\n\n        boardStatus[gameRound][(currentSize / 2) - 1][(currentSize / 2) + 1] = _GRID_STATUS.AVAILABLE;\n        boardStatus[gameRound][(currentSize / 2) - 2][(currentSize / 2)] = _GRID_STATUS.AVAILABLE;\n        emit NewGameStarted(gameRound, now);\n    }\n\n    function funding(_TEAM teamChoosen) public payable onlyInGame {\n        require(currentTurn == 0, \"funding is only allowed at turn 0\");\n        require(msg.value > 0, \"Funds required\");\n        if (fundRaisingCountingDown) {\n            require(now <= (countingStartedTime + fundRaisingPeriod), \"funding is over\");\n        }\n        require(userStatus[gameRound][msg.sender].isExist != true, \"Already funded!\");\n\n        uint shareAmount = msg.value / currentSharePrice;\n        if (teamChoosen == _TEAM.CAT) {\n            userStatus[gameRound][msg.sender].ledger.CAT = shareAmount;\n            currentFundingStatus.CAT += shareAmount;\n        } else if (teamChoosen == _TEAM.DOG) {\n            userStatus[gameRound][msg.sender].ledger.DOG = shareAmount;\n            currentFundingStatus.DOG += shareAmount;\n        } else {\n            revert(\"Invalid team\");\n        }\n        userStatus[gameRound][msg.sender].team = teamChoosen;\n        userStatus[gameRound][msg.sender].isExist = true;\n        emit funded();\n        if (fundRaisingCountingDown == false) {\n            if (\n                (currentFundingStatus.CAT > 0) &&\n                (currentFundingStatus.DOG > 0)\n            ) {\n                fundRaisingCountingDown = true;\n                countingStartedTime = now;\n                emit fundRaisingCountdown(gameRound, now);\n            }\n        }\n    }\n\n    function propose() public payable onlyInGame {\n        uint256 gameStartTime = countingStartedTime + fundRaisingPeriod;\n        require((fundRaisingCountingDown == true) && (now > gameStartTime), \"not yet started\");\n        if (currentTurn == 0) {\n            currentTurn += 1;\n            if (currentFundingStatus.CAT >= currentFundingStatus.DOG) {\n                currentTeam = _TEAM.CAT;\n                black = _TEAM.CAT;\n            } else {\n                currentTeam = _TEAM.DOG;\n                white = _TEAM.DOG;\n            }\n\n            emit turnStart(gameRound, currentTurn, now);\n        }\n        uint256 currentRoundEndTime = gameStartTime + (currentTurn * turnPeriod);\n        uint256 currentRoundStartTime = currentRoundEndTime - turnPeriod;\n        if (now > currentRoundEndTime) {\n            if (roundPropsedStatus[gameRound][currentTurn] != true) {\n                revert(\"Game should be cleared because previous turn isn't played\");\n            } else {\n                uint256 nextRoundEndTime = currentRoundEndTime + turnPeriod;\n                if (now > nextRoundEndTime) {\n                    revert(\"Game over\");\n                } else {\n                    currentTurn += 1;\n                    updateGame();\n                    doPropose();\n                }\n            }\n        } else if ((now < currentRoundEndTime) && (now >= currentRoundStartTime)) {\n            doPropose();\n        }\n    }\n\n    function doPropose() private {\n        User userTeam = userStatus[gameRound][msg.sender];\n        require(userTeam.team == currentTeam, \"You are not on this team\");\n        roundPropsedStatus[gameRound][currentTurn] = true;\n        if (proposals[gameRound][currentTurn][msg.sender].isExist != true) {\n            uint256 shares = msg.value / currentSharePrice;\n            require(shares >= sharesPerProposal, \"Not enough fund\");\n            proposals[gameRound][currentTurn][msg.sender].vote = shares - sharesPerProposal;\n            proposals[gameRound][currentTurn][msg.sender].isExist = true;\n            proposals[gameRound][currentTurn][msg.sender].time = now;\n            if (userTeam.team == _TEAM.CAT) {\n                userStatus[gameRound][msg.sender].ledger.CAT += shares;\n                currentFundingStatus.CAT += shares;\n            } else if (userTeam.team == _TEAM.DOG) {\n                userStatus[gameRound][msg.sender].ledger.DOG += shares;\n                currentFundingStatus.DOG += shares;\n            }\n            emit proposed(gameRound, currentTurn, msg.sender);\n        } else {\n            revert(\"You've already propsed in this turn\");\n        }\n    }\n\n    function vote(uint256 round, uint256 turn, address proposer) public payable onlyInGame {\n        require(gameRound == round, \"not in current round\");\n        require(currentTurn > 0, \"not yet started\");\n        require(turn == currentTurn, \"Not in current turn\");\n        uint256 gameStartTime = countingStartedTime + fundRaisingPeriod;\n        uint256 currentRoundEndTime = gameStartTime + (currentTurn * turnPeriod);\n        uint256 currentRoundStartTime = currentRoundEndTime - turnPeriod;\n        require((now < currentRoundEndTime) && (now >= currentRoundStartTime), \"not in round period\");\n        if (proposals[round][turn][proposer].isExist) {\n            uint256 sharesToVote = msg.value / currentSharePrice;\n            proposals[round][turn][proposer].vote += sharesToVote;\n            if (currentTeam == _TEAM.CAT) {\n                userStatus[gameRound][msg.sender].ledger.CAT += sharesToVote;\n                currentFundingStatus.CAT += sharesToVote;\n            } else if (currentTeam == _TEAM.DOG) {\n                userStatus[gameRound][msg.sender].ledger.DOG += sharesToVote;\n                currentFundingStatus.DOG += sharesToVote;\n            }\n            emit voted(gameRound, currentTurn, proposer, msg.sender, sharesToVote);\n        } else {\n            revert(\"proposal not exist\");\n        }\n    }\n\n    function updateGame() private {\n        currentTeam = (currentTeam == _TEAM.CAT) ? _TEAM.DOG : _TEAM.CAT;\n        emit turnStart(gameRound, currentTurn, now);\n    }\n\n    function clearGame() public onlyInGame {\n        // revert(\"game over!\");\n        inGame = false;\n        // distribute money\n        emit gameCleared(gameRound, msg.sender);\n\n    }\n\n    function getBoardStatus() public view returns (\n        _GRID_STATUS[]\n    ) {\n        _GRID_STATUS[] memory ret = new _GRID_STATUS[](currentSize * currentSize);\n        for (uint i = 0; i < currentSize; i++) {\n            for (uint j = 0; j < currentSize; j++) {\n                ret[(i * currentSize) + j] = boardStatus[gameRound][i][j];\n            }\n        }\n        return (ret);\n    }\n\n    function getUserStatus(address addr) public view returns (\n        bool isExist,\n        _TEAM team,\n        uint256 CAT,\n        uint256 DOG\n    ) {\n        isExist = userStatus[gameRound][addr].isExist;\n        team = userStatus[gameRound][addr].team;\n        CAT = userStatus[gameRound][addr].ledger.CAT;\n        DOG = userStatus[gameRound][addr].ledger.DOG;\n        return (isExist, team, CAT, DOG);\n    }\n    function getTeamFundingStatus() public view returns(\n        uint256 CAT,\n        uint256 DOG\n    ) {\n        CAT = currentFundingStatus.CAT;\n        DOG = currentFundingStatus.DOG;\n        return (CAT, DOG);\n    }\n\n    function getProposalStatus(uint256 round, uint256 turn, address proposer) public view returns (\n        uint256 vote,\n        uint256 time\n    ) {\n        Proposal status = proposals[round][turn][proposer];\n        if (status.isExist) {\n            return (status.vote, status.time);\n        }\n    }\n\n    function configure(\n        uint256 _size,\n        uint256 _fundRaisingPeriod,\n        uint256 _turnPeriod,\n        uint256 _baseSharePrice,\n        uint256 _shareGrowthRate,\n        uint256 _sharesPerProposal\n    ) public onlyOwner {\n        size = _size;\n        fundRaisingPeriod = _fundRaisingPeriod;\n        turnPeriod = _turnPeriod;\n        baseSharePrice = _baseSharePrice;\n        shareGrowthRate = _shareGrowthRate;\n        sharesPerProposal = _sharesPerProposal;\n    }\n\n    modifier onlyOwner() {\n        require(msg.sender == owner, \"Only owner is allowed\");\n        _;\n    }\n    modifier onlyInGame() {\n        require(inGame == true, \"Not in game period\");\n        _;\n    }\n}",
  "sourcePath": "/Users/chenwei/Desktop/github/Reversi_On_Smart_Contract_POC/contracts/Deversi.sol",
  "compiler": {
    "name": "solc",
    "version": "0.4.24+commit.e67f0147.Emscripten.clang"
  },
  "schemaVersion": "2.0.1",
  "updatedAt": "2018-10-18T08:21:02.608Z"
}